{
  "_format": "hh-sol-artifact-1",
  "contractName": "AlastriaProxy",
  "sourceName": "contracts/identity/AlastriaProxy.sol",
  "abi": [
    {
      "anonymous": false,
      "inputs": [
        {
          "indexed": true,
          "internalType": "address",
          "name": "destination",
          "type": "address"
        },
        {
          "indexed": false,
          "internalType": "uint256",
          "name": "value",
          "type": "uint256"
        },
        {
          "indexed": false,
          "internalType": "bytes",
          "name": "data",
          "type": "bytes"
        },
        {
          "indexed": false,
          "internalType": "bytes",
          "name": "result",
          "type": "bytes"
        }
      ],
      "name": "Forwarded",
      "type": "event"
    },
    {
      "anonymous": false,
      "inputs": [
        {
          "indexed": true,
          "internalType": "address",
          "name": "previousOwner",
          "type": "address"
        },
        {
          "indexed": true,
          "internalType": "address",
          "name": "newOwner",
          "type": "address"
        }
      ],
      "name": "OwnershipTransferred",
      "type": "event"
    },
    {
      "stateMutability": "nonpayable",
      "type": "fallback"
    },
    {
      "inputs": [
        {
          "internalType": "address",
          "name": "destination",
          "type": "address"
        },
        {
          "internalType": "uint256",
          "name": "value",
          "type": "uint256"
        },
        {
          "internalType": "bytes",
          "name": "data",
          "type": "bytes"
        }
      ],
      "name": "forward",
      "outputs": [
        {
          "internalType": "bytes",
          "name": "",
          "type": "bytes"
        }
      ],
      "stateMutability": "nonpayable",
      "type": "function"
    },
    {
      "inputs": [],
      "name": "owner",
      "outputs": [
        {
          "internalType": "address",
          "name": "",
          "type": "address"
        }
      ],
      "stateMutability": "view",
      "type": "function"
    },
    {
      "inputs": [],
      "name": "renounceOwnership",
      "outputs": [],
      "stateMutability": "nonpayable",
      "type": "function"
    },
    {
      "inputs": [
        {
          "internalType": "address",
          "name": "newOwner",
          "type": "address"
        }
      ],
      "name": "transferOwnership",
      "outputs": [],
      "stateMutability": "nonpayable",
      "type": "function"
    }
  ],
  "bytecode": "0x608060405234801561001057600080fd5b5061001a3361001f565b61006f565b600080546001600160a01b038381166001600160a01b0319831681178455604051919092169283917f8be0079c531659141344cd1fd0a4f28419497f9722a3daafe3b4186f6b6457e09190a35050565b6104c78061007e6000396000f3fe608060405234801561001057600080fd5b506004361061004c5760003560e01c8063715018a6146100515780638da5cb5b1461005b578063d7f31eb91461007b578063f2fde38b1461009b575b600080fd5b6100596100ae565b005b6000546040516001600160a01b0390911681526020015b60405180910390f35b61008e6100893660046102f0565b6100c2565b604051610072919061040b565b6100596100a9366004610425565b610187565b6100b6610205565b6100c0600061026e565b565b60606100cc610205565b600080856001600160a01b031685856040516100e89190610440565b60006040518083038185875af1925050503d8060008114610125576040519150601f19603f3d011682016040523d82523d6000602084013e61012a565b606091505b50915091508161013957600080fd5b856001600160a01b03167f8cd7411f6d2d65dd25e1b8e9e19f9b5b720c01622c9e25049b72837b1bbc17438686846040516101769392919061045c565b60405180910390a295945050505050565b61018f610205565b6001600160a01b0381166101f95760405162461bcd60e51b815260206004820152602660248201527f4f776e61626c653a206e6577206f776e657220697320746865207a65726f206160448201526564647265737360d01b60648201526084015b60405180910390fd5b6102028161026e565b50565b336102186000546001600160a01b031690565b6001600160a01b0316146100c05760405162461bcd60e51b815260206004820181905260248201527f4f776e61626c653a2063616c6c6572206973206e6f7420746865206f776e657260448201526064016101f0565b600080546001600160a01b038381166001600160a01b0319831681178455604051919092169283917f8be0079c531659141344cd1fd0a4f28419497f9722a3daafe3b4186f6b6457e09190a35050565b80356001600160a01b03811681146102d557600080fd5b919050565b634e487b7160e01b600052604160045260246000fd5b60008060006060848603121561030557600080fd5b61030e846102be565b925060208401359150604084013567ffffffffffffffff8082111561033257600080fd5b818601915086601f83011261034657600080fd5b813581811115610358576103586102da565b604051601f8201601f19908116603f01168101908382118183101715610380576103806102da565b8160405282815289602084870101111561039957600080fd5b8260208601602083013760006020848301015280955050505050509250925092565b60005b838110156103d65781810151838201526020016103be565b50506000910152565b600081518084526103f78160208601602086016103bb565b601f01601f19169290920160200192915050565b60208152600061041e60208301846103df565b9392505050565b60006020828403121561043757600080fd5b61041e826102be565b600082516104528184602087016103bb565b9190910192915050565b83815260606020820152600061047560608301856103df565b828103604084015261048781856103df565b969550505050505056fea264697066735822122040ca4bc670986299186d482c2aa98ddb2cfd4e313a96fac89af1fe74cc7f67f164736f6c63430008110033",
  "linkReferences": {},
  "deployedLinkReferences": {}
}