{
  "_format": "hh-sol-artifact-1",
  "contractName": "AlastriaProxy",
  "sourceName": "contracts/identity/AlastriaProxy.sol",
  "abi": [
    {
      "anonymous": false,
      "inputs": [
        {
          "indexed": true,
          "internalType": "address",
          "name": "destination",
          "type": "address"
        },
        {
          "indexed": false,
          "internalType": "uint256",
          "name": "value",
          "type": "uint256"
        },
        {
          "indexed": false,
          "internalType": "bytes",
          "name": "data",
          "type": "bytes"
        },
        {
          "indexed": false,
          "internalType": "bytes",
          "name": "result",
          "type": "bytes"
        }
      ],
      "name": "Forwarded",
      "type": "event"
    },
    {
      "anonymous": false,
      "inputs": [
        {
          "indexed": true,
          "internalType": "address",
          "name": "previousOwner",
          "type": "address"
        },
        {
          "indexed": true,
          "internalType": "address",
          "name": "newOwner",
          "type": "address"
        }
      ],
      "name": "OwnershipTransferred",
      "type": "event"
    },
    {
      "stateMutability": "nonpayable",
      "type": "fallback"
    },
    {
      "inputs": [
        {
          "internalType": "address",
          "name": "destination",
          "type": "address"
        },
        {
          "internalType": "uint256",
          "name": "value",
          "type": "uint256"
        },
        {
          "internalType": "bytes",
          "name": "data",
          "type": "bytes"
        }
      ],
      "name": "forward",
      "outputs": [
        {
          "internalType": "bytes",
          "name": "",
          "type": "bytes"
        }
      ],
      "stateMutability": "nonpayable",
      "type": "function"
    },
    {
      "inputs": [],
      "name": "owner",
      "outputs": [
        {
          "internalType": "address",
          "name": "",
          "type": "address"
        }
      ],
      "stateMutability": "view",
      "type": "function"
    },
    {
      "inputs": [],
      "name": "renounceOwnership",
      "outputs": [],
      "stateMutability": "nonpayable",
      "type": "function"
    },
    {
      "inputs": [
        {
          "internalType": "address",
          "name": "newOwner",
          "type": "address"
        }
      ],
      "name": "transferOwnership",
      "outputs": [],
      "stateMutability": "nonpayable",
      "type": "function"
    }
  ],
  "bytecode": "0x608060405234801561001057600080fd5b5061002333640100000000610028810204565b610078565b60008054600160a060020a03838116600160a060020a0319831681178455604051919092169283917f8be0079c531659141344cd1fd0a4f28419497f9722a3daafe3b4186f6b6457e09190a35050565b610554806100876000396000f3fe608060405234801561001057600080fd5b5060043610610068577c01000000000000000000000000000000000000000000000000000000006000350463715018a6811461006d5780638da5cb5b14610077578063d7f31eb914610097578063f2fde38b146100b7575b600080fd5b6100756100ca565b005b600054604051600160a060020a0390911681526020015b60405180910390f35b6100aa6100a536600461037d565b6100de565b60405161008e9190610498565b6100756100c53660046104b2565b6101a3565b6100d2610252565b6100dc60006102d5565b565b60606100e8610252565b60008085600160a060020a0316858560405161010491906104cd565b60006040518083038185875af1925050503d8060008114610141576040519150601f19603f3d011682016040523d82523d6000602084013e610146565b606091505b50915091508161015557600080fd5b85600160a060020a03167f8cd7411f6d2d65dd25e1b8e9e19f9b5b720c01622c9e25049b72837b1bbc1743868684604051610192939291906104e9565b60405180910390a295945050505050565b6101ab610252565b600160a060020a038116610246576040517f08c379a000000000000000000000000000000000000000000000000000000000815260206004820152602660248201527f4f776e61626c653a206e6577206f776e657220697320746865207a65726f206160448201527f646472657373000000000000000000000000000000000000000000000000000060648201526084015b60405180910390fd5b61024f816102d5565b50565b33610265600054600160a060020a031690565b600160a060020a0316146100dc576040517f08c379a000000000000000000000000000000000000000000000000000000000815260206004820181905260248201527f4f776e61626c653a2063616c6c6572206973206e6f7420746865206f776e6572604482015260640161023d565b60008054600160a060020a0383811673ffffffffffffffffffffffffffffffffffffffff19831681178455604051919092169283917f8be0079c531659141344cd1fd0a4f28419497f9722a3daafe3b4186f6b6457e09190a35050565b8035600160a060020a038116811461034957600080fd5b919050565b7f4e487b7100000000000000000000000000000000000000000000000000000000600052604160045260246000fd5b60008060006060848603121561039257600080fd5b61039b84610332565b925060208401359150604084013567ffffffffffffffff808211156103bf57600080fd5b818601915086601f8301126103d357600080fd5b8135818111156103e5576103e561034e565b604051601f8201601f19908116603f0116810190838211818310171561040d5761040d61034e565b8160405282815289602084870101111561042657600080fd5b8260208601602083013760006020848301015280955050505050509250925092565b60005b8381101561046357818101518382015260200161044b565b50506000910152565b60008151808452610484816020860160208601610448565b601f01601f19169290920160200192915050565b6020815260006104ab602083018461046c565b9392505050565b6000602082840312156104c457600080fd5b6104ab82610332565b600082516104df818460208701610448565b9190910192915050565b838152606060208201526000610502606083018561046c565b8281036040840152610514818561046c565b969550505050505056fea264697066735822122051545cd860a846f2ee7eff8a38def630f73236950e0b49543e9bc17c5cea84e564736f6c63430008110033",
  "linkReferences": {},
  "deployedLinkReferences": {}
}