{"contracts/identity/AlastriaIdentityServiceProvider.sol":{"AlastriaIdentityServiceProvider":{"abi":[{"inputs":[{"internalType":"address","name":"_identityServiceProvider","type":"address"}],"name":"addIdentityServiceProvider","outputs":[],"stateMutability":"nonpayable","type":"function"},{"inputs":[{"internalType":"address","name":"_identityServiceProvider","type":"address"}],"name":"deleteIdentityServiceProvider","outputs":[],"stateMutability":"nonpayable","type":"function"},{"inputs":[{"internalType":"address","name":"_identityServiceProvider","type":"address"}],"name":"isIdentityServiceProvider","outputs":[{"internalType":"bool","name":"","type":"bool"}],"stateMutability":"view","type":"function"}],"evm":{"bytecode":{"linkReferences":{},"object":"608060405234801561001057600080fd5b506101ff806100206000396000f3fe608060405234801561001057600080fd5b506004361061005d577c010000000000000000000000000000000000000000000000000000000060003504630ebbbffc81146100625780633bf4721514610077578063d024d9a41461008a575b600080fd5b61007561007036600461018c565b6100b1565b005b61007561008536600461018c565b61010b565b61009d61009836600461018c565b610161565b604051901515815260200160405180910390f35b336100bb81610161565b6100c457600080fd5b816100ce81610161565b156100d857600080fd5b505073ffffffffffffffffffffffffffffffffffffffff166000908152602081905260409020805460ff19166001179055565b8061011581610161565b61011e57600080fd5b3361012881610161565b61013157600080fd5b505073ffffffffffffffffffffffffffffffffffffffff166000908152602081905260409020805460ff19169055565b73ffffffffffffffffffffffffffffffffffffffff1660009081526020819052604090205460ff1690565b60006020828403121561019e57600080fd5b813573ffffffffffffffffffffffffffffffffffffffff811681146101c257600080fd5b939250505056fea26469706673582212205b8eefe99d30cf3c1cb4be52f4214c722c0f41cba5424d7004885affcb0728e864736f6c63430008110033","opcodes":"PUSH1 0x80 PUSH1 0x40 MSTORE CALLVALUE DUP1 ISZERO PUSH2 0x10 JUMPI PUSH1 0x0 DUP1 REVERT JUMPDEST POP PUSH2 0x1FF DUP1 PUSH2 0x20 PUSH1 0x0 CODECOPY PUSH1 0x0 RETURN INVALID PUSH1 0x80 PUSH1 0x40 MSTORE CALLVALUE DUP1 ISZERO PUSH2 0x10 JUMPI PUSH1 0x0 DUP1 REVERT JUMPDEST POP PUSH1 0x4 CALLDATASIZE LT PUSH2 0x5D JUMPI PUSH29 0x100000000000000000000000000000000000000000000000000000000 PUSH1 0x0 CALLDATALOAD DIV PUSH4 0xEBBBFFC DUP2 EQ PUSH2 0x62 JUMPI DUP1 PUSH4 0x3BF47215 EQ PUSH2 0x77 JUMPI DUP1 PUSH4 0xD024D9A4 EQ PUSH2 0x8A JUMPI JUMPDEST PUSH1 0x0 DUP1 REVERT JUMPDEST PUSH2 0x75 PUSH2 0x70 CALLDATASIZE PUSH1 0x4 PUSH2 0x18C JUMP JUMPDEST PUSH2 0xB1 JUMP JUMPDEST STOP JUMPDEST PUSH2 0x75 PUSH2 0x85 CALLDATASIZE PUSH1 0x4 PUSH2 0x18C JUMP JUMPDEST PUSH2 0x10B JUMP JUMPDEST PUSH2 0x9D PUSH2 0x98 CALLDATASIZE PUSH1 0x4 PUSH2 0x18C JUMP JUMPDEST PUSH2 0x161 JUMP JUMPDEST PUSH1 0x40 MLOAD SWAP1 ISZERO ISZERO DUP2 MSTORE PUSH1 0x20 ADD PUSH1 0x40 MLOAD DUP1 SWAP2 SUB SWAP1 RETURN JUMPDEST CALLER PUSH2 0xBB DUP2 PUSH2 0x161 JUMP JUMPDEST PUSH2 0xC4 JUMPI PUSH1 0x0 DUP1 REVERT JUMPDEST DUP2 PUSH2 0xCE DUP2 PUSH2 0x161 JUMP JUMPDEST ISZERO PUSH2 0xD8 JUMPI PUSH1 0x0 DUP1 REVERT JUMPDEST POP POP PUSH20 0xFFFFFFFFFFFFFFFFFFFFFFFFFFFFFFFFFFFFFFFF AND PUSH1 0x0 SWAP1 DUP2 MSTORE PUSH1 0x20 DUP2 SWAP1 MSTORE PUSH1 0x40 SWAP1 KECCAK256 DUP1 SLOAD PUSH1 0xFF NOT AND PUSH1 0x1 OR SWAP1 SSTORE JUMP JUMPDEST DUP1 PUSH2 0x115 DUP2 PUSH2 0x161 JUMP JUMPDEST PUSH2 0x11E JUMPI PUSH1 0x0 DUP1 REVERT JUMPDEST CALLER PUSH2 0x128 DUP2 PUSH2 0x161 JUMP JUMPDEST PUSH2 0x131 JUMPI PUSH1 0x0 DUP1 REVERT JUMPDEST POP POP PUSH20 0xFFFFFFFFFFFFFFFFFFFFFFFFFFFFFFFFFFFFFFFF AND PUSH1 0x0 SWAP1 DUP2 MSTORE PUSH1 0x20 DUP2 SWAP1 MSTORE PUSH1 0x40 SWAP1 KECCAK256 DUP1 SLOAD PUSH1 0xFF NOT AND SWAP1 SSTORE JUMP JUMPDEST PUSH20 0xFFFFFFFFFFFFFFFFFFFFFFFFFFFFFFFFFFFFFFFF AND PUSH1 0x0 SWAP1 DUP2 MSTORE PUSH1 0x20 DUP2 SWAP1 MSTORE PUSH1 0x40 SWAP1 KECCAK256 SLOAD PUSH1 0xFF AND SWAP1 JUMP JUMPDEST PUSH1 0x0 PUSH1 0x20 DUP3 DUP5 SUB SLT ISZERO PUSH2 0x19E JUMPI PUSH1 0x0 DUP1 REVERT JUMPDEST DUP2 CALLDATALOAD PUSH20 0xFFFFFFFFFFFFFFFFFFFFFFFFFFFFFFFFFFFFFFFF DUP2 AND DUP2 EQ PUSH2 0x1C2 JUMPI PUSH1 0x0 DUP1 REVERT JUMPDEST SWAP4 SWAP3 POP POP POP JUMP INVALID LOG2 PUSH5 0x6970667358 0x22 SLT KECCAK256 JUMPDEST DUP15 0xEF 0xE9 SWAP14 ADDRESS 0xCF EXTCODECOPY SHR 0xB4 0xBE MSTORE DELEGATECALL 0x21 0x4C PUSH19 0x2C0F41CBA5424D7004885AFFCB0728E864736F PUSH13 0x63430008110033000000000000 "},"methodIdentifiers":{"addIdentityServiceProvider(address)":"0ebbbffc","deleteIdentityServiceProvider(address)":"3bf47215","isIdentityServiceProvider(address)":"d024d9a4"}},"storageLayout":{"storage":[{"astId":743,"contract":"contracts/identity/AlastriaIdentityServiceProvider.sol:AlastriaIdentityServiceProvider","label":"providers","offset":0,"slot":"0","type":"t_mapping(t_address,t_bool)"}],"types":{"t_address":{"encoding":"inplace","label":"address","numberOfBytes":"20"},"t_bool":{"encoding":"inplace","label":"bool","numberOfBytes":"1"},"t_mapping(t_address,t_bool)":{"encoding":"mapping","key":"t_address","label":"mapping(address => bool)","numberOfBytes":"32","value":"t_bool"}}}}}}