{"contracts/nameService/AlastriaNameService.sol":{"AlastriaNameService":{"abi":[{"inputs":[{"internalType":"address","name":"_firstIdentity","type":"address"}],"stateMutability":"nonpayable","type":"constructor"},{"inputs":[{"internalType":"address","name":"_addressEntity","type":"address"},{"internalType":"string","name":"_name","type":"string"},{"internalType":"string","name":"_cif","type":"string"},{"internalType":"string","name":"_url_logo","type":"string"},{"internalType":"string","name":"_url_createAID","type":"string"},{"internalType":"string","name":"_url_AOA","type":"string"}],"name":"addEntity","outputs":[],"stateMutability":"nonpayable","type":"function"},{"inputs":[],"name":"cif","outputs":[{"internalType":"string","name":"","type":"string"}],"stateMutability":"view","type":"function"},{"inputs":[],"name":"entitiesList","outputs":[{"internalType":"address[]","name":"","type":"address[]"}],"stateMutability":"view","type":"function"},{"inputs":[{"internalType":"address","name":"_addressEntity","type":"address"}],"name":"getEntity","outputs":[{"internalType":"string","name":"_name","type":"string"},{"internalType":"string","name":"_cif","type":"string"},{"internalType":"string","name":"_url_logo","type":"string"},{"internalType":"string","name":"_url_createAID","type":"string"},{"internalType":"string","name":"_url_AOA","type":"string"},{"internalType":"bool","name":"_active","type":"bool"}],"stateMutability":"view","type":"function"},{"inputs":[],"name":"name","outputs":[{"internalType":"string","name":"","type":"string"}],"stateMutability":"view","type":"function"},{"inputs":[{"internalType":"address","name":"_addressEntity","type":"address"},{"internalType":"string","name":"_cif","type":"string"}],"name":"setCifEntity","outputs":[],"stateMutability":"nonpayable","type":"function"},{"inputs":[{"internalType":"address","name":"_addressEntity","type":"address"},{"internalType":"string","name":"_name","type":"string"}],"name":"setNameEntity","outputs":[],"stateMutability":"nonpayable","type":"function"},{"inputs":[{"internalType":"address","name":"_addressEntity","type":"address"},{"internalType":"string","name":"_url_AOA","type":"string"}],"name":"setUrlAOA","outputs":[],"stateMutability":"nonpayable","type":"function"},{"inputs":[{"internalType":"address","name":"_addressEntity","type":"address"},{"internalType":"string","name":"_url_createAID","type":"string"}],"name":"setUrlCreateAID","outputs":[],"stateMutability":"nonpayable","type":"function"},{"inputs":[{"internalType":"address","name":"_addressEntity","type":"address"},{"internalType":"string","name":"_url_logo","type":"string"}],"name":"setUrlLogo","outputs":[],"stateMutability":"nonpayable","type":"function"},{"inputs":[],"name":"url_AOA","outputs":[{"internalType":"string","name":"","type":"string"}],"stateMutability":"view","type":"function"},{"inputs":[],"name":"url_createAID","outputs":[{"internalType":"string","name":"","type":"string"}],"stateMutability":"view","type":"function"},{"inputs":[],"name":"url_logo","outputs":[{"internalType":"string","name":"","type":"string"}],"stateMutability":"view","type":"function"}],"evm":{"bytecode":{"linkReferences":{},"object":"60c0604052601160809081527f66697273744964656e746974792d63696600000000000000000000000000000060a0526000906200003e908262000691565b5060408051808201909152601681527f66697273744964656e746974792d75726c5f6c6f676f00000000000000000000602082015260019062000082908262000691565b5060408051808201909152601b81527f66697273744964656e746974792d75726c5f63726561746541494400000000006020820152600290620000c6908262000691565b5060408051808201909152601581527f66697273744964656e746974792d75726c5f414f41000000000000000000000060208201526003906200010a908262000691565b5060408051808201909152600d81527f66697273746964656e746974790000000000000000000000000000000000000060208201526004906200014e908262000691565b503480156200015c57600080fd5b506040516200165e3803806200165e8339810160408190526200017f9162000764565b6200047a81600480546200019390620005e9565b80601f0160208091040260200160405190810160405280929190818152602001828054620001c190620005e9565b8015620002125780601f10620001e65761010080835404028352916020019162000212565b820191906000526020600020905b815481529060010190602001808311620001f457829003601f168201915b5050505050600080546200022690620005e9565b80601f01602080910402602001604051908101604052809291908181526020018280546200025490620005e9565b8015620002a55780601f106200027957610100808354040283529160200191620002a5565b820191906000526020600020905b8154815290600101906020018083116200028757829003601f168201915b505050505060018054620002b990620005e9565b80601f0160208091040260200160405190810160405280929190818152602001828054620002e790620005e9565b8015620003385780601f106200030c5761010080835404028352916020019162000338565b820191906000526020600020905b8154815290600101906020018083116200031a57829003601f168201915b5050505050600280546200034c90620005e9565b80601f01602080910402602001604051908101604052809291908181526020018280546200037a90620005e9565b8015620003cb5780601f106200039f57610100808354040283529160200191620003cb565b820191906000526020600020905b815481529060010190602001808311620003ad57829003601f168201915b505050505060038054620003df90620005e9565b80601f01602080910402602001604051908101604052809291908181526020018280546200040d90620005e9565b80156200045e5780601f1062000432576101008083540402835291602001916200045e565b820191906000526020600020905b8154815290600101906020018083116200044057829003601f168201915b5050505050600162000481640100000000026401000000009004565b5062000796565b60068054600181019091557ff652222313e28459528d920b65115c16c04f3efc82aaedc97be59f3f377c0d3f018054600160a060020a031916600160a060020a0389169081179091556000908152600560205260409020620004e4878262000691565b50600160a060020a03871660009081526005602052604090206001016200050c868262000691565b50600160a060020a038716600090815260056020526040902060020162000534858262000691565b50600160a060020a03871660009081526005602052604090206003016200055c848262000691565b50600160a060020a038716600090815260056020526040902060040162000584838262000691565b50600160a060020a0396909616600090815260056020819052604090912001805460ff1916961515969096179095555050505050565b7f4e487b7100000000000000000000000000000000000000000000000000000000600052604160045260246000fd5b600281046001821680620005fe57607f821691505b60208210810362000638577f4e487b7100000000000000000000000000000000000000000000000000000000600052602260045260246000fd5b50919050565b601f8211156200068c576000818152602081206020601f86010481016020861015620006675750805b6020601f860104820191505b81811015620006885782815560010162000673565b5050505b505050565b815167ffffffffffffffff811115620006ae57620006ae620005ba565b620006c681620006bf8454620005e9565b846200063e565b602080601f831160018114620007025760008415620006e55750858301515b60028086026008870290910a600019041982161786555062000688565b600085815260208120601f198616915b82811015620007335788860151825594840194600190910190840162000712565b50858210156200075457878501516008601f88160260020a60001904191681555b5050505050600202600101905550565b6000602082840312156200077757600080fd5b8151600160a060020a03811681146200078f57600080fd5b9392505050565b610eb880620007a66000396000f3fe608060405234801561001057600080fd5b50600436106100ec576000357c010000000000000000000000000000000000000000000000000000000090048063500bebf3116100a95780637f35d729116100835780637f35d729146101a75780638e672cf7146101af578063bf039d43146101c2578063eb5c426c146101ca57600080fd5b8063500bebf3146101655780636e7a216b1461016d57806375894e8c1461018257600080fd5b806306fdde03146100f15780630ff72ef21461010f5780631252a083146101245780631e5f6f01146101375780633bdf88631461014a5780634b7a185914610152575b600080fd5b6100f96101dd565b6040516101069190610a1a565b60405180910390f35b61012261011d366004610b0c565b61026b565b005b610122610132366004610b5a565b6102c6565b610122610145366004610b0c565b610331565b6100f9610386565b610122610160366004610b0c565b610393565b6100f96103e8565b6101756103f5565b6040516101069190610c3b565b610195610190366004610c88565b610457565b60405161010696959493929190610ca3565b6100f96107d7565b6101226101bd366004610b0c565b6107e4565b6100f9610839565b6101226101d8366004610b0c565b610846565b600480546101ea90610d1a565b80601f016020809104026020016040519081016040528092919081815260200182805461021690610d1a565b80156102635780601f1061023857610100808354040283529160200191610263565b820191906000526020600020905b81548152906001019060200180831161024657829003601f168201915b505050505081565b600160a060020a03821660009081526005602081905260409091200154829060ff16151560011461029b57600080fd5b600160a060020a03831660009081526005602052604090206002016102c08382610dbc565b50505050565b600160a060020a03861660009081526005602081905260409091200154869060ff16156102f257600080fd5b336000818152600560208190526040909120015460ff16151560011461031757600080fd5b6103278888888888886001610898565b5050505050505050565b600160a060020a03821660009081526005602081905260409091200154829060ff16151560011461036157600080fd5b600160a060020a03831660009081526005602052604090206001016102c08382610dbc565b600280546101ea90610d1a565b600160a060020a03821660009081526005602081905260409091200154829060ff1615156001146103c357600080fd5b600160a060020a03831660009081526005602052604090206003016102c08382610dbc565b600180546101ea90610d1a565b6060600680548060200260200160405190810160405280929190818152602001828054801561044d57602002820191906000526020600020905b8154600160a060020a0316815260019091019060200180831161042f575b5050505050905090565b600160a060020a038116600090815260056020526040812080546060928392839283928392909161048790610d1a565b80601f01602080910402602001604051908101604052809291908181526020018280546104b390610d1a565b80156105005780601f106104d557610100808354040283529160200191610500565b820191906000526020600020905b8154815290600101906020018083116104e357829003601f168201915b50505050600160a060020a038916600090815260056020526040902060010180549298509161052f9150610d1a565b80601f016020809104026020016040519081016040528092919081815260200182805461055b90610d1a565b80156105a85780601f1061057d576101008083540402835291602001916105a8565b820191906000526020600020905b81548152906001019060200180831161058b57829003601f168201915b50505050600160a060020a03891660009081526005602052604090206002018054929750916105d79150610d1a565b80601f016020809104026020016040519081016040528092919081815260200182805461060390610d1a565b80156106505780601f1061062557610100808354040283529160200191610650565b820191906000526020600020905b81548152906001019060200180831161063357829003601f168201915b50505050600160a060020a038916600090815260056020526040902060030180549296509161067f9150610d1a565b80601f01602080910402602001604051908101604052809291908181526020018280546106ab90610d1a565b80156106f85780601f106106cd576101008083540402835291602001916106f8565b820191906000526020600020905b8154815290600101906020018083116106db57829003601f168201915b50505050600160a060020a03891660009081526005602052604090206004018054929550916107279150610d1a565b80601f016020809104026020016040519081016040528092919081815260200182805461075390610d1a565b80156107a05780601f10610775576101008083540402835291602001916107a0565b820191906000526020600020905b81548152906001019060200180831161078357829003601f168201915b50505050600160a060020a03989098166000908152600560208190526040909120015496989597509395929460ff90931692915050565b600080546101ea90610d1a565b600160a060020a03821660009081526005602081905260409091200154829060ff16151560011461081457600080fd5b600160a060020a03831660009081526005602052604090206004016102c08382610dbc565b600380546101ea90610d1a565b600160a060020a03821660009081526005602081905260409091200154829060ff16151560011461087657600080fd5b600160a060020a03831660009081526005602052604090206102c08382610dbc565b60068054600181019091557ff652222313e28459528d920b65115c16c04f3efc82aaedc97be59f3f377c0d3f01805473ffffffffffffffffffffffffffffffffffffffff1916600160a060020a03891690811790915560009081526005602052604090206109068782610dbc565b50600160a060020a038716600090815260056020526040902060010161092c8682610dbc565b50600160a060020a03871660009081526005602052604090206002016109528582610dbc565b50600160a060020a03871660009081526005602052604090206003016109788482610dbc565b50600160a060020a038716600090815260056020526040902060040161099e8382610dbc565b50600160a060020a0396909616600090815260056020819052604090912001805460ff1916961515969096179095555050505050565b6000815180845260005b818110156109fa576020818501810151868301820152016109de565b506000602082860101526020601f19601f83011685010191505092915050565b602081526000610a2d60208301846109d4565b9392505050565b8035600160a060020a0381168114610a4b57600080fd5b919050565b7f4e487b7100000000000000000000000000000000000000000000000000000000600052604160045260246000fd5b600082601f830112610a9057600080fd5b813567ffffffffffffffff80821115610aab57610aab610a50565b604051601f8301601f19908116603f01168101908282118183101715610ad357610ad3610a50565b81604052838152866020858801011115610aec57600080fd5b836020870160208301376000602085830101528094505050505092915050565b60008060408385031215610b1f57600080fd5b610b2883610a34565b9150602083013567ffffffffffffffff811115610b4457600080fd5b610b5085828601610a7f565b9150509250929050565b60008060008060008060c08789031215610b7357600080fd5b610b7c87610a34565b9550602087013567ffffffffffffffff80821115610b9957600080fd5b610ba58a838b01610a7f565b96506040890135915080821115610bbb57600080fd5b610bc78a838b01610a7f565b95506060890135915080821115610bdd57600080fd5b610be98a838b01610a7f565b94506080890135915080821115610bff57600080fd5b610c0b8a838b01610a7f565b935060a0890135915080821115610c2157600080fd5b50610c2e89828a01610a7f565b9150509295509295509295565b6020808252825182820181905260009190848201906040850190845b81811015610c7c578351600160a060020a031683529284019291840191600101610c57565b50909695505050505050565b600060208284031215610c9a57600080fd5b610a2d82610a34565b60c081526000610cb660c08301896109d4565b8281036020840152610cc881896109d4565b90508281036040840152610cdc81886109d4565b90508281036060840152610cf081876109d4565b90508281036080840152610d0481866109d4565b91505082151560a0830152979650505050505050565b600281046001821680610d2e57607f821691505b602082108103610d67577f4e487b7100000000000000000000000000000000000000000000000000000000600052602260045260246000fd5b50919050565b601f821115610db7576000818152602081206020601f86010481016020861015610d945750805b6020601f860104820191505b81811015610db357828155600101610da0565b5050505b505050565b815167ffffffffffffffff811115610dd657610dd6610a50565b610dea81610de48454610d1a565b84610d6d565b602080601f831160018114610e235760008415610e075750858301515b60028086026008870290910a6000190419821617865550610db3565b600085815260208120601f198616915b82811015610e5257888601518255948401946001909101908401610e33565b5085821015610e7257878501516008601f88160260020a60001904191681555b505050505060020260010190555056fea26469706673582212200036df3deb0eebd5e3090ff74646b3d7272923e592dc2230cfc4d04a61b008cd64736f6c63430008110033","opcodes":"PUSH1 0xC0 PUSH1 0x40 MSTORE PUSH1 0x11 PUSH1 0x80 SWAP1 DUP2 MSTORE PUSH32 0x66697273744964656E746974792D636966000000000000000000000000000000 PUSH1 0xA0 MSTORE PUSH1 0x0 SWAP1 PUSH3 0x3E SWAP1 DUP3 PUSH3 0x691 JUMP JUMPDEST POP PUSH1 0x40 DUP1 MLOAD DUP1 DUP3 ADD SWAP1 SWAP2 MSTORE PUSH1 0x16 DUP2 MSTORE PUSH32 0x66697273744964656E746974792D75726C5F6C6F676F00000000000000000000 PUSH1 0x20 DUP3 ADD MSTORE PUSH1 0x1 SWAP1 PUSH3 0x82 SWAP1 DUP3 PUSH3 0x691 JUMP JUMPDEST POP PUSH1 0x40 DUP1 MLOAD DUP1 DUP3 ADD SWAP1 SWAP2 MSTORE PUSH1 0x1B DUP2 MSTORE PUSH32 0x66697273744964656E746974792D75726C5F6372656174654149440000000000 PUSH1 0x20 DUP3 ADD MSTORE PUSH1 0x2 SWAP1 PUSH3 0xC6 SWAP1 DUP3 PUSH3 0x691 JUMP JUMPDEST POP PUSH1 0x40 DUP1 MLOAD DUP1 DUP3 ADD SWAP1 SWAP2 MSTORE PUSH1 0x15 DUP2 MSTORE PUSH32 0x66697273744964656E746974792D75726C5F414F410000000000000000000000 PUSH1 0x20 DUP3 ADD MSTORE PUSH1 0x3 SWAP1 PUSH3 0x10A SWAP1 DUP3 PUSH3 0x691 JUMP JUMPDEST POP PUSH1 0x40 DUP1 MLOAD DUP1 DUP3 ADD SWAP1 SWAP2 MSTORE PUSH1 0xD DUP2 MSTORE PUSH32 0x66697273746964656E7469747900000000000000000000000000000000000000 PUSH1 0x20 DUP3 ADD MSTORE PUSH1 0x4 SWAP1 PUSH3 0x14E SWAP1 DUP3 PUSH3 0x691 JUMP JUMPDEST POP CALLVALUE DUP1 ISZERO PUSH3 0x15C JUMPI PUSH1 0x0 DUP1 REVERT JUMPDEST POP PUSH1 0x40 MLOAD PUSH3 0x165E CODESIZE SUB DUP1 PUSH3 0x165E DUP4 CODECOPY DUP2 ADD PUSH1 0x40 DUP2 SWAP1 MSTORE PUSH3 0x17F SWAP2 PUSH3 0x764 JUMP JUMPDEST PUSH3 0x47A DUP2 PUSH1 0x4 DUP1 SLOAD PUSH3 0x193 SWAP1 PUSH3 0x5E9 JUMP JUMPDEST DUP1 PUSH1 0x1F ADD PUSH1 0x20 DUP1 SWAP2 DIV MUL PUSH1 0x20 ADD PUSH1 0x40 MLOAD SWAP1 DUP2 ADD PUSH1 0x40 MSTORE DUP1 SWAP3 SWAP2 SWAP1 DUP2 DUP2 MSTORE PUSH1 0x20 ADD DUP3 DUP1 SLOAD PUSH3 0x1C1 SWAP1 PUSH3 0x5E9 JUMP JUMPDEST DUP1 ISZERO PUSH3 0x212 JUMPI DUP1 PUSH1 0x1F LT PUSH3 0x1E6 JUMPI PUSH2 0x100 DUP1 DUP4 SLOAD DIV MUL DUP4 MSTORE SWAP2 PUSH1 0x20 ADD SWAP2 PUSH3 0x212 JUMP JUMPDEST DUP3 ADD SWAP2 SWAP1 PUSH1 0x0 MSTORE PUSH1 0x20 PUSH1 0x0 KECCAK256 SWAP1 JUMPDEST DUP2 SLOAD DUP2 MSTORE SWAP1 PUSH1 0x1 ADD SWAP1 PUSH1 0x20 ADD DUP1 DUP4 GT PUSH3 0x1F4 JUMPI DUP3 SWAP1 SUB PUSH1 0x1F AND DUP3 ADD SWAP2 JUMPDEST POP POP POP POP POP PUSH1 0x0 DUP1 SLOAD PUSH3 0x226 SWAP1 PUSH3 0x5E9 JUMP JUMPDEST DUP1 PUSH1 0x1F ADD PUSH1 0x20 DUP1 SWAP2 DIV MUL PUSH1 0x20 ADD PUSH1 0x40 MLOAD SWAP1 DUP2 ADD PUSH1 0x40 MSTORE DUP1 SWAP3 SWAP2 SWAP1 DUP2 DUP2 MSTORE PUSH1 0x20 ADD DUP3 DUP1 SLOAD PUSH3 0x254 SWAP1 PUSH3 0x5E9 JUMP JUMPDEST DUP1 ISZERO PUSH3 0x2A5 JUMPI DUP1 PUSH1 0x1F LT PUSH3 0x279 JUMPI PUSH2 0x100 DUP1 DUP4 SLOAD DIV MUL DUP4 MSTORE SWAP2 PUSH1 0x20 ADD SWAP2 PUSH3 0x2A5 JUMP JUMPDEST DUP3 ADD SWAP2 SWAP1 PUSH1 0x0 MSTORE PUSH1 0x20 PUSH1 0x0 KECCAK256 SWAP1 JUMPDEST DUP2 SLOAD DUP2 MSTORE SWAP1 PUSH1 0x1 ADD SWAP1 PUSH1 0x20 ADD DUP1 DUP4 GT PUSH3 0x287 JUMPI DUP3 SWAP1 SUB PUSH1 0x1F AND DUP3 ADD SWAP2 JUMPDEST POP POP POP POP POP PUSH1 0x1 DUP1 SLOAD PUSH3 0x2B9 SWAP1 PUSH3 0x5E9 JUMP JUMPDEST DUP1 PUSH1 0x1F ADD PUSH1 0x20 DUP1 SWAP2 DIV MUL PUSH1 0x20 ADD PUSH1 0x40 MLOAD SWAP1 DUP2 ADD PUSH1 0x40 MSTORE DUP1 SWAP3 SWAP2 SWAP1 DUP2 DUP2 MSTORE PUSH1 0x20 ADD DUP3 DUP1 SLOAD PUSH3 0x2E7 SWAP1 PUSH3 0x5E9 JUMP JUMPDEST DUP1 ISZERO PUSH3 0x338 JUMPI DUP1 PUSH1 0x1F LT PUSH3 0x30C JUMPI PUSH2 0x100 DUP1 DUP4 SLOAD DIV MUL DUP4 MSTORE SWAP2 PUSH1 0x20 ADD SWAP2 PUSH3 0x338 JUMP JUMPDEST DUP3 ADD SWAP2 SWAP1 PUSH1 0x0 MSTORE PUSH1 0x20 PUSH1 0x0 KECCAK256 SWAP1 JUMPDEST DUP2 SLOAD DUP2 MSTORE SWAP1 PUSH1 0x1 ADD SWAP1 PUSH1 0x20 ADD DUP1 DUP4 GT PUSH3 0x31A JUMPI DUP3 SWAP1 SUB PUSH1 0x1F AND DUP3 ADD SWAP2 JUMPDEST POP POP POP POP POP PUSH1 0x2 DUP1 SLOAD PUSH3 0x34C SWAP1 PUSH3 0x5E9 JUMP JUMPDEST DUP1 PUSH1 0x1F ADD PUSH1 0x20 DUP1 SWAP2 DIV MUL PUSH1 0x20 ADD PUSH1 0x40 MLOAD SWAP1 DUP2 ADD PUSH1 0x40 MSTORE DUP1 SWAP3 SWAP2 SWAP1 DUP2 DUP2 MSTORE PUSH1 0x20 ADD DUP3 DUP1 SLOAD PUSH3 0x37A SWAP1 PUSH3 0x5E9 JUMP JUMPDEST DUP1 ISZERO PUSH3 0x3CB JUMPI DUP1 PUSH1 0x1F LT PUSH3 0x39F JUMPI PUSH2 0x100 DUP1 DUP4 SLOAD DIV MUL DUP4 MSTORE SWAP2 PUSH1 0x20 ADD SWAP2 PUSH3 0x3CB JUMP JUMPDEST DUP3 ADD SWAP2 SWAP1 PUSH1 0x0 MSTORE PUSH1 0x20 PUSH1 0x0 KECCAK256 SWAP1 JUMPDEST DUP2 SLOAD DUP2 MSTORE SWAP1 PUSH1 0x1 ADD SWAP1 PUSH1 0x20 ADD DUP1 DUP4 GT PUSH3 0x3AD JUMPI DUP3 SWAP1 SUB PUSH1 0x1F AND DUP3 ADD SWAP2 JUMPDEST POP POP POP POP POP PUSH1 0x3 DUP1 SLOAD PUSH3 0x3DF SWAP1 PUSH3 0x5E9 JUMP JUMPDEST DUP1 PUSH1 0x1F ADD PUSH1 0x20 DUP1 SWAP2 DIV MUL PUSH1 0x20 ADD PUSH1 0x40 MLOAD SWAP1 DUP2 ADD PUSH1 0x40 MSTORE DUP1 SWAP3 SWAP2 SWAP1 DUP2 DUP2 MSTORE PUSH1 0x20 ADD DUP3 DUP1 SLOAD PUSH3 0x40D SWAP1 PUSH3 0x5E9 JUMP JUMPDEST DUP1 ISZERO PUSH3 0x45E JUMPI DUP1 PUSH1 0x1F LT PUSH3 0x432 JUMPI PUSH2 0x100 DUP1 DUP4 SLOAD DIV MUL DUP4 MSTORE SWAP2 PUSH1 0x20 ADD SWAP2 PUSH3 0x45E JUMP JUMPDEST DUP3 ADD SWAP2 SWAP1 PUSH1 0x0 MSTORE PUSH1 0x20 PUSH1 0x0 KECCAK256 SWAP1 JUMPDEST DUP2 SLOAD DUP2 MSTORE SWAP1 PUSH1 0x1 ADD SWAP1 PUSH1 0x20 ADD DUP1 DUP4 GT PUSH3 0x440 JUMPI DUP3 SWAP1 SUB PUSH1 0x1F AND DUP3 ADD SWAP2 JUMPDEST POP POP POP POP POP PUSH1 0x1 PUSH3 0x481 PUSH5 0x100000000 MUL PUSH5 0x100000000 SWAP1 DIV JUMP JUMPDEST POP PUSH3 0x796 JUMP JUMPDEST PUSH1 0x6 DUP1 SLOAD PUSH1 0x1 DUP2 ADD SWAP1 SWAP2 SSTORE PUSH32 0xF652222313E28459528D920B65115C16C04F3EFC82AAEDC97BE59F3F377C0D3F ADD DUP1 SLOAD PUSH1 0x1 PUSH1 0xA0 PUSH1 0x2 EXP SUB NOT AND PUSH1 0x1 PUSH1 0xA0 PUSH1 0x2 EXP SUB DUP10 AND SWAP1 DUP2 OR SWAP1 SWAP2 SSTORE PUSH1 0x0 SWAP1 DUP2 MSTORE PUSH1 0x5 PUSH1 0x20 MSTORE PUSH1 0x40 SWAP1 KECCAK256 PUSH3 0x4E4 DUP8 DUP3 PUSH3 0x691 JUMP JUMPDEST POP PUSH1 0x1 PUSH1 0xA0 PUSH1 0x2 EXP SUB DUP8 AND PUSH1 0x0 SWAP1 DUP2 MSTORE PUSH1 0x5 PUSH1 0x20 MSTORE PUSH1 0x40 SWAP1 KECCAK256 PUSH1 0x1 ADD PUSH3 0x50C DUP7 DUP3 PUSH3 0x691 JUMP JUMPDEST POP PUSH1 0x1 PUSH1 0xA0 PUSH1 0x2 EXP SUB DUP8 AND PUSH1 0x0 SWAP1 DUP2 MSTORE PUSH1 0x5 PUSH1 0x20 MSTORE PUSH1 0x40 SWAP1 KECCAK256 PUSH1 0x2 ADD PUSH3 0x534 DUP6 DUP3 PUSH3 0x691 JUMP JUMPDEST POP PUSH1 0x1 PUSH1 0xA0 PUSH1 0x2 EXP SUB DUP8 AND PUSH1 0x0 SWAP1 DUP2 MSTORE PUSH1 0x5 PUSH1 0x20 MSTORE PUSH1 0x40 SWAP1 KECCAK256 PUSH1 0x3 ADD PUSH3 0x55C DUP5 DUP3 PUSH3 0x691 JUMP JUMPDEST POP PUSH1 0x1 PUSH1 0xA0 PUSH1 0x2 EXP SUB DUP8 AND PUSH1 0x0 SWAP1 DUP2 MSTORE PUSH1 0x5 PUSH1 0x20 MSTORE PUSH1 0x40 SWAP1 KECCAK256 PUSH1 0x4 ADD PUSH3 0x584 DUP4 DUP3 PUSH3 0x691 JUMP JUMPDEST POP PUSH1 0x1 PUSH1 0xA0 PUSH1 0x2 EXP SUB SWAP7 SWAP1 SWAP7 AND PUSH1 0x0 SWAP1 DUP2 MSTORE PUSH1 0x5 PUSH1 0x20 DUP2 SWAP1 MSTORE PUSH1 0x40 SWAP1 SWAP2 KECCAK256 ADD DUP1 SLOAD PUSH1 0xFF NOT AND SWAP7 ISZERO ISZERO SWAP7 SWAP1 SWAP7 OR SWAP1 SWAP6 SSTORE POP POP POP POP POP JUMP JUMPDEST PUSH32 0x4E487B7100000000000000000000000000000000000000000000000000000000 PUSH1 0x0 MSTORE PUSH1 0x41 PUSH1 0x4 MSTORE PUSH1 0x24 PUSH1 0x0 REVERT JUMPDEST PUSH1 0x2 DUP2 DIV PUSH1 0x1 DUP3 AND DUP1 PUSH3 0x5FE JUMPI PUSH1 0x7F DUP3 AND SWAP2 POP JUMPDEST PUSH1 0x20 DUP3 LT DUP2 SUB PUSH3 0x638 JUMPI PUSH32 0x4E487B7100000000000000000000000000000000000000000000000000000000 PUSH1 0x0 MSTORE PUSH1 0x22 PUSH1 0x4 MSTORE PUSH1 0x24 PUSH1 0x0 REVERT JUMPDEST POP SWAP2 SWAP1 POP JUMP JUMPDEST PUSH1 0x1F DUP3 GT ISZERO PUSH3 0x68C JUMPI PUSH1 0x0 DUP2 DUP2 MSTORE PUSH1 0x20 DUP2 KECCAK256 PUSH1 0x20 PUSH1 0x1F DUP7 ADD DIV DUP2 ADD PUSH1 0x20 DUP7 LT ISZERO PUSH3 0x667 JUMPI POP DUP1 JUMPDEST PUSH1 0x20 PUSH1 0x1F DUP7 ADD DIV DUP3 ADD SWAP2 POP JUMPDEST DUP2 DUP2 LT ISZERO PUSH3 0x688 JUMPI DUP3 DUP2 SSTORE PUSH1 0x1 ADD PUSH3 0x673 JUMP JUMPDEST POP POP POP JUMPDEST POP POP POP JUMP JUMPDEST DUP2 MLOAD PUSH8 0xFFFFFFFFFFFFFFFF DUP2 GT ISZERO PUSH3 0x6AE JUMPI PUSH3 0x6AE PUSH3 0x5BA JUMP JUMPDEST PUSH3 0x6C6 DUP2 PUSH3 0x6BF DUP5 SLOAD PUSH3 0x5E9 JUMP JUMPDEST DUP5 PUSH3 0x63E JUMP JUMPDEST PUSH1 0x20 DUP1 PUSH1 0x1F DUP4 GT PUSH1 0x1 DUP2 EQ PUSH3 0x702 JUMPI PUSH1 0x0 DUP5 ISZERO PUSH3 0x6E5 JUMPI POP DUP6 DUP4 ADD MLOAD JUMPDEST PUSH1 0x2 DUP1 DUP7 MUL PUSH1 0x8 DUP8 MUL SWAP1 SWAP2 EXP PUSH1 0x0 NOT DIV NOT DUP3 AND OR DUP7 SSTORE POP PUSH3 0x688 JUMP JUMPDEST PUSH1 0x0 DUP6 DUP2 MSTORE PUSH1 0x20 DUP2 KECCAK256 PUSH1 0x1F NOT DUP7 AND SWAP2 JUMPDEST DUP3 DUP2 LT ISZERO PUSH3 0x733 JUMPI DUP9 DUP7 ADD MLOAD DUP3 SSTORE SWAP5 DUP5 ADD SWAP5 PUSH1 0x1 SWAP1 SWAP2 ADD SWAP1 DUP5 ADD PUSH3 0x712 JUMP JUMPDEST POP DUP6 DUP3 LT ISZERO PUSH3 0x754 JUMPI DUP8 DUP6 ADD MLOAD PUSH1 0x8 PUSH1 0x1F DUP9 AND MUL PUSH1 0x2 EXP PUSH1 0x0 NOT DIV NOT AND DUP2 SSTORE JUMPDEST POP POP POP POP POP PUSH1 0x2 MUL PUSH1 0x1 ADD SWAP1 SSTORE POP JUMP JUMPDEST PUSH1 0x0 PUSH1 0x20 DUP3 DUP5 SUB SLT ISZERO PUSH3 0x777 JUMPI PUSH1 0x0 DUP1 REVERT JUMPDEST DUP2 MLOAD PUSH1 0x1 PUSH1 0xA0 PUSH1 0x2 EXP SUB DUP2 AND DUP2 EQ PUSH3 0x78F JUMPI PUSH1 0x0 DUP1 REVERT JUMPDEST SWAP4 SWAP3 POP POP POP JUMP JUMPDEST PUSH2 0xEB8 DUP1 PUSH3 0x7A6 PUSH1 0x0 CODECOPY PUSH1 0x0 RETURN INVALID PUSH1 0x80 PUSH1 0x40 MSTORE CALLVALUE DUP1 ISZERO PUSH2 0x10 JUMPI PUSH1 0x0 DUP1 REVERT JUMPDEST POP PUSH1 0x4 CALLDATASIZE LT PUSH2 0xEC JUMPI PUSH1 0x0 CALLDATALOAD PUSH29 0x100000000000000000000000000000000000000000000000000000000 SWAP1 DIV DUP1 PUSH4 0x500BEBF3 GT PUSH2 0xA9 JUMPI DUP1 PUSH4 0x7F35D729 GT PUSH2 0x83 JUMPI DUP1 PUSH4 0x7F35D729 EQ PUSH2 0x1A7 JUMPI DUP1 PUSH4 0x8E672CF7 EQ PUSH2 0x1AF JUMPI DUP1 PUSH4 0xBF039D43 EQ PUSH2 0x1C2 JUMPI DUP1 PUSH4 0xEB5C426C EQ PUSH2 0x1CA JUMPI PUSH1 0x0 DUP1 REVERT JUMPDEST DUP1 PUSH4 0x500BEBF3 EQ PUSH2 0x165 JUMPI DUP1 PUSH4 0x6E7A216B EQ PUSH2 0x16D JUMPI DUP1 PUSH4 0x75894E8C EQ PUSH2 0x182 JUMPI PUSH1 0x0 DUP1 REVERT JUMPDEST DUP1 PUSH4 0x6FDDE03 EQ PUSH2 0xF1 JUMPI DUP1 PUSH4 0xFF72EF2 EQ PUSH2 0x10F JUMPI DUP1 PUSH4 0x1252A083 EQ PUSH2 0x124 JUMPI DUP1 PUSH4 0x1E5F6F01 EQ PUSH2 0x137 JUMPI DUP1 PUSH4 0x3BDF8863 EQ PUSH2 0x14A JUMPI DUP1 PUSH4 0x4B7A1859 EQ PUSH2 0x152 JUMPI JUMPDEST PUSH1 0x0 DUP1 REVERT JUMPDEST PUSH2 0xF9 PUSH2 0x1DD JUMP JUMPDEST PUSH1 0x40 MLOAD PUSH2 0x106 SWAP2 SWAP1 PUSH2 0xA1A JUMP JUMPDEST PUSH1 0x40 MLOAD DUP1 SWAP2 SUB SWAP1 RETURN JUMPDEST PUSH2 0x122 PUSH2 0x11D CALLDATASIZE PUSH1 0x4 PUSH2 0xB0C JUMP JUMPDEST PUSH2 0x26B JUMP JUMPDEST STOP JUMPDEST PUSH2 0x122 PUSH2 0x132 CALLDATASIZE PUSH1 0x4 PUSH2 0xB5A JUMP JUMPDEST PUSH2 0x2C6 JUMP JUMPDEST PUSH2 0x122 PUSH2 0x145 CALLDATASIZE PUSH1 0x4 PUSH2 0xB0C JUMP JUMPDEST PUSH2 0x331 JUMP JUMPDEST PUSH2 0xF9 PUSH2 0x386 JUMP JUMPDEST PUSH2 0x122 PUSH2 0x160 CALLDATASIZE PUSH1 0x4 PUSH2 0xB0C JUMP JUMPDEST PUSH2 0x393 JUMP JUMPDEST PUSH2 0xF9 PUSH2 0x3E8 JUMP JUMPDEST PUSH2 0x175 PUSH2 0x3F5 JUMP JUMPDEST PUSH1 0x40 MLOAD PUSH2 0x106 SWAP2 SWAP1 PUSH2 0xC3B JUMP JUMPDEST PUSH2 0x195 PUSH2 0x190 CALLDATASIZE PUSH1 0x4 PUSH2 0xC88 JUMP JUMPDEST PUSH2 0x457 JUMP JUMPDEST PUSH1 0x40 MLOAD PUSH2 0x106 SWAP7 SWAP6 SWAP5 SWAP4 SWAP3 SWAP2 SWAP1 PUSH2 0xCA3 JUMP JUMPDEST PUSH2 0xF9 PUSH2 0x7D7 JUMP JUMPDEST PUSH2 0x122 PUSH2 0x1BD CALLDATASIZE PUSH1 0x4 PUSH2 0xB0C JUMP JUMPDEST PUSH2 0x7E4 JUMP JUMPDEST PUSH2 0xF9 PUSH2 0x839 JUMP JUMPDEST PUSH2 0x122 PUSH2 0x1D8 CALLDATASIZE PUSH1 0x4 PUSH2 0xB0C JUMP JUMPDEST PUSH2 0x846 JUMP JUMPDEST PUSH1 0x4 DUP1 SLOAD PUSH2 0x1EA SWAP1 PUSH2 0xD1A JUMP JUMPDEST DUP1 PUSH1 0x1F ADD PUSH1 0x20 DUP1 SWAP2 DIV MUL PUSH1 0x20 ADD PUSH1 0x40 MLOAD SWAP1 DUP2 ADD PUSH1 0x40 MSTORE DUP1 SWAP3 SWAP2 SWAP1 DUP2 DUP2 MSTORE PUSH1 0x20 ADD DUP3 DUP1 SLOAD PUSH2 0x216 SWAP1 PUSH2 0xD1A JUMP JUMPDEST DUP1 ISZERO PUSH2 0x263 JUMPI DUP1 PUSH1 0x1F LT PUSH2 0x238 JUMPI PUSH2 0x100 DUP1 DUP4 SLOAD DIV MUL DUP4 MSTORE SWAP2 PUSH1 0x20 ADD SWAP2 PUSH2 0x263 JUMP JUMPDEST DUP3 ADD SWAP2 SWAP1 PUSH1 0x0 MSTORE PUSH1 0x20 PUSH1 0x0 KECCAK256 SWAP1 JUMPDEST DUP2 SLOAD DUP2 MSTORE SWAP1 PUSH1 0x1 ADD SWAP1 PUSH1 0x20 ADD DUP1 DUP4 GT PUSH2 0x246 JUMPI DUP3 SWAP1 SUB PUSH1 0x1F AND DUP3 ADD SWAP2 JUMPDEST POP POP POP POP POP DUP2 JUMP JUMPDEST PUSH1 0x1 PUSH1 0xA0 PUSH1 0x2 EXP SUB DUP3 AND PUSH1 0x0 SWAP1 DUP2 MSTORE PUSH1 0x5 PUSH1 0x20 DUP2 SWAP1 MSTORE PUSH1 0x40 SWAP1 SWAP2 KECCAK256 ADD SLOAD DUP3 SWAP1 PUSH1 0xFF AND ISZERO ISZERO PUSH1 0x1 EQ PUSH2 0x29B JUMPI PUSH1 0x0 DUP1 REVERT JUMPDEST PUSH1 0x1 PUSH1 0xA0 PUSH1 0x2 EXP SUB DUP4 AND PUSH1 0x0 SWAP1 DUP2 MSTORE PUSH1 0x5 PUSH1 0x20 MSTORE PUSH1 0x40 SWAP1 KECCAK256 PUSH1 0x2 ADD PUSH2 0x2C0 DUP4 DUP3 PUSH2 0xDBC JUMP JUMPDEST POP POP POP POP JUMP JUMPDEST PUSH1 0x1 PUSH1 0xA0 PUSH1 0x2 EXP SUB DUP7 AND PUSH1 0x0 SWAP1 DUP2 MSTORE PUSH1 0x5 PUSH1 0x20 DUP2 SWAP1 MSTORE PUSH1 0x40 SWAP1 SWAP2 KECCAK256 ADD SLOAD DUP7 SWAP1 PUSH1 0xFF AND ISZERO PUSH2 0x2F2 JUMPI PUSH1 0x0 DUP1 REVERT JUMPDEST CALLER PUSH1 0x0 DUP2 DUP2 MSTORE PUSH1 0x5 PUSH1 0x20 DUP2 SWAP1 MSTORE PUSH1 0x40 SWAP1 SWAP2 KECCAK256 ADD SLOAD PUSH1 0xFF AND ISZERO ISZERO PUSH1 0x1 EQ PUSH2 0x317 JUMPI PUSH1 0x0 DUP1 REVERT JUMPDEST PUSH2 0x327 DUP9 DUP9 DUP9 DUP9 DUP9 DUP9 PUSH1 0x1 PUSH2 0x898 JUMP JUMPDEST POP POP POP POP POP POP POP POP JUMP JUMPDEST PUSH1 0x1 PUSH1 0xA0 PUSH1 0x2 EXP SUB DUP3 AND PUSH1 0x0 SWAP1 DUP2 MSTORE PUSH1 0x5 PUSH1 0x20 DUP2 SWAP1 MSTORE PUSH1 0x40 SWAP1 SWAP2 KECCAK256 ADD SLOAD DUP3 SWAP1 PUSH1 0xFF AND ISZERO ISZERO PUSH1 0x1 EQ PUSH2 0x361 JUMPI PUSH1 0x0 DUP1 REVERT JUMPDEST PUSH1 0x1 PUSH1 0xA0 PUSH1 0x2 EXP SUB DUP4 AND PUSH1 0x0 SWAP1 DUP2 MSTORE PUSH1 0x5 PUSH1 0x20 MSTORE PUSH1 0x40 SWAP1 KECCAK256 PUSH1 0x1 ADD PUSH2 0x2C0 DUP4 DUP3 PUSH2 0xDBC JUMP JUMPDEST PUSH1 0x2 DUP1 SLOAD PUSH2 0x1EA SWAP1 PUSH2 0xD1A JUMP JUMPDEST PUSH1 0x1 PUSH1 0xA0 PUSH1 0x2 EXP SUB DUP3 AND PUSH1 0x0 SWAP1 DUP2 MSTORE PUSH1 0x5 PUSH1 0x20 DUP2 SWAP1 MSTORE PUSH1 0x40 SWAP1 SWAP2 KECCAK256 ADD SLOAD DUP3 SWAP1 PUSH1 0xFF AND ISZERO ISZERO PUSH1 0x1 EQ PUSH2 0x3C3 JUMPI PUSH1 0x0 DUP1 REVERT JUMPDEST PUSH1 0x1 PUSH1 0xA0 PUSH1 0x2 EXP SUB DUP4 AND PUSH1 0x0 SWAP1 DUP2 MSTORE PUSH1 0x5 PUSH1 0x20 MSTORE PUSH1 0x40 SWAP1 KECCAK256 PUSH1 0x3 ADD PUSH2 0x2C0 DUP4 DUP3 PUSH2 0xDBC JUMP JUMPDEST PUSH1 0x1 DUP1 SLOAD PUSH2 0x1EA SWAP1 PUSH2 0xD1A JUMP JUMPDEST PUSH1 0x60 PUSH1 0x6 DUP1 SLOAD DUP1 PUSH1 0x20 MUL PUSH1 0x20 ADD PUSH1 0x40 MLOAD SWAP1 DUP2 ADD PUSH1 0x40 MSTORE DUP1 SWAP3 SWAP2 SWAP1 DUP2 DUP2 MSTORE PUSH1 0x20 ADD DUP3 DUP1 SLOAD DUP1 ISZERO PUSH2 0x44D JUMPI PUSH1 0x20 MUL DUP3 ADD SWAP2 SWAP1 PUSH1 0x0 MSTORE PUSH1 0x20 PUSH1 0x0 KECCAK256 SWAP1 JUMPDEST DUP2 SLOAD PUSH1 0x1 PUSH1 0xA0 PUSH1 0x2 EXP SUB AND DUP2 MSTORE PUSH1 0x1 SWAP1 SWAP2 ADD SWAP1 PUSH1 0x20 ADD DUP1 DUP4 GT PUSH2 0x42F JUMPI JUMPDEST POP POP POP POP POP SWAP1 POP SWAP1 JUMP JUMPDEST PUSH1 0x1 PUSH1 0xA0 PUSH1 0x2 EXP SUB DUP2 AND PUSH1 0x0 SWAP1 DUP2 MSTORE PUSH1 0x5 PUSH1 0x20 MSTORE PUSH1 0x40 DUP2 KECCAK256 DUP1 SLOAD PUSH1 0x60 SWAP3 DUP4 SWAP3 DUP4 SWAP3 DUP4 SWAP3 DUP4 SWAP3 SWAP1 SWAP2 PUSH2 0x487 SWAP1 PUSH2 0xD1A JUMP JUMPDEST DUP1 PUSH1 0x1F ADD PUSH1 0x20 DUP1 SWAP2 DIV MUL PUSH1 0x20 ADD PUSH1 0x40 MLOAD SWAP1 DUP2 ADD PUSH1 0x40 MSTORE DUP1 SWAP3 SWAP2 SWAP1 DUP2 DUP2 MSTORE PUSH1 0x20 ADD DUP3 DUP1 SLOAD PUSH2 0x4B3 SWAP1 PUSH2 0xD1A JUMP JUMPDEST DUP1 ISZERO PUSH2 0x500 JUMPI DUP1 PUSH1 0x1F LT PUSH2 0x4D5 JUMPI PUSH2 0x100 DUP1 DUP4 SLOAD DIV MUL DUP4 MSTORE SWAP2 PUSH1 0x20 ADD SWAP2 PUSH2 0x500 JUMP JUMPDEST DUP3 ADD SWAP2 SWAP1 PUSH1 0x0 MSTORE PUSH1 0x20 PUSH1 0x0 KECCAK256 SWAP1 JUMPDEST DUP2 SLOAD DUP2 MSTORE SWAP1 PUSH1 0x1 ADD SWAP1 PUSH1 0x20 ADD DUP1 DUP4 GT PUSH2 0x4E3 JUMPI DUP3 SWAP1 SUB PUSH1 0x1F AND DUP3 ADD SWAP2 JUMPDEST POP POP POP POP PUSH1 0x1 PUSH1 0xA0 PUSH1 0x2 EXP SUB DUP10 AND PUSH1 0x0 SWAP1 DUP2 MSTORE PUSH1 0x5 PUSH1 0x20 MSTORE PUSH1 0x40 SWAP1 KECCAK256 PUSH1 0x1 ADD DUP1 SLOAD SWAP3 SWAP9 POP SWAP2 PUSH2 0x52F SWAP2 POP PUSH2 0xD1A JUMP JUMPDEST DUP1 PUSH1 0x1F ADD PUSH1 0x20 DUP1 SWAP2 DIV MUL PUSH1 0x20 ADD PUSH1 0x40 MLOAD SWAP1 DUP2 ADD PUSH1 0x40 MSTORE DUP1 SWAP3 SWAP2 SWAP1 DUP2 DUP2 MSTORE PUSH1 0x20 ADD DUP3 DUP1 SLOAD PUSH2 0x55B SWAP1 PUSH2 0xD1A JUMP JUMPDEST DUP1 ISZERO PUSH2 0x5A8 JUMPI DUP1 PUSH1 0x1F LT PUSH2 0x57D JUMPI PUSH2 0x100 DUP1 DUP4 SLOAD DIV MUL DUP4 MSTORE SWAP2 PUSH1 0x20 ADD SWAP2 PUSH2 0x5A8 JUMP JUMPDEST DUP3 ADD SWAP2 SWAP1 PUSH1 0x0 MSTORE PUSH1 0x20 PUSH1 0x0 KECCAK256 SWAP1 JUMPDEST DUP2 SLOAD DUP2 MSTORE SWAP1 PUSH1 0x1 ADD SWAP1 PUSH1 0x20 ADD DUP1 DUP4 GT PUSH2 0x58B JUMPI DUP3 SWAP1 SUB PUSH1 0x1F AND DUP3 ADD SWAP2 JUMPDEST POP POP POP POP PUSH1 0x1 PUSH1 0xA0 PUSH1 0x2 EXP SUB DUP10 AND PUSH1 0x0 SWAP1 DUP2 MSTORE PUSH1 0x5 PUSH1 0x20 MSTORE PUSH1 0x40 SWAP1 KECCAK256 PUSH1 0x2 ADD DUP1 SLOAD SWAP3 SWAP8 POP SWAP2 PUSH2 0x5D7 SWAP2 POP PUSH2 0xD1A JUMP JUMPDEST DUP1 PUSH1 0x1F ADD PUSH1 0x20 DUP1 SWAP2 DIV MUL PUSH1 0x20 ADD PUSH1 0x40 MLOAD SWAP1 DUP2 ADD PUSH1 0x40 MSTORE DUP1 SWAP3 SWAP2 SWAP1 DUP2 DUP2 MSTORE PUSH1 0x20 ADD DUP3 DUP1 SLOAD PUSH2 0x603 SWAP1 PUSH2 0xD1A JUMP JUMPDEST DUP1 ISZERO PUSH2 0x650 JUMPI DUP1 PUSH1 0x1F LT PUSH2 0x625 JUMPI PUSH2 0x100 DUP1 DUP4 SLOAD DIV MUL DUP4 MSTORE SWAP2 PUSH1 0x20 ADD SWAP2 PUSH2 0x650 JUMP JUMPDEST DUP3 ADD SWAP2 SWAP1 PUSH1 0x0 MSTORE PUSH1 0x20 PUSH1 0x0 KECCAK256 SWAP1 JUMPDEST DUP2 SLOAD DUP2 MSTORE SWAP1 PUSH1 0x1 ADD SWAP1 PUSH1 0x20 ADD DUP1 DUP4 GT PUSH2 0x633 JUMPI DUP3 SWAP1 SUB PUSH1 0x1F AND DUP3 ADD SWAP2 JUMPDEST POP POP POP POP PUSH1 0x1 PUSH1 0xA0 PUSH1 0x2 EXP SUB DUP10 AND PUSH1 0x0 SWAP1 DUP2 MSTORE PUSH1 0x5 PUSH1 0x20 MSTORE PUSH1 0x40 SWAP1 KECCAK256 PUSH1 0x3 ADD DUP1 SLOAD SWAP3 SWAP7 POP SWAP2 PUSH2 0x67F SWAP2 POP PUSH2 0xD1A JUMP JUMPDEST DUP1 PUSH1 0x1F ADD PUSH1 0x20 DUP1 SWAP2 DIV MUL PUSH1 0x20 ADD PUSH1 0x40 MLOAD SWAP1 DUP2 ADD PUSH1 0x40 MSTORE DUP1 SWAP3 SWAP2 SWAP1 DUP2 DUP2 MSTORE PUSH1 0x20 ADD DUP3 DUP1 SLOAD PUSH2 0x6AB SWAP1 PUSH2 0xD1A JUMP JUMPDEST DUP1 ISZERO PUSH2 0x6F8 JUMPI DUP1 PUSH1 0x1F LT PUSH2 0x6CD JUMPI PUSH2 0x100 DUP1 DUP4 SLOAD DIV MUL DUP4 MSTORE SWAP2 PUSH1 0x20 ADD SWAP2 PUSH2 0x6F8 JUMP JUMPDEST DUP3 ADD SWAP2 SWAP1 PUSH1 0x0 MSTORE PUSH1 0x20 PUSH1 0x0 KECCAK256 SWAP1 JUMPDEST DUP2 SLOAD DUP2 MSTORE SWAP1 PUSH1 0x1 ADD SWAP1 PUSH1 0x20 ADD DUP1 DUP4 GT PUSH2 0x6DB JUMPI DUP3 SWAP1 SUB PUSH1 0x1F AND DUP3 ADD SWAP2 JUMPDEST POP POP POP POP PUSH1 0x1 PUSH1 0xA0 PUSH1 0x2 EXP SUB DUP10 AND PUSH1 0x0 SWAP1 DUP2 MSTORE PUSH1 0x5 PUSH1 0x20 MSTORE PUSH1 0x40 SWAP1 KECCAK256 PUSH1 0x4 ADD DUP1 SLOAD SWAP3 SWAP6 POP SWAP2 PUSH2 0x727 SWAP2 POP PUSH2 0xD1A JUMP JUMPDEST DUP1 PUSH1 0x1F ADD PUSH1 0x20 DUP1 SWAP2 DIV MUL PUSH1 0x20 ADD PUSH1 0x40 MLOAD SWAP1 DUP2 ADD PUSH1 0x40 MSTORE DUP1 SWAP3 SWAP2 SWAP1 DUP2 DUP2 MSTORE PUSH1 0x20 ADD DUP3 DUP1 SLOAD PUSH2 0x753 SWAP1 PUSH2 0xD1A JUMP JUMPDEST DUP1 ISZERO PUSH2 0x7A0 JUMPI DUP1 PUSH1 0x1F LT PUSH2 0x775 JUMPI PUSH2 0x100 DUP1 DUP4 SLOAD DIV MUL DUP4 MSTORE SWAP2 PUSH1 0x20 ADD SWAP2 PUSH2 0x7A0 JUMP JUMPDEST DUP3 ADD SWAP2 SWAP1 PUSH1 0x0 MSTORE PUSH1 0x20 PUSH1 0x0 KECCAK256 SWAP1 JUMPDEST DUP2 SLOAD DUP2 MSTORE SWAP1 PUSH1 0x1 ADD SWAP1 PUSH1 0x20 ADD DUP1 DUP4 GT PUSH2 0x783 JUMPI DUP3 SWAP1 SUB PUSH1 0x1F AND DUP3 ADD SWAP2 JUMPDEST POP POP POP POP PUSH1 0x1 PUSH1 0xA0 PUSH1 0x2 EXP SUB SWAP9 SWAP1 SWAP9 AND PUSH1 0x0 SWAP1 DUP2 MSTORE PUSH1 0x5 PUSH1 0x20 DUP2 SWAP1 MSTORE PUSH1 0x40 SWAP1 SWAP2 KECCAK256 ADD SLOAD SWAP7 SWAP9 SWAP6 SWAP8 POP SWAP4 SWAP6 SWAP3 SWAP5 PUSH1 0xFF SWAP1 SWAP4 AND SWAP3 SWAP2 POP POP JUMP JUMPDEST PUSH1 0x0 DUP1 SLOAD PUSH2 0x1EA SWAP1 PUSH2 0xD1A JUMP JUMPDEST PUSH1 0x1 PUSH1 0xA0 PUSH1 0x2 EXP SUB DUP3 AND PUSH1 0x0 SWAP1 DUP2 MSTORE PUSH1 0x5 PUSH1 0x20 DUP2 SWAP1 MSTORE PUSH1 0x40 SWAP1 SWAP2 KECCAK256 ADD SLOAD DUP3 SWAP1 PUSH1 0xFF AND ISZERO ISZERO PUSH1 0x1 EQ PUSH2 0x814 JUMPI PUSH1 0x0 DUP1 REVERT JUMPDEST PUSH1 0x1 PUSH1 0xA0 PUSH1 0x2 EXP SUB DUP4 AND PUSH1 0x0 SWAP1 DUP2 MSTORE PUSH1 0x5 PUSH1 0x20 MSTORE PUSH1 0x40 SWAP1 KECCAK256 PUSH1 0x4 ADD PUSH2 0x2C0 DUP4 DUP3 PUSH2 0xDBC JUMP JUMPDEST PUSH1 0x3 DUP1 SLOAD PUSH2 0x1EA SWAP1 PUSH2 0xD1A JUMP JUMPDEST PUSH1 0x1 PUSH1 0xA0 PUSH1 0x2 EXP SUB DUP3 AND PUSH1 0x0 SWAP1 DUP2 MSTORE PUSH1 0x5 PUSH1 0x20 DUP2 SWAP1 MSTORE PUSH1 0x40 SWAP1 SWAP2 KECCAK256 ADD SLOAD DUP3 SWAP1 PUSH1 0xFF AND ISZERO ISZERO PUSH1 0x1 EQ PUSH2 0x876 JUMPI PUSH1 0x0 DUP1 REVERT JUMPDEST PUSH1 0x1 PUSH1 0xA0 PUSH1 0x2 EXP SUB DUP4 AND PUSH1 0x0 SWAP1 DUP2 MSTORE PUSH1 0x5 PUSH1 0x20 MSTORE PUSH1 0x40 SWAP1 KECCAK256 PUSH2 0x2C0 DUP4 DUP3 PUSH2 0xDBC JUMP JUMPDEST PUSH1 0x6 DUP1 SLOAD PUSH1 0x1 DUP2 ADD SWAP1 SWAP2 SSTORE PUSH32 0xF652222313E28459528D920B65115C16C04F3EFC82AAEDC97BE59F3F377C0D3F ADD DUP1 SLOAD PUSH20 0xFFFFFFFFFFFFFFFFFFFFFFFFFFFFFFFFFFFFFFFF NOT AND PUSH1 0x1 PUSH1 0xA0 PUSH1 0x2 EXP SUB DUP10 AND SWAP1 DUP2 OR SWAP1 SWAP2 SSTORE PUSH1 0x0 SWAP1 DUP2 MSTORE PUSH1 0x5 PUSH1 0x20 MSTORE PUSH1 0x40 SWAP1 KECCAK256 PUSH2 0x906 DUP8 DUP3 PUSH2 0xDBC JUMP JUMPDEST POP PUSH1 0x1 PUSH1 0xA0 PUSH1 0x2 EXP SUB DUP8 AND PUSH1 0x0 SWAP1 DUP2 MSTORE PUSH1 0x5 PUSH1 0x20 MSTORE PUSH1 0x40 SWAP1 KECCAK256 PUSH1 0x1 ADD PUSH2 0x92C DUP7 DUP3 PUSH2 0xDBC JUMP JUMPDEST POP PUSH1 0x1 PUSH1 0xA0 PUSH1 0x2 EXP SUB DUP8 AND PUSH1 0x0 SWAP1 DUP2 MSTORE PUSH1 0x5 PUSH1 0x20 MSTORE PUSH1 0x40 SWAP1 KECCAK256 PUSH1 0x2 ADD PUSH2 0x952 DUP6 DUP3 PUSH2 0xDBC JUMP JUMPDEST POP PUSH1 0x1 PUSH1 0xA0 PUSH1 0x2 EXP SUB DUP8 AND PUSH1 0x0 SWAP1 DUP2 MSTORE PUSH1 0x5 PUSH1 0x20 MSTORE PUSH1 0x40 SWAP1 KECCAK256 PUSH1 0x3 ADD PUSH2 0x978 DUP5 DUP3 PUSH2 0xDBC JUMP JUMPDEST POP PUSH1 0x1 PUSH1 0xA0 PUSH1 0x2 EXP SUB DUP8 AND PUSH1 0x0 SWAP1 DUP2 MSTORE PUSH1 0x5 PUSH1 0x20 MSTORE PUSH1 0x40 SWAP1 KECCAK256 PUSH1 0x4 ADD PUSH2 0x99E DUP4 DUP3 PUSH2 0xDBC JUMP JUMPDEST POP PUSH1 0x1 PUSH1 0xA0 PUSH1 0x2 EXP SUB SWAP7 SWAP1 SWAP7 AND PUSH1 0x0 SWAP1 DUP2 MSTORE PUSH1 0x5 PUSH1 0x20 DUP2 SWAP1 MSTORE PUSH1 0x40 SWAP1 SWAP2 KECCAK256 ADD DUP1 SLOAD PUSH1 0xFF NOT AND SWAP7 ISZERO ISZERO SWAP7 SWAP1 SWAP7 OR SWAP1 SWAP6 SSTORE POP POP POP POP POP JUMP JUMPDEST PUSH1 0x0 DUP2 MLOAD DUP1 DUP5 MSTORE PUSH1 0x0 JUMPDEST DUP2 DUP2 LT ISZERO PUSH2 0x9FA JUMPI PUSH1 0x20 DUP2 DUP6 ADD DUP2 ADD MLOAD DUP7 DUP4 ADD DUP3 ADD MSTORE ADD PUSH2 0x9DE JUMP JUMPDEST POP PUSH1 0x0 PUSH1 0x20 DUP3 DUP7 ADD ADD MSTORE PUSH1 0x20 PUSH1 0x1F NOT PUSH1 0x1F DUP4 ADD AND DUP6 ADD ADD SWAP2 POP POP SWAP3 SWAP2 POP POP JUMP JUMPDEST PUSH1 0x20 DUP2 MSTORE PUSH1 0x0 PUSH2 0xA2D PUSH1 0x20 DUP4 ADD DUP5 PUSH2 0x9D4 JUMP JUMPDEST SWAP4 SWAP3 POP POP POP JUMP JUMPDEST DUP1 CALLDATALOAD PUSH1 0x1 PUSH1 0xA0 PUSH1 0x2 EXP SUB DUP2 AND DUP2 EQ PUSH2 0xA4B JUMPI PUSH1 0x0 DUP1 REVERT JUMPDEST SWAP2 SWAP1 POP JUMP JUMPDEST PUSH32 0x4E487B7100000000000000000000000000000000000000000000000000000000 PUSH1 0x0 MSTORE PUSH1 0x41 PUSH1 0x4 MSTORE PUSH1 0x24 PUSH1 0x0 REVERT JUMPDEST PUSH1 0x0 DUP3 PUSH1 0x1F DUP4 ADD SLT PUSH2 0xA90 JUMPI PUSH1 0x0 DUP1 REVERT JUMPDEST DUP2 CALLDATALOAD PUSH8 0xFFFFFFFFFFFFFFFF DUP1 DUP3 GT ISZERO PUSH2 0xAAB JUMPI PUSH2 0xAAB PUSH2 0xA50 JUMP JUMPDEST PUSH1 0x40 MLOAD PUSH1 0x1F DUP4 ADD PUSH1 0x1F NOT SWAP1 DUP2 AND PUSH1 0x3F ADD AND DUP2 ADD SWAP1 DUP3 DUP3 GT DUP2 DUP4 LT OR ISZERO PUSH2 0xAD3 JUMPI PUSH2 0xAD3 PUSH2 0xA50 JUMP JUMPDEST DUP2 PUSH1 0x40 MSTORE DUP4 DUP2 MSTORE DUP7 PUSH1 0x20 DUP6 DUP9 ADD ADD GT ISZERO PUSH2 0xAEC JUMPI PUSH1 0x0 DUP1 REVERT JUMPDEST DUP4 PUSH1 0x20 DUP8 ADD PUSH1 0x20 DUP4 ADD CALLDATACOPY PUSH1 0x0 PUSH1 0x20 DUP6 DUP4 ADD ADD MSTORE DUP1 SWAP5 POP POP POP POP POP SWAP3 SWAP2 POP POP JUMP JUMPDEST PUSH1 0x0 DUP1 PUSH1 0x40 DUP4 DUP6 SUB SLT ISZERO PUSH2 0xB1F JUMPI PUSH1 0x0 DUP1 REVERT JUMPDEST PUSH2 0xB28 DUP4 PUSH2 0xA34 JUMP JUMPDEST SWAP2 POP PUSH1 0x20 DUP4 ADD CALLDATALOAD PUSH8 0xFFFFFFFFFFFFFFFF DUP2 GT ISZERO PUSH2 0xB44 JUMPI PUSH1 0x0 DUP1 REVERT JUMPDEST PUSH2 0xB50 DUP6 DUP3 DUP7 ADD PUSH2 0xA7F JUMP JUMPDEST SWAP2 POP POP SWAP3 POP SWAP3 SWAP1 POP JUMP JUMPDEST PUSH1 0x0 DUP1 PUSH1 0x0 DUP1 PUSH1 0x0 DUP1 PUSH1 0xC0 DUP8 DUP10 SUB SLT ISZERO PUSH2 0xB73 JUMPI PUSH1 0x0 DUP1 REVERT JUMPDEST PUSH2 0xB7C DUP8 PUSH2 0xA34 JUMP JUMPDEST SWAP6 POP PUSH1 0x20 DUP8 ADD CALLDATALOAD PUSH8 0xFFFFFFFFFFFFFFFF DUP1 DUP3 GT ISZERO PUSH2 0xB99 JUMPI PUSH1 0x0 DUP1 REVERT JUMPDEST PUSH2 0xBA5 DUP11 DUP4 DUP12 ADD PUSH2 0xA7F JUMP JUMPDEST SWAP7 POP PUSH1 0x40 DUP10 ADD CALLDATALOAD SWAP2 POP DUP1 DUP3 GT ISZERO PUSH2 0xBBB JUMPI PUSH1 0x0 DUP1 REVERT JUMPDEST PUSH2 0xBC7 DUP11 DUP4 DUP12 ADD PUSH2 0xA7F JUMP JUMPDEST SWAP6 POP PUSH1 0x60 DUP10 ADD CALLDATALOAD SWAP2 POP DUP1 DUP3 GT ISZERO PUSH2 0xBDD JUMPI PUSH1 0x0 DUP1 REVERT JUMPDEST PUSH2 0xBE9 DUP11 DUP4 DUP12 ADD PUSH2 0xA7F JUMP JUMPDEST SWAP5 POP PUSH1 0x80 DUP10 ADD CALLDATALOAD SWAP2 POP DUP1 DUP3 GT ISZERO PUSH2 0xBFF JUMPI PUSH1 0x0 DUP1 REVERT JUMPDEST PUSH2 0xC0B DUP11 DUP4 DUP12 ADD PUSH2 0xA7F JUMP JUMPDEST SWAP4 POP PUSH1 0xA0 DUP10 ADD CALLDATALOAD SWAP2 POP DUP1 DUP3 GT ISZERO PUSH2 0xC21 JUMPI PUSH1 0x0 DUP1 REVERT JUMPDEST POP PUSH2 0xC2E DUP10 DUP3 DUP11 ADD PUSH2 0xA7F JUMP JUMPDEST SWAP2 POP POP SWAP3 SWAP6 POP SWAP3 SWAP6 POP SWAP3 SWAP6 JUMP JUMPDEST PUSH1 0x20 DUP1 DUP3 MSTORE DUP3 MLOAD DUP3 DUP3 ADD DUP2 SWAP1 MSTORE PUSH1 0x0 SWAP2 SWAP1 DUP5 DUP3 ADD SWAP1 PUSH1 0x40 DUP6 ADD SWAP1 DUP5 JUMPDEST DUP2 DUP2 LT ISZERO PUSH2 0xC7C JUMPI DUP4 MLOAD PUSH1 0x1 PUSH1 0xA0 PUSH1 0x2 EXP SUB AND DUP4 MSTORE SWAP3 DUP5 ADD SWAP3 SWAP2 DUP5 ADD SWAP2 PUSH1 0x1 ADD PUSH2 0xC57 JUMP JUMPDEST POP SWAP1 SWAP7 SWAP6 POP POP POP POP POP POP JUMP JUMPDEST PUSH1 0x0 PUSH1 0x20 DUP3 DUP5 SUB SLT ISZERO PUSH2 0xC9A JUMPI PUSH1 0x0 DUP1 REVERT JUMPDEST PUSH2 0xA2D DUP3 PUSH2 0xA34 JUMP JUMPDEST PUSH1 0xC0 DUP2 MSTORE PUSH1 0x0 PUSH2 0xCB6 PUSH1 0xC0 DUP4 ADD DUP10 PUSH2 0x9D4 JUMP JUMPDEST DUP3 DUP2 SUB PUSH1 0x20 DUP5 ADD MSTORE PUSH2 0xCC8 DUP2 DUP10 PUSH2 0x9D4 JUMP JUMPDEST SWAP1 POP DUP3 DUP2 SUB PUSH1 0x40 DUP5 ADD MSTORE PUSH2 0xCDC DUP2 DUP9 PUSH2 0x9D4 JUMP JUMPDEST SWAP1 POP DUP3 DUP2 SUB PUSH1 0x60 DUP5 ADD MSTORE PUSH2 0xCF0 DUP2 DUP8 PUSH2 0x9D4 JUMP JUMPDEST SWAP1 POP DUP3 DUP2 SUB PUSH1 0x80 DUP5 ADD MSTORE PUSH2 0xD04 DUP2 DUP7 PUSH2 0x9D4 JUMP JUMPDEST SWAP2 POP POP DUP3 ISZERO ISZERO PUSH1 0xA0 DUP4 ADD MSTORE SWAP8 SWAP7 POP POP POP POP POP POP POP JUMP JUMPDEST PUSH1 0x2 DUP2 DIV PUSH1 0x1 DUP3 AND DUP1 PUSH2 0xD2E JUMPI PUSH1 0x7F DUP3 AND SWAP2 POP JUMPDEST PUSH1 0x20 DUP3 LT DUP2 SUB PUSH2 0xD67 JUMPI PUSH32 0x4E487B7100000000000000000000000000000000000000000000000000000000 PUSH1 0x0 MSTORE PUSH1 0x22 PUSH1 0x4 MSTORE PUSH1 0x24 PUSH1 0x0 REVERT JUMPDEST POP SWAP2 SWAP1 POP JUMP JUMPDEST PUSH1 0x1F DUP3 GT ISZERO PUSH2 0xDB7 JUMPI PUSH1 0x0 DUP2 DUP2 MSTORE PUSH1 0x20 DUP2 KECCAK256 PUSH1 0x20 PUSH1 0x1F DUP7 ADD DIV DUP2 ADD PUSH1 0x20 DUP7 LT ISZERO PUSH2 0xD94 JUMPI POP DUP1 JUMPDEST PUSH1 0x20 PUSH1 0x1F DUP7 ADD DIV DUP3 ADD SWAP2 POP JUMPDEST DUP2 DUP2 LT ISZERO PUSH2 0xDB3 JUMPI DUP3 DUP2 SSTORE PUSH1 0x1 ADD PUSH2 0xDA0 JUMP JUMPDEST POP POP POP JUMPDEST POP POP POP JUMP JUMPDEST DUP2 MLOAD PUSH8 0xFFFFFFFFFFFFFFFF DUP2 GT ISZERO PUSH2 0xDD6 JUMPI PUSH2 0xDD6 PUSH2 0xA50 JUMP JUMPDEST PUSH2 0xDEA DUP2 PUSH2 0xDE4 DUP5 SLOAD PUSH2 0xD1A JUMP JUMPDEST DUP5 PUSH2 0xD6D JUMP JUMPDEST PUSH1 0x20 DUP1 PUSH1 0x1F DUP4 GT PUSH1 0x1 DUP2 EQ PUSH2 0xE23 JUMPI PUSH1 0x0 DUP5 ISZERO PUSH2 0xE07 JUMPI POP DUP6 DUP4 ADD MLOAD JUMPDEST PUSH1 0x2 DUP1 DUP7 MUL PUSH1 0x8 DUP8 MUL SWAP1 SWAP2 EXP PUSH1 0x0 NOT DIV NOT DUP3 AND OR DUP7 SSTORE POP PUSH2 0xDB3 JUMP JUMPDEST PUSH1 0x0 DUP6 DUP2 MSTORE PUSH1 0x20 DUP2 KECCAK256 PUSH1 0x1F NOT DUP7 AND SWAP2 JUMPDEST DUP3 DUP2 LT ISZERO PUSH2 0xE52 JUMPI DUP9 DUP7 ADD MLOAD DUP3 SSTORE SWAP5 DUP5 ADD SWAP5 PUSH1 0x1 SWAP1 SWAP2 ADD SWAP1 DUP5 ADD PUSH2 0xE33 JUMP JUMPDEST POP DUP6 DUP3 LT ISZERO PUSH2 0xE72 JUMPI DUP8 DUP6 ADD MLOAD PUSH1 0x8 PUSH1 0x1F DUP9 AND MUL PUSH1 0x2 EXP PUSH1 0x0 NOT DIV NOT AND DUP2 SSTORE JUMPDEST POP POP POP POP POP PUSH1 0x2 MUL PUSH1 0x1 ADD SWAP1 SSTORE POP JUMP INVALID LOG2 PUSH5 0x6970667358 0x22 SLT KECCAK256 STOP CALLDATASIZE 0xDF RETURNDATASIZE 0xEB 0xE 0xEB 0xD5 0xE3 MULMOD 0xF 0xF7 CHAINID CHAINID 0xB3 0xD7 0x27 0x29 0x23 0xE5 SWAP3 0xDC 0x22 ADDRESS 0xCF 0xC4 0xD0 0x4A PUSH2 0xB008 0xCD PUSH5 0x736F6C6343 STOP ADDMOD GT STOP CALLER "},"methodIdentifiers":{"addEntity(address,string,string,string,string,string)":"1252a083","cif()":"7f35d729","entitiesList()":"6e7a216b","getEntity(address)":"75894e8c","name()":"06fdde03","setCifEntity(address,string)":"1e5f6f01","setNameEntity(address,string)":"eb5c426c","setUrlAOA(address,string)":"8e672cf7","setUrlCreateAID(address,string)":"4b7a1859","setUrlLogo(address,string)":"0ff72ef2","url_AOA()":"bf039d43","url_createAID()":"3bdf8863","url_logo()":"500bebf3"}},"storageLayout":{"storage":[{"astId":1269,"contract":"contracts/nameService/AlastriaNameService.sol:AlastriaNameService","label":"cif","offset":0,"slot":"0","type":"t_string_storage"},{"astId":1272,"contract":"contracts/nameService/AlastriaNameService.sol:AlastriaNameService","label":"url_logo","offset":0,"slot":"1","type":"t_string_storage"},{"astId":1275,"contract":"contracts/nameService/AlastriaNameService.sol:AlastriaNameService","label":"url_createAID","offset":0,"slot":"2","type":"t_string_storage"},{"astId":1278,"contract":"contracts/nameService/AlastriaNameService.sol:AlastriaNameService","label":"url_AOA","offset":0,"slot":"3","type":"t_string_storage"},{"astId":1281,"contract":"contracts/nameService/AlastriaNameService.sol:AlastriaNameService","label":"name","offset":0,"slot":"4","type":"t_string_storage"},{"astId":1286,"contract":"contracts/nameService/AlastriaNameService.sol:AlastriaNameService","label":"entities","offset":0,"slot":"5","type":"t_mapping(t_address,t_struct(IdentityEntity)1266_storage)"},{"astId":1289,"contract":"contracts/nameService/AlastriaNameService.sol:AlastriaNameService","label":"listEntities","offset":0,"slot":"6","type":"t_array(t_address)dyn_storage"}],"types":{"t_address":{"encoding":"inplace","label":"address","numberOfBytes":"20"},"t_array(t_address)dyn_storage":{"base":"t_address","encoding":"dynamic_array","label":"address[]","numberOfBytes":"32"},"t_bool":{"encoding":"inplace","label":"bool","numberOfBytes":"1"},"t_mapping(t_address,t_struct(IdentityEntity)1266_storage)":{"encoding":"mapping","key":"t_address","label":"mapping(address => struct AlastriaNameService.IdentityEntity)","numberOfBytes":"32","value":"t_struct(IdentityEntity)1266_storage"},"t_string_storage":{"encoding":"bytes","label":"string","numberOfBytes":"32"},"t_struct(IdentityEntity)1266_storage":{"encoding":"inplace","label":"struct AlastriaNameService.IdentityEntity","members":[{"astId":1255,"contract":"contracts/nameService/AlastriaNameService.sol:AlastriaNameService","label":"name","offset":0,"slot":"0","type":"t_string_storage"},{"astId":1257,"contract":"contracts/nameService/AlastriaNameService.sol:AlastriaNameService","label":"cif","offset":0,"slot":"1","type":"t_string_storage"},{"astId":1259,"contract":"contracts/nameService/AlastriaNameService.sol:AlastriaNameService","label":"url_logo","offset":0,"slot":"2","type":"t_string_storage"},{"astId":1261,"contract":"contracts/nameService/AlastriaNameService.sol:AlastriaNameService","label":"url_createAID","offset":0,"slot":"3","type":"t_string_storage"},{"astId":1263,"contract":"contracts/nameService/AlastriaNameService.sol:AlastriaNameService","label":"url_AOA","offset":0,"slot":"4","type":"t_string_storage"},{"astId":1265,"contract":"contracts/nameService/AlastriaNameService.sol:AlastriaNameService","label":"active","offset":0,"slot":"5","type":"t_bool"}],"numberOfBytes":"192"}}}}}}