{"contracts/registries/AlastriaCredentialRegistry.sol":{"AlastriaCredentialRegistry":{"abi":[{"anonymous":false,"inputs":[{"indexed":false,"internalType":"bytes32","name":"hash","type":"bytes32"},{"indexed":false,"internalType":"enum AlastriaCredentialRegistry.Status","name":"status","type":"uint8"}],"name":"CredentialUpdated","type":"event"},{"anonymous":false,"inputs":[{"indexed":false,"internalType":"uint8","name":"version","type":"uint8"}],"name":"Initialized","type":"event"},{"anonymous":false,"inputs":[{"indexed":false,"internalType":"bytes32","name":"issuerCredentialHash","type":"bytes32"},{"indexed":false,"internalType":"enum AlastriaCredentialRegistry.Status","name":"status","type":"uint8"}],"name":"IssuerCredentialRevoked","type":"event"},{"anonymous":false,"inputs":[{"indexed":false,"internalType":"bytes32","name":"subjectCredentialHash","type":"bytes32"}],"name":"SubjectCredentialDeleted","type":"event"},{"inputs":[{"internalType":"bytes32","name":"issuerCredentialHash","type":"bytes32"}],"name":"addIssuerCredential","outputs":[],"stateMutability":"nonpayable","type":"function"},{"inputs":[{"internalType":"bytes32","name":"subjectCredentialHash","type":"bytes32"},{"internalType":"string","name":"","type":"string"}],"name":"addSubjectCredential","outputs":[],"stateMutability":"nonpayable","type":"function"},{"inputs":[{"internalType":"bytes32","name":"subjectCredentialHash","type":"bytes32"}],"name":"deleteSubjectCredential","outputs":[],"stateMutability":"nonpayable","type":"function"},{"inputs":[{"internalType":"enum AlastriaCredentialRegistry.Status","name":"subjectStatus","type":"uint8"},{"internalType":"enum AlastriaCredentialRegistry.Status","name":"issuerStatus","type":"uint8"}],"name":"getCredentialStatus","outputs":[{"internalType":"enum AlastriaCredentialRegistry.Status","name":"","type":"uint8"}],"stateMutability":"pure","type":"function"},{"inputs":[{"internalType":"address","name":"issuer","type":"address"},{"internalType":"bytes32","name":"issuerCredentialHash","type":"bytes32"}],"name":"getIssuerCredentialStatus","outputs":[{"internalType":"bool","name":"exists","type":"bool"},{"internalType":"enum AlastriaCredentialRegistry.Status","name":"status","type":"uint8"}],"stateMutability":"view","type":"function"},{"inputs":[{"internalType":"address","name":"subject","type":"address"},{"internalType":"bytes32","name":"subjectCredentialHash","type":"bytes32"}],"name":"getSubjectCredentialStatus","outputs":[{"internalType":"bool","name":"exists","type":"bool"},{"internalType":"enum AlastriaCredentialRegistry.Status","name":"status","type":"uint8"}],"stateMutability":"view","type":"function"},{"inputs":[{"internalType":"address","name":"_previousPublishedVersion","type":"address"}],"name":"initialize","outputs":[],"stateMutability":"nonpayable","type":"function"},{"inputs":[],"name":"previousPublishedVersion","outputs":[{"internalType":"address","name":"","type":"address"}],"stateMutability":"view","type":"function"},{"inputs":[{"internalType":"bytes32","name":"issuerCredentialHash","type":"bytes32"},{"internalType":"enum AlastriaCredentialRegistry.Status","name":"status","type":"uint8"}],"name":"updateCredentialStatus","outputs":[],"stateMutability":"nonpayable","type":"function"},{"inputs":[{"internalType":"bytes32","name":"issuerCredentialHash","type":"bytes32"},{"internalType":"enum AlastriaCredentialRegistry.Status","name":"status","type":"uint8"}],"name":"updateIssuerCredential","outputs":[],"stateMutability":"nonpayable","type":"function"},{"inputs":[{"internalType":"bytes32","name":"subjectCredentialHash","type":"bytes32"},{"internalType":"enum AlastriaCredentialRegistry.Status","name":"status","type":"uint8"}],"name":"updateSubjectCredential","outputs":[],"stateMutability":"nonpayable","type":"function"},{"inputs":[],"name":"version","outputs":[{"internalType":"int256","name":"","type":"int256"}],"stateMutability":"view","type":"function"}],"evm":{"bytecode":{"linkReferences":{},"object":"608060405234801561001057600080fd5b50610d76806100206000396000f3fe608060405234801561001057600080fd5b50600436106100d1576000357c010000000000000000000000000000000000000000000000000000000090048063b11631731161008e578063b116317314610186578063c4d66de814610199578063dc11e39b146101ac578063dd517e10146101bf578063dff9a1a9146101d2578063e04ce02c146101e557600080fd5b806354fd4d50146100d657806355d64732146100f25780635faf7d94146101135780636104464f146101335780639b6bb6001461015e578063aeda232a14610173575b600080fd5b6100df60015481565b6040519081526020015b60405180910390f35b610105610100366004610aea565b6101f8565b6040516100e9929190610b7e565b610126610121366004610baa565b610247565b6040516100e99190610bdd565b60025461014690600160a060020a031681565b604051600160a060020a0390911681526020016100e9565b61017161016c366004610beb565b610301565b005b610105610181366004610aea565b6104d1565b610171610194366004610beb565b610520565b6101716101a7366004610c0e565b61060d565b6101716101ba366004610c29565b610772565b6101716101cd366004610beb565b61080b565b6101716101e0366004610c29565b610930565b6101716101f3366004610c71565b6109b8565b60008083600160a060020a03811661020f57600080fd5b505050600160a060020a03919091166000908152600360209081526040808320938352929052205460ff808216926101009092041690565b6000828181600381111561025d5761025d610b14565b1015801561027d5750600381600381111561027a5761027a610b14565b11155b61028657600080fd5b82600081600381111561029b5761029b610b14565b101580156102bb575060038160038111156102b8576102b8610b14565b11155b6102c457600080fd5b8360038111156102d6576102d6610b14565b8560038111156102e8576102e8610b14565b106102f5578492506102f9565b8392505b505092915050565b80600081600381111561031657610316610b14565b101580156103365750600381600381111561033357610333610b14565b11155b61033f57600080fd5b61034882610a56565b156104cc573360009081526003602090815260408083208684529091529020805460ff1661043857604051806040016040528060011515815260200184600381111561039657610396610b14565b905233600090815260036020818152604080842089855282529092208351815490151560ff198216811783559385015191939192849261ff00191661ffff1990921691909117906101009084908111156103f2576103f2610b14565b02179055509050507f07d07adce2e04383c59a74512c5b56f74f5dce19648a6247d584a71f1cf9c235848460405161042b929190610d2c565b60405180910390a16104ca565b8054610100900460ff16600381111561045357610453610b14565b83600381111561046557610465610b14565b11156104ca5780548390829061ff00191661010083600381111561048b5761048b610b14565b02179055507f07d07adce2e04383c59a74512c5b56f74f5dce19648a6247d584a71f1cf9c23584846040516104c1929190610d2c565b60405180910390a15b505b505050565b60008083600160a060020a0381166104e857600080fd5b505050600160a060020a03919091166000908152600460209081526040808320938352929052205460ff808216926101009092041690565b80600081600381111561053557610535610b14565b101580156105555750600381600381111561055257610552610b14565b11155b61055e57600080fd5b61056782610a8f565b156104cc573360009081526004602090815260408083208684529091529020805460ff166104385760405180604001604052806001151581526020018460038111156105b5576105b5610b14565b905233600090815260046020908152604080832088845282529091208251815490151560ff19821681178355928401519192839161ff001990911661ffff19909116176101008360038111156103f2576103f2610b14565b600054610100900460ff161580801561062d5750600054600160ff909116105b806106475750303b158015610647575060005460ff166001145b6106d7576040517f08c379a000000000000000000000000000000000000000000000000000000000815260206004820152602e60248201527f496e697469616c697a61626c653a20636f6e747261637420697320616c72656160448201527f647920696e697469616c697a6564000000000000000000000000000000000000606482015260840160405180910390fd5b6000805460ff1916600117905580156106fa576000805461ff0019166101001790555b60036001556002805473ffffffffffffffffffffffffffffffffffffffff1916600160a060020a038416179055801561076e576000805461ff0019169055604051600181527f7f26b83ff96e1f2b6a682f133852f6798a09c465da95921460cefb3847402498906020015b60405180910390a15b5050565b33600090815260046020908152604080832084845290915290205460ff161561079a57600080fd5b6040805180820182526001815260006020808301828152338352600482528483208684529091529290208151815490151560ff1982168117835593519293919291839161ff001990911661ffff199091161761010083600381111561080157610801610b14565b0217905550505050565b80600081600381111561082057610820610b14565b101580156108405750600381600381111561083d5761083d610b14565b11155b61084957600080fd5b33600090815260046020908152604080832086845290915290208054610100900460ff16600381111561087e5761087e610b14565b83600381111561089057610890610b14565b11156104ca5760018360038111156108aa576108aa610b14565b14806108c7575060028360038111156108c5576108c5610b14565b145b156104ca578054600160ff198216811783558491839161ffff19909116176101008360038111156108fa576108fa610b14565b02179055507f0bc6eed115cb12ced57d22ce88a4be72a3b052cf01e5a1947a1f901f8ff26b1a84846040516104c1929190610d2c565b3360009081526003602090815260408083208484529091529020805460ff168015610976575060038154610100900460ff16600381111561097357610973610b14565b14155b1561076e57805461ff0019166103001781556040518281527fc83f14fb22d6787113e4b492b1b27daac6284e516a3c61d454359fd426d04c2990602001610765565b33600090815260036020908152604080832085845290915290205460ff16156109e057600080fd5b60408051808201825260018152600060208083018281523383526003808352858420888552909252939091208251815490151560ff1982168117835594519394919392849261ff00191661ffff199092169190911790610100908490811115610a4b57610a4b610b14565b021790555050505050565b600080826003811115610a6b57610a6b610b14565b1480610a89575060035b826003811115610a8757610a87610b14565b145b92915050565b600080826003811115610aa457610aa4610b14565b1480610ac157506001826003811115610abf57610abf610b14565b145b80610a8957506002610a75565b8035600160a060020a0381168114610ae557600080fd5b919050565b60008060408385031215610afd57600080fd5b610b0683610ace565b946020939093013593505050565b7f4e487b7100000000000000000000000000000000000000000000000000000000600052602160045260246000fd5b60048110610b7a577f4e487b7100000000000000000000000000000000000000000000000000000000600052602160045260246000fd5b9052565b821515815260408101610b946020830184610b43565b9392505050565b803560048110610ae557600080fd5b60008060408385031215610bbd57600080fd5b610bc683610b9b565b9150610bd460208401610b9b565b90509250929050565b60208101610a898284610b43565b60008060408385031215610bfe57600080fd5b82359150610bd460208401610b9b565b600060208284031215610c2057600080fd5b610b9482610ace565b600060208284031215610c3b57600080fd5b5035919050565b7f4e487b7100000000000000000000000000000000000000000000000000000000600052604160045260246000fd5b60008060408385031215610c8457600080fd5b82359150602083013567ffffffffffffffff80821115610ca357600080fd5b818501915085601f830112610cb757600080fd5b813581811115610cc957610cc9610c42565b604051601f8201601f19908116603f01168101908382118183101715610cf157610cf1610c42565b81604052828152886020848701011115610d0a57600080fd5b8260208601602083013760006020848301015280955050505050509250929050565b82815260408101610b946020830184610b4356fea26469706673582212209ae331dd7b495fd6dd27bf68260d4d4e2bfe36ede172a48dd88c4c3889d9f18c64736f6c63430008110033","opcodes":"PUSH1 0x80 PUSH1 0x40 MSTORE CALLVALUE DUP1 ISZERO PUSH2 0x10 JUMPI PUSH1 0x0 DUP1 REVERT JUMPDEST POP PUSH2 0xD76 DUP1 PUSH2 0x20 PUSH1 0x0 CODECOPY PUSH1 0x0 RETURN INVALID PUSH1 0x80 PUSH1 0x40 MSTORE CALLVALUE DUP1 ISZERO PUSH2 0x10 JUMPI PUSH1 0x0 DUP1 REVERT JUMPDEST POP PUSH1 0x4 CALLDATASIZE LT PUSH2 0xD1 JUMPI PUSH1 0x0 CALLDATALOAD PUSH29 0x100000000000000000000000000000000000000000000000000000000 SWAP1 DIV DUP1 PUSH4 0xB1163173 GT PUSH2 0x8E JUMPI DUP1 PUSH4 0xB1163173 EQ PUSH2 0x186 JUMPI DUP1 PUSH4 0xC4D66DE8 EQ PUSH2 0x199 JUMPI DUP1 PUSH4 0xDC11E39B EQ PUSH2 0x1AC JUMPI DUP1 PUSH4 0xDD517E10 EQ PUSH2 0x1BF JUMPI DUP1 PUSH4 0xDFF9A1A9 EQ PUSH2 0x1D2 JUMPI DUP1 PUSH4 0xE04CE02C EQ PUSH2 0x1E5 JUMPI PUSH1 0x0 DUP1 REVERT JUMPDEST DUP1 PUSH4 0x54FD4D50 EQ PUSH2 0xD6 JUMPI DUP1 PUSH4 0x55D64732 EQ PUSH2 0xF2 JUMPI DUP1 PUSH4 0x5FAF7D94 EQ PUSH2 0x113 JUMPI DUP1 PUSH4 0x6104464F EQ PUSH2 0x133 JUMPI DUP1 PUSH4 0x9B6BB600 EQ PUSH2 0x15E JUMPI DUP1 PUSH4 0xAEDA232A EQ PUSH2 0x173 JUMPI JUMPDEST PUSH1 0x0 DUP1 REVERT JUMPDEST PUSH2 0xDF PUSH1 0x1 SLOAD DUP2 JUMP JUMPDEST PUSH1 0x40 MLOAD SWAP1 DUP2 MSTORE PUSH1 0x20 ADD JUMPDEST PUSH1 0x40 MLOAD DUP1 SWAP2 SUB SWAP1 RETURN JUMPDEST PUSH2 0x105 PUSH2 0x100 CALLDATASIZE PUSH1 0x4 PUSH2 0xAEA JUMP JUMPDEST PUSH2 0x1F8 JUMP JUMPDEST PUSH1 0x40 MLOAD PUSH2 0xE9 SWAP3 SWAP2 SWAP1 PUSH2 0xB7E JUMP JUMPDEST PUSH2 0x126 PUSH2 0x121 CALLDATASIZE PUSH1 0x4 PUSH2 0xBAA JUMP JUMPDEST PUSH2 0x247 JUMP JUMPDEST PUSH1 0x40 MLOAD PUSH2 0xE9 SWAP2 SWAP1 PUSH2 0xBDD JUMP JUMPDEST PUSH1 0x2 SLOAD PUSH2 0x146 SWAP1 PUSH1 0x1 PUSH1 0xA0 PUSH1 0x2 EXP SUB AND DUP2 JUMP JUMPDEST PUSH1 0x40 MLOAD PUSH1 0x1 PUSH1 0xA0 PUSH1 0x2 EXP SUB SWAP1 SWAP2 AND DUP2 MSTORE PUSH1 0x20 ADD PUSH2 0xE9 JUMP JUMPDEST PUSH2 0x171 PUSH2 0x16C CALLDATASIZE PUSH1 0x4 PUSH2 0xBEB JUMP JUMPDEST PUSH2 0x301 JUMP JUMPDEST STOP JUMPDEST PUSH2 0x105 PUSH2 0x181 CALLDATASIZE PUSH1 0x4 PUSH2 0xAEA JUMP JUMPDEST PUSH2 0x4D1 JUMP JUMPDEST PUSH2 0x171 PUSH2 0x194 CALLDATASIZE PUSH1 0x4 PUSH2 0xBEB JUMP JUMPDEST PUSH2 0x520 JUMP JUMPDEST PUSH2 0x171 PUSH2 0x1A7 CALLDATASIZE PUSH1 0x4 PUSH2 0xC0E JUMP JUMPDEST PUSH2 0x60D JUMP JUMPDEST PUSH2 0x171 PUSH2 0x1BA CALLDATASIZE PUSH1 0x4 PUSH2 0xC29 JUMP JUMPDEST PUSH2 0x772 JUMP JUMPDEST PUSH2 0x171 PUSH2 0x1CD CALLDATASIZE PUSH1 0x4 PUSH2 0xBEB JUMP JUMPDEST PUSH2 0x80B JUMP JUMPDEST PUSH2 0x171 PUSH2 0x1E0 CALLDATASIZE PUSH1 0x4 PUSH2 0xC29 JUMP JUMPDEST PUSH2 0x930 JUMP JUMPDEST PUSH2 0x171 PUSH2 0x1F3 CALLDATASIZE PUSH1 0x4 PUSH2 0xC71 JUMP JUMPDEST PUSH2 0x9B8 JUMP JUMPDEST PUSH1 0x0 DUP1 DUP4 PUSH1 0x1 PUSH1 0xA0 PUSH1 0x2 EXP SUB DUP2 AND PUSH2 0x20F JUMPI PUSH1 0x0 DUP1 REVERT JUMPDEST POP POP POP PUSH1 0x1 PUSH1 0xA0 PUSH1 0x2 EXP SUB SWAP2 SWAP1 SWAP2 AND PUSH1 0x0 SWAP1 DUP2 MSTORE PUSH1 0x3 PUSH1 0x20 SWAP1 DUP2 MSTORE PUSH1 0x40 DUP1 DUP4 KECCAK256 SWAP4 DUP4 MSTORE SWAP3 SWAP1 MSTORE KECCAK256 SLOAD PUSH1 0xFF DUP1 DUP3 AND SWAP3 PUSH2 0x100 SWAP1 SWAP3 DIV AND SWAP1 JUMP JUMPDEST PUSH1 0x0 DUP3 DUP2 DUP2 PUSH1 0x3 DUP2 GT ISZERO PUSH2 0x25D JUMPI PUSH2 0x25D PUSH2 0xB14 JUMP JUMPDEST LT ISZERO DUP1 ISZERO PUSH2 0x27D JUMPI POP PUSH1 0x3 DUP2 PUSH1 0x3 DUP2 GT ISZERO PUSH2 0x27A JUMPI PUSH2 0x27A PUSH2 0xB14 JUMP JUMPDEST GT ISZERO JUMPDEST PUSH2 0x286 JUMPI PUSH1 0x0 DUP1 REVERT JUMPDEST DUP3 PUSH1 0x0 DUP2 PUSH1 0x3 DUP2 GT ISZERO PUSH2 0x29B JUMPI PUSH2 0x29B PUSH2 0xB14 JUMP JUMPDEST LT ISZERO DUP1 ISZERO PUSH2 0x2BB JUMPI POP PUSH1 0x3 DUP2 PUSH1 0x3 DUP2 GT ISZERO PUSH2 0x2B8 JUMPI PUSH2 0x2B8 PUSH2 0xB14 JUMP JUMPDEST GT ISZERO JUMPDEST PUSH2 0x2C4 JUMPI PUSH1 0x0 DUP1 REVERT JUMPDEST DUP4 PUSH1 0x3 DUP2 GT ISZERO PUSH2 0x2D6 JUMPI PUSH2 0x2D6 PUSH2 0xB14 JUMP JUMPDEST DUP6 PUSH1 0x3 DUP2 GT ISZERO PUSH2 0x2E8 JUMPI PUSH2 0x2E8 PUSH2 0xB14 JUMP JUMPDEST LT PUSH2 0x2F5 JUMPI DUP5 SWAP3 POP PUSH2 0x2F9 JUMP JUMPDEST DUP4 SWAP3 POP JUMPDEST POP POP SWAP3 SWAP2 POP POP JUMP JUMPDEST DUP1 PUSH1 0x0 DUP2 PUSH1 0x3 DUP2 GT ISZERO PUSH2 0x316 JUMPI PUSH2 0x316 PUSH2 0xB14 JUMP JUMPDEST LT ISZERO DUP1 ISZERO PUSH2 0x336 JUMPI POP PUSH1 0x3 DUP2 PUSH1 0x3 DUP2 GT ISZERO PUSH2 0x333 JUMPI PUSH2 0x333 PUSH2 0xB14 JUMP JUMPDEST GT ISZERO JUMPDEST PUSH2 0x33F JUMPI PUSH1 0x0 DUP1 REVERT JUMPDEST PUSH2 0x348 DUP3 PUSH2 0xA56 JUMP JUMPDEST ISZERO PUSH2 0x4CC JUMPI CALLER PUSH1 0x0 SWAP1 DUP2 MSTORE PUSH1 0x3 PUSH1 0x20 SWAP1 DUP2 MSTORE PUSH1 0x40 DUP1 DUP4 KECCAK256 DUP7 DUP5 MSTORE SWAP1 SWAP2 MSTORE SWAP1 KECCAK256 DUP1 SLOAD PUSH1 0xFF AND PUSH2 0x438 JUMPI PUSH1 0x40 MLOAD DUP1 PUSH1 0x40 ADD PUSH1 0x40 MSTORE DUP1 PUSH1 0x1 ISZERO ISZERO DUP2 MSTORE PUSH1 0x20 ADD DUP5 PUSH1 0x3 DUP2 GT ISZERO PUSH2 0x396 JUMPI PUSH2 0x396 PUSH2 0xB14 JUMP JUMPDEST SWAP1 MSTORE CALLER PUSH1 0x0 SWAP1 DUP2 MSTORE PUSH1 0x3 PUSH1 0x20 DUP2 DUP2 MSTORE PUSH1 0x40 DUP1 DUP5 KECCAK256 DUP10 DUP6 MSTORE DUP3 MSTORE SWAP1 SWAP3 KECCAK256 DUP4 MLOAD DUP2 SLOAD SWAP1 ISZERO ISZERO PUSH1 0xFF NOT DUP3 AND DUP2 OR DUP4 SSTORE SWAP4 DUP6 ADD MLOAD SWAP2 SWAP4 SWAP2 SWAP3 DUP5 SWAP3 PUSH2 0xFF00 NOT AND PUSH2 0xFFFF NOT SWAP1 SWAP3 AND SWAP2 SWAP1 SWAP2 OR SWAP1 PUSH2 0x100 SWAP1 DUP5 SWAP1 DUP2 GT ISZERO PUSH2 0x3F2 JUMPI PUSH2 0x3F2 PUSH2 0xB14 JUMP JUMPDEST MUL OR SWAP1 SSTORE POP SWAP1 POP POP PUSH32 0x7D07ADCE2E04383C59A74512C5B56F74F5DCE19648A6247D584A71F1CF9C235 DUP5 DUP5 PUSH1 0x40 MLOAD PUSH2 0x42B SWAP3 SWAP2 SWAP1 PUSH2 0xD2C JUMP JUMPDEST PUSH1 0x40 MLOAD DUP1 SWAP2 SUB SWAP1 LOG1 PUSH2 0x4CA JUMP JUMPDEST DUP1 SLOAD PUSH2 0x100 SWAP1 DIV PUSH1 0xFF AND PUSH1 0x3 DUP2 GT ISZERO PUSH2 0x453 JUMPI PUSH2 0x453 PUSH2 0xB14 JUMP JUMPDEST DUP4 PUSH1 0x3 DUP2 GT ISZERO PUSH2 0x465 JUMPI PUSH2 0x465 PUSH2 0xB14 JUMP JUMPDEST GT ISZERO PUSH2 0x4CA JUMPI DUP1 SLOAD DUP4 SWAP1 DUP3 SWAP1 PUSH2 0xFF00 NOT AND PUSH2 0x100 DUP4 PUSH1 0x3 DUP2 GT ISZERO PUSH2 0x48B JUMPI PUSH2 0x48B PUSH2 0xB14 JUMP JUMPDEST MUL OR SWAP1 SSTORE POP PUSH32 0x7D07ADCE2E04383C59A74512C5B56F74F5DCE19648A6247D584A71F1CF9C235 DUP5 DUP5 PUSH1 0x40 MLOAD PUSH2 0x4C1 SWAP3 SWAP2 SWAP1 PUSH2 0xD2C JUMP JUMPDEST PUSH1 0x40 MLOAD DUP1 SWAP2 SUB SWAP1 LOG1 JUMPDEST POP JUMPDEST POP POP POP JUMP JUMPDEST PUSH1 0x0 DUP1 DUP4 PUSH1 0x1 PUSH1 0xA0 PUSH1 0x2 EXP SUB DUP2 AND PUSH2 0x4E8 JUMPI PUSH1 0x0 DUP1 REVERT JUMPDEST POP POP POP PUSH1 0x1 PUSH1 0xA0 PUSH1 0x2 EXP SUB SWAP2 SWAP1 SWAP2 AND PUSH1 0x0 SWAP1 DUP2 MSTORE PUSH1 0x4 PUSH1 0x20 SWAP1 DUP2 MSTORE PUSH1 0x40 DUP1 DUP4 KECCAK256 SWAP4 DUP4 MSTORE SWAP3 SWAP1 MSTORE KECCAK256 SLOAD PUSH1 0xFF DUP1 DUP3 AND SWAP3 PUSH2 0x100 SWAP1 SWAP3 DIV AND SWAP1 JUMP JUMPDEST DUP1 PUSH1 0x0 DUP2 PUSH1 0x3 DUP2 GT ISZERO PUSH2 0x535 JUMPI PUSH2 0x535 PUSH2 0xB14 JUMP JUMPDEST LT ISZERO DUP1 ISZERO PUSH2 0x555 JUMPI POP PUSH1 0x3 DUP2 PUSH1 0x3 DUP2 GT ISZERO PUSH2 0x552 JUMPI PUSH2 0x552 PUSH2 0xB14 JUMP JUMPDEST GT ISZERO JUMPDEST PUSH2 0x55E JUMPI PUSH1 0x0 DUP1 REVERT JUMPDEST PUSH2 0x567 DUP3 PUSH2 0xA8F JUMP JUMPDEST ISZERO PUSH2 0x4CC JUMPI CALLER PUSH1 0x0 SWAP1 DUP2 MSTORE PUSH1 0x4 PUSH1 0x20 SWAP1 DUP2 MSTORE PUSH1 0x40 DUP1 DUP4 KECCAK256 DUP7 DUP5 MSTORE SWAP1 SWAP2 MSTORE SWAP1 KECCAK256 DUP1 SLOAD PUSH1 0xFF AND PUSH2 0x438 JUMPI PUSH1 0x40 MLOAD DUP1 PUSH1 0x40 ADD PUSH1 0x40 MSTORE DUP1 PUSH1 0x1 ISZERO ISZERO DUP2 MSTORE PUSH1 0x20 ADD DUP5 PUSH1 0x3 DUP2 GT ISZERO PUSH2 0x5B5 JUMPI PUSH2 0x5B5 PUSH2 0xB14 JUMP JUMPDEST SWAP1 MSTORE CALLER PUSH1 0x0 SWAP1 DUP2 MSTORE PUSH1 0x4 PUSH1 0x20 SWAP1 DUP2 MSTORE PUSH1 0x40 DUP1 DUP4 KECCAK256 DUP9 DUP5 MSTORE DUP3 MSTORE SWAP1 SWAP2 KECCAK256 DUP3 MLOAD DUP2 SLOAD SWAP1 ISZERO ISZERO PUSH1 0xFF NOT DUP3 AND DUP2 OR DUP4 SSTORE SWAP3 DUP5 ADD MLOAD SWAP2 SWAP3 DUP4 SWAP2 PUSH2 0xFF00 NOT SWAP1 SWAP2 AND PUSH2 0xFFFF NOT SWAP1 SWAP2 AND OR PUSH2 0x100 DUP4 PUSH1 0x3 DUP2 GT ISZERO PUSH2 0x3F2 JUMPI PUSH2 0x3F2 PUSH2 0xB14 JUMP JUMPDEST PUSH1 0x0 SLOAD PUSH2 0x100 SWAP1 DIV PUSH1 0xFF AND ISZERO DUP1 DUP1 ISZERO PUSH2 0x62D JUMPI POP PUSH1 0x0 SLOAD PUSH1 0x1 PUSH1 0xFF SWAP1 SWAP2 AND LT JUMPDEST DUP1 PUSH2 0x647 JUMPI POP ADDRESS EXTCODESIZE ISZERO DUP1 ISZERO PUSH2 0x647 JUMPI POP PUSH1 0x0 SLOAD PUSH1 0xFF AND PUSH1 0x1 EQ JUMPDEST PUSH2 0x6D7 JUMPI PUSH1 0x40 MLOAD PUSH32 0x8C379A000000000000000000000000000000000000000000000000000000000 DUP2 MSTORE PUSH1 0x20 PUSH1 0x4 DUP3 ADD MSTORE PUSH1 0x2E PUSH1 0x24 DUP3 ADD MSTORE PUSH32 0x496E697469616C697A61626C653A20636F6E747261637420697320616C726561 PUSH1 0x44 DUP3 ADD MSTORE PUSH32 0x647920696E697469616C697A6564000000000000000000000000000000000000 PUSH1 0x64 DUP3 ADD MSTORE PUSH1 0x84 ADD PUSH1 0x40 MLOAD DUP1 SWAP2 SUB SWAP1 REVERT JUMPDEST PUSH1 0x0 DUP1 SLOAD PUSH1 0xFF NOT AND PUSH1 0x1 OR SWAP1 SSTORE DUP1 ISZERO PUSH2 0x6FA JUMPI PUSH1 0x0 DUP1 SLOAD PUSH2 0xFF00 NOT AND PUSH2 0x100 OR SWAP1 SSTORE JUMPDEST PUSH1 0x3 PUSH1 0x1 SSTORE PUSH1 0x2 DUP1 SLOAD PUSH20 0xFFFFFFFFFFFFFFFFFFFFFFFFFFFFFFFFFFFFFFFF NOT AND PUSH1 0x1 PUSH1 0xA0 PUSH1 0x2 EXP SUB DUP5 AND OR SWAP1 SSTORE DUP1 ISZERO PUSH2 0x76E JUMPI PUSH1 0x0 DUP1 SLOAD PUSH2 0xFF00 NOT AND SWAP1 SSTORE PUSH1 0x40 MLOAD PUSH1 0x1 DUP2 MSTORE PUSH32 0x7F26B83FF96E1F2B6A682F133852F6798A09C465DA95921460CEFB3847402498 SWAP1 PUSH1 0x20 ADD JUMPDEST PUSH1 0x40 MLOAD DUP1 SWAP2 SUB SWAP1 LOG1 JUMPDEST POP POP JUMP JUMPDEST CALLER PUSH1 0x0 SWAP1 DUP2 MSTORE PUSH1 0x4 PUSH1 0x20 SWAP1 DUP2 MSTORE PUSH1 0x40 DUP1 DUP4 KECCAK256 DUP5 DUP5 MSTORE SWAP1 SWAP2 MSTORE SWAP1 KECCAK256 SLOAD PUSH1 0xFF AND ISZERO PUSH2 0x79A JUMPI PUSH1 0x0 DUP1 REVERT JUMPDEST PUSH1 0x40 DUP1 MLOAD DUP1 DUP3 ADD DUP3 MSTORE PUSH1 0x1 DUP2 MSTORE PUSH1 0x0 PUSH1 0x20 DUP1 DUP4 ADD DUP3 DUP2 MSTORE CALLER DUP4 MSTORE PUSH1 0x4 DUP3 MSTORE DUP5 DUP4 KECCAK256 DUP7 DUP5 MSTORE SWAP1 SWAP2 MSTORE SWAP3 SWAP1 KECCAK256 DUP2 MLOAD DUP2 SLOAD SWAP1 ISZERO ISZERO PUSH1 0xFF NOT DUP3 AND DUP2 OR DUP4 SSTORE SWAP4 MLOAD SWAP3 SWAP4 SWAP2 SWAP3 SWAP2 DUP4 SWAP2 PUSH2 0xFF00 NOT SWAP1 SWAP2 AND PUSH2 0xFFFF NOT SWAP1 SWAP2 AND OR PUSH2 0x100 DUP4 PUSH1 0x3 DUP2 GT ISZERO PUSH2 0x801 JUMPI PUSH2 0x801 PUSH2 0xB14 JUMP JUMPDEST MUL OR SWAP1 SSTORE POP POP POP POP JUMP JUMPDEST DUP1 PUSH1 0x0 DUP2 PUSH1 0x3 DUP2 GT ISZERO PUSH2 0x820 JUMPI PUSH2 0x820 PUSH2 0xB14 JUMP JUMPDEST LT ISZERO DUP1 ISZERO PUSH2 0x840 JUMPI POP PUSH1 0x3 DUP2 PUSH1 0x3 DUP2 GT ISZERO PUSH2 0x83D JUMPI PUSH2 0x83D PUSH2 0xB14 JUMP JUMPDEST GT ISZERO JUMPDEST PUSH2 0x849 JUMPI PUSH1 0x0 DUP1 REVERT JUMPDEST CALLER PUSH1 0x0 SWAP1 DUP2 MSTORE PUSH1 0x4 PUSH1 0x20 SWAP1 DUP2 MSTORE PUSH1 0x40 DUP1 DUP4 KECCAK256 DUP7 DUP5 MSTORE SWAP1 SWAP2 MSTORE SWAP1 KECCAK256 DUP1 SLOAD PUSH2 0x100 SWAP1 DIV PUSH1 0xFF AND PUSH1 0x3 DUP2 GT ISZERO PUSH2 0x87E JUMPI PUSH2 0x87E PUSH2 0xB14 JUMP JUMPDEST DUP4 PUSH1 0x3 DUP2 GT ISZERO PUSH2 0x890 JUMPI PUSH2 0x890 PUSH2 0xB14 JUMP JUMPDEST GT ISZERO PUSH2 0x4CA JUMPI PUSH1 0x1 DUP4 PUSH1 0x3 DUP2 GT ISZERO PUSH2 0x8AA JUMPI PUSH2 0x8AA PUSH2 0xB14 JUMP JUMPDEST EQ DUP1 PUSH2 0x8C7 JUMPI POP PUSH1 0x2 DUP4 PUSH1 0x3 DUP2 GT ISZERO PUSH2 0x8C5 JUMPI PUSH2 0x8C5 PUSH2 0xB14 JUMP JUMPDEST EQ JUMPDEST ISZERO PUSH2 0x4CA JUMPI DUP1 SLOAD PUSH1 0x1 PUSH1 0xFF NOT DUP3 AND DUP2 OR DUP4 SSTORE DUP5 SWAP2 DUP4 SWAP2 PUSH2 0xFFFF NOT SWAP1 SWAP2 AND OR PUSH2 0x100 DUP4 PUSH1 0x3 DUP2 GT ISZERO PUSH2 0x8FA JUMPI PUSH2 0x8FA PUSH2 0xB14 JUMP JUMPDEST MUL OR SWAP1 SSTORE POP PUSH32 0xBC6EED115CB12CED57D22CE88A4BE72A3B052CF01E5A1947A1F901F8FF26B1A DUP5 DUP5 PUSH1 0x40 MLOAD PUSH2 0x4C1 SWAP3 SWAP2 SWAP1 PUSH2 0xD2C JUMP JUMPDEST CALLER PUSH1 0x0 SWAP1 DUP2 MSTORE PUSH1 0x3 PUSH1 0x20 SWAP1 DUP2 MSTORE PUSH1 0x40 DUP1 DUP4 KECCAK256 DUP5 DUP5 MSTORE SWAP1 SWAP2 MSTORE SWAP1 KECCAK256 DUP1 SLOAD PUSH1 0xFF AND DUP1 ISZERO PUSH2 0x976 JUMPI POP PUSH1 0x3 DUP2 SLOAD PUSH2 0x100 SWAP1 DIV PUSH1 0xFF AND PUSH1 0x3 DUP2 GT ISZERO PUSH2 0x973 JUMPI PUSH2 0x973 PUSH2 0xB14 JUMP JUMPDEST EQ ISZERO JUMPDEST ISZERO PUSH2 0x76E JUMPI DUP1 SLOAD PUSH2 0xFF00 NOT AND PUSH2 0x300 OR DUP2 SSTORE PUSH1 0x40 MLOAD DUP3 DUP2 MSTORE PUSH32 0xC83F14FB22D6787113E4B492B1B27DAAC6284E516A3C61D454359FD426D04C29 SWAP1 PUSH1 0x20 ADD PUSH2 0x765 JUMP JUMPDEST CALLER PUSH1 0x0 SWAP1 DUP2 MSTORE PUSH1 0x3 PUSH1 0x20 SWAP1 DUP2 MSTORE PUSH1 0x40 DUP1 DUP4 KECCAK256 DUP6 DUP5 MSTORE SWAP1 SWAP2 MSTORE SWAP1 KECCAK256 SLOAD PUSH1 0xFF AND ISZERO PUSH2 0x9E0 JUMPI PUSH1 0x0 DUP1 REVERT JUMPDEST PUSH1 0x40 DUP1 MLOAD DUP1 DUP3 ADD DUP3 MSTORE PUSH1 0x1 DUP2 MSTORE PUSH1 0x0 PUSH1 0x20 DUP1 DUP4 ADD DUP3 DUP2 MSTORE CALLER DUP4 MSTORE PUSH1 0x3 DUP1 DUP4 MSTORE DUP6 DUP5 KECCAK256 DUP9 DUP6 MSTORE SWAP1 SWAP3 MSTORE SWAP4 SWAP1 SWAP2 KECCAK256 DUP3 MLOAD DUP2 SLOAD SWAP1 ISZERO ISZERO PUSH1 0xFF NOT DUP3 AND DUP2 OR DUP4 SSTORE SWAP5 MLOAD SWAP4 SWAP5 SWAP2 SWAP4 SWAP3 DUP5 SWAP3 PUSH2 0xFF00 NOT AND PUSH2 0xFFFF NOT SWAP1 SWAP3 AND SWAP2 SWAP1 SWAP2 OR SWAP1 PUSH2 0x100 SWAP1 DUP5 SWAP1 DUP2 GT ISZERO PUSH2 0xA4B JUMPI PUSH2 0xA4B PUSH2 0xB14 JUMP JUMPDEST MUL OR SWAP1 SSTORE POP POP POP POP POP JUMP JUMPDEST PUSH1 0x0 DUP1 DUP3 PUSH1 0x3 DUP2 GT ISZERO PUSH2 0xA6B JUMPI PUSH2 0xA6B PUSH2 0xB14 JUMP JUMPDEST EQ DUP1 PUSH2 0xA89 JUMPI POP PUSH1 0x3 JUMPDEST DUP3 PUSH1 0x3 DUP2 GT ISZERO PUSH2 0xA87 JUMPI PUSH2 0xA87 PUSH2 0xB14 JUMP JUMPDEST EQ JUMPDEST SWAP3 SWAP2 POP POP JUMP JUMPDEST PUSH1 0x0 DUP1 DUP3 PUSH1 0x3 DUP2 GT ISZERO PUSH2 0xAA4 JUMPI PUSH2 0xAA4 PUSH2 0xB14 JUMP JUMPDEST EQ DUP1 PUSH2 0xAC1 JUMPI POP PUSH1 0x1 DUP3 PUSH1 0x3 DUP2 GT ISZERO PUSH2 0xABF JUMPI PUSH2 0xABF PUSH2 0xB14 JUMP JUMPDEST EQ JUMPDEST DUP1 PUSH2 0xA89 JUMPI POP PUSH1 0x2 PUSH2 0xA75 JUMP JUMPDEST DUP1 CALLDATALOAD PUSH1 0x1 PUSH1 0xA0 PUSH1 0x2 EXP SUB DUP2 AND DUP2 EQ PUSH2 0xAE5 JUMPI PUSH1 0x0 DUP1 REVERT JUMPDEST SWAP2 SWAP1 POP JUMP JUMPDEST PUSH1 0x0 DUP1 PUSH1 0x40 DUP4 DUP6 SUB SLT ISZERO PUSH2 0xAFD JUMPI PUSH1 0x0 DUP1 REVERT JUMPDEST PUSH2 0xB06 DUP4 PUSH2 0xACE JUMP JUMPDEST SWAP5 PUSH1 0x20 SWAP4 SWAP1 SWAP4 ADD CALLDATALOAD SWAP4 POP POP POP JUMP JUMPDEST PUSH32 0x4E487B7100000000000000000000000000000000000000000000000000000000 PUSH1 0x0 MSTORE PUSH1 0x21 PUSH1 0x4 MSTORE PUSH1 0x24 PUSH1 0x0 REVERT JUMPDEST PUSH1 0x4 DUP2 LT PUSH2 0xB7A JUMPI PUSH32 0x4E487B7100000000000000000000000000000000000000000000000000000000 PUSH1 0x0 MSTORE PUSH1 0x21 PUSH1 0x4 MSTORE PUSH1 0x24 PUSH1 0x0 REVERT JUMPDEST SWAP1 MSTORE JUMP JUMPDEST DUP3 ISZERO ISZERO DUP2 MSTORE PUSH1 0x40 DUP2 ADD PUSH2 0xB94 PUSH1 0x20 DUP4 ADD DUP5 PUSH2 0xB43 JUMP JUMPDEST SWAP4 SWAP3 POP POP POP JUMP JUMPDEST DUP1 CALLDATALOAD PUSH1 0x4 DUP2 LT PUSH2 0xAE5 JUMPI PUSH1 0x0 DUP1 REVERT JUMPDEST PUSH1 0x0 DUP1 PUSH1 0x40 DUP4 DUP6 SUB SLT ISZERO PUSH2 0xBBD JUMPI PUSH1 0x0 DUP1 REVERT JUMPDEST PUSH2 0xBC6 DUP4 PUSH2 0xB9B JUMP JUMPDEST SWAP2 POP PUSH2 0xBD4 PUSH1 0x20 DUP5 ADD PUSH2 0xB9B JUMP JUMPDEST SWAP1 POP SWAP3 POP SWAP3 SWAP1 POP JUMP JUMPDEST PUSH1 0x20 DUP2 ADD PUSH2 0xA89 DUP3 DUP5 PUSH2 0xB43 JUMP JUMPDEST PUSH1 0x0 DUP1 PUSH1 0x40 DUP4 DUP6 SUB SLT ISZERO PUSH2 0xBFE JUMPI PUSH1 0x0 DUP1 REVERT JUMPDEST DUP3 CALLDATALOAD SWAP2 POP PUSH2 0xBD4 PUSH1 0x20 DUP5 ADD PUSH2 0xB9B JUMP JUMPDEST PUSH1 0x0 PUSH1 0x20 DUP3 DUP5 SUB SLT ISZERO PUSH2 0xC20 JUMPI PUSH1 0x0 DUP1 REVERT JUMPDEST PUSH2 0xB94 DUP3 PUSH2 0xACE JUMP JUMPDEST PUSH1 0x0 PUSH1 0x20 DUP3 DUP5 SUB SLT ISZERO PUSH2 0xC3B JUMPI PUSH1 0x0 DUP1 REVERT JUMPDEST POP CALLDATALOAD SWAP2 SWAP1 POP JUMP JUMPDEST PUSH32 0x4E487B7100000000000000000000000000000000000000000000000000000000 PUSH1 0x0 MSTORE PUSH1 0x41 PUSH1 0x4 MSTORE PUSH1 0x24 PUSH1 0x0 REVERT JUMPDEST PUSH1 0x0 DUP1 PUSH1 0x40 DUP4 DUP6 SUB SLT ISZERO PUSH2 0xC84 JUMPI PUSH1 0x0 DUP1 REVERT JUMPDEST DUP3 CALLDATALOAD SWAP2 POP PUSH1 0x20 DUP4 ADD CALLDATALOAD PUSH8 0xFFFFFFFFFFFFFFFF DUP1 DUP3 GT ISZERO PUSH2 0xCA3 JUMPI PUSH1 0x0 DUP1 REVERT JUMPDEST DUP2 DUP6 ADD SWAP2 POP DUP6 PUSH1 0x1F DUP4 ADD SLT PUSH2 0xCB7 JUMPI PUSH1 0x0 DUP1 REVERT JUMPDEST DUP2 CALLDATALOAD DUP2 DUP2 GT ISZERO PUSH2 0xCC9 JUMPI PUSH2 0xCC9 PUSH2 0xC42 JUMP JUMPDEST PUSH1 0x40 MLOAD PUSH1 0x1F DUP3 ADD PUSH1 0x1F NOT SWAP1 DUP2 AND PUSH1 0x3F ADD AND DUP2 ADD SWAP1 DUP4 DUP3 GT DUP2 DUP4 LT OR ISZERO PUSH2 0xCF1 JUMPI PUSH2 0xCF1 PUSH2 0xC42 JUMP JUMPDEST DUP2 PUSH1 0x40 MSTORE DUP3 DUP2 MSTORE DUP9 PUSH1 0x20 DUP5 DUP8 ADD ADD GT ISZERO PUSH2 0xD0A JUMPI PUSH1 0x0 DUP1 REVERT JUMPDEST DUP3 PUSH1 0x20 DUP7 ADD PUSH1 0x20 DUP4 ADD CALLDATACOPY PUSH1 0x0 PUSH1 0x20 DUP5 DUP4 ADD ADD MSTORE DUP1 SWAP6 POP POP POP POP POP POP SWAP3 POP SWAP3 SWAP1 POP JUMP JUMPDEST DUP3 DUP2 MSTORE PUSH1 0x40 DUP2 ADD PUSH2 0xB94 PUSH1 0x20 DUP4 ADD DUP5 PUSH2 0xB43 JUMP INVALID LOG2 PUSH5 0x6970667358 0x22 SLT KECCAK256 SWAP11 0xE3 BALANCE 0xDD PUSH28 0x495FD6DD27BF68260D4D4E2BFE36EDE172A48DD88C4C3889D9F18C64 PUSH20 0x6F6C634300081100330000000000000000000000 "},"methodIdentifiers":{"addIssuerCredential(bytes32)":"dc11e39b","addSubjectCredential(bytes32,string)":"e04ce02c","deleteSubjectCredential(bytes32)":"dff9a1a9","getCredentialStatus(uint8,uint8)":"5faf7d94","getIssuerCredentialStatus(address,bytes32)":"aeda232a","getSubjectCredentialStatus(address,bytes32)":"55d64732","initialize(address)":"c4d66de8","previousPublishedVersion()":"6104464f","updateCredentialStatus(bytes32,uint8)":"dd517e10","updateIssuerCredential(bytes32,uint8)":"b1163173","updateSubjectCredential(bytes32,uint8)":"9b6bb600","version()":"54fd4d50"}},"storageLayout":{"storage":[{"astId":1608,"contract":"contracts/registries/AlastriaCredentialRegistry.sol:AlastriaCredentialRegistry","label":"_initialized","offset":0,"slot":"0","type":"t_uint8"},{"astId":1611,"contract":"contracts/registries/AlastriaCredentialRegistry.sol:AlastriaCredentialRegistry","label":"_initializing","offset":1,"slot":"0","type":"t_bool"},{"astId":2160,"contract":"contracts/registries/AlastriaCredentialRegistry.sol:AlastriaCredentialRegistry","label":"version","offset":0,"slot":"1","type":"t_int256"},{"astId":2162,"contract":"contracts/registries/AlastriaCredentialRegistry.sol:AlastriaCredentialRegistry","label":"previousPublishedVersion","offset":0,"slot":"2","type":"t_address"},{"astId":2193,"contract":"contracts/registries/AlastriaCredentialRegistry.sol:AlastriaCredentialRegistry","label":"subjectCredentialRegistry","offset":0,"slot":"3","type":"t_mapping(t_address,t_mapping(t_bytes32,t_struct(SubjectCredential)2186_storage))"},{"astId":2206,"contract":"contracts/registries/AlastriaCredentialRegistry.sol:AlastriaCredentialRegistry","label":"issuerCredentialRegistry","offset":0,"slot":"4","type":"t_mapping(t_address,t_mapping(t_bytes32,t_struct(IssuerCredential)2199_storage))"}],"types":{"t_address":{"encoding":"inplace","label":"address","numberOfBytes":"20"},"t_bool":{"encoding":"inplace","label":"bool","numberOfBytes":"1"},"t_bytes32":{"encoding":"inplace","label":"bytes32","numberOfBytes":"32"},"t_enum(Status)2167":{"encoding":"inplace","label":"enum AlastriaCredentialRegistry.Status","numberOfBytes":"1"},"t_int256":{"encoding":"inplace","label":"int256","numberOfBytes":"32"},"t_mapping(t_address,t_mapping(t_bytes32,t_struct(IssuerCredential)2199_storage))":{"encoding":"mapping","key":"t_address","label":"mapping(address => mapping(bytes32 => struct AlastriaCredentialRegistry.IssuerCredential))","numberOfBytes":"32","value":"t_mapping(t_bytes32,t_struct(IssuerCredential)2199_storage)"},"t_mapping(t_address,t_mapping(t_bytes32,t_struct(SubjectCredential)2186_storage))":{"encoding":"mapping","key":"t_address","label":"mapping(address => mapping(bytes32 => struct AlastriaCredentialRegistry.SubjectCredential))","numberOfBytes":"32","value":"t_mapping(t_bytes32,t_struct(SubjectCredential)2186_storage)"},"t_mapping(t_bytes32,t_struct(IssuerCredential)2199_storage)":{"encoding":"mapping","key":"t_bytes32","label":"mapping(bytes32 => struct AlastriaCredentialRegistry.IssuerCredential)","numberOfBytes":"32","value":"t_struct(IssuerCredential)2199_storage"},"t_mapping(t_bytes32,t_struct(SubjectCredential)2186_storage)":{"encoding":"mapping","key":"t_bytes32","label":"mapping(bytes32 => struct AlastriaCredentialRegistry.SubjectCredential)","numberOfBytes":"32","value":"t_struct(SubjectCredential)2186_storage"},"t_struct(IssuerCredential)2199_storage":{"encoding":"inplace","label":"struct AlastriaCredentialRegistry.IssuerCredential","members":[{"astId":2195,"contract":"contracts/registries/AlastriaCredentialRegistry.sol:AlastriaCredentialRegistry","label":"exists","offset":0,"slot":"0","type":"t_bool"},{"astId":2198,"contract":"contracts/registries/AlastriaCredentialRegistry.sol:AlastriaCredentialRegistry","label":"status","offset":1,"slot":"0","type":"t_enum(Status)2167"}],"numberOfBytes":"32"},"t_struct(SubjectCredential)2186_storage":{"encoding":"inplace","label":"struct AlastriaCredentialRegistry.SubjectCredential","members":[{"astId":2182,"contract":"contracts/registries/AlastriaCredentialRegistry.sol:AlastriaCredentialRegistry","label":"exists","offset":0,"slot":"0","type":"t_bool"},{"astId":2185,"contract":"contracts/registries/AlastriaCredentialRegistry.sol:AlastriaCredentialRegistry","label":"status","offset":1,"slot":"0","type":"t_enum(Status)2167"}],"numberOfBytes":"32"},"t_uint8":{"encoding":"inplace","label":"uint8","numberOfBytes":"1"}}}}}}