{"contracts/registries/AlastriaPresentationRegistry.sol":{"AlastriaPresentationRegistry":{"abi":[{"anonymous":false,"inputs":[{"indexed":false,"internalType":"uint8","name":"version","type":"uint8"}],"name":"Initialized","type":"event"},{"anonymous":false,"inputs":[{"indexed":false,"internalType":"bytes32","name":"hash","type":"bytes32"},{"indexed":false,"internalType":"enum AlastriaPresentationRegistry.Status","name":"status","type":"uint8"}],"name":"PresentationUpdated","type":"event"},{"inputs":[{"internalType":"bytes32","name":"subjectPresentationHash","type":"bytes32"},{"internalType":"string","name":"","type":"string"}],"name":"addSubjectPresentation","outputs":[],"stateMutability":"nonpayable","type":"function"},{"inputs":[{"internalType":"enum AlastriaPresentationRegistry.Status","name":"subjectStatus","type":"uint8"},{"internalType":"enum AlastriaPresentationRegistry.Status","name":"receiverStatus","type":"uint8"}],"name":"getPresentationStatus","outputs":[{"internalType":"enum AlastriaPresentationRegistry.Status","name":"","type":"uint8"}],"stateMutability":"pure","type":"function"},{"inputs":[{"internalType":"address","name":"receiver","type":"address"},{"internalType":"bytes32","name":"receiverPresentationHash","type":"bytes32"}],"name":"getReceiverPresentationStatus","outputs":[{"internalType":"bool","name":"exists","type":"bool"},{"internalType":"enum AlastriaPresentationRegistry.Status","name":"status","type":"uint8"}],"stateMutability":"view","type":"function"},{"inputs":[{"internalType":"address","name":"subject","type":"address"},{"internalType":"bytes32","name":"subjectPresentationHash","type":"bytes32"}],"name":"getSubjectPresentationStatus","outputs":[{"internalType":"bool","name":"exists","type":"bool"},{"internalType":"enum AlastriaPresentationRegistry.Status","name":"status","type":"uint8"}],"stateMutability":"view","type":"function"},{"inputs":[{"internalType":"address","name":"_previousPublishedVersion","type":"address"}],"name":"initialize","outputs":[],"stateMutability":"nonpayable","type":"function"},{"inputs":[],"name":"previousPublishedVersion","outputs":[{"internalType":"address","name":"","type":"address"}],"stateMutability":"view","type":"function"},{"inputs":[{"internalType":"bytes32","name":"receiverPresentationHash","type":"bytes32"},{"internalType":"enum AlastriaPresentationRegistry.Status","name":"status","type":"uint8"}],"name":"updateReceiverPresentation","outputs":[],"stateMutability":"nonpayable","type":"function"},{"inputs":[{"internalType":"bytes32","name":"subjectPresentationHash","type":"bytes32"},{"internalType":"enum AlastriaPresentationRegistry.Status","name":"status","type":"uint8"}],"name":"updateSubjectPresentation","outputs":[],"stateMutability":"nonpayable","type":"function"},{"inputs":[],"name":"version","outputs":[{"internalType":"int256","name":"","type":"int256"}],"stateMutability":"view","type":"function"}],"evm":{"bytecode":{"linkReferences":{},"object":"608060405234801561001057600080fd5b50610aa5806100206000396000f3fe608060405234801561001057600080fd5b50600436106100b0576000357c01000000000000000000000000000000000000000000000000000000009004806354fd4d501161008357806354fd4d50146101275780636104464f1461013e5780639373014a14610169578063c4d66de81461017c578063e64af9381461018f57600080fd5b8063034f8408146100b55780633000dc39146100de5780634e3a5de5146100f35780635205080f14610106575b600080fd5b6100c86100c336600461082a565b6101a2565b6040516100d591906108c7565b60405180910390f35b6100f16100ec3660046108d5565b61025c565b005b6100f1610101366004610927565b610428565b6101196101143660046109f9565b6104c6565b6040516100d5929190610a23565b61013060015481565b6040519081526020016100d5565b60025461015190600160a060020a031681565b604051600160a060020a0390911681526020016100d5565b6101196101773660046109f9565b610515565b6100f161018a366004610a40565b610564565b6100f161019d3660046108d5565b6106c8565b600082818160038111156101b8576101b861085d565b101580156101d8575060038160038111156101d5576101d561085d565b11155b6101e157600080fd5b8260008160038111156101f6576101f661085d565b10158015610216575060038160038111156102135761021361085d565b11155b61021f57600080fd5b8360038111156102315761023161085d565b8560038111156102435761024361085d565b1061025057849250610254565b8392505b505092915050565b8060008160038111156102715761027161085d565b101580156102915750600381600381111561028e5761028e61085d565b11155b61029a57600080fd5b6102a3826107b9565b15610423573360009081526004602090815260408083208684529091529020805460ff1661038f5760405180604001604052806001151581526020018460038111156102f1576102f161085d565b905233600090815260046020908152604080832088845282529091208251815490151560ff19821681178355928401519192839161ff001990911661ffff19909116176101008360038111156103495761034961085d565b02179055509050507f52035ff46a15e119b23cfbf756f83f68ee8740523a40b78f621fdd44f091fb388484604051610382929190610a5b565b60405180910390a1610421565b8054610100900460ff1660038111156103aa576103aa61085d565b8360038111156103bc576103bc61085d565b11156104215780548390829061ff0019166101008360038111156103e2576103e261085d565b02179055507f52035ff46a15e119b23cfbf756f83f68ee8740523a40b78f621fdd44f091fb388484604051610418929190610a5b565b60405180910390a15b505b505050565b33600090815260036020908152604080832085845290915290205460ff161561045057600080fd5b60408051808201825260018152600060208083018281523383526003808352858420888552909252939091208251815490151560ff1982168117835594519394919392849261ff00191661ffff1990921691909117906101009084908111156104bb576104bb61085d565b021790555050505050565b60008083600160a060020a0381166104dd57600080fd5b505050600160a060020a03919091166000908152600360209081526040808320938352929052205460ff808216926101009092041690565b60008083600160a060020a03811661052c57600080fd5b505050600160a060020a03919091166000908152600460209081526040808320938352929052205460ff808216926101009092041690565b600054610100900460ff16158080156105845750600054600160ff909116105b8061059e5750303b15801561059e575060005460ff166001145b61062e576040517f08c379a000000000000000000000000000000000000000000000000000000000815260206004820152602e60248201527f496e697469616c697a61626c653a20636f6e747261637420697320616c72656160448201527f647920696e697469616c697a6564000000000000000000000000000000000000606482015260840160405180910390fd5b6000805460ff191660011790558015610651576000805461ff0019166101001790555b60046001556002805473ffffffffffffffffffffffffffffffffffffffff1916600160a060020a03841617905580156106c4576000805461ff0019169055604051600181527f7f26b83ff96e1f2b6a682f133852f6798a09c465da95921460cefb38474024989060200160405180910390a15b5050565b8060008160038111156106dd576106dd61085d565b101580156106fd575060038160038111156106fa576106fa61085d565b11155b61070657600080fd5b61070f826107f3565b15610423573360009081526003602090815260408083208684529091529020805460ff1661038f57604051806040016040528060011515815260200184600381111561075d5761075d61085d565b905233600090815260036020818152604080842089855282529092208351815490151560ff198216811783559385015191939192849261ff00191661ffff1990921691909117906101009084908111156103495761034961085d565b600060018260038111156107cf576107cf61085d565b14806107ed575060035b8260038111156107eb576107eb61085d565b145b92915050565b6000808260038111156108085761080861085d565b14806107ed575060026107d9565b80356004811061082557600080fd5b919050565b6000806040838503121561083d57600080fd5b61084683610816565b915061085460208401610816565b90509250929050565b7f4e487b7100000000000000000000000000000000000000000000000000000000600052602160045260246000fd5b600481106108c3577f4e487b7100000000000000000000000000000000000000000000000000000000600052602160045260246000fd5b9052565b602081016107ed828461088c565b600080604083850312156108e857600080fd5b8235915061085460208401610816565b7f4e487b7100000000000000000000000000000000000000000000000000000000600052604160045260246000fd5b6000806040838503121561093a57600080fd5b82359150602083013567ffffffffffffffff8082111561095957600080fd5b818501915085601f83011261096d57600080fd5b81358181111561097f5761097f6108f8565b604051601f8201601f19908116603f011681019083821181831017156109a7576109a76108f8565b816040528281528860208487010111156109c057600080fd5b8260208601602083013760006020848301015280955050505050509250929050565b8035600160a060020a038116811461082557600080fd5b60008060408385031215610a0c57600080fd5b610a15836109e2565b946020939093013593505050565b821515815260408101610a39602083018461088c565b9392505050565b600060208284031215610a5257600080fd5b610a39826109e2565b82815260408101610a39602083018461088c56fea2646970667358221220f1ececf9188776acc2700acf52c5893f4d9ae304444df1f197e60b9c49a1241664736f6c63430008110033","opcodes":"PUSH1 0x80 PUSH1 0x40 MSTORE CALLVALUE DUP1 ISZERO PUSH2 0x10 JUMPI PUSH1 0x0 DUP1 REVERT JUMPDEST POP PUSH2 0xAA5 DUP1 PUSH2 0x20 PUSH1 0x0 CODECOPY PUSH1 0x0 RETURN INVALID PUSH1 0x80 PUSH1 0x40 MSTORE CALLVALUE DUP1 ISZERO PUSH2 0x10 JUMPI PUSH1 0x0 DUP1 REVERT JUMPDEST POP PUSH1 0x4 CALLDATASIZE LT PUSH2 0xB0 JUMPI PUSH1 0x0 CALLDATALOAD PUSH29 0x100000000000000000000000000000000000000000000000000000000 SWAP1 DIV DUP1 PUSH4 0x54FD4D50 GT PUSH2 0x83 JUMPI DUP1 PUSH4 0x54FD4D50 EQ PUSH2 0x127 JUMPI DUP1 PUSH4 0x6104464F EQ PUSH2 0x13E JUMPI DUP1 PUSH4 0x9373014A EQ PUSH2 0x169 JUMPI DUP1 PUSH4 0xC4D66DE8 EQ PUSH2 0x17C JUMPI DUP1 PUSH4 0xE64AF938 EQ PUSH2 0x18F JUMPI PUSH1 0x0 DUP1 REVERT JUMPDEST DUP1 PUSH4 0x34F8408 EQ PUSH2 0xB5 JUMPI DUP1 PUSH4 0x3000DC39 EQ PUSH2 0xDE JUMPI DUP1 PUSH4 0x4E3A5DE5 EQ PUSH2 0xF3 JUMPI DUP1 PUSH4 0x5205080F EQ PUSH2 0x106 JUMPI JUMPDEST PUSH1 0x0 DUP1 REVERT JUMPDEST PUSH2 0xC8 PUSH2 0xC3 CALLDATASIZE PUSH1 0x4 PUSH2 0x82A JUMP JUMPDEST PUSH2 0x1A2 JUMP JUMPDEST PUSH1 0x40 MLOAD PUSH2 0xD5 SWAP2 SWAP1 PUSH2 0x8C7 JUMP JUMPDEST PUSH1 0x40 MLOAD DUP1 SWAP2 SUB SWAP1 RETURN JUMPDEST PUSH2 0xF1 PUSH2 0xEC CALLDATASIZE PUSH1 0x4 PUSH2 0x8D5 JUMP JUMPDEST PUSH2 0x25C JUMP JUMPDEST STOP JUMPDEST PUSH2 0xF1 PUSH2 0x101 CALLDATASIZE PUSH1 0x4 PUSH2 0x927 JUMP JUMPDEST PUSH2 0x428 JUMP JUMPDEST PUSH2 0x119 PUSH2 0x114 CALLDATASIZE PUSH1 0x4 PUSH2 0x9F9 JUMP JUMPDEST PUSH2 0x4C6 JUMP JUMPDEST PUSH1 0x40 MLOAD PUSH2 0xD5 SWAP3 SWAP2 SWAP1 PUSH2 0xA23 JUMP JUMPDEST PUSH2 0x130 PUSH1 0x1 SLOAD DUP2 JUMP JUMPDEST PUSH1 0x40 MLOAD SWAP1 DUP2 MSTORE PUSH1 0x20 ADD PUSH2 0xD5 JUMP JUMPDEST PUSH1 0x2 SLOAD PUSH2 0x151 SWAP1 PUSH1 0x1 PUSH1 0xA0 PUSH1 0x2 EXP SUB AND DUP2 JUMP JUMPDEST PUSH1 0x40 MLOAD PUSH1 0x1 PUSH1 0xA0 PUSH1 0x2 EXP SUB SWAP1 SWAP2 AND DUP2 MSTORE PUSH1 0x20 ADD PUSH2 0xD5 JUMP JUMPDEST PUSH2 0x119 PUSH2 0x177 CALLDATASIZE PUSH1 0x4 PUSH2 0x9F9 JUMP JUMPDEST PUSH2 0x515 JUMP JUMPDEST PUSH2 0xF1 PUSH2 0x18A CALLDATASIZE PUSH1 0x4 PUSH2 0xA40 JUMP JUMPDEST PUSH2 0x564 JUMP JUMPDEST PUSH2 0xF1 PUSH2 0x19D CALLDATASIZE PUSH1 0x4 PUSH2 0x8D5 JUMP JUMPDEST PUSH2 0x6C8 JUMP JUMPDEST PUSH1 0x0 DUP3 DUP2 DUP2 PUSH1 0x3 DUP2 GT ISZERO PUSH2 0x1B8 JUMPI PUSH2 0x1B8 PUSH2 0x85D JUMP JUMPDEST LT ISZERO DUP1 ISZERO PUSH2 0x1D8 JUMPI POP PUSH1 0x3 DUP2 PUSH1 0x3 DUP2 GT ISZERO PUSH2 0x1D5 JUMPI PUSH2 0x1D5 PUSH2 0x85D JUMP JUMPDEST GT ISZERO JUMPDEST PUSH2 0x1E1 JUMPI PUSH1 0x0 DUP1 REVERT JUMPDEST DUP3 PUSH1 0x0 DUP2 PUSH1 0x3 DUP2 GT ISZERO PUSH2 0x1F6 JUMPI PUSH2 0x1F6 PUSH2 0x85D JUMP JUMPDEST LT ISZERO DUP1 ISZERO PUSH2 0x216 JUMPI POP PUSH1 0x3 DUP2 PUSH1 0x3 DUP2 GT ISZERO PUSH2 0x213 JUMPI PUSH2 0x213 PUSH2 0x85D JUMP JUMPDEST GT ISZERO JUMPDEST PUSH2 0x21F JUMPI PUSH1 0x0 DUP1 REVERT JUMPDEST DUP4 PUSH1 0x3 DUP2 GT ISZERO PUSH2 0x231 JUMPI PUSH2 0x231 PUSH2 0x85D JUMP JUMPDEST DUP6 PUSH1 0x3 DUP2 GT ISZERO PUSH2 0x243 JUMPI PUSH2 0x243 PUSH2 0x85D JUMP JUMPDEST LT PUSH2 0x250 JUMPI DUP5 SWAP3 POP PUSH2 0x254 JUMP JUMPDEST DUP4 SWAP3 POP JUMPDEST POP POP SWAP3 SWAP2 POP POP JUMP JUMPDEST DUP1 PUSH1 0x0 DUP2 PUSH1 0x3 DUP2 GT ISZERO PUSH2 0x271 JUMPI PUSH2 0x271 PUSH2 0x85D JUMP JUMPDEST LT ISZERO DUP1 ISZERO PUSH2 0x291 JUMPI POP PUSH1 0x3 DUP2 PUSH1 0x3 DUP2 GT ISZERO PUSH2 0x28E JUMPI PUSH2 0x28E PUSH2 0x85D JUMP JUMPDEST GT ISZERO JUMPDEST PUSH2 0x29A JUMPI PUSH1 0x0 DUP1 REVERT JUMPDEST PUSH2 0x2A3 DUP3 PUSH2 0x7B9 JUMP JUMPDEST ISZERO PUSH2 0x423 JUMPI CALLER PUSH1 0x0 SWAP1 DUP2 MSTORE PUSH1 0x4 PUSH1 0x20 SWAP1 DUP2 MSTORE PUSH1 0x40 DUP1 DUP4 KECCAK256 DUP7 DUP5 MSTORE SWAP1 SWAP2 MSTORE SWAP1 KECCAK256 DUP1 SLOAD PUSH1 0xFF AND PUSH2 0x38F JUMPI PUSH1 0x40 MLOAD DUP1 PUSH1 0x40 ADD PUSH1 0x40 MSTORE DUP1 PUSH1 0x1 ISZERO ISZERO DUP2 MSTORE PUSH1 0x20 ADD DUP5 PUSH1 0x3 DUP2 GT ISZERO PUSH2 0x2F1 JUMPI PUSH2 0x2F1 PUSH2 0x85D JUMP JUMPDEST SWAP1 MSTORE CALLER PUSH1 0x0 SWAP1 DUP2 MSTORE PUSH1 0x4 PUSH1 0x20 SWAP1 DUP2 MSTORE PUSH1 0x40 DUP1 DUP4 KECCAK256 DUP9 DUP5 MSTORE DUP3 MSTORE SWAP1 SWAP2 KECCAK256 DUP3 MLOAD DUP2 SLOAD SWAP1 ISZERO ISZERO PUSH1 0xFF NOT DUP3 AND DUP2 OR DUP4 SSTORE SWAP3 DUP5 ADD MLOAD SWAP2 SWAP3 DUP4 SWAP2 PUSH2 0xFF00 NOT SWAP1 SWAP2 AND PUSH2 0xFFFF NOT SWAP1 SWAP2 AND OR PUSH2 0x100 DUP4 PUSH1 0x3 DUP2 GT ISZERO PUSH2 0x349 JUMPI PUSH2 0x349 PUSH2 0x85D JUMP JUMPDEST MUL OR SWAP1 SSTORE POP SWAP1 POP POP PUSH32 0x52035FF46A15E119B23CFBF756F83F68EE8740523A40B78F621FDD44F091FB38 DUP5 DUP5 PUSH1 0x40 MLOAD PUSH2 0x382 SWAP3 SWAP2 SWAP1 PUSH2 0xA5B JUMP JUMPDEST PUSH1 0x40 MLOAD DUP1 SWAP2 SUB SWAP1 LOG1 PUSH2 0x421 JUMP JUMPDEST DUP1 SLOAD PUSH2 0x100 SWAP1 DIV PUSH1 0xFF AND PUSH1 0x3 DUP2 GT ISZERO PUSH2 0x3AA JUMPI PUSH2 0x3AA PUSH2 0x85D JUMP JUMPDEST DUP4 PUSH1 0x3 DUP2 GT ISZERO PUSH2 0x3BC JUMPI PUSH2 0x3BC PUSH2 0x85D JUMP JUMPDEST GT ISZERO PUSH2 0x421 JUMPI DUP1 SLOAD DUP4 SWAP1 DUP3 SWAP1 PUSH2 0xFF00 NOT AND PUSH2 0x100 DUP4 PUSH1 0x3 DUP2 GT ISZERO PUSH2 0x3E2 JUMPI PUSH2 0x3E2 PUSH2 0x85D JUMP JUMPDEST MUL OR SWAP1 SSTORE POP PUSH32 0x52035FF46A15E119B23CFBF756F83F68EE8740523A40B78F621FDD44F091FB38 DUP5 DUP5 PUSH1 0x40 MLOAD PUSH2 0x418 SWAP3 SWAP2 SWAP1 PUSH2 0xA5B JUMP JUMPDEST PUSH1 0x40 MLOAD DUP1 SWAP2 SUB SWAP1 LOG1 JUMPDEST POP JUMPDEST POP POP POP JUMP JUMPDEST CALLER PUSH1 0x0 SWAP1 DUP2 MSTORE PUSH1 0x3 PUSH1 0x20 SWAP1 DUP2 MSTORE PUSH1 0x40 DUP1 DUP4 KECCAK256 DUP6 DUP5 MSTORE SWAP1 SWAP2 MSTORE SWAP1 KECCAK256 SLOAD PUSH1 0xFF AND ISZERO PUSH2 0x450 JUMPI PUSH1 0x0 DUP1 REVERT JUMPDEST PUSH1 0x40 DUP1 MLOAD DUP1 DUP3 ADD DUP3 MSTORE PUSH1 0x1 DUP2 MSTORE PUSH1 0x0 PUSH1 0x20 DUP1 DUP4 ADD DUP3 DUP2 MSTORE CALLER DUP4 MSTORE PUSH1 0x3 DUP1 DUP4 MSTORE DUP6 DUP5 KECCAK256 DUP9 DUP6 MSTORE SWAP1 SWAP3 MSTORE SWAP4 SWAP1 SWAP2 KECCAK256 DUP3 MLOAD DUP2 SLOAD SWAP1 ISZERO ISZERO PUSH1 0xFF NOT DUP3 AND DUP2 OR DUP4 SSTORE SWAP5 MLOAD SWAP4 SWAP5 SWAP2 SWAP4 SWAP3 DUP5 SWAP3 PUSH2 0xFF00 NOT AND PUSH2 0xFFFF NOT SWAP1 SWAP3 AND SWAP2 SWAP1 SWAP2 OR SWAP1 PUSH2 0x100 SWAP1 DUP5 SWAP1 DUP2 GT ISZERO PUSH2 0x4BB JUMPI PUSH2 0x4BB PUSH2 0x85D JUMP JUMPDEST MUL OR SWAP1 SSTORE POP POP POP POP POP JUMP JUMPDEST PUSH1 0x0 DUP1 DUP4 PUSH1 0x1 PUSH1 0xA0 PUSH1 0x2 EXP SUB DUP2 AND PUSH2 0x4DD JUMPI PUSH1 0x0 DUP1 REVERT JUMPDEST POP POP POP PUSH1 0x1 PUSH1 0xA0 PUSH1 0x2 EXP SUB SWAP2 SWAP1 SWAP2 AND PUSH1 0x0 SWAP1 DUP2 MSTORE PUSH1 0x3 PUSH1 0x20 SWAP1 DUP2 MSTORE PUSH1 0x40 DUP1 DUP4 KECCAK256 SWAP4 DUP4 MSTORE SWAP3 SWAP1 MSTORE KECCAK256 SLOAD PUSH1 0xFF DUP1 DUP3 AND SWAP3 PUSH2 0x100 SWAP1 SWAP3 DIV AND SWAP1 JUMP JUMPDEST PUSH1 0x0 DUP1 DUP4 PUSH1 0x1 PUSH1 0xA0 PUSH1 0x2 EXP SUB DUP2 AND PUSH2 0x52C JUMPI PUSH1 0x0 DUP1 REVERT JUMPDEST POP POP POP PUSH1 0x1 PUSH1 0xA0 PUSH1 0x2 EXP SUB SWAP2 SWAP1 SWAP2 AND PUSH1 0x0 SWAP1 DUP2 MSTORE PUSH1 0x4 PUSH1 0x20 SWAP1 DUP2 MSTORE PUSH1 0x40 DUP1 DUP4 KECCAK256 SWAP4 DUP4 MSTORE SWAP3 SWAP1 MSTORE KECCAK256 SLOAD PUSH1 0xFF DUP1 DUP3 AND SWAP3 PUSH2 0x100 SWAP1 SWAP3 DIV AND SWAP1 JUMP JUMPDEST PUSH1 0x0 SLOAD PUSH2 0x100 SWAP1 DIV PUSH1 0xFF AND ISZERO DUP1 DUP1 ISZERO PUSH2 0x584 JUMPI POP PUSH1 0x0 SLOAD PUSH1 0x1 PUSH1 0xFF SWAP1 SWAP2 AND LT JUMPDEST DUP1 PUSH2 0x59E JUMPI POP ADDRESS EXTCODESIZE ISZERO DUP1 ISZERO PUSH2 0x59E JUMPI POP PUSH1 0x0 SLOAD PUSH1 0xFF AND PUSH1 0x1 EQ JUMPDEST PUSH2 0x62E JUMPI PUSH1 0x40 MLOAD PUSH32 0x8C379A000000000000000000000000000000000000000000000000000000000 DUP2 MSTORE PUSH1 0x20 PUSH1 0x4 DUP3 ADD MSTORE PUSH1 0x2E PUSH1 0x24 DUP3 ADD MSTORE PUSH32 0x496E697469616C697A61626C653A20636F6E747261637420697320616C726561 PUSH1 0x44 DUP3 ADD MSTORE PUSH32 0x647920696E697469616C697A6564000000000000000000000000000000000000 PUSH1 0x64 DUP3 ADD MSTORE PUSH1 0x84 ADD PUSH1 0x40 MLOAD DUP1 SWAP2 SUB SWAP1 REVERT JUMPDEST PUSH1 0x0 DUP1 SLOAD PUSH1 0xFF NOT AND PUSH1 0x1 OR SWAP1 SSTORE DUP1 ISZERO PUSH2 0x651 JUMPI PUSH1 0x0 DUP1 SLOAD PUSH2 0xFF00 NOT AND PUSH2 0x100 OR SWAP1 SSTORE JUMPDEST PUSH1 0x4 PUSH1 0x1 SSTORE PUSH1 0x2 DUP1 SLOAD PUSH20 0xFFFFFFFFFFFFFFFFFFFFFFFFFFFFFFFFFFFFFFFF NOT AND PUSH1 0x1 PUSH1 0xA0 PUSH1 0x2 EXP SUB DUP5 AND OR SWAP1 SSTORE DUP1 ISZERO PUSH2 0x6C4 JUMPI PUSH1 0x0 DUP1 SLOAD PUSH2 0xFF00 NOT AND SWAP1 SSTORE PUSH1 0x40 MLOAD PUSH1 0x1 DUP2 MSTORE PUSH32 0x7F26B83FF96E1F2B6A682F133852F6798A09C465DA95921460CEFB3847402498 SWAP1 PUSH1 0x20 ADD PUSH1 0x40 MLOAD DUP1 SWAP2 SUB SWAP1 LOG1 JUMPDEST POP POP JUMP JUMPDEST DUP1 PUSH1 0x0 DUP2 PUSH1 0x3 DUP2 GT ISZERO PUSH2 0x6DD JUMPI PUSH2 0x6DD PUSH2 0x85D JUMP JUMPDEST LT ISZERO DUP1 ISZERO PUSH2 0x6FD JUMPI POP PUSH1 0x3 DUP2 PUSH1 0x3 DUP2 GT ISZERO PUSH2 0x6FA JUMPI PUSH2 0x6FA PUSH2 0x85D JUMP JUMPDEST GT ISZERO JUMPDEST PUSH2 0x706 JUMPI PUSH1 0x0 DUP1 REVERT JUMPDEST PUSH2 0x70F DUP3 PUSH2 0x7F3 JUMP JUMPDEST ISZERO PUSH2 0x423 JUMPI CALLER PUSH1 0x0 SWAP1 DUP2 MSTORE PUSH1 0x3 PUSH1 0x20 SWAP1 DUP2 MSTORE PUSH1 0x40 DUP1 DUP4 KECCAK256 DUP7 DUP5 MSTORE SWAP1 SWAP2 MSTORE SWAP1 KECCAK256 DUP1 SLOAD PUSH1 0xFF AND PUSH2 0x38F JUMPI PUSH1 0x40 MLOAD DUP1 PUSH1 0x40 ADD PUSH1 0x40 MSTORE DUP1 PUSH1 0x1 ISZERO ISZERO DUP2 MSTORE PUSH1 0x20 ADD DUP5 PUSH1 0x3 DUP2 GT ISZERO PUSH2 0x75D JUMPI PUSH2 0x75D PUSH2 0x85D JUMP JUMPDEST SWAP1 MSTORE CALLER PUSH1 0x0 SWAP1 DUP2 MSTORE PUSH1 0x3 PUSH1 0x20 DUP2 DUP2 MSTORE PUSH1 0x40 DUP1 DUP5 KECCAK256 DUP10 DUP6 MSTORE DUP3 MSTORE SWAP1 SWAP3 KECCAK256 DUP4 MLOAD DUP2 SLOAD SWAP1 ISZERO ISZERO PUSH1 0xFF NOT DUP3 AND DUP2 OR DUP4 SSTORE SWAP4 DUP6 ADD MLOAD SWAP2 SWAP4 SWAP2 SWAP3 DUP5 SWAP3 PUSH2 0xFF00 NOT AND PUSH2 0xFFFF NOT SWAP1 SWAP3 AND SWAP2 SWAP1 SWAP2 OR SWAP1 PUSH2 0x100 SWAP1 DUP5 SWAP1 DUP2 GT ISZERO PUSH2 0x349 JUMPI PUSH2 0x349 PUSH2 0x85D JUMP JUMPDEST PUSH1 0x0 PUSH1 0x1 DUP3 PUSH1 0x3 DUP2 GT ISZERO PUSH2 0x7CF JUMPI PUSH2 0x7CF PUSH2 0x85D JUMP JUMPDEST EQ DUP1 PUSH2 0x7ED JUMPI POP PUSH1 0x3 JUMPDEST DUP3 PUSH1 0x3 DUP2 GT ISZERO PUSH2 0x7EB JUMPI PUSH2 0x7EB PUSH2 0x85D JUMP JUMPDEST EQ JUMPDEST SWAP3 SWAP2 POP POP JUMP JUMPDEST PUSH1 0x0 DUP1 DUP3 PUSH1 0x3 DUP2 GT ISZERO PUSH2 0x808 JUMPI PUSH2 0x808 PUSH2 0x85D JUMP JUMPDEST EQ DUP1 PUSH2 0x7ED JUMPI POP PUSH1 0x2 PUSH2 0x7D9 JUMP JUMPDEST DUP1 CALLDATALOAD PUSH1 0x4 DUP2 LT PUSH2 0x825 JUMPI PUSH1 0x0 DUP1 REVERT JUMPDEST SWAP2 SWAP1 POP JUMP JUMPDEST PUSH1 0x0 DUP1 PUSH1 0x40 DUP4 DUP6 SUB SLT ISZERO PUSH2 0x83D JUMPI PUSH1 0x0 DUP1 REVERT JUMPDEST PUSH2 0x846 DUP4 PUSH2 0x816 JUMP JUMPDEST SWAP2 POP PUSH2 0x854 PUSH1 0x20 DUP5 ADD PUSH2 0x816 JUMP JUMPDEST SWAP1 POP SWAP3 POP SWAP3 SWAP1 POP JUMP JUMPDEST PUSH32 0x4E487B7100000000000000000000000000000000000000000000000000000000 PUSH1 0x0 MSTORE PUSH1 0x21 PUSH1 0x4 MSTORE PUSH1 0x24 PUSH1 0x0 REVERT JUMPDEST PUSH1 0x4 DUP2 LT PUSH2 0x8C3 JUMPI PUSH32 0x4E487B7100000000000000000000000000000000000000000000000000000000 PUSH1 0x0 MSTORE PUSH1 0x21 PUSH1 0x4 MSTORE PUSH1 0x24 PUSH1 0x0 REVERT JUMPDEST SWAP1 MSTORE JUMP JUMPDEST PUSH1 0x20 DUP2 ADD PUSH2 0x7ED DUP3 DUP5 PUSH2 0x88C JUMP JUMPDEST PUSH1 0x0 DUP1 PUSH1 0x40 DUP4 DUP6 SUB SLT ISZERO PUSH2 0x8E8 JUMPI PUSH1 0x0 DUP1 REVERT JUMPDEST DUP3 CALLDATALOAD SWAP2 POP PUSH2 0x854 PUSH1 0x20 DUP5 ADD PUSH2 0x816 JUMP JUMPDEST PUSH32 0x4E487B7100000000000000000000000000000000000000000000000000000000 PUSH1 0x0 MSTORE PUSH1 0x41 PUSH1 0x4 MSTORE PUSH1 0x24 PUSH1 0x0 REVERT JUMPDEST PUSH1 0x0 DUP1 PUSH1 0x40 DUP4 DUP6 SUB SLT ISZERO PUSH2 0x93A JUMPI PUSH1 0x0 DUP1 REVERT JUMPDEST DUP3 CALLDATALOAD SWAP2 POP PUSH1 0x20 DUP4 ADD CALLDATALOAD PUSH8 0xFFFFFFFFFFFFFFFF DUP1 DUP3 GT ISZERO PUSH2 0x959 JUMPI PUSH1 0x0 DUP1 REVERT JUMPDEST DUP2 DUP6 ADD SWAP2 POP DUP6 PUSH1 0x1F DUP4 ADD SLT PUSH2 0x96D JUMPI PUSH1 0x0 DUP1 REVERT JUMPDEST DUP2 CALLDATALOAD DUP2 DUP2 GT ISZERO PUSH2 0x97F JUMPI PUSH2 0x97F PUSH2 0x8F8 JUMP JUMPDEST PUSH1 0x40 MLOAD PUSH1 0x1F DUP3 ADD PUSH1 0x1F NOT SWAP1 DUP2 AND PUSH1 0x3F ADD AND DUP2 ADD SWAP1 DUP4 DUP3 GT DUP2 DUP4 LT OR ISZERO PUSH2 0x9A7 JUMPI PUSH2 0x9A7 PUSH2 0x8F8 JUMP JUMPDEST DUP2 PUSH1 0x40 MSTORE DUP3 DUP2 MSTORE DUP9 PUSH1 0x20 DUP5 DUP8 ADD ADD GT ISZERO PUSH2 0x9C0 JUMPI PUSH1 0x0 DUP1 REVERT JUMPDEST DUP3 PUSH1 0x20 DUP7 ADD PUSH1 0x20 DUP4 ADD CALLDATACOPY PUSH1 0x0 PUSH1 0x20 DUP5 DUP4 ADD ADD MSTORE DUP1 SWAP6 POP POP POP POP POP POP SWAP3 POP SWAP3 SWAP1 POP JUMP JUMPDEST DUP1 CALLDATALOAD PUSH1 0x1 PUSH1 0xA0 PUSH1 0x2 EXP SUB DUP2 AND DUP2 EQ PUSH2 0x825 JUMPI PUSH1 0x0 DUP1 REVERT JUMPDEST PUSH1 0x0 DUP1 PUSH1 0x40 DUP4 DUP6 SUB SLT ISZERO PUSH2 0xA0C JUMPI PUSH1 0x0 DUP1 REVERT JUMPDEST PUSH2 0xA15 DUP4 PUSH2 0x9E2 JUMP JUMPDEST SWAP5 PUSH1 0x20 SWAP4 SWAP1 SWAP4 ADD CALLDATALOAD SWAP4 POP POP POP JUMP JUMPDEST DUP3 ISZERO ISZERO DUP2 MSTORE PUSH1 0x40 DUP2 ADD PUSH2 0xA39 PUSH1 0x20 DUP4 ADD DUP5 PUSH2 0x88C JUMP JUMPDEST SWAP4 SWAP3 POP POP POP JUMP JUMPDEST PUSH1 0x0 PUSH1 0x20 DUP3 DUP5 SUB SLT ISZERO PUSH2 0xA52 JUMPI PUSH1 0x0 DUP1 REVERT JUMPDEST PUSH2 0xA39 DUP3 PUSH2 0x9E2 JUMP JUMPDEST DUP3 DUP2 MSTORE PUSH1 0x40 DUP2 ADD PUSH2 0xA39 PUSH1 0x20 DUP4 ADD DUP5 PUSH2 0x88C JUMP INVALID LOG2 PUSH5 0x6970667358 0x22 SLT KECCAK256 CALL 0xEC 0xEC 0xF9 XOR DUP8 PUSH23 0xACC2700ACF52C5893F4D9AE304444DF1F197E60B9C49A1 0x24 AND PUSH5 0x736F6C6343 STOP ADDMOD GT STOP CALLER "},"methodIdentifiers":{"addSubjectPresentation(bytes32,string)":"4e3a5de5","getPresentationStatus(uint8,uint8)":"034f8408","getReceiverPresentationStatus(address,bytes32)":"9373014a","getSubjectPresentationStatus(address,bytes32)":"5205080f","initialize(address)":"c4d66de8","previousPublishedVersion()":"6104464f","updateReceiverPresentation(bytes32,uint8)":"3000dc39","updateSubjectPresentation(bytes32,uint8)":"e64af938","version()":"54fd4d50"}},"storageLayout":{"storage":[{"astId":1608,"contract":"contracts/registries/AlastriaPresentationRegistry.sol:AlastriaPresentationRegistry","label":"_initialized","offset":0,"slot":"0","type":"t_uint8"},{"astId":1611,"contract":"contracts/registries/AlastriaPresentationRegistry.sol:AlastriaPresentationRegistry","label":"_initializing","offset":1,"slot":"0","type":"t_bool"},{"astId":2705,"contract":"contracts/registries/AlastriaPresentationRegistry.sol:AlastriaPresentationRegistry","label":"version","offset":0,"slot":"1","type":"t_int256"},{"astId":2707,"contract":"contracts/registries/AlastriaPresentationRegistry.sol:AlastriaPresentationRegistry","label":"previousPublishedVersion","offset":0,"slot":"2","type":"t_address"},{"astId":2738,"contract":"contracts/registries/AlastriaPresentationRegistry.sol:AlastriaPresentationRegistry","label":"subjectPresentationRegistry","offset":0,"slot":"3","type":"t_mapping(t_address,t_mapping(t_bytes32,t_struct(SubjectPresentation)2731_storage))"},{"astId":2751,"contract":"contracts/registries/AlastriaPresentationRegistry.sol:AlastriaPresentationRegistry","label":"receiverPresentationRegistry","offset":0,"slot":"4","type":"t_mapping(t_address,t_mapping(t_bytes32,t_struct(ReceiverPresentation)2744_storage))"}],"types":{"t_address":{"encoding":"inplace","label":"address","numberOfBytes":"20"},"t_bool":{"encoding":"inplace","label":"bool","numberOfBytes":"1"},"t_bytes32":{"encoding":"inplace","label":"bytes32","numberOfBytes":"32"},"t_enum(Status)2712":{"encoding":"inplace","label":"enum AlastriaPresentationRegistry.Status","numberOfBytes":"1"},"t_int256":{"encoding":"inplace","label":"int256","numberOfBytes":"32"},"t_mapping(t_address,t_mapping(t_bytes32,t_struct(ReceiverPresentation)2744_storage))":{"encoding":"mapping","key":"t_address","label":"mapping(address => mapping(bytes32 => struct AlastriaPresentationRegistry.ReceiverPresentation))","numberOfBytes":"32","value":"t_mapping(t_bytes32,t_struct(ReceiverPresentation)2744_storage)"},"t_mapping(t_address,t_mapping(t_bytes32,t_struct(SubjectPresentation)2731_storage))":{"encoding":"mapping","key":"t_address","label":"mapping(address => mapping(bytes32 => struct AlastriaPresentationRegistry.SubjectPresentation))","numberOfBytes":"32","value":"t_mapping(t_bytes32,t_struct(SubjectPresentation)2731_storage)"},"t_mapping(t_bytes32,t_struct(ReceiverPresentation)2744_storage)":{"encoding":"mapping","key":"t_bytes32","label":"mapping(bytes32 => struct AlastriaPresentationRegistry.ReceiverPresentation)","numberOfBytes":"32","value":"t_struct(ReceiverPresentation)2744_storage"},"t_mapping(t_bytes32,t_struct(SubjectPresentation)2731_storage)":{"encoding":"mapping","key":"t_bytes32","label":"mapping(bytes32 => struct AlastriaPresentationRegistry.SubjectPresentation)","numberOfBytes":"32","value":"t_struct(SubjectPresentation)2731_storage"},"t_struct(ReceiverPresentation)2744_storage":{"encoding":"inplace","label":"struct AlastriaPresentationRegistry.ReceiverPresentation","members":[{"astId":2740,"contract":"contracts/registries/AlastriaPresentationRegistry.sol:AlastriaPresentationRegistry","label":"exists","offset":0,"slot":"0","type":"t_bool"},{"astId":2743,"contract":"contracts/registries/AlastriaPresentationRegistry.sol:AlastriaPresentationRegistry","label":"status","offset":1,"slot":"0","type":"t_enum(Status)2712"}],"numberOfBytes":"32"},"t_struct(SubjectPresentation)2731_storage":{"encoding":"inplace","label":"struct AlastriaPresentationRegistry.SubjectPresentation","members":[{"astId":2727,"contract":"contracts/registries/AlastriaPresentationRegistry.sol:AlastriaPresentationRegistry","label":"exists","offset":0,"slot":"0","type":"t_bool"},{"astId":2730,"contract":"contracts/registries/AlastriaPresentationRegistry.sol:AlastriaPresentationRegistry","label":"status","offset":1,"slot":"0","type":"t_enum(Status)2712"}],"numberOfBytes":"32"},"t_uint8":{"encoding":"inplace","label":"uint8","numberOfBytes":"1"}}}}}}