{"contracts/identity/AlastriaIdentityManager.sol":{"AlastriaIdentityManager":{"abi":[{"anonymous":false,"inputs":[{"indexed":true,"internalType":"address","name":"identity","type":"address"},{"indexed":true,"internalType":"address","name":"creator","type":"address"},{"indexed":false,"internalType":"address","name":"owner","type":"address"}],"name":"IdentityCreated","type":"event"},{"anonymous":false,"inputs":[{"indexed":true,"internalType":"address","name":"oldAccount","type":"address"},{"indexed":false,"internalType":"address","name":"newAccount","type":"address"},{"indexed":true,"internalType":"address","name":"serviceProvider","type":"address"}],"name":"IdentityRecovered","type":"event"},{"anonymous":false,"inputs":[{"indexed":false,"internalType":"uint8","name":"version","type":"uint8"}],"name":"Initialized","type":"event"},{"anonymous":false,"inputs":[{"indexed":true,"internalType":"string","name":"method","type":"string"}],"name":"OperationWasNotSupported","type":"event"},{"anonymous":false,"inputs":[{"indexed":true,"internalType":"address","name":"previousOwner","type":"address"},{"indexed":true,"internalType":"address","name":"newOwner","type":"address"}],"name":"OwnershipTransferred","type":"event"},{"anonymous":false,"inputs":[{"indexed":true,"internalType":"address","name":"signAddress","type":"address"}],"name":"PreparedAlastriaID","type":"event"},{"inputs":[{"internalType":"address","name":"_identityIssuer","type":"address"},{"internalType":"enum Eidas.EidasLevel","name":"_level","type":"uint8"}],"name":"addIdentityIssuer","outputs":[],"stateMutability":"nonpayable","type":"function"},{"inputs":[{"internalType":"address","name":"_identityServiceProvider","type":"address"}],"name":"addIdentityServiceProvider","outputs":[],"stateMutability":"nonpayable","type":"function"},{"inputs":[],"name":"alastriaCredentialRegistry","outputs":[{"internalType":"contract AlastriaCredentialRegistry","name":"","type":"address"}],"stateMutability":"view","type":"function"},{"inputs":[],"name":"alastriaPresentationRegistry","outputs":[{"internalType":"contract AlastriaPresentationRegistry","name":"","type":"address"}],"stateMutability":"view","type":"function"},{"inputs":[],"name":"alastriaPublicKeyRegistry","outputs":[{"internalType":"contract AlastriaPublicKeyRegistry","name":"","type":"address"}],"stateMutability":"view","type":"function"},{"inputs":[{"internalType":"bytes32","name":"publicKeyHash","type":"bytes32"}],"name":"createAlastriaIdentity","outputs":[],"stateMutability":"nonpayable","type":"function"},{"inputs":[{"internalType":"bytes","name":"addPublicKeyCallData","type":"bytes"}],"name":"createAlastriaIdentity","outputs":[],"stateMutability":"nonpayable","type":"function"},{"inputs":[{"internalType":"address","name":"_destination","type":"address"},{"internalType":"uint256","name":"_value","type":"uint256"},{"internalType":"bytes","name":"_data","type":"bytes"}],"name":"delegateCall","outputs":[{"internalType":"bytes","name":"","type":"bytes"}],"stateMutability":"nonpayable","type":"function"},{"inputs":[{"internalType":"address","name":"_identityIssuer","type":"address"}],"name":"deleteIdentityIssuer","outputs":[],"stateMutability":"nonpayable","type":"function"},{"inputs":[{"internalType":"address","name":"_identityServiceProvider","type":"address"}],"name":"deleteIdentityServiceProvider","outputs":[],"stateMutability":"nonpayable","type":"function"},{"inputs":[],"name":"firstIdentityWallet","outputs":[{"internalType":"address","name":"","type":"address"}],"stateMutability":"view","type":"function"},{"inputs":[{"internalType":"address","name":"_identityIssuer","type":"address"}],"name":"getEidasLevel","outputs":[{"internalType":"enum Eidas.EidasLevel","name":"","type":"uint8"}],"stateMutability":"view","type":"function"},{"inputs":[{"internalType":"address","name":"","type":"address"}],"name":"identityKeys","outputs":[{"internalType":"address","name":"","type":"address"}],"stateMutability":"view","type":"function"},{"inputs":[{"internalType":"address","name":"_credentialRegistry","type":"address"},{"internalType":"address","name":"_publicKeyRegistry","type":"address"},{"internalType":"address","name":"_presentationRegistry","type":"address"},{"internalType":"address","name":"_firstIdentityWallet","type":"address"}],"name":"initialize","outputs":[],"stateMutability":"nonpayable","type":"function"},{"inputs":[{"internalType":"address","name":"_identityIssuer","type":"address"}],"name":"isIdentityIssuer","outputs":[{"internalType":"bool","name":"","type":"bool"}],"stateMutability":"view","type":"function"},{"inputs":[{"internalType":"address","name":"_identityServiceProvider","type":"address"}],"name":"isIdentityServiceProvider","outputs":[{"internalType":"bool","name":"","type":"bool"}],"stateMutability":"view","type":"function"},{"inputs":[],"name":"owner","outputs":[{"internalType":"address","name":"","type":"address"}],"stateMutability":"view","type":"function"},{"inputs":[{"internalType":"address","name":"","type":"address"}],"name":"pendingIDs","outputs":[{"internalType":"uint256","name":"","type":"uint256"}],"stateMutability":"view","type":"function"},{"inputs":[{"internalType":"address","name":"_signAddress","type":"address"}],"name":"prepareAlastriaID","outputs":[],"stateMutability":"nonpayable","type":"function"},{"inputs":[{"internalType":"address","name":"accountLost","type":"address"},{"internalType":"address","name":"newAccount","type":"address"}],"name":"recoverAccount","outputs":[],"stateMutability":"nonpayable","type":"function"},{"inputs":[],"name":"renounceOwnership","outputs":[],"stateMutability":"nonpayable","type":"function"},{"inputs":[{"internalType":"address","name":"newOwner","type":"address"}],"name":"transferOwnership","outputs":[],"stateMutability":"nonpayable","type":"function"},{"inputs":[{"internalType":"address","name":"_identityIssuer","type":"address"},{"internalType":"enum Eidas.EidasLevel","name":"_level","type":"uint8"}],"name":"updateIdentityIssuerEidasLevel","outputs":[],"stateMutability":"nonpayable","type":"function"},{"inputs":[],"name":"version","outputs":[{"internalType":"uint256","name":"","type":"uint256"}],"stateMutability":"view","type":"function"}],"evm":{"bytecode":{"linkReferences":{},"object":"608060405234801561001057600080fd5b5061002333640100000000610028810204565b61007a565b60028054600160a060020a03838116600160a060020a0319831681179093556040519116919082907f8be0079c531659141344cd1fd0a4f28419497f9722a3daafe3b4186f6b6457e090600090a35050565b6119c9806100896000396000f3fe608060405234801561001057600080fd5b5060043610610175576000357c0100000000000000000000000000000000000000000000000000000000900480636d69d99a116100e0578063cb69159911610099578063cb6915991461036a578063d024d9a41461037d578063dcc30e3514610390578063f014cd41146103a3578063f2fde38b146103b6578063f8c8765e146103c957600080fd5b80636d69d99a146103055780636de4137214610318578063715018a61461032b578063889776a8146103335780638da5cb5b14610346578063c71cbcf31461035757600080fd5b80634496361011610132578063449636101461026257806345748b42146102755780634fe2d5951461028857806354fd4d501461029b578063597b2e9b146102a45780636554adf0146102c457600080fd5b80630c91465e1461017a5780630e5a4fbb146101c05780630ebbbffc146101f95780632773d0fa1461020e5780633bf472151461023c57806343eedc701461024f575b600080fd5b6101a3610188366004610ff5565b600860205260009081526040902054600160a060020a031681565b604051600160a060020a0390911681526020015b60405180910390f35b6101ec6101ce366004610ff5565b600160a060020a031660009081526001602052604090205460ff1690565b6040516101b79190611030565b61020c610207366004610ff5565b6103dc565b005b61022e61021c366004610ff5565b60096020526000908152604090205481565b6040519081526020016101b7565b61020c61024a366004610ff5565b610429565b6005546101a390600160a060020a031681565b61020c61027036600461105b565b610472565b61020c610283366004610ff5565b6104ff565b61020c610296366004611096565b610574565b61022e60035481565b6102b76102b2366004611177565b610731565b6040516101b7919061121e565b6102f56102d2366004610ff5565b600160a060020a0316600090815260016020526040902054610100900460ff1690565b60405190151581526020016101b7565b61020c610313366004611231565b610804565b6007546101a390600160a060020a031681565b61020c610954565b61020c61034136600461105b565b610968565b600254600160a060020a03166101a3565b61020c61036536600461126e565b610a2a565b61020c610378366004610ff5565b610ad0565b6102f561038b366004610ff5565b610b14565b6004546101a390600160a060020a031681565b6006546101a390600160a060020a031681565b61020c6103c4366004610ff5565b610b32565b61020c6103d73660046112a1565b610be1565b336103e681610b14565b6103ef57600080fd5b816103f981610b14565b1561040357600080fd5b5050600160a060020a03166000908152602081905260409020805460ff19166001179055565b8061043381610b14565b61043c57600080fd5b3361044681610b14565b61044f57600080fd5b5050600160a060020a03166000908152602081905260409020805460ff19169055565b8061048d81600481111561048857610488611017565b610ea8565b61049657600080fd5b33600081815260016020526040902054610100900460ff166104b757600080fd5b600160a060020a0384166000908152600160208190526040909120805490918591839160ff19909116908360048111156104f3576104f3611017565b02179055505050505050565b33600081815260016020526040902054610100900460ff1661052057600080fd5b61052c612710426112f5565b600160a060020a03831660008181526009602052604080822093909355915190917fb95ece7391a260096614d2b042c6cca83dcc5d131f72bc57a157ee2502e7ce5391a25050565b338061057f57600080fd5b33600081815260096020526040902054158015906105b45750600160a060020a03811660009081526009602052604090205442105b6105bd57600080fd5b60006040516105cb90610fcc565b604051809103906000f0801580156105e7573d6000803e3d6000fd5b50336000908152600860209081526040808320805473ffffffffffffffffffffffffffffffffffffffff1916600160a060020a038616179055600990915280822082905551602481018790529192509060440160408051601f198184030181529181526020820180517bffffffffffffffffffffffffffffffffffffffffffffffffffffffff167f9e2fe0e90000000000000000000000000000000000000000000000000000000017905260065490517fd7f31eb9000000000000000000000000000000000000000000000000000000008152919250600160a060020a038085169263d7f31eb9926106e29216906000908690600401611319565b6000604051808303816000875af1158015610701573d6000803e3d6000fd5b505050506040513d6000823e601f3d908101601f19168201604052610729919081019061134a565b505050505050565b33600090815260086020526040902054606090600160a060020a031661075657600080fd5b336000908152600860205260408082205490517fd7f31eb9000000000000000000000000000000000000000000000000000000008152600160a060020a039091169190829063d7f31eb9906107b390899089908990600401611319565b6000604051808303816000875af11580156107d2573d6000803e3d6000fd5b505050506040513d6000823e601f3d908101601f191682016040526107fa919081019061134a565b9695505050505050565b338061080f57600080fd5b33600081815260096020526040902054158015906108445750600160a060020a03811660009081526009602052604090205442105b61084d57600080fd5b600060405161085b90610fcc565b604051809103906000f080158015610877573d6000803e3d6000fd5b50336000908152600860209081526040808320805473ffffffffffffffffffffffffffffffffffffffff1916600160a060020a03868116918217909255600990935281842084905560065491517fd7f31eb9000000000000000000000000000000000000000000000000000000008152949550919363d7f31eb993610906939290921691908990600401611319565b6000604051808303816000875af1158015610925573d6000803e3d6000fd5b505050506040513d6000823e601f3d908101601f1916820160405261094d919081019061134a565b5050505050565b61095c610ebb565b6109666000610f3e565b565b8061097e81600481111561048857610488611017565b61098757600080fd5b600160a060020a0383166000908152600160205260409020548390610100900460ff16156109b457600080fd5b33600081815260016020526040902054610100900460ff166109d557600080fd5b600160a060020a0385166000908152600160208190526040909120805490918691839160ff1990911690836004811115610a1157610a11611017565b0217905550805461ff0019166101001790555050505050565b6007543390600160a060020a03168114610a4357600080fd5b600160a060020a038381166000818152600860209081526040808320805488871680865283862080549290981673ffffffffffffffffffffffffffffffffffffffff1992831617909755938590528054909316909255905192835233927ff5cf2e915faa705d003410f0f65cd59606d22f8e7fb7361a015d6a00b7723d99910160405180910390a3505050565b33600081815260016020526040902054610100900460ff16610af157600080fd5b50600160a060020a03166000908152600160205260409020805461ffff19169055565b600160a060020a031660009081526020819052604090205460ff1690565b610b3a610ebb565b600160a060020a038116610bd5576040517f08c379a000000000000000000000000000000000000000000000000000000000815260206004820152602660248201527f4f776e61626c653a206e6577206f776e657220697320746865207a65726f206160448201527f646472657373000000000000000000000000000000000000000000000000000060648201526084015b60405180910390fd5b610bde81610f3e565b50565b6002547501000000000000000000000000000000000000000000900460ff1615808015610c2c575060025460017401000000000000000000000000000000000000000090910460ff16105b80610c5e5750303b158015610c5e575060025474010000000000000000000000000000000000000000900460ff166001145b610cea576040517f08c379a000000000000000000000000000000000000000000000000000000000815260206004820152602e60248201527f496e697469616c697a61626c653a20636f6e747261637420697320616c72656160448201527f647920696e697469616c697a65640000000000000000000000000000000000006064820152608401610bcc565b6002805474ff00000000000000000000000000000000000000001916740100000000000000000000000000000000000000001790558015610d5d576002805475ff000000000000000000000000000000000000000000191675010000000000000000000000000000000000000000001790555b60048054600160a060020a0380881673ffffffffffffffffffffffffffffffffffffffff1992831617909255600580548684169083161790556006805492871692909116919091179055604051600090610db690610fcc565b604051809103906000f080158015610dd2573d6000803e3d6000fd5b50600160a060020a038481166000908152600860209081526040808320805494861673ffffffffffffffffffffffffffffffffffffffff199586168117909155600780549095168117909455928252818152828220805460ff19166001908117909155905220805461ffff1916610104179055905050801561094d576002805475ff00000000000000000000000000000000000000000019169055604051600181527f7f26b83ff96e1f2b6a682f133852f6798a09c465da95921460cefb38474024989060200160405180910390a15050505050565b6000610eb5826002610f9d565b92915050565b33610ece600254600160a060020a031690565b600160a060020a031614610966576040517f08c379a000000000000000000000000000000000000000000000000000000000815260206004820181905260248201527f4f776e61626c653a2063616c6c6572206973206e6f7420746865206f776e65726044820152606401610bcc565b60028054600160a060020a0383811673ffffffffffffffffffffffffffffffffffffffff19831681179093556040519116919082907f8be0079c531659141344cd1fd0a4f28419497f9722a3daafe3b4186f6b6457e090600090a35050565b6000816004811115610fb157610fb1611017565b836004811115610fc357610fc3611017565b10159392505050565b6105db806113b983390190565b8035600160a060020a0381168114610ff057600080fd5b919050565b60006020828403121561100757600080fd5b61101082610fd9565b9392505050565b60e060020a634e487b7102600052602160045260246000fd5b60208101600583106110555760e060020a634e487b7102600052602160045260246000fd5b91905290565b6000806040838503121561106e57600080fd5b61107783610fd9565b915060208301356005811061108b57600080fd5b809150509250929050565b6000602082840312156110a857600080fd5b5035919050565b60e060020a634e487b7102600052604160045260246000fd5b604051601f8201601f1916810167ffffffffffffffff811182821017156110f1576110f16110af565b604052919050565b600067ffffffffffffffff821115611113576111136110af565b50601f01601f191660200190565b600082601f83011261113257600080fd5b8135611145611140826110f9565b6110c8565b81815284602083860101111561115a57600080fd5b816020850160208301376000918101602001919091529392505050565b60008060006060848603121561118c57600080fd5b61119584610fd9565b925060208401359150604084013567ffffffffffffffff8111156111b857600080fd5b6111c486828701611121565b9150509250925092565b60005b838110156111e95781810151838201526020016111d1565b50506000910152565b6000815180845261120a8160208601602086016111ce565b601f01601f19169290920160200192915050565b60208152600061101060208301846111f2565b60006020828403121561124357600080fd5b813567ffffffffffffffff81111561125a57600080fd5b61126684828501611121565b949350505050565b6000806040838503121561128157600080fd5b61128a83610fd9565b915061129860208401610fd9565b90509250929050565b600080600080608085870312156112b757600080fd5b6112c085610fd9565b93506112ce60208601610fd9565b92506112dc60408601610fd9565b91506112ea60608601610fd9565b905092959194509250565b80820180821115610eb55760e060020a634e487b7102600052601160045260246000fd5b600160a060020a038416815282602082015260606040820152600061134160608301846111f2565b95945050505050565b60006020828403121561135c57600080fd5b815167ffffffffffffffff81111561137357600080fd5b8201601f8101841361138457600080fd5b8051611392611140826110f9565b8181528560208385010111156113a757600080fd5b6113418260208301602086016111ce56fe608060405234801561001057600080fd5b5061002333640100000000610028810204565b610078565b60008054600160a060020a03838116600160a060020a0319831681178455604051919092169283917f8be0079c531659141344cd1fd0a4f28419497f9722a3daafe3b4186f6b6457e09190a35050565b610554806100876000396000f3fe608060405234801561001057600080fd5b5060043610610068577c01000000000000000000000000000000000000000000000000000000006000350463715018a6811461006d5780638da5cb5b14610077578063d7f31eb914610097578063f2fde38b146100b7575b600080fd5b6100756100ca565b005b600054604051600160a060020a0390911681526020015b60405180910390f35b6100aa6100a536600461037d565b6100de565b60405161008e9190610498565b6100756100c53660046104b2565b6101a3565b6100d2610252565b6100dc60006102d5565b565b60606100e8610252565b60008085600160a060020a0316858560405161010491906104cd565b60006040518083038185875af1925050503d8060008114610141576040519150601f19603f3d011682016040523d82523d6000602084013e610146565b606091505b50915091508161015557600080fd5b85600160a060020a03167f8cd7411f6d2d65dd25e1b8e9e19f9b5b720c01622c9e25049b72837b1bbc1743868684604051610192939291906104e9565b60405180910390a295945050505050565b6101ab610252565b600160a060020a038116610246576040517f08c379a000000000000000000000000000000000000000000000000000000000815260206004820152602660248201527f4f776e61626c653a206e6577206f776e657220697320746865207a65726f206160448201527f646472657373000000000000000000000000000000000000000000000000000060648201526084015b60405180910390fd5b61024f816102d5565b50565b33610265600054600160a060020a031690565b600160a060020a0316146100dc576040517f08c379a000000000000000000000000000000000000000000000000000000000815260206004820181905260248201527f4f776e61626c653a2063616c6c6572206973206e6f7420746865206f776e6572604482015260640161023d565b60008054600160a060020a0383811673ffffffffffffffffffffffffffffffffffffffff19831681178455604051919092169283917f8be0079c531659141344cd1fd0a4f28419497f9722a3daafe3b4186f6b6457e09190a35050565b8035600160a060020a038116811461034957600080fd5b919050565b7f4e487b7100000000000000000000000000000000000000000000000000000000600052604160045260246000fd5b60008060006060848603121561039257600080fd5b61039b84610332565b925060208401359150604084013567ffffffffffffffff808211156103bf57600080fd5b818601915086601f8301126103d357600080fd5b8135818111156103e5576103e561034e565b604051601f8201601f19908116603f0116810190838211818310171561040d5761040d61034e565b8160405282815289602084870101111561042657600080fd5b8260208601602083013760006020848301015280955050505050509250925092565b60005b8381101561046357818101518382015260200161044b565b50506000910152565b60008151808452610484816020860160208601610448565b601f01601f19169290920160200192915050565b6020815260006104ab602083018461046c565b9392505050565b6000602082840312156104c457600080fd5b6104ab82610332565b600082516104df818460208701610448565b9190910192915050565b838152606060208201526000610502606083018561046c565b8281036040840152610514818561046c565b969550505050505056fea264697066735822122051545cd860a846f2ee7eff8a38def630f73236950e0b49543e9bc17c5cea84e564736f6c63430008110033a26469706673582212208ada56c3d8dff502cb23e5323fc979aa77a5669d17791c5293d6807226a880c564736f6c63430008110033","opcodes":"PUSH1 0x80 PUSH1 0x40 MSTORE CALLVALUE DUP1 ISZERO PUSH2 0x10 JUMPI PUSH1 0x0 DUP1 REVERT JUMPDEST POP PUSH2 0x23 CALLER PUSH5 0x100000000 PUSH2 0x28 DUP2 MUL DIV JUMP JUMPDEST PUSH2 0x7A JUMP JUMPDEST PUSH1 0x2 DUP1 SLOAD PUSH1 0x1 PUSH1 0xA0 PUSH1 0x2 EXP SUB DUP4 DUP2 AND PUSH1 0x1 PUSH1 0xA0 PUSH1 0x2 EXP SUB NOT DUP4 AND DUP2 OR SWAP1 SWAP4 SSTORE PUSH1 0x40 MLOAD SWAP2 AND SWAP2 SWAP1 DUP3 SWAP1 PUSH32 0x8BE0079C531659141344CD1FD0A4F28419497F9722A3DAAFE3B4186F6B6457E0 SWAP1 PUSH1 0x0 SWAP1 LOG3 POP POP JUMP JUMPDEST PUSH2 0x19C9 DUP1 PUSH2 0x89 PUSH1 0x0 CODECOPY PUSH1 0x0 RETURN INVALID PUSH1 0x80 PUSH1 0x40 MSTORE CALLVALUE DUP1 ISZERO PUSH2 0x10 JUMPI PUSH1 0x0 DUP1 REVERT JUMPDEST POP PUSH1 0x4 CALLDATASIZE LT PUSH2 0x175 JUMPI PUSH1 0x0 CALLDATALOAD PUSH29 0x100000000000000000000000000000000000000000000000000000000 SWAP1 DIV DUP1 PUSH4 0x6D69D99A GT PUSH2 0xE0 JUMPI DUP1 PUSH4 0xCB691599 GT PUSH2 0x99 JUMPI DUP1 PUSH4 0xCB691599 EQ PUSH2 0x36A JUMPI DUP1 PUSH4 0xD024D9A4 EQ PUSH2 0x37D JUMPI DUP1 PUSH4 0xDCC30E35 EQ PUSH2 0x390 JUMPI DUP1 PUSH4 0xF014CD41 EQ PUSH2 0x3A3 JUMPI DUP1 PUSH4 0xF2FDE38B EQ PUSH2 0x3B6 JUMPI DUP1 PUSH4 0xF8C8765E EQ PUSH2 0x3C9 JUMPI PUSH1 0x0 DUP1 REVERT JUMPDEST DUP1 PUSH4 0x6D69D99A EQ PUSH2 0x305 JUMPI DUP1 PUSH4 0x6DE41372 EQ PUSH2 0x318 JUMPI DUP1 PUSH4 0x715018A6 EQ PUSH2 0x32B JUMPI DUP1 PUSH4 0x889776A8 EQ PUSH2 0x333 JUMPI DUP1 PUSH4 0x8DA5CB5B EQ PUSH2 0x346 JUMPI DUP1 PUSH4 0xC71CBCF3 EQ PUSH2 0x357 JUMPI PUSH1 0x0 DUP1 REVERT JUMPDEST DUP1 PUSH4 0x44963610 GT PUSH2 0x132 JUMPI DUP1 PUSH4 0x44963610 EQ PUSH2 0x262 JUMPI DUP1 PUSH4 0x45748B42 EQ PUSH2 0x275 JUMPI DUP1 PUSH4 0x4FE2D595 EQ PUSH2 0x288 JUMPI DUP1 PUSH4 0x54FD4D50 EQ PUSH2 0x29B JUMPI DUP1 PUSH4 0x597B2E9B EQ PUSH2 0x2A4 JUMPI DUP1 PUSH4 0x6554ADF0 EQ PUSH2 0x2C4 JUMPI PUSH1 0x0 DUP1 REVERT JUMPDEST DUP1 PUSH4 0xC91465E EQ PUSH2 0x17A JUMPI DUP1 PUSH4 0xE5A4FBB EQ PUSH2 0x1C0 JUMPI DUP1 PUSH4 0xEBBBFFC EQ PUSH2 0x1F9 JUMPI DUP1 PUSH4 0x2773D0FA EQ PUSH2 0x20E JUMPI DUP1 PUSH4 0x3BF47215 EQ PUSH2 0x23C JUMPI DUP1 PUSH4 0x43EEDC70 EQ PUSH2 0x24F JUMPI JUMPDEST PUSH1 0x0 DUP1 REVERT JUMPDEST PUSH2 0x1A3 PUSH2 0x188 CALLDATASIZE PUSH1 0x4 PUSH2 0xFF5 JUMP JUMPDEST PUSH1 0x8 PUSH1 0x20 MSTORE PUSH1 0x0 SWAP1 DUP2 MSTORE PUSH1 0x40 SWAP1 KECCAK256 SLOAD PUSH1 0x1 PUSH1 0xA0 PUSH1 0x2 EXP SUB AND DUP2 JUMP JUMPDEST PUSH1 0x40 MLOAD PUSH1 0x1 PUSH1 0xA0 PUSH1 0x2 EXP SUB SWAP1 SWAP2 AND DUP2 MSTORE PUSH1 0x20 ADD JUMPDEST PUSH1 0x40 MLOAD DUP1 SWAP2 SUB SWAP1 RETURN JUMPDEST PUSH2 0x1EC PUSH2 0x1CE CALLDATASIZE PUSH1 0x4 PUSH2 0xFF5 JUMP JUMPDEST PUSH1 0x1 PUSH1 0xA0 PUSH1 0x2 EXP SUB AND PUSH1 0x0 SWAP1 DUP2 MSTORE PUSH1 0x1 PUSH1 0x20 MSTORE PUSH1 0x40 SWAP1 KECCAK256 SLOAD PUSH1 0xFF AND SWAP1 JUMP JUMPDEST PUSH1 0x40 MLOAD PUSH2 0x1B7 SWAP2 SWAP1 PUSH2 0x1030 JUMP JUMPDEST PUSH2 0x20C PUSH2 0x207 CALLDATASIZE PUSH1 0x4 PUSH2 0xFF5 JUMP JUMPDEST PUSH2 0x3DC JUMP JUMPDEST STOP JUMPDEST PUSH2 0x22E PUSH2 0x21C CALLDATASIZE PUSH1 0x4 PUSH2 0xFF5 JUMP JUMPDEST PUSH1 0x9 PUSH1 0x20 MSTORE PUSH1 0x0 SWAP1 DUP2 MSTORE PUSH1 0x40 SWAP1 KECCAK256 SLOAD DUP2 JUMP JUMPDEST PUSH1 0x40 MLOAD SWAP1 DUP2 MSTORE PUSH1 0x20 ADD PUSH2 0x1B7 JUMP JUMPDEST PUSH2 0x20C PUSH2 0x24A CALLDATASIZE PUSH1 0x4 PUSH2 0xFF5 JUMP JUMPDEST PUSH2 0x429 JUMP JUMPDEST PUSH1 0x5 SLOAD PUSH2 0x1A3 SWAP1 PUSH1 0x1 PUSH1 0xA0 PUSH1 0x2 EXP SUB AND DUP2 JUMP JUMPDEST PUSH2 0x20C PUSH2 0x270 CALLDATASIZE PUSH1 0x4 PUSH2 0x105B JUMP JUMPDEST PUSH2 0x472 JUMP JUMPDEST PUSH2 0x20C PUSH2 0x283 CALLDATASIZE PUSH1 0x4 PUSH2 0xFF5 JUMP JUMPDEST PUSH2 0x4FF JUMP JUMPDEST PUSH2 0x20C PUSH2 0x296 CALLDATASIZE PUSH1 0x4 PUSH2 0x1096 JUMP JUMPDEST PUSH2 0x574 JUMP JUMPDEST PUSH2 0x22E PUSH1 0x3 SLOAD DUP2 JUMP JUMPDEST PUSH2 0x2B7 PUSH2 0x2B2 CALLDATASIZE PUSH1 0x4 PUSH2 0x1177 JUMP JUMPDEST PUSH2 0x731 JUMP JUMPDEST PUSH1 0x40 MLOAD PUSH2 0x1B7 SWAP2 SWAP1 PUSH2 0x121E JUMP JUMPDEST PUSH2 0x2F5 PUSH2 0x2D2 CALLDATASIZE PUSH1 0x4 PUSH2 0xFF5 JUMP JUMPDEST PUSH1 0x1 PUSH1 0xA0 PUSH1 0x2 EXP SUB AND PUSH1 0x0 SWAP1 DUP2 MSTORE PUSH1 0x1 PUSH1 0x20 MSTORE PUSH1 0x40 SWAP1 KECCAK256 SLOAD PUSH2 0x100 SWAP1 DIV PUSH1 0xFF AND SWAP1 JUMP JUMPDEST PUSH1 0x40 MLOAD SWAP1 ISZERO ISZERO DUP2 MSTORE PUSH1 0x20 ADD PUSH2 0x1B7 JUMP JUMPDEST PUSH2 0x20C PUSH2 0x313 CALLDATASIZE PUSH1 0x4 PUSH2 0x1231 JUMP JUMPDEST PUSH2 0x804 JUMP JUMPDEST PUSH1 0x7 SLOAD PUSH2 0x1A3 SWAP1 PUSH1 0x1 PUSH1 0xA0 PUSH1 0x2 EXP SUB AND DUP2 JUMP JUMPDEST PUSH2 0x20C PUSH2 0x954 JUMP JUMPDEST PUSH2 0x20C PUSH2 0x341 CALLDATASIZE PUSH1 0x4 PUSH2 0x105B JUMP JUMPDEST PUSH2 0x968 JUMP JUMPDEST PUSH1 0x2 SLOAD PUSH1 0x1 PUSH1 0xA0 PUSH1 0x2 EXP SUB AND PUSH2 0x1A3 JUMP JUMPDEST PUSH2 0x20C PUSH2 0x365 CALLDATASIZE PUSH1 0x4 PUSH2 0x126E JUMP JUMPDEST PUSH2 0xA2A JUMP JUMPDEST PUSH2 0x20C PUSH2 0x378 CALLDATASIZE PUSH1 0x4 PUSH2 0xFF5 JUMP JUMPDEST PUSH2 0xAD0 JUMP JUMPDEST PUSH2 0x2F5 PUSH2 0x38B CALLDATASIZE PUSH1 0x4 PUSH2 0xFF5 JUMP JUMPDEST PUSH2 0xB14 JUMP JUMPDEST PUSH1 0x4 SLOAD PUSH2 0x1A3 SWAP1 PUSH1 0x1 PUSH1 0xA0 PUSH1 0x2 EXP SUB AND DUP2 JUMP JUMPDEST PUSH1 0x6 SLOAD PUSH2 0x1A3 SWAP1 PUSH1 0x1 PUSH1 0xA0 PUSH1 0x2 EXP SUB AND DUP2 JUMP JUMPDEST PUSH2 0x20C PUSH2 0x3C4 CALLDATASIZE PUSH1 0x4 PUSH2 0xFF5 JUMP JUMPDEST PUSH2 0xB32 JUMP JUMPDEST PUSH2 0x20C PUSH2 0x3D7 CALLDATASIZE PUSH1 0x4 PUSH2 0x12A1 JUMP JUMPDEST PUSH2 0xBE1 JUMP JUMPDEST CALLER PUSH2 0x3E6 DUP2 PUSH2 0xB14 JUMP JUMPDEST PUSH2 0x3EF JUMPI PUSH1 0x0 DUP1 REVERT JUMPDEST DUP2 PUSH2 0x3F9 DUP2 PUSH2 0xB14 JUMP JUMPDEST ISZERO PUSH2 0x403 JUMPI PUSH1 0x0 DUP1 REVERT JUMPDEST POP POP PUSH1 0x1 PUSH1 0xA0 PUSH1 0x2 EXP SUB AND PUSH1 0x0 SWAP1 DUP2 MSTORE PUSH1 0x20 DUP2 SWAP1 MSTORE PUSH1 0x40 SWAP1 KECCAK256 DUP1 SLOAD PUSH1 0xFF NOT AND PUSH1 0x1 OR SWAP1 SSTORE JUMP JUMPDEST DUP1 PUSH2 0x433 DUP2 PUSH2 0xB14 JUMP JUMPDEST PUSH2 0x43C JUMPI PUSH1 0x0 DUP1 REVERT JUMPDEST CALLER PUSH2 0x446 DUP2 PUSH2 0xB14 JUMP JUMPDEST PUSH2 0x44F JUMPI PUSH1 0x0 DUP1 REVERT JUMPDEST POP POP PUSH1 0x1 PUSH1 0xA0 PUSH1 0x2 EXP SUB AND PUSH1 0x0 SWAP1 DUP2 MSTORE PUSH1 0x20 DUP2 SWAP1 MSTORE PUSH1 0x40 SWAP1 KECCAK256 DUP1 SLOAD PUSH1 0xFF NOT AND SWAP1 SSTORE JUMP JUMPDEST DUP1 PUSH2 0x48D DUP2 PUSH1 0x4 DUP2 GT ISZERO PUSH2 0x488 JUMPI PUSH2 0x488 PUSH2 0x1017 JUMP JUMPDEST PUSH2 0xEA8 JUMP JUMPDEST PUSH2 0x496 JUMPI PUSH1 0x0 DUP1 REVERT JUMPDEST CALLER PUSH1 0x0 DUP2 DUP2 MSTORE PUSH1 0x1 PUSH1 0x20 MSTORE PUSH1 0x40 SWAP1 KECCAK256 SLOAD PUSH2 0x100 SWAP1 DIV PUSH1 0xFF AND PUSH2 0x4B7 JUMPI PUSH1 0x0 DUP1 REVERT JUMPDEST PUSH1 0x1 PUSH1 0xA0 PUSH1 0x2 EXP SUB DUP5 AND PUSH1 0x0 SWAP1 DUP2 MSTORE PUSH1 0x1 PUSH1 0x20 DUP2 SWAP1 MSTORE PUSH1 0x40 SWAP1 SWAP2 KECCAK256 DUP1 SLOAD SWAP1 SWAP2 DUP6 SWAP2 DUP4 SWAP2 PUSH1 0xFF NOT SWAP1 SWAP2 AND SWAP1 DUP4 PUSH1 0x4 DUP2 GT ISZERO PUSH2 0x4F3 JUMPI PUSH2 0x4F3 PUSH2 0x1017 JUMP JUMPDEST MUL OR SWAP1 SSTORE POP POP POP POP POP POP JUMP JUMPDEST CALLER PUSH1 0x0 DUP2 DUP2 MSTORE PUSH1 0x1 PUSH1 0x20 MSTORE PUSH1 0x40 SWAP1 KECCAK256 SLOAD PUSH2 0x100 SWAP1 DIV PUSH1 0xFF AND PUSH2 0x520 JUMPI PUSH1 0x0 DUP1 REVERT JUMPDEST PUSH2 0x52C PUSH2 0x2710 TIMESTAMP PUSH2 0x12F5 JUMP JUMPDEST PUSH1 0x1 PUSH1 0xA0 PUSH1 0x2 EXP SUB DUP4 AND PUSH1 0x0 DUP2 DUP2 MSTORE PUSH1 0x9 PUSH1 0x20 MSTORE PUSH1 0x40 DUP1 DUP3 KECCAK256 SWAP4 SWAP1 SWAP4 SSTORE SWAP2 MLOAD SWAP1 SWAP2 PUSH32 0xB95ECE7391A260096614D2B042C6CCA83DCC5D131F72BC57A157EE2502E7CE53 SWAP2 LOG2 POP POP JUMP JUMPDEST CALLER DUP1 PUSH2 0x57F JUMPI PUSH1 0x0 DUP1 REVERT JUMPDEST CALLER PUSH1 0x0 DUP2 DUP2 MSTORE PUSH1 0x9 PUSH1 0x20 MSTORE PUSH1 0x40 SWAP1 KECCAK256 SLOAD ISZERO DUP1 ISZERO SWAP1 PUSH2 0x5B4 JUMPI POP PUSH1 0x1 PUSH1 0xA0 PUSH1 0x2 EXP SUB DUP2 AND PUSH1 0x0 SWAP1 DUP2 MSTORE PUSH1 0x9 PUSH1 0x20 MSTORE PUSH1 0x40 SWAP1 KECCAK256 SLOAD TIMESTAMP LT JUMPDEST PUSH2 0x5BD JUMPI PUSH1 0x0 DUP1 REVERT JUMPDEST PUSH1 0x0 PUSH1 0x40 MLOAD PUSH2 0x5CB SWAP1 PUSH2 0xFCC JUMP JUMPDEST PUSH1 0x40 MLOAD DUP1 SWAP2 SUB SWAP1 PUSH1 0x0 CREATE DUP1 ISZERO DUP1 ISZERO PUSH2 0x5E7 JUMPI RETURNDATASIZE PUSH1 0x0 DUP1 RETURNDATACOPY RETURNDATASIZE PUSH1 0x0 REVERT JUMPDEST POP CALLER PUSH1 0x0 SWAP1 DUP2 MSTORE PUSH1 0x8 PUSH1 0x20 SWAP1 DUP2 MSTORE PUSH1 0x40 DUP1 DUP4 KECCAK256 DUP1 SLOAD PUSH20 0xFFFFFFFFFFFFFFFFFFFFFFFFFFFFFFFFFFFFFFFF NOT AND PUSH1 0x1 PUSH1 0xA0 PUSH1 0x2 EXP SUB DUP7 AND OR SWAP1 SSTORE PUSH1 0x9 SWAP1 SWAP2 MSTORE DUP1 DUP3 KECCAK256 DUP3 SWAP1 SSTORE MLOAD PUSH1 0x24 DUP2 ADD DUP8 SWAP1 MSTORE SWAP2 SWAP3 POP SWAP1 PUSH1 0x44 ADD PUSH1 0x40 DUP1 MLOAD PUSH1 0x1F NOT DUP2 DUP5 SUB ADD DUP2 MSTORE SWAP2 DUP2 MSTORE PUSH1 0x20 DUP3 ADD DUP1 MLOAD PUSH28 0xFFFFFFFFFFFFFFFFFFFFFFFFFFFFFFFFFFFFFFFFFFFFFFFFFFFFFFFF AND PUSH32 0x9E2FE0E900000000000000000000000000000000000000000000000000000000 OR SWAP1 MSTORE PUSH1 0x6 SLOAD SWAP1 MLOAD PUSH32 0xD7F31EB900000000000000000000000000000000000000000000000000000000 DUP2 MSTORE SWAP2 SWAP3 POP PUSH1 0x1 PUSH1 0xA0 PUSH1 0x2 EXP SUB DUP1 DUP6 AND SWAP3 PUSH4 0xD7F31EB9 SWAP3 PUSH2 0x6E2 SWAP3 AND SWAP1 PUSH1 0x0 SWAP1 DUP7 SWAP1 PUSH1 0x4 ADD PUSH2 0x1319 JUMP JUMPDEST PUSH1 0x0 PUSH1 0x40 MLOAD DUP1 DUP4 SUB DUP2 PUSH1 0x0 DUP8 GAS CALL ISZERO DUP1 ISZERO PUSH2 0x701 JUMPI RETURNDATASIZE PUSH1 0x0 DUP1 RETURNDATACOPY RETURNDATASIZE PUSH1 0x0 REVERT JUMPDEST POP POP POP POP PUSH1 0x40 MLOAD RETURNDATASIZE PUSH1 0x0 DUP3 RETURNDATACOPY PUSH1 0x1F RETURNDATASIZE SWAP1 DUP2 ADD PUSH1 0x1F NOT AND DUP3 ADD PUSH1 0x40 MSTORE PUSH2 0x729 SWAP2 SWAP1 DUP2 ADD SWAP1 PUSH2 0x134A JUMP JUMPDEST POP POP POP POP POP POP JUMP JUMPDEST CALLER PUSH1 0x0 SWAP1 DUP2 MSTORE PUSH1 0x8 PUSH1 0x20 MSTORE PUSH1 0x40 SWAP1 KECCAK256 SLOAD PUSH1 0x60 SWAP1 PUSH1 0x1 PUSH1 0xA0 PUSH1 0x2 EXP SUB AND PUSH2 0x756 JUMPI PUSH1 0x0 DUP1 REVERT JUMPDEST CALLER PUSH1 0x0 SWAP1 DUP2 MSTORE PUSH1 0x8 PUSH1 0x20 MSTORE PUSH1 0x40 DUP1 DUP3 KECCAK256 SLOAD SWAP1 MLOAD PUSH32 0xD7F31EB900000000000000000000000000000000000000000000000000000000 DUP2 MSTORE PUSH1 0x1 PUSH1 0xA0 PUSH1 0x2 EXP SUB SWAP1 SWAP2 AND SWAP2 SWAP1 DUP3 SWAP1 PUSH4 0xD7F31EB9 SWAP1 PUSH2 0x7B3 SWAP1 DUP10 SWAP1 DUP10 SWAP1 DUP10 SWAP1 PUSH1 0x4 ADD PUSH2 0x1319 JUMP JUMPDEST PUSH1 0x0 PUSH1 0x40 MLOAD DUP1 DUP4 SUB DUP2 PUSH1 0x0 DUP8 GAS CALL ISZERO DUP1 ISZERO PUSH2 0x7D2 JUMPI RETURNDATASIZE PUSH1 0x0 DUP1 RETURNDATACOPY RETURNDATASIZE PUSH1 0x0 REVERT JUMPDEST POP POP POP POP PUSH1 0x40 MLOAD RETURNDATASIZE PUSH1 0x0 DUP3 RETURNDATACOPY PUSH1 0x1F RETURNDATASIZE SWAP1 DUP2 ADD PUSH1 0x1F NOT AND DUP3 ADD PUSH1 0x40 MSTORE PUSH2 0x7FA SWAP2 SWAP1 DUP2 ADD SWAP1 PUSH2 0x134A JUMP JUMPDEST SWAP7 SWAP6 POP POP POP POP POP POP JUMP JUMPDEST CALLER DUP1 PUSH2 0x80F JUMPI PUSH1 0x0 DUP1 REVERT JUMPDEST CALLER PUSH1 0x0 DUP2 DUP2 MSTORE PUSH1 0x9 PUSH1 0x20 MSTORE PUSH1 0x40 SWAP1 KECCAK256 SLOAD ISZERO DUP1 ISZERO SWAP1 PUSH2 0x844 JUMPI POP PUSH1 0x1 PUSH1 0xA0 PUSH1 0x2 EXP SUB DUP2 AND PUSH1 0x0 SWAP1 DUP2 MSTORE PUSH1 0x9 PUSH1 0x20 MSTORE PUSH1 0x40 SWAP1 KECCAK256 SLOAD TIMESTAMP LT JUMPDEST PUSH2 0x84D JUMPI PUSH1 0x0 DUP1 REVERT JUMPDEST PUSH1 0x0 PUSH1 0x40 MLOAD PUSH2 0x85B SWAP1 PUSH2 0xFCC JUMP JUMPDEST PUSH1 0x40 MLOAD DUP1 SWAP2 SUB SWAP1 PUSH1 0x0 CREATE DUP1 ISZERO DUP1 ISZERO PUSH2 0x877 JUMPI RETURNDATASIZE PUSH1 0x0 DUP1 RETURNDATACOPY RETURNDATASIZE PUSH1 0x0 REVERT JUMPDEST POP CALLER PUSH1 0x0 SWAP1 DUP2 MSTORE PUSH1 0x8 PUSH1 0x20 SWAP1 DUP2 MSTORE PUSH1 0x40 DUP1 DUP4 KECCAK256 DUP1 SLOAD PUSH20 0xFFFFFFFFFFFFFFFFFFFFFFFFFFFFFFFFFFFFFFFF NOT AND PUSH1 0x1 PUSH1 0xA0 PUSH1 0x2 EXP SUB DUP7 DUP2 AND SWAP2 DUP3 OR SWAP1 SWAP3 SSTORE PUSH1 0x9 SWAP1 SWAP4 MSTORE DUP2 DUP5 KECCAK256 DUP5 SWAP1 SSTORE PUSH1 0x6 SLOAD SWAP2 MLOAD PUSH32 0xD7F31EB900000000000000000000000000000000000000000000000000000000 DUP2 MSTORE SWAP5 SWAP6 POP SWAP2 SWAP4 PUSH4 0xD7F31EB9 SWAP4 PUSH2 0x906 SWAP4 SWAP3 SWAP1 SWAP3 AND SWAP2 SWAP1 DUP10 SWAP1 PUSH1 0x4 ADD PUSH2 0x1319 JUMP JUMPDEST PUSH1 0x0 PUSH1 0x40 MLOAD DUP1 DUP4 SUB DUP2 PUSH1 0x0 DUP8 GAS CALL ISZERO DUP1 ISZERO PUSH2 0x925 JUMPI RETURNDATASIZE PUSH1 0x0 DUP1 RETURNDATACOPY RETURNDATASIZE PUSH1 0x0 REVERT JUMPDEST POP POP POP POP PUSH1 0x40 MLOAD RETURNDATASIZE PUSH1 0x0 DUP3 RETURNDATACOPY PUSH1 0x1F RETURNDATASIZE SWAP1 DUP2 ADD PUSH1 0x1F NOT AND DUP3 ADD PUSH1 0x40 MSTORE PUSH2 0x94D SWAP2 SWAP1 DUP2 ADD SWAP1 PUSH2 0x134A JUMP JUMPDEST POP POP POP POP POP JUMP JUMPDEST PUSH2 0x95C PUSH2 0xEBB JUMP JUMPDEST PUSH2 0x966 PUSH1 0x0 PUSH2 0xF3E JUMP JUMPDEST JUMP JUMPDEST DUP1 PUSH2 0x97E DUP2 PUSH1 0x4 DUP2 GT ISZERO PUSH2 0x488 JUMPI PUSH2 0x488 PUSH2 0x1017 JUMP JUMPDEST PUSH2 0x987 JUMPI PUSH1 0x0 DUP1 REVERT JUMPDEST PUSH1 0x1 PUSH1 0xA0 PUSH1 0x2 EXP SUB DUP4 AND PUSH1 0x0 SWAP1 DUP2 MSTORE PUSH1 0x1 PUSH1 0x20 MSTORE PUSH1 0x40 SWAP1 KECCAK256 SLOAD DUP4 SWAP1 PUSH2 0x100 SWAP1 DIV PUSH1 0xFF AND ISZERO PUSH2 0x9B4 JUMPI PUSH1 0x0 DUP1 REVERT JUMPDEST CALLER PUSH1 0x0 DUP2 DUP2 MSTORE PUSH1 0x1 PUSH1 0x20 MSTORE PUSH1 0x40 SWAP1 KECCAK256 SLOAD PUSH2 0x100 SWAP1 DIV PUSH1 0xFF AND PUSH2 0x9D5 JUMPI PUSH1 0x0 DUP1 REVERT JUMPDEST PUSH1 0x1 PUSH1 0xA0 PUSH1 0x2 EXP SUB DUP6 AND PUSH1 0x0 SWAP1 DUP2 MSTORE PUSH1 0x1 PUSH1 0x20 DUP2 SWAP1 MSTORE PUSH1 0x40 SWAP1 SWAP2 KECCAK256 DUP1 SLOAD SWAP1 SWAP2 DUP7 SWAP2 DUP4 SWAP2 PUSH1 0xFF NOT SWAP1 SWAP2 AND SWAP1 DUP4 PUSH1 0x4 DUP2 GT ISZERO PUSH2 0xA11 JUMPI PUSH2 0xA11 PUSH2 0x1017 JUMP JUMPDEST MUL OR SWAP1 SSTORE POP DUP1 SLOAD PUSH2 0xFF00 NOT AND PUSH2 0x100 OR SWAP1 SSTORE POP POP POP POP POP JUMP JUMPDEST PUSH1 0x7 SLOAD CALLER SWAP1 PUSH1 0x1 PUSH1 0xA0 PUSH1 0x2 EXP SUB AND DUP2 EQ PUSH2 0xA43 JUMPI PUSH1 0x0 DUP1 REVERT JUMPDEST PUSH1 0x1 PUSH1 0xA0 PUSH1 0x2 EXP SUB DUP4 DUP2 AND PUSH1 0x0 DUP2 DUP2 MSTORE PUSH1 0x8 PUSH1 0x20 SWAP1 DUP2 MSTORE PUSH1 0x40 DUP1 DUP4 KECCAK256 DUP1 SLOAD DUP9 DUP8 AND DUP1 DUP7 MSTORE DUP4 DUP7 KECCAK256 DUP1 SLOAD SWAP3 SWAP1 SWAP9 AND PUSH20 0xFFFFFFFFFFFFFFFFFFFFFFFFFFFFFFFFFFFFFFFF NOT SWAP3 DUP4 AND OR SWAP1 SWAP8 SSTORE SWAP4 DUP6 SWAP1 MSTORE DUP1 SLOAD SWAP1 SWAP4 AND SWAP1 SWAP3 SSTORE SWAP1 MLOAD SWAP3 DUP4 MSTORE CALLER SWAP3 PUSH32 0xF5CF2E915FAA705D003410F0F65CD59606D22F8E7FB7361A015D6A00B7723D99 SWAP2 ADD PUSH1 0x40 MLOAD DUP1 SWAP2 SUB SWAP1 LOG3 POP POP POP JUMP JUMPDEST CALLER PUSH1 0x0 DUP2 DUP2 MSTORE PUSH1 0x1 PUSH1 0x20 MSTORE PUSH1 0x40 SWAP1 KECCAK256 SLOAD PUSH2 0x100 SWAP1 DIV PUSH1 0xFF AND PUSH2 0xAF1 JUMPI PUSH1 0x0 DUP1 REVERT JUMPDEST POP PUSH1 0x1 PUSH1 0xA0 PUSH1 0x2 EXP SUB AND PUSH1 0x0 SWAP1 DUP2 MSTORE PUSH1 0x1 PUSH1 0x20 MSTORE PUSH1 0x40 SWAP1 KECCAK256 DUP1 SLOAD PUSH2 0xFFFF NOT AND SWAP1 SSTORE JUMP JUMPDEST PUSH1 0x1 PUSH1 0xA0 PUSH1 0x2 EXP SUB AND PUSH1 0x0 SWAP1 DUP2 MSTORE PUSH1 0x20 DUP2 SWAP1 MSTORE PUSH1 0x40 SWAP1 KECCAK256 SLOAD PUSH1 0xFF AND SWAP1 JUMP JUMPDEST PUSH2 0xB3A PUSH2 0xEBB JUMP JUMPDEST PUSH1 0x1 PUSH1 0xA0 PUSH1 0x2 EXP SUB DUP2 AND PUSH2 0xBD5 JUMPI PUSH1 0x40 MLOAD PUSH32 0x8C379A000000000000000000000000000000000000000000000000000000000 DUP2 MSTORE PUSH1 0x20 PUSH1 0x4 DUP3 ADD MSTORE PUSH1 0x26 PUSH1 0x24 DUP3 ADD MSTORE PUSH32 0x4F776E61626C653A206E6577206F776E657220697320746865207A65726F2061 PUSH1 0x44 DUP3 ADD MSTORE PUSH32 0x6464726573730000000000000000000000000000000000000000000000000000 PUSH1 0x64 DUP3 ADD MSTORE PUSH1 0x84 ADD JUMPDEST PUSH1 0x40 MLOAD DUP1 SWAP2 SUB SWAP1 REVERT JUMPDEST PUSH2 0xBDE DUP2 PUSH2 0xF3E JUMP JUMPDEST POP JUMP JUMPDEST PUSH1 0x2 SLOAD PUSH22 0x1000000000000000000000000000000000000000000 SWAP1 DIV PUSH1 0xFF AND ISZERO DUP1 DUP1 ISZERO PUSH2 0xC2C JUMPI POP PUSH1 0x2 SLOAD PUSH1 0x1 PUSH21 0x10000000000000000000000000000000000000000 SWAP1 SWAP2 DIV PUSH1 0xFF AND LT JUMPDEST DUP1 PUSH2 0xC5E JUMPI POP ADDRESS EXTCODESIZE ISZERO DUP1 ISZERO PUSH2 0xC5E JUMPI POP PUSH1 0x2 SLOAD PUSH21 0x10000000000000000000000000000000000000000 SWAP1 DIV PUSH1 0xFF AND PUSH1 0x1 EQ JUMPDEST PUSH2 0xCEA JUMPI PUSH1 0x40 MLOAD PUSH32 0x8C379A000000000000000000000000000000000000000000000000000000000 DUP2 MSTORE PUSH1 0x20 PUSH1 0x4 DUP3 ADD MSTORE PUSH1 0x2E PUSH1 0x24 DUP3 ADD MSTORE PUSH32 0x496E697469616C697A61626C653A20636F6E747261637420697320616C726561 PUSH1 0x44 DUP3 ADD MSTORE PUSH32 0x647920696E697469616C697A6564000000000000000000000000000000000000 PUSH1 0x64 DUP3 ADD MSTORE PUSH1 0x84 ADD PUSH2 0xBCC JUMP JUMPDEST PUSH1 0x2 DUP1 SLOAD PUSH21 0xFF0000000000000000000000000000000000000000 NOT AND PUSH21 0x10000000000000000000000000000000000000000 OR SWAP1 SSTORE DUP1 ISZERO PUSH2 0xD5D JUMPI PUSH1 0x2 DUP1 SLOAD PUSH22 0xFF000000000000000000000000000000000000000000 NOT AND PUSH22 0x1000000000000000000000000000000000000000000 OR SWAP1 SSTORE JUMPDEST PUSH1 0x4 DUP1 SLOAD PUSH1 0x1 PUSH1 0xA0 PUSH1 0x2 EXP SUB DUP1 DUP9 AND PUSH20 0xFFFFFFFFFFFFFFFFFFFFFFFFFFFFFFFFFFFFFFFF NOT SWAP3 DUP4 AND OR SWAP1 SWAP3 SSTORE PUSH1 0x5 DUP1 SLOAD DUP7 DUP5 AND SWAP1 DUP4 AND OR SWAP1 SSTORE PUSH1 0x6 DUP1 SLOAD SWAP3 DUP8 AND SWAP3 SWAP1 SWAP2 AND SWAP2 SWAP1 SWAP2 OR SWAP1 SSTORE PUSH1 0x40 MLOAD PUSH1 0x0 SWAP1 PUSH2 0xDB6 SWAP1 PUSH2 0xFCC JUMP JUMPDEST PUSH1 0x40 MLOAD DUP1 SWAP2 SUB SWAP1 PUSH1 0x0 CREATE DUP1 ISZERO DUP1 ISZERO PUSH2 0xDD2 JUMPI RETURNDATASIZE PUSH1 0x0 DUP1 RETURNDATACOPY RETURNDATASIZE PUSH1 0x0 REVERT JUMPDEST POP PUSH1 0x1 PUSH1 0xA0 PUSH1 0x2 EXP SUB DUP5 DUP2 AND PUSH1 0x0 SWAP1 DUP2 MSTORE PUSH1 0x8 PUSH1 0x20 SWAP1 DUP2 MSTORE PUSH1 0x40 DUP1 DUP4 KECCAK256 DUP1 SLOAD SWAP5 DUP7 AND PUSH20 0xFFFFFFFFFFFFFFFFFFFFFFFFFFFFFFFFFFFFFFFF NOT SWAP6 DUP7 AND DUP2 OR SWAP1 SWAP2 SSTORE PUSH1 0x7 DUP1 SLOAD SWAP1 SWAP6 AND DUP2 OR SWAP1 SWAP5 SSTORE SWAP3 DUP3 MSTORE DUP2 DUP2 MSTORE DUP3 DUP3 KECCAK256 DUP1 SLOAD PUSH1 0xFF NOT AND PUSH1 0x1 SWAP1 DUP2 OR SWAP1 SWAP2 SSTORE SWAP1 MSTORE KECCAK256 DUP1 SLOAD PUSH2 0xFFFF NOT AND PUSH2 0x104 OR SWAP1 SSTORE SWAP1 POP POP DUP1 ISZERO PUSH2 0x94D JUMPI PUSH1 0x2 DUP1 SLOAD PUSH22 0xFF000000000000000000000000000000000000000000 NOT AND SWAP1 SSTORE PUSH1 0x40 MLOAD PUSH1 0x1 DUP2 MSTORE PUSH32 0x7F26B83FF96E1F2B6A682F133852F6798A09C465DA95921460CEFB3847402498 SWAP1 PUSH1 0x20 ADD PUSH1 0x40 MLOAD DUP1 SWAP2 SUB SWAP1 LOG1 POP POP POP POP POP JUMP JUMPDEST PUSH1 0x0 PUSH2 0xEB5 DUP3 PUSH1 0x2 PUSH2 0xF9D JUMP JUMPDEST SWAP3 SWAP2 POP POP JUMP JUMPDEST CALLER PUSH2 0xECE PUSH1 0x2 SLOAD PUSH1 0x1 PUSH1 0xA0 PUSH1 0x2 EXP SUB AND SWAP1 JUMP JUMPDEST PUSH1 0x1 PUSH1 0xA0 PUSH1 0x2 EXP SUB AND EQ PUSH2 0x966 JUMPI PUSH1 0x40 MLOAD PUSH32 0x8C379A000000000000000000000000000000000000000000000000000000000 DUP2 MSTORE PUSH1 0x20 PUSH1 0x4 DUP3 ADD DUP2 SWAP1 MSTORE PUSH1 0x24 DUP3 ADD MSTORE PUSH32 0x4F776E61626C653A2063616C6C6572206973206E6F7420746865206F776E6572 PUSH1 0x44 DUP3 ADD MSTORE PUSH1 0x64 ADD PUSH2 0xBCC JUMP JUMPDEST PUSH1 0x2 DUP1 SLOAD PUSH1 0x1 PUSH1 0xA0 PUSH1 0x2 EXP SUB DUP4 DUP2 AND PUSH20 0xFFFFFFFFFFFFFFFFFFFFFFFFFFFFFFFFFFFFFFFF NOT DUP4 AND DUP2 OR SWAP1 SWAP4 SSTORE PUSH1 0x40 MLOAD SWAP2 AND SWAP2 SWAP1 DUP3 SWAP1 PUSH32 0x8BE0079C531659141344CD1FD0A4F28419497F9722A3DAAFE3B4186F6B6457E0 SWAP1 PUSH1 0x0 SWAP1 LOG3 POP POP JUMP JUMPDEST PUSH1 0x0 DUP2 PUSH1 0x4 DUP2 GT ISZERO PUSH2 0xFB1 JUMPI PUSH2 0xFB1 PUSH2 0x1017 JUMP JUMPDEST DUP4 PUSH1 0x4 DUP2 GT ISZERO PUSH2 0xFC3 JUMPI PUSH2 0xFC3 PUSH2 0x1017 JUMP JUMPDEST LT ISZERO SWAP4 SWAP3 POP POP POP JUMP JUMPDEST PUSH2 0x5DB DUP1 PUSH2 0x13B9 DUP4 CODECOPY ADD SWAP1 JUMP JUMPDEST DUP1 CALLDATALOAD PUSH1 0x1 PUSH1 0xA0 PUSH1 0x2 EXP SUB DUP2 AND DUP2 EQ PUSH2 0xFF0 JUMPI PUSH1 0x0 DUP1 REVERT JUMPDEST SWAP2 SWAP1 POP JUMP JUMPDEST PUSH1 0x0 PUSH1 0x20 DUP3 DUP5 SUB SLT ISZERO PUSH2 0x1007 JUMPI PUSH1 0x0 DUP1 REVERT JUMPDEST PUSH2 0x1010 DUP3 PUSH2 0xFD9 JUMP JUMPDEST SWAP4 SWAP3 POP POP POP JUMP JUMPDEST PUSH1 0xE0 PUSH1 0x2 EXP PUSH4 0x4E487B71 MUL PUSH1 0x0 MSTORE PUSH1 0x21 PUSH1 0x4 MSTORE PUSH1 0x24 PUSH1 0x0 REVERT JUMPDEST PUSH1 0x20 DUP2 ADD PUSH1 0x5 DUP4 LT PUSH2 0x1055 JUMPI PUSH1 0xE0 PUSH1 0x2 EXP PUSH4 0x4E487B71 MUL PUSH1 0x0 MSTORE PUSH1 0x21 PUSH1 0x4 MSTORE PUSH1 0x24 PUSH1 0x0 REVERT JUMPDEST SWAP2 SWAP1 MSTORE SWAP1 JUMP JUMPDEST PUSH1 0x0 DUP1 PUSH1 0x40 DUP4 DUP6 SUB SLT ISZERO PUSH2 0x106E JUMPI PUSH1 0x0 DUP1 REVERT JUMPDEST PUSH2 0x1077 DUP4 PUSH2 0xFD9 JUMP JUMPDEST SWAP2 POP PUSH1 0x20 DUP4 ADD CALLDATALOAD PUSH1 0x5 DUP2 LT PUSH2 0x108B JUMPI PUSH1 0x0 DUP1 REVERT JUMPDEST DUP1 SWAP2 POP POP SWAP3 POP SWAP3 SWAP1 POP JUMP JUMPDEST PUSH1 0x0 PUSH1 0x20 DUP3 DUP5 SUB SLT ISZERO PUSH2 0x10A8 JUMPI PUSH1 0x0 DUP1 REVERT JUMPDEST POP CALLDATALOAD SWAP2 SWAP1 POP JUMP JUMPDEST PUSH1 0xE0 PUSH1 0x2 EXP PUSH4 0x4E487B71 MUL PUSH1 0x0 MSTORE PUSH1 0x41 PUSH1 0x4 MSTORE PUSH1 0x24 PUSH1 0x0 REVERT JUMPDEST PUSH1 0x40 MLOAD PUSH1 0x1F DUP3 ADD PUSH1 0x1F NOT AND DUP2 ADD PUSH8 0xFFFFFFFFFFFFFFFF DUP2 GT DUP3 DUP3 LT OR ISZERO PUSH2 0x10F1 JUMPI PUSH2 0x10F1 PUSH2 0x10AF JUMP JUMPDEST PUSH1 0x40 MSTORE SWAP2 SWAP1 POP JUMP JUMPDEST PUSH1 0x0 PUSH8 0xFFFFFFFFFFFFFFFF DUP3 GT ISZERO PUSH2 0x1113 JUMPI PUSH2 0x1113 PUSH2 0x10AF JUMP JUMPDEST POP PUSH1 0x1F ADD PUSH1 0x1F NOT AND PUSH1 0x20 ADD SWAP1 JUMP JUMPDEST PUSH1 0x0 DUP3 PUSH1 0x1F DUP4 ADD SLT PUSH2 0x1132 JUMPI PUSH1 0x0 DUP1 REVERT JUMPDEST DUP2 CALLDATALOAD PUSH2 0x1145 PUSH2 0x1140 DUP3 PUSH2 0x10F9 JUMP JUMPDEST PUSH2 0x10C8 JUMP JUMPDEST DUP2 DUP2 MSTORE DUP5 PUSH1 0x20 DUP4 DUP7 ADD ADD GT ISZERO PUSH2 0x115A JUMPI PUSH1 0x0 DUP1 REVERT JUMPDEST DUP2 PUSH1 0x20 DUP6 ADD PUSH1 0x20 DUP4 ADD CALLDATACOPY PUSH1 0x0 SWAP2 DUP2 ADD PUSH1 0x20 ADD SWAP2 SWAP1 SWAP2 MSTORE SWAP4 SWAP3 POP POP POP JUMP JUMPDEST PUSH1 0x0 DUP1 PUSH1 0x0 PUSH1 0x60 DUP5 DUP7 SUB SLT ISZERO PUSH2 0x118C JUMPI PUSH1 0x0 DUP1 REVERT JUMPDEST PUSH2 0x1195 DUP5 PUSH2 0xFD9 JUMP JUMPDEST SWAP3 POP PUSH1 0x20 DUP5 ADD CALLDATALOAD SWAP2 POP PUSH1 0x40 DUP5 ADD CALLDATALOAD PUSH8 0xFFFFFFFFFFFFFFFF DUP2 GT ISZERO PUSH2 0x11B8 JUMPI PUSH1 0x0 DUP1 REVERT JUMPDEST PUSH2 0x11C4 DUP7 DUP3 DUP8 ADD PUSH2 0x1121 JUMP JUMPDEST SWAP2 POP POP SWAP3 POP SWAP3 POP SWAP3 JUMP JUMPDEST PUSH1 0x0 JUMPDEST DUP4 DUP2 LT ISZERO PUSH2 0x11E9 JUMPI DUP2 DUP2 ADD MLOAD DUP4 DUP3 ADD MSTORE PUSH1 0x20 ADD PUSH2 0x11D1 JUMP JUMPDEST POP POP PUSH1 0x0 SWAP2 ADD MSTORE JUMP JUMPDEST PUSH1 0x0 DUP2 MLOAD DUP1 DUP5 MSTORE PUSH2 0x120A DUP2 PUSH1 0x20 DUP7 ADD PUSH1 0x20 DUP7 ADD PUSH2 0x11CE JUMP JUMPDEST PUSH1 0x1F ADD PUSH1 0x1F NOT AND SWAP3 SWAP1 SWAP3 ADD PUSH1 0x20 ADD SWAP3 SWAP2 POP POP JUMP JUMPDEST PUSH1 0x20 DUP2 MSTORE PUSH1 0x0 PUSH2 0x1010 PUSH1 0x20 DUP4 ADD DUP5 PUSH2 0x11F2 JUMP JUMPDEST PUSH1 0x0 PUSH1 0x20 DUP3 DUP5 SUB SLT ISZERO PUSH2 0x1243 JUMPI PUSH1 0x0 DUP1 REVERT JUMPDEST DUP2 CALLDATALOAD PUSH8 0xFFFFFFFFFFFFFFFF DUP2 GT ISZERO PUSH2 0x125A JUMPI PUSH1 0x0 DUP1 REVERT JUMPDEST PUSH2 0x1266 DUP5 DUP3 DUP6 ADD PUSH2 0x1121 JUMP JUMPDEST SWAP5 SWAP4 POP POP POP POP JUMP JUMPDEST PUSH1 0x0 DUP1 PUSH1 0x40 DUP4 DUP6 SUB SLT ISZERO PUSH2 0x1281 JUMPI PUSH1 0x0 DUP1 REVERT JUMPDEST PUSH2 0x128A DUP4 PUSH2 0xFD9 JUMP JUMPDEST SWAP2 POP PUSH2 0x1298 PUSH1 0x20 DUP5 ADD PUSH2 0xFD9 JUMP JUMPDEST SWAP1 POP SWAP3 POP SWAP3 SWAP1 POP JUMP JUMPDEST PUSH1 0x0 DUP1 PUSH1 0x0 DUP1 PUSH1 0x80 DUP6 DUP8 SUB SLT ISZERO PUSH2 0x12B7 JUMPI PUSH1 0x0 DUP1 REVERT JUMPDEST PUSH2 0x12C0 DUP6 PUSH2 0xFD9 JUMP JUMPDEST SWAP4 POP PUSH2 0x12CE PUSH1 0x20 DUP7 ADD PUSH2 0xFD9 JUMP JUMPDEST SWAP3 POP PUSH2 0x12DC PUSH1 0x40 DUP7 ADD PUSH2 0xFD9 JUMP JUMPDEST SWAP2 POP PUSH2 0x12EA PUSH1 0x60 DUP7 ADD PUSH2 0xFD9 JUMP JUMPDEST SWAP1 POP SWAP3 SWAP6 SWAP2 SWAP5 POP SWAP3 POP JUMP JUMPDEST DUP1 DUP3 ADD DUP1 DUP3 GT ISZERO PUSH2 0xEB5 JUMPI PUSH1 0xE0 PUSH1 0x2 EXP PUSH4 0x4E487B71 MUL PUSH1 0x0 MSTORE PUSH1 0x11 PUSH1 0x4 MSTORE PUSH1 0x24 PUSH1 0x0 REVERT JUMPDEST PUSH1 0x1 PUSH1 0xA0 PUSH1 0x2 EXP SUB DUP5 AND DUP2 MSTORE DUP3 PUSH1 0x20 DUP3 ADD MSTORE PUSH1 0x60 PUSH1 0x40 DUP3 ADD MSTORE PUSH1 0x0 PUSH2 0x1341 PUSH1 0x60 DUP4 ADD DUP5 PUSH2 0x11F2 JUMP JUMPDEST SWAP6 SWAP5 POP POP POP POP POP JUMP JUMPDEST PUSH1 0x0 PUSH1 0x20 DUP3 DUP5 SUB SLT ISZERO PUSH2 0x135C JUMPI PUSH1 0x0 DUP1 REVERT JUMPDEST DUP2 MLOAD PUSH8 0xFFFFFFFFFFFFFFFF DUP2 GT ISZERO PUSH2 0x1373 JUMPI PUSH1 0x0 DUP1 REVERT JUMPDEST DUP3 ADD PUSH1 0x1F DUP2 ADD DUP5 SGT PUSH2 0x1384 JUMPI PUSH1 0x0 DUP1 REVERT JUMPDEST DUP1 MLOAD PUSH2 0x1392 PUSH2 0x1140 DUP3 PUSH2 0x10F9 JUMP JUMPDEST DUP2 DUP2 MSTORE DUP6 PUSH1 0x20 DUP4 DUP6 ADD ADD GT ISZERO PUSH2 0x13A7 JUMPI PUSH1 0x0 DUP1 REVERT JUMPDEST PUSH2 0x1341 DUP3 PUSH1 0x20 DUP4 ADD PUSH1 0x20 DUP7 ADD PUSH2 0x11CE JUMP INVALID PUSH1 0x80 PUSH1 0x40 MSTORE CALLVALUE DUP1 ISZERO PUSH2 0x10 JUMPI PUSH1 0x0 DUP1 REVERT JUMPDEST POP PUSH2 0x23 CALLER PUSH5 0x100000000 PUSH2 0x28 DUP2 MUL DIV JUMP JUMPDEST PUSH2 0x78 JUMP JUMPDEST PUSH1 0x0 DUP1 SLOAD PUSH1 0x1 PUSH1 0xA0 PUSH1 0x2 EXP SUB DUP4 DUP2 AND PUSH1 0x1 PUSH1 0xA0 PUSH1 0x2 EXP SUB NOT DUP4 AND DUP2 OR DUP5 SSTORE PUSH1 0x40 MLOAD SWAP2 SWAP1 SWAP3 AND SWAP3 DUP4 SWAP2 PUSH32 0x8BE0079C531659141344CD1FD0A4F28419497F9722A3DAAFE3B4186F6B6457E0 SWAP2 SWAP1 LOG3 POP POP JUMP JUMPDEST PUSH2 0x554 DUP1 PUSH2 0x87 PUSH1 0x0 CODECOPY PUSH1 0x0 RETURN INVALID PUSH1 0x80 PUSH1 0x40 MSTORE CALLVALUE DUP1 ISZERO PUSH2 0x10 JUMPI PUSH1 0x0 DUP1 REVERT JUMPDEST POP PUSH1 0x4 CALLDATASIZE LT PUSH2 0x68 JUMPI PUSH29 0x100000000000000000000000000000000000000000000000000000000 PUSH1 0x0 CALLDATALOAD DIV PUSH4 0x715018A6 DUP2 EQ PUSH2 0x6D JUMPI DUP1 PUSH4 0x8DA5CB5B EQ PUSH2 0x77 JUMPI DUP1 PUSH4 0xD7F31EB9 EQ PUSH2 0x97 JUMPI DUP1 PUSH4 0xF2FDE38B EQ PUSH2 0xB7 JUMPI JUMPDEST PUSH1 0x0 DUP1 REVERT JUMPDEST PUSH2 0x75 PUSH2 0xCA JUMP JUMPDEST STOP JUMPDEST PUSH1 0x0 SLOAD PUSH1 0x40 MLOAD PUSH1 0x1 PUSH1 0xA0 PUSH1 0x2 EXP SUB SWAP1 SWAP2 AND DUP2 MSTORE PUSH1 0x20 ADD JUMPDEST PUSH1 0x40 MLOAD DUP1 SWAP2 SUB SWAP1 RETURN JUMPDEST PUSH2 0xAA PUSH2 0xA5 CALLDATASIZE PUSH1 0x4 PUSH2 0x37D JUMP JUMPDEST PUSH2 0xDE JUMP JUMPDEST PUSH1 0x40 MLOAD PUSH2 0x8E SWAP2 SWAP1 PUSH2 0x498 JUMP JUMPDEST PUSH2 0x75 PUSH2 0xC5 CALLDATASIZE PUSH1 0x4 PUSH2 0x4B2 JUMP JUMPDEST PUSH2 0x1A3 JUMP JUMPDEST PUSH2 0xD2 PUSH2 0x252 JUMP JUMPDEST PUSH2 0xDC PUSH1 0x0 PUSH2 0x2D5 JUMP JUMPDEST JUMP JUMPDEST PUSH1 0x60 PUSH2 0xE8 PUSH2 0x252 JUMP JUMPDEST PUSH1 0x0 DUP1 DUP6 PUSH1 0x1 PUSH1 0xA0 PUSH1 0x2 EXP SUB AND DUP6 DUP6 PUSH1 0x40 MLOAD PUSH2 0x104 SWAP2 SWAP1 PUSH2 0x4CD JUMP JUMPDEST PUSH1 0x0 PUSH1 0x40 MLOAD DUP1 DUP4 SUB DUP2 DUP6 DUP8 GAS CALL SWAP3 POP POP POP RETURNDATASIZE DUP1 PUSH1 0x0 DUP2 EQ PUSH2 0x141 JUMPI PUSH1 0x40 MLOAD SWAP2 POP PUSH1 0x1F NOT PUSH1 0x3F RETURNDATASIZE ADD AND DUP3 ADD PUSH1 0x40 MSTORE RETURNDATASIZE DUP3 MSTORE RETURNDATASIZE PUSH1 0x0 PUSH1 0x20 DUP5 ADD RETURNDATACOPY PUSH2 0x146 JUMP JUMPDEST PUSH1 0x60 SWAP2 POP JUMPDEST POP SWAP2 POP SWAP2 POP DUP2 PUSH2 0x155 JUMPI PUSH1 0x0 DUP1 REVERT JUMPDEST DUP6 PUSH1 0x1 PUSH1 0xA0 PUSH1 0x2 EXP SUB AND PUSH32 0x8CD7411F6D2D65DD25E1B8E9E19F9B5B720C01622C9E25049B72837B1BBC1743 DUP7 DUP7 DUP5 PUSH1 0x40 MLOAD PUSH2 0x192 SWAP4 SWAP3 SWAP2 SWAP1 PUSH2 0x4E9 JUMP JUMPDEST PUSH1 0x40 MLOAD DUP1 SWAP2 SUB SWAP1 LOG2 SWAP6 SWAP5 POP POP POP POP POP JUMP JUMPDEST PUSH2 0x1AB PUSH2 0x252 JUMP JUMPDEST PUSH1 0x1 PUSH1 0xA0 PUSH1 0x2 EXP SUB DUP2 AND PUSH2 0x246 JUMPI PUSH1 0x40 MLOAD PUSH32 0x8C379A000000000000000000000000000000000000000000000000000000000 DUP2 MSTORE PUSH1 0x20 PUSH1 0x4 DUP3 ADD MSTORE PUSH1 0x26 PUSH1 0x24 DUP3 ADD MSTORE PUSH32 0x4F776E61626C653A206E6577206F776E657220697320746865207A65726F2061 PUSH1 0x44 DUP3 ADD MSTORE PUSH32 0x6464726573730000000000000000000000000000000000000000000000000000 PUSH1 0x64 DUP3 ADD MSTORE PUSH1 0x84 ADD JUMPDEST PUSH1 0x40 MLOAD DUP1 SWAP2 SUB SWAP1 REVERT JUMPDEST PUSH2 0x24F DUP2 PUSH2 0x2D5 JUMP JUMPDEST POP JUMP JUMPDEST CALLER PUSH2 0x265 PUSH1 0x0 SLOAD PUSH1 0x1 PUSH1 0xA0 PUSH1 0x2 EXP SUB AND SWAP1 JUMP JUMPDEST PUSH1 0x1 PUSH1 0xA0 PUSH1 0x2 EXP SUB AND EQ PUSH2 0xDC JUMPI PUSH1 0x40 MLOAD PUSH32 0x8C379A000000000000000000000000000000000000000000000000000000000 DUP2 MSTORE PUSH1 0x20 PUSH1 0x4 DUP3 ADD DUP2 SWAP1 MSTORE PUSH1 0x24 DUP3 ADD MSTORE PUSH32 0x4F776E61626C653A2063616C6C6572206973206E6F7420746865206F776E6572 PUSH1 0x44 DUP3 ADD MSTORE PUSH1 0x64 ADD PUSH2 0x23D JUMP JUMPDEST PUSH1 0x0 DUP1 SLOAD PUSH1 0x1 PUSH1 0xA0 PUSH1 0x2 EXP SUB DUP4 DUP2 AND PUSH20 0xFFFFFFFFFFFFFFFFFFFFFFFFFFFFFFFFFFFFFFFF NOT DUP4 AND DUP2 OR DUP5 SSTORE PUSH1 0x40 MLOAD SWAP2 SWAP1 SWAP3 AND SWAP3 DUP4 SWAP2 PUSH32 0x8BE0079C531659141344CD1FD0A4F28419497F9722A3DAAFE3B4186F6B6457E0 SWAP2 SWAP1 LOG3 POP POP JUMP JUMPDEST DUP1 CALLDATALOAD PUSH1 0x1 PUSH1 0xA0 PUSH1 0x2 EXP SUB DUP2 AND DUP2 EQ PUSH2 0x349 JUMPI PUSH1 0x0 DUP1 REVERT JUMPDEST SWAP2 SWAP1 POP JUMP JUMPDEST PUSH32 0x4E487B7100000000000000000000000000000000000000000000000000000000 PUSH1 0x0 MSTORE PUSH1 0x41 PUSH1 0x4 MSTORE PUSH1 0x24 PUSH1 0x0 REVERT JUMPDEST PUSH1 0x0 DUP1 PUSH1 0x0 PUSH1 0x60 DUP5 DUP7 SUB SLT ISZERO PUSH2 0x392 JUMPI PUSH1 0x0 DUP1 REVERT JUMPDEST PUSH2 0x39B DUP5 PUSH2 0x332 JUMP JUMPDEST SWAP3 POP PUSH1 0x20 DUP5 ADD CALLDATALOAD SWAP2 POP PUSH1 0x40 DUP5 ADD CALLDATALOAD PUSH8 0xFFFFFFFFFFFFFFFF DUP1 DUP3 GT ISZERO PUSH2 0x3BF JUMPI PUSH1 0x0 DUP1 REVERT JUMPDEST DUP2 DUP7 ADD SWAP2 POP DUP7 PUSH1 0x1F DUP4 ADD SLT PUSH2 0x3D3 JUMPI PUSH1 0x0 DUP1 REVERT JUMPDEST DUP2 CALLDATALOAD DUP2 DUP2 GT ISZERO PUSH2 0x3E5 JUMPI PUSH2 0x3E5 PUSH2 0x34E JUMP JUMPDEST PUSH1 0x40 MLOAD PUSH1 0x1F DUP3 ADD PUSH1 0x1F NOT SWAP1 DUP2 AND PUSH1 0x3F ADD AND DUP2 ADD SWAP1 DUP4 DUP3 GT DUP2 DUP4 LT OR ISZERO PUSH2 0x40D JUMPI PUSH2 0x40D PUSH2 0x34E JUMP JUMPDEST DUP2 PUSH1 0x40 MSTORE DUP3 DUP2 MSTORE DUP10 PUSH1 0x20 DUP5 DUP8 ADD ADD GT ISZERO PUSH2 0x426 JUMPI PUSH1 0x0 DUP1 REVERT JUMPDEST DUP3 PUSH1 0x20 DUP7 ADD PUSH1 0x20 DUP4 ADD CALLDATACOPY PUSH1 0x0 PUSH1 0x20 DUP5 DUP4 ADD ADD MSTORE DUP1 SWAP6 POP POP POP POP POP POP SWAP3 POP SWAP3 POP SWAP3 JUMP JUMPDEST PUSH1 0x0 JUMPDEST DUP4 DUP2 LT ISZERO PUSH2 0x463 JUMPI DUP2 DUP2 ADD MLOAD DUP4 DUP3 ADD MSTORE PUSH1 0x20 ADD PUSH2 0x44B JUMP JUMPDEST POP POP PUSH1 0x0 SWAP2 ADD MSTORE JUMP JUMPDEST PUSH1 0x0 DUP2 MLOAD DUP1 DUP5 MSTORE PUSH2 0x484 DUP2 PUSH1 0x20 DUP7 ADD PUSH1 0x20 DUP7 ADD PUSH2 0x448 JUMP JUMPDEST PUSH1 0x1F ADD PUSH1 0x1F NOT AND SWAP3 SWAP1 SWAP3 ADD PUSH1 0x20 ADD SWAP3 SWAP2 POP POP JUMP JUMPDEST PUSH1 0x20 DUP2 MSTORE PUSH1 0x0 PUSH2 0x4AB PUSH1 0x20 DUP4 ADD DUP5 PUSH2 0x46C JUMP JUMPDEST SWAP4 SWAP3 POP POP POP JUMP JUMPDEST PUSH1 0x0 PUSH1 0x20 DUP3 DUP5 SUB SLT ISZERO PUSH2 0x4C4 JUMPI PUSH1 0x0 DUP1 REVERT JUMPDEST PUSH2 0x4AB DUP3 PUSH2 0x332 JUMP JUMPDEST PUSH1 0x0 DUP3 MLOAD PUSH2 0x4DF DUP2 DUP5 PUSH1 0x20 DUP8 ADD PUSH2 0x448 JUMP JUMPDEST SWAP2 SWAP1 SWAP2 ADD SWAP3 SWAP2 POP POP JUMP JUMPDEST DUP4 DUP2 MSTORE PUSH1 0x60 PUSH1 0x20 DUP3 ADD MSTORE PUSH1 0x0 PUSH2 0x502 PUSH1 0x60 DUP4 ADD DUP6 PUSH2 0x46C JUMP JUMPDEST DUP3 DUP2 SUB PUSH1 0x40 DUP5 ADD MSTORE PUSH2 0x514 DUP2 DUP6 PUSH2 0x46C JUMP JUMPDEST SWAP7 SWAP6 POP POP POP POP POP POP JUMP INVALID LOG2 PUSH5 0x6970667358 0x22 SLT KECCAK256 MLOAD SLOAD 0x5C 0xD8 PUSH1 0xA8 CHAINID CALLCODE 0xEE PUSH31 0xFF8A38DEF630F73236950E0B49543E9BC17C5CEA84E564736F6C6343000811 STOP CALLER LOG2 PUSH5 0x6970667358 0x22 SLT KECCAK256 DUP11 0xDA JUMP 0xC3 0xD8 0xDF CREATE2 MUL 0xCB 0x23 0xE5 ORIGIN EXTCODEHASH 0xC9 PUSH26 0xAA77A5669D17791C5293D6807226A880C564736F6C6343000811 STOP CALLER "},"methodIdentifiers":{"addIdentityIssuer(address,uint8)":"889776a8","addIdentityServiceProvider(address)":"0ebbbffc","alastriaCredentialRegistry()":"dcc30e35","alastriaPresentationRegistry()":"43eedc70","alastriaPublicKeyRegistry()":"f014cd41","createAlastriaIdentity(bytes)":"6d69d99a","createAlastriaIdentity(bytes32)":"4fe2d595","delegateCall(address,uint256,bytes)":"597b2e9b","deleteIdentityIssuer(address)":"cb691599","deleteIdentityServiceProvider(address)":"3bf47215","firstIdentityWallet()":"6de41372","getEidasLevel(address)":"0e5a4fbb","identityKeys(address)":"0c91465e","initialize(address,address,address,address)":"f8c8765e","isIdentityIssuer(address)":"6554adf0","isIdentityServiceProvider(address)":"d024d9a4","owner()":"8da5cb5b","pendingIDs(address)":"2773d0fa","prepareAlastriaID(address)":"45748b42","recoverAccount(address,address)":"c71cbcf3","renounceOwnership()":"715018a6","transferOwnership(address)":"f2fde38b","updateIdentityIssuerEidasLevel(address,uint8)":"44963610","version()":"54fd4d50"}},"storageLayout":{"storage":[{"astId":743,"contract":"contracts/identity/AlastriaIdentityManager.sol:AlastriaIdentityManager","label":"providers","offset":0,"slot":"0","type":"t_mapping(t_address,t_bool)"},{"astId":127,"contract":"contracts/identity/AlastriaIdentityManager.sol:AlastriaIdentityManager","label":"issuers","offset":0,"slot":"1","type":"t_mapping(t_address,t_struct(IdentityIssuer)122_storage)"},{"astId":4,"contract":"contracts/identity/AlastriaIdentityManager.sol:AlastriaIdentityManager","label":"_owner","offset":0,"slot":"2","type":"t_address"},{"astId":1608,"contract":"contracts/identity/AlastriaIdentityManager.sol:AlastriaIdentityManager","label":"_initialized","offset":20,"slot":"2","type":"t_uint8"},{"astId":1611,"contract":"contracts/identity/AlastriaIdentityManager.sol:AlastriaIdentityManager","label":"_initializing","offset":21,"slot":"2","type":"t_bool"},{"astId":347,"contract":"contracts/identity/AlastriaIdentityManager.sol:AlastriaIdentityManager","label":"version","offset":0,"slot":"3","type":"t_uint256"},{"astId":353,"contract":"contracts/identity/AlastriaIdentityManager.sol:AlastriaIdentityManager","label":"alastriaCredentialRegistry","offset":0,"slot":"4","type":"t_contract(AlastriaCredentialRegistry)2698"},{"astId":356,"contract":"contracts/identity/AlastriaIdentityManager.sol:AlastriaIdentityManager","label":"alastriaPresentationRegistry","offset":0,"slot":"5","type":"t_contract(AlastriaPresentationRegistry)3104"},{"astId":359,"contract":"contracts/identity/AlastriaIdentityManager.sol:AlastriaIdentityManager","label":"alastriaPublicKeyRegistry","offset":0,"slot":"6","type":"t_contract(AlastriaPublicKeyRegistry)3530"},{"astId":361,"contract":"contracts/identity/AlastriaIdentityManager.sol:AlastriaIdentityManager","label":"firstIdentityWallet","offset":0,"slot":"7","type":"t_address"},{"astId":365,"contract":"contracts/identity/AlastriaIdentityManager.sol:AlastriaIdentityManager","label":"identityKeys","offset":0,"slot":"8","type":"t_mapping(t_address,t_address)"},{"astId":369,"contract":"contracts/identity/AlastriaIdentityManager.sol:AlastriaIdentityManager","label":"pendingIDs","offset":0,"slot":"9","type":"t_mapping(t_address,t_uint256)"}],"types":{"t_address":{"encoding":"inplace","label":"address","numberOfBytes":"20"},"t_bool":{"encoding":"inplace","label":"bool","numberOfBytes":"1"},"t_contract(AlastriaCredentialRegistry)2698":{"encoding":"inplace","label":"contract AlastriaCredentialRegistry","numberOfBytes":"20"},"t_contract(AlastriaPresentationRegistry)3104":{"encoding":"inplace","label":"contract AlastriaPresentationRegistry","numberOfBytes":"20"},"t_contract(AlastriaPublicKeyRegistry)3530":{"encoding":"inplace","label":"contract AlastriaPublicKeyRegistry","numberOfBytes":"20"},"t_enum(EidasLevel)900":{"encoding":"inplace","label":"enum Eidas.EidasLevel","numberOfBytes":"1"},"t_mapping(t_address,t_address)":{"encoding":"mapping","key":"t_address","label":"mapping(address => address)","numberOfBytes":"32","value":"t_address"},"t_mapping(t_address,t_bool)":{"encoding":"mapping","key":"t_address","label":"mapping(address => bool)","numberOfBytes":"32","value":"t_bool"},"t_mapping(t_address,t_struct(IdentityIssuer)122_storage)":{"encoding":"mapping","key":"t_address","label":"mapping(address => struct AlastriaIdentityIssuer.IdentityIssuer)","numberOfBytes":"32","value":"t_struct(IdentityIssuer)122_storage"},"t_mapping(t_address,t_uint256)":{"encoding":"mapping","key":"t_address","label":"mapping(address => uint256)","numberOfBytes":"32","value":"t_uint256"},"t_struct(IdentityIssuer)122_storage":{"encoding":"inplace","label":"struct AlastriaIdentityIssuer.IdentityIssuer","members":[{"astId":119,"contract":"contracts/identity/AlastriaIdentityManager.sol:AlastriaIdentityManager","label":"level","offset":0,"slot":"0","type":"t_enum(EidasLevel)900"},{"astId":121,"contract":"contracts/identity/AlastriaIdentityManager.sol:AlastriaIdentityManager","label":"active","offset":1,"slot":"0","type":"t_bool"}],"numberOfBytes":"32"},"t_uint256":{"encoding":"inplace","label":"uint256","numberOfBytes":"32"},"t_uint8":{"encoding":"inplace","label":"uint8","numberOfBytes":"1"}}}}}}