{"contracts/identity/AlastriaIdentityIssuer.sol":{"AlastriaIdentityIssuer":{"abi":[{"inputs":[{"internalType":"address","name":"_identityIssuer","type":"address"},{"internalType":"enum Eidas.EidasLevel","name":"_level","type":"uint8"}],"name":"addIdentityIssuer","outputs":[],"stateMutability":"nonpayable","type":"function"},{"inputs":[{"internalType":"address","name":"_identityIssuer","type":"address"}],"name":"deleteIdentityIssuer","outputs":[],"stateMutability":"nonpayable","type":"function"},{"inputs":[{"internalType":"address","name":"_identityIssuer","type":"address"}],"name":"getEidasLevel","outputs":[{"internalType":"enum Eidas.EidasLevel","name":"","type":"uint8"}],"stateMutability":"view","type":"function"},{"inputs":[{"internalType":"address","name":"_identityIssuer","type":"address"}],"name":"isIdentityIssuer","outputs":[{"internalType":"bool","name":"","type":"bool"}],"stateMutability":"view","type":"function"},{"inputs":[{"internalType":"address","name":"_identityIssuer","type":"address"},{"internalType":"enum Eidas.EidasLevel","name":"_level","type":"uint8"}],"name":"updateIdentityIssuerEidasLevel","outputs":[],"stateMutability":"nonpayable","type":"function"}],"evm":{"bytecode":{"linkReferences":{},"object":"608060405234801561001057600080fd5b5061041e806100206000396000f3fe608060405234801561001057600080fd5b5060043610610073577c010000000000000000000000000000000000000000000000000000000060003504630e5a4fbb811461007857806344963610146100ba5780636554adf0146100cf578063889776a814610110578063cb69159914610123575b600080fd5b6100a461008636600461031b565b600160a060020a031660009081526020819052604090205460ff1690565b6040516100b1919061036c565b60405180910390f35b6100cd6100c83660046103ad565b610136565b005b6101006100dd36600461031b565b600160a060020a0316600090815260208190526040902054610100900460ff1690565b60405190151581526020016100b1565b6100cd61011e3660046103ad565b6101bd565b6100cd61013136600461031b565b610279565b8061015181600481111561014c5761014c61033d565b6102bd565b61015a57600080fd5b33600081815260208190526040902054610100900460ff1661017b57600080fd5b600160a060020a038416600090815260208190526040902080548490829060ff191660018360048111156101b1576101b161033d565b02179055505050505050565b806101d381600481111561014c5761014c61033d565b6101dc57600080fd5b600160a060020a0383166000908152602081905260409020548390610100900460ff161561020957600080fd5b33600081815260208190526040902054610100900460ff1661022a57600080fd5b600160a060020a038516600090815260208190526040902080548590829060ff191660018360048111156102605761026061033d565b0217905550805461ff0019166101001790555050505050565b33600081815260208190526040902054610100900460ff1661029a57600080fd5b50600160a060020a03166000908152602081905260409020805461ffff19169055565b60006102ca8260026102d0565b92915050565b60008160048111156102e4576102e461033d565b8360048111156102f6576102f661033d565b10159392505050565b8035600160a060020a038116811461031657600080fd5b919050565b60006020828403121561032d57600080fd5b610336826102ff565b9392505050565b7f4e487b7100000000000000000000000000000000000000000000000000000000600052602160045260246000fd5b60208101600583106103a7577f4e487b7100000000000000000000000000000000000000000000000000000000600052602160045260246000fd5b91905290565b600080604083850312156103c057600080fd5b6103c9836102ff565b91506020830135600581106103dd57600080fd5b80915050925092905056fea264697066735822122016d9f18464739d57bf971a07089d76cdee7cffaac6d08dfc65112af0f04d763864736f6c63430008110033","opcodes":"PUSH1 0x80 PUSH1 0x40 MSTORE CALLVALUE DUP1 ISZERO PUSH2 0x10 JUMPI PUSH1 0x0 DUP1 REVERT JUMPDEST POP PUSH2 0x41E DUP1 PUSH2 0x20 PUSH1 0x0 CODECOPY PUSH1 0x0 RETURN INVALID PUSH1 0x80 PUSH1 0x40 MSTORE CALLVALUE DUP1 ISZERO PUSH2 0x10 JUMPI PUSH1 0x0 DUP1 REVERT JUMPDEST POP PUSH1 0x4 CALLDATASIZE LT PUSH2 0x73 JUMPI PUSH29 0x100000000000000000000000000000000000000000000000000000000 PUSH1 0x0 CALLDATALOAD DIV PUSH4 0xE5A4FBB DUP2 EQ PUSH2 0x78 JUMPI DUP1 PUSH4 0x44963610 EQ PUSH2 0xBA JUMPI DUP1 PUSH4 0x6554ADF0 EQ PUSH2 0xCF JUMPI DUP1 PUSH4 0x889776A8 EQ PUSH2 0x110 JUMPI DUP1 PUSH4 0xCB691599 EQ PUSH2 0x123 JUMPI JUMPDEST PUSH1 0x0 DUP1 REVERT JUMPDEST PUSH2 0xA4 PUSH2 0x86 CALLDATASIZE PUSH1 0x4 PUSH2 0x31B JUMP JUMPDEST PUSH1 0x1 PUSH1 0xA0 PUSH1 0x2 EXP SUB AND PUSH1 0x0 SWAP1 DUP2 MSTORE PUSH1 0x20 DUP2 SWAP1 MSTORE PUSH1 0x40 SWAP1 KECCAK256 SLOAD PUSH1 0xFF AND SWAP1 JUMP JUMPDEST PUSH1 0x40 MLOAD PUSH2 0xB1 SWAP2 SWAP1 PUSH2 0x36C JUMP JUMPDEST PUSH1 0x40 MLOAD DUP1 SWAP2 SUB SWAP1 RETURN JUMPDEST PUSH2 0xCD PUSH2 0xC8 CALLDATASIZE PUSH1 0x4 PUSH2 0x3AD JUMP JUMPDEST PUSH2 0x136 JUMP JUMPDEST STOP JUMPDEST PUSH2 0x100 PUSH2 0xDD CALLDATASIZE PUSH1 0x4 PUSH2 0x31B JUMP JUMPDEST PUSH1 0x1 PUSH1 0xA0 PUSH1 0x2 EXP SUB AND PUSH1 0x0 SWAP1 DUP2 MSTORE PUSH1 0x20 DUP2 SWAP1 MSTORE PUSH1 0x40 SWAP1 KECCAK256 SLOAD PUSH2 0x100 SWAP1 DIV PUSH1 0xFF AND SWAP1 JUMP JUMPDEST PUSH1 0x40 MLOAD SWAP1 ISZERO ISZERO DUP2 MSTORE PUSH1 0x20 ADD PUSH2 0xB1 JUMP JUMPDEST PUSH2 0xCD PUSH2 0x11E CALLDATASIZE PUSH1 0x4 PUSH2 0x3AD JUMP JUMPDEST PUSH2 0x1BD JUMP JUMPDEST PUSH2 0xCD PUSH2 0x131 CALLDATASIZE PUSH1 0x4 PUSH2 0x31B JUMP JUMPDEST PUSH2 0x279 JUMP JUMPDEST DUP1 PUSH2 0x151 DUP2 PUSH1 0x4 DUP2 GT ISZERO PUSH2 0x14C JUMPI PUSH2 0x14C PUSH2 0x33D JUMP JUMPDEST PUSH2 0x2BD JUMP JUMPDEST PUSH2 0x15A JUMPI PUSH1 0x0 DUP1 REVERT JUMPDEST CALLER PUSH1 0x0 DUP2 DUP2 MSTORE PUSH1 0x20 DUP2 SWAP1 MSTORE PUSH1 0x40 SWAP1 KECCAK256 SLOAD PUSH2 0x100 SWAP1 DIV PUSH1 0xFF AND PUSH2 0x17B JUMPI PUSH1 0x0 DUP1 REVERT JUMPDEST PUSH1 0x1 PUSH1 0xA0 PUSH1 0x2 EXP SUB DUP5 AND PUSH1 0x0 SWAP1 DUP2 MSTORE PUSH1 0x20 DUP2 SWAP1 MSTORE PUSH1 0x40 SWAP1 KECCAK256 DUP1 SLOAD DUP5 SWAP1 DUP3 SWAP1 PUSH1 0xFF NOT AND PUSH1 0x1 DUP4 PUSH1 0x4 DUP2 GT ISZERO PUSH2 0x1B1 JUMPI PUSH2 0x1B1 PUSH2 0x33D JUMP JUMPDEST MUL OR SWAP1 SSTORE POP POP POP POP POP POP JUMP JUMPDEST DUP1 PUSH2 0x1D3 DUP2 PUSH1 0x4 DUP2 GT ISZERO PUSH2 0x14C JUMPI PUSH2 0x14C PUSH2 0x33D JUMP JUMPDEST PUSH2 0x1DC JUMPI PUSH1 0x0 DUP1 REVERT JUMPDEST PUSH1 0x1 PUSH1 0xA0 PUSH1 0x2 EXP SUB DUP4 AND PUSH1 0x0 SWAP1 DUP2 MSTORE PUSH1 0x20 DUP2 SWAP1 MSTORE PUSH1 0x40 SWAP1 KECCAK256 SLOAD DUP4 SWAP1 PUSH2 0x100 SWAP1 DIV PUSH1 0xFF AND ISZERO PUSH2 0x209 JUMPI PUSH1 0x0 DUP1 REVERT JUMPDEST CALLER PUSH1 0x0 DUP2 DUP2 MSTORE PUSH1 0x20 DUP2 SWAP1 MSTORE PUSH1 0x40 SWAP1 KECCAK256 SLOAD PUSH2 0x100 SWAP1 DIV PUSH1 0xFF AND PUSH2 0x22A JUMPI PUSH1 0x0 DUP1 REVERT JUMPDEST PUSH1 0x1 PUSH1 0xA0 PUSH1 0x2 EXP SUB DUP6 AND PUSH1 0x0 SWAP1 DUP2 MSTORE PUSH1 0x20 DUP2 SWAP1 MSTORE PUSH1 0x40 SWAP1 KECCAK256 DUP1 SLOAD DUP6 SWAP1 DUP3 SWAP1 PUSH1 0xFF NOT AND PUSH1 0x1 DUP4 PUSH1 0x4 DUP2 GT ISZERO PUSH2 0x260 JUMPI PUSH2 0x260 PUSH2 0x33D JUMP JUMPDEST MUL OR SWAP1 SSTORE POP DUP1 SLOAD PUSH2 0xFF00 NOT AND PUSH2 0x100 OR SWAP1 SSTORE POP POP POP POP POP JUMP JUMPDEST CALLER PUSH1 0x0 DUP2 DUP2 MSTORE PUSH1 0x20 DUP2 SWAP1 MSTORE PUSH1 0x40 SWAP1 KECCAK256 SLOAD PUSH2 0x100 SWAP1 DIV PUSH1 0xFF AND PUSH2 0x29A JUMPI PUSH1 0x0 DUP1 REVERT JUMPDEST POP PUSH1 0x1 PUSH1 0xA0 PUSH1 0x2 EXP SUB AND PUSH1 0x0 SWAP1 DUP2 MSTORE PUSH1 0x20 DUP2 SWAP1 MSTORE PUSH1 0x40 SWAP1 KECCAK256 DUP1 SLOAD PUSH2 0xFFFF NOT AND SWAP1 SSTORE JUMP JUMPDEST PUSH1 0x0 PUSH2 0x2CA DUP3 PUSH1 0x2 PUSH2 0x2D0 JUMP JUMPDEST SWAP3 SWAP2 POP POP JUMP JUMPDEST PUSH1 0x0 DUP2 PUSH1 0x4 DUP2 GT ISZERO PUSH2 0x2E4 JUMPI PUSH2 0x2E4 PUSH2 0x33D JUMP JUMPDEST DUP4 PUSH1 0x4 DUP2 GT ISZERO PUSH2 0x2F6 JUMPI PUSH2 0x2F6 PUSH2 0x33D JUMP JUMPDEST LT ISZERO SWAP4 SWAP3 POP POP POP JUMP JUMPDEST DUP1 CALLDATALOAD PUSH1 0x1 PUSH1 0xA0 PUSH1 0x2 EXP SUB DUP2 AND DUP2 EQ PUSH2 0x316 JUMPI PUSH1 0x0 DUP1 REVERT JUMPDEST SWAP2 SWAP1 POP JUMP JUMPDEST PUSH1 0x0 PUSH1 0x20 DUP3 DUP5 SUB SLT ISZERO PUSH2 0x32D JUMPI PUSH1 0x0 DUP1 REVERT JUMPDEST PUSH2 0x336 DUP3 PUSH2 0x2FF JUMP JUMPDEST SWAP4 SWAP3 POP POP POP JUMP JUMPDEST PUSH32 0x4E487B7100000000000000000000000000000000000000000000000000000000 PUSH1 0x0 MSTORE PUSH1 0x21 PUSH1 0x4 MSTORE PUSH1 0x24 PUSH1 0x0 REVERT JUMPDEST PUSH1 0x20 DUP2 ADD PUSH1 0x5 DUP4 LT PUSH2 0x3A7 JUMPI PUSH32 0x4E487B7100000000000000000000000000000000000000000000000000000000 PUSH1 0x0 MSTORE PUSH1 0x21 PUSH1 0x4 MSTORE PUSH1 0x24 PUSH1 0x0 REVERT JUMPDEST SWAP2 SWAP1 MSTORE SWAP1 JUMP JUMPDEST PUSH1 0x0 DUP1 PUSH1 0x40 DUP4 DUP6 SUB SLT ISZERO PUSH2 0x3C0 JUMPI PUSH1 0x0 DUP1 REVERT JUMPDEST PUSH2 0x3C9 DUP4 PUSH2 0x2FF JUMP JUMPDEST SWAP2 POP PUSH1 0x20 DUP4 ADD CALLDATALOAD PUSH1 0x5 DUP2 LT PUSH2 0x3DD JUMPI PUSH1 0x0 DUP1 REVERT JUMPDEST DUP1 SWAP2 POP POP SWAP3 POP SWAP3 SWAP1 POP JUMP INVALID LOG2 PUSH5 0x6970667358 0x22 SLT KECCAK256 AND 0xD9 CALL DUP5 PUSH5 0x739D57BF97 BYTE SMOD ADDMOD SWAP14 PUSH23 0xCDEE7CFFAAC6D08DFC65112AF0F04D763864736F6C6343 STOP ADDMOD GT STOP CALLER "},"methodIdentifiers":{"addIdentityIssuer(address,uint8)":"889776a8","deleteIdentityIssuer(address)":"cb691599","getEidasLevel(address)":"0e5a4fbb","isIdentityIssuer(address)":"6554adf0","updateIdentityIssuerEidasLevel(address,uint8)":"44963610"}},"storageLayout":{"storage":[{"astId":127,"contract":"contracts/identity/AlastriaIdentityIssuer.sol:AlastriaIdentityIssuer","label":"issuers","offset":0,"slot":"0","type":"t_mapping(t_address,t_struct(IdentityIssuer)122_storage)"}],"types":{"t_address":{"encoding":"inplace","label":"address","numberOfBytes":"20"},"t_bool":{"encoding":"inplace","label":"bool","numberOfBytes":"1"},"t_enum(EidasLevel)900":{"encoding":"inplace","label":"enum Eidas.EidasLevel","numberOfBytes":"1"},"t_mapping(t_address,t_struct(IdentityIssuer)122_storage)":{"encoding":"mapping","key":"t_address","label":"mapping(address => struct AlastriaIdentityIssuer.IdentityIssuer)","numberOfBytes":"32","value":"t_struct(IdentityIssuer)122_storage"},"t_struct(IdentityIssuer)122_storage":{"encoding":"inplace","label":"struct AlastriaIdentityIssuer.IdentityIssuer","members":[{"astId":119,"contract":"contracts/identity/AlastriaIdentityIssuer.sol:AlastriaIdentityIssuer","label":"level","offset":0,"slot":"0","type":"t_enum(EidasLevel)900"},{"astId":121,"contract":"contracts/identity/AlastriaIdentityIssuer.sol:AlastriaIdentityIssuer","label":"active","offset":1,"slot":"0","type":"t_bool"}],"numberOfBytes":"32"}}}}}}