{"contracts/registries/AlastriaCredentialRegistry.sol":{"AlastriaCredentialRegistry":{"abi":[{"anonymous":false,"inputs":[{"indexed":false,"internalType":"bytes32","name":"hash","type":"bytes32"},{"indexed":false,"internalType":"enum AlastriaCredentialRegistry.Status","name":"status","type":"uint8"}],"name":"CredentialUpdated","type":"event"},{"anonymous":false,"inputs":[{"indexed":false,"internalType":"uint8","name":"version","type":"uint8"}],"name":"Initialized","type":"event"},{"anonymous":false,"inputs":[{"indexed":false,"internalType":"bytes32","name":"issuerCredentialHash","type":"bytes32"},{"indexed":false,"internalType":"enum AlastriaCredentialRegistry.Status","name":"status","type":"uint8"}],"name":"IssuerCredentialRevoked","type":"event"},{"anonymous":false,"inputs":[{"indexed":false,"internalType":"bytes32","name":"subjectCredentialHash","type":"bytes32"}],"name":"SubjectCredentialDeleted","type":"event"},{"inputs":[{"internalType":"bytes32","name":"issuerCredentialHash","type":"bytes32"}],"name":"addIssuerCredential","outputs":[],"stateMutability":"nonpayable","type":"function"},{"inputs":[{"internalType":"bytes32","name":"subjectCredentialHash","type":"bytes32"},{"internalType":"string","name":"","type":"string"}],"name":"addSubjectCredential","outputs":[],"stateMutability":"nonpayable","type":"function"},{"inputs":[{"internalType":"bytes32","name":"subjectCredentialHash","type":"bytes32"}],"name":"deleteSubjectCredential","outputs":[],"stateMutability":"nonpayable","type":"function"},{"inputs":[{"internalType":"enum AlastriaCredentialRegistry.Status","name":"subjectStatus","type":"uint8"},{"internalType":"enum AlastriaCredentialRegistry.Status","name":"issuerStatus","type":"uint8"}],"name":"getCredentialStatus","outputs":[{"internalType":"enum AlastriaCredentialRegistry.Status","name":"","type":"uint8"}],"stateMutability":"pure","type":"function"},{"inputs":[{"internalType":"address","name":"issuer","type":"address"},{"internalType":"bytes32","name":"issuerCredentialHash","type":"bytes32"}],"name":"getIssuerCredentialStatus","outputs":[{"internalType":"bool","name":"exists","type":"bool"},{"internalType":"enum AlastriaCredentialRegistry.Status","name":"status","type":"uint8"}],"stateMutability":"view","type":"function"},{"inputs":[{"internalType":"address","name":"subject","type":"address"},{"internalType":"bytes32","name":"subjectCredentialHash","type":"bytes32"}],"name":"getSubjectCredentialStatus","outputs":[{"internalType":"bool","name":"exists","type":"bool"},{"internalType":"enum AlastriaCredentialRegistry.Status","name":"status","type":"uint8"}],"stateMutability":"view","type":"function"},{"inputs":[{"internalType":"address","name":"_previousPublishedVersion","type":"address"}],"name":"initialize","outputs":[],"stateMutability":"nonpayable","type":"function"},{"inputs":[],"name":"previousPublishedVersion","outputs":[{"internalType":"address","name":"","type":"address"}],"stateMutability":"view","type":"function"},{"inputs":[{"internalType":"bytes32","name":"issuerCredentialHash","type":"bytes32"},{"internalType":"enum AlastriaCredentialRegistry.Status","name":"status","type":"uint8"}],"name":"updateCredentialStatus","outputs":[],"stateMutability":"nonpayable","type":"function"},{"inputs":[{"internalType":"bytes32","name":"issuerCredentialHash","type":"bytes32"},{"internalType":"enum AlastriaCredentialRegistry.Status","name":"status","type":"uint8"}],"name":"updateIssuerCredential","outputs":[],"stateMutability":"nonpayable","type":"function"},{"inputs":[{"internalType":"bytes32","name":"subjectCredentialHash","type":"bytes32"},{"internalType":"enum AlastriaCredentialRegistry.Status","name":"status","type":"uint8"}],"name":"updateSubjectCredential","outputs":[],"stateMutability":"nonpayable","type":"function"},{"inputs":[],"name":"version","outputs":[{"internalType":"int256","name":"","type":"int256"}],"stateMutability":"view","type":"function"}],"evm":{"bytecode":{"linkReferences":{},"object":"608060405234801561001057600080fd5b50610cd8806100206000396000f3fe608060405234801561001057600080fd5b50600436106100b45760003560e01c8063b116317311610071578063b116317314610169578063c4d66de81461017c578063dc11e39b1461018f578063dd517e10146101a2578063dff9a1a9146101b5578063e04ce02c146101c857600080fd5b806354fd4d50146100b957806355d64732146100d55780635faf7d94146100f65780636104464f146101165780639b6bb60014610141578063aeda232a14610156575b600080fd5b6100c260015481565b6040519081526020015b60405180910390f35b6100e86100e3366004610a97565b6101db565b6040516100cc929190610af9565b610109610104366004610b25565b61022a565b6040516100cc9190610b58565b600254610129906001600160a01b031681565b6040516001600160a01b0390911681526020016100cc565b61015461014f366004610b66565b6102e4565b005b6100e8610164366004610a97565b6104b4565b610154610177366004610b66565b610503565b61015461018a366004610b89565b6105f0565b61015461019d366004610ba4565b61071f565b6101546101b0366004610b66565b6107b8565b6101546101c3366004610ba4565b6108dd565b6101546101d6366004610bd3565b610965565b600080836001600160a01b0381166101f257600080fd5b5050506001600160a01b03919091166000908152600360209081526040808320938352929052205460ff808216926101009092041690565b6000828181600381111561024057610240610ac1565b101580156102605750600381600381111561025d5761025d610ac1565b11155b61026957600080fd5b82600081600381111561027e5761027e610ac1565b1015801561029e5750600381600381111561029b5761029b610ac1565b11155b6102a757600080fd5b8360038111156102b9576102b9610ac1565b8560038111156102cb576102cb610ac1565b106102d8578492506102dc565b8392505b505092915050565b8060008160038111156102f9576102f9610ac1565b101580156103195750600381600381111561031657610316610ac1565b11155b61032257600080fd5b61032b82610a03565b156104af573360009081526003602090815260408083208684529091529020805460ff1661041b57604051806040016040528060011515815260200184600381111561037957610379610ac1565b905233600090815260036020818152604080842089855282529092208351815490151560ff198216811783559385015191939192849261ff00191661ffff1990921691909117906101009084908111156103d5576103d5610ac1565b02179055509050507f07d07adce2e04383c59a74512c5b56f74f5dce19648a6247d584a71f1cf9c235848460405161040e929190610c8e565b60405180910390a16104ad565b8054610100900460ff16600381111561043657610436610ac1565b83600381111561044857610448610ac1565b11156104ad5780548390829061ff00191661010083600381111561046e5761046e610ac1565b02179055507f07d07adce2e04383c59a74512c5b56f74f5dce19648a6247d584a71f1cf9c23584846040516104a4929190610c8e565b60405180910390a15b505b505050565b600080836001600160a01b0381166104cb57600080fd5b5050506001600160a01b03919091166000908152600460209081526040808320938352929052205460ff808216926101009092041690565b80600081600381111561051857610518610ac1565b101580156105385750600381600381111561053557610535610ac1565b11155b61054157600080fd5b61054a82610a3c565b156104af573360009081526004602090815260408083208684529091529020805460ff1661041b57604051806040016040528060011515815260200184600381111561059857610598610ac1565b905233600090815260046020908152604080832088845282529091208251815490151560ff19821681178355928401519192839161ff001990911661ffff19909116176101008360038111156103d5576103d5610ac1565b600054610100900460ff16158080156106105750600054600160ff909116105b8061062a5750303b15801561062a575060005460ff166001145b6106915760405162461bcd60e51b815260206004820152602e60248201527f496e697469616c697a61626c653a20636f6e747261637420697320616c72656160448201526d191e481a5b9a5d1a585b1a5e995960921b606482015260840160405180910390fd5b6000805460ff1916600117905580156106b4576000805461ff0019166101001790555b6003600155600280546001600160a01b0319166001600160a01b038416179055801561071b576000805461ff0019169055604051600181527f7f26b83ff96e1f2b6a682f133852f6798a09c465da95921460cefb3847402498906020015b60405180910390a15b5050565b33600090815260046020908152604080832084845290915290205460ff161561074757600080fd5b6040805180820182526001815260006020808301828152338352600482528483208684529091529290208151815490151560ff1982168117835593519293919291839161ff001990911661ffff19909116176101008360038111156107ae576107ae610ac1565b0217905550505050565b8060008160038111156107cd576107cd610ac1565b101580156107ed575060038160038111156107ea576107ea610ac1565b11155b6107f657600080fd5b33600090815260046020908152604080832086845290915290208054610100900460ff16600381111561082b5761082b610ac1565b83600381111561083d5761083d610ac1565b11156104ad57600183600381111561085757610857610ac1565b14806108745750600283600381111561087257610872610ac1565b145b156104ad578054600160ff198216811783558491839161ffff19909116176101008360038111156108a7576108a7610ac1565b02179055507f0bc6eed115cb12ced57d22ce88a4be72a3b052cf01e5a1947a1f901f8ff26b1a84846040516104a4929190610c8e565b3360009081526003602090815260408083208484529091529020805460ff168015610923575060038154610100900460ff16600381111561092057610920610ac1565b14155b1561071b57805461ff0019166103001781556040518281527fc83f14fb22d6787113e4b492b1b27daac6284e516a3c61d454359fd426d04c2990602001610712565b33600090815260036020908152604080832085845290915290205460ff161561098d57600080fd5b60408051808201825260018152600060208083018281523383526003808352858420888552909252939091208251815490151560ff1982168117835594519394919392849261ff00191661ffff1990921691909117906101009084908111156109f8576109f8610ac1565b021790555050505050565b600080826003811115610a1857610a18610ac1565b1480610a36575060035b826003811115610a3457610a34610ac1565b145b92915050565b600080826003811115610a5157610a51610ac1565b1480610a6e57506001826003811115610a6c57610a6c610ac1565b145b80610a3657506002610a22565b80356001600160a01b0381168114610a9257600080fd5b919050565b60008060408385031215610aaa57600080fd5b610ab383610a7b565b946020939093013593505050565b634e487b7160e01b600052602160045260246000fd5b60048110610af557634e487b7160e01b600052602160045260246000fd5b9052565b821515815260408101610b0f6020830184610ad7565b9392505050565b803560048110610a9257600080fd5b60008060408385031215610b3857600080fd5b610b4183610b16565b9150610b4f60208401610b16565b90509250929050565b60208101610a368284610ad7565b60008060408385031215610b7957600080fd5b82359150610b4f60208401610b16565b600060208284031215610b9b57600080fd5b610b0f82610a7b565b600060208284031215610bb657600080fd5b5035919050565b634e487b7160e01b600052604160045260246000fd5b60008060408385031215610be657600080fd5b82359150602083013567ffffffffffffffff80821115610c0557600080fd5b818501915085601f830112610c1957600080fd5b813581811115610c2b57610c2b610bbd565b604051601f8201601f19908116603f01168101908382118183101715610c5357610c53610bbd565b81604052828152886020848701011115610c6c57600080fd5b8260208601602083013760006020848301015280955050505050509250929050565b82815260408101610b0f6020830184610ad756fea26469706673582212209eac10d9ec40c89858b2459f9aa83bf09e2983b70911be17907ca2f1e0cadf4e64736f6c63430008110033","opcodes":"PUSH1 0x80 PUSH1 0x40 MSTORE CALLVALUE DUP1 ISZERO PUSH2 0x10 JUMPI PUSH1 0x0 DUP1 REVERT JUMPDEST POP PUSH2 0xCD8 DUP1 PUSH2 0x20 PUSH1 0x0 CODECOPY PUSH1 0x0 RETURN INVALID PUSH1 0x80 PUSH1 0x40 MSTORE CALLVALUE DUP1 ISZERO PUSH2 0x10 JUMPI PUSH1 0x0 DUP1 REVERT JUMPDEST POP PUSH1 0x4 CALLDATASIZE LT PUSH2 0xB4 JUMPI PUSH1 0x0 CALLDATALOAD PUSH1 0xE0 SHR DUP1 PUSH4 0xB1163173 GT PUSH2 0x71 JUMPI DUP1 PUSH4 0xB1163173 EQ PUSH2 0x169 JUMPI DUP1 PUSH4 0xC4D66DE8 EQ PUSH2 0x17C JUMPI DUP1 PUSH4 0xDC11E39B EQ PUSH2 0x18F JUMPI DUP1 PUSH4 0xDD517E10 EQ PUSH2 0x1A2 JUMPI DUP1 PUSH4 0xDFF9A1A9 EQ PUSH2 0x1B5 JUMPI DUP1 PUSH4 0xE04CE02C EQ PUSH2 0x1C8 JUMPI PUSH1 0x0 DUP1 REVERT JUMPDEST DUP1 PUSH4 0x54FD4D50 EQ PUSH2 0xB9 JUMPI DUP1 PUSH4 0x55D64732 EQ PUSH2 0xD5 JUMPI DUP1 PUSH4 0x5FAF7D94 EQ PUSH2 0xF6 JUMPI DUP1 PUSH4 0x6104464F EQ PUSH2 0x116 JUMPI DUP1 PUSH4 0x9B6BB600 EQ PUSH2 0x141 JUMPI DUP1 PUSH4 0xAEDA232A EQ PUSH2 0x156 JUMPI JUMPDEST PUSH1 0x0 DUP1 REVERT JUMPDEST PUSH2 0xC2 PUSH1 0x1 SLOAD DUP2 JUMP JUMPDEST PUSH1 0x40 MLOAD SWAP1 DUP2 MSTORE PUSH1 0x20 ADD JUMPDEST PUSH1 0x40 MLOAD DUP1 SWAP2 SUB SWAP1 RETURN JUMPDEST PUSH2 0xE8 PUSH2 0xE3 CALLDATASIZE PUSH1 0x4 PUSH2 0xA97 JUMP JUMPDEST PUSH2 0x1DB JUMP JUMPDEST PUSH1 0x40 MLOAD PUSH2 0xCC SWAP3 SWAP2 SWAP1 PUSH2 0xAF9 JUMP JUMPDEST PUSH2 0x109 PUSH2 0x104 CALLDATASIZE PUSH1 0x4 PUSH2 0xB25 JUMP JUMPDEST PUSH2 0x22A JUMP JUMPDEST PUSH1 0x40 MLOAD PUSH2 0xCC SWAP2 SWAP1 PUSH2 0xB58 JUMP JUMPDEST PUSH1 0x2 SLOAD PUSH2 0x129 SWAP1 PUSH1 0x1 PUSH1 0x1 PUSH1 0xA0 SHL SUB AND DUP2 JUMP JUMPDEST PUSH1 0x40 MLOAD PUSH1 0x1 PUSH1 0x1 PUSH1 0xA0 SHL SUB SWAP1 SWAP2 AND DUP2 MSTORE PUSH1 0x20 ADD PUSH2 0xCC JUMP JUMPDEST PUSH2 0x154 PUSH2 0x14F CALLDATASIZE PUSH1 0x4 PUSH2 0xB66 JUMP JUMPDEST PUSH2 0x2E4 JUMP JUMPDEST STOP JUMPDEST PUSH2 0xE8 PUSH2 0x164 CALLDATASIZE PUSH1 0x4 PUSH2 0xA97 JUMP JUMPDEST PUSH2 0x4B4 JUMP JUMPDEST PUSH2 0x154 PUSH2 0x177 CALLDATASIZE PUSH1 0x4 PUSH2 0xB66 JUMP JUMPDEST PUSH2 0x503 JUMP JUMPDEST PUSH2 0x154 PUSH2 0x18A CALLDATASIZE PUSH1 0x4 PUSH2 0xB89 JUMP JUMPDEST PUSH2 0x5F0 JUMP JUMPDEST PUSH2 0x154 PUSH2 0x19D CALLDATASIZE PUSH1 0x4 PUSH2 0xBA4 JUMP JUMPDEST PUSH2 0x71F JUMP JUMPDEST PUSH2 0x154 PUSH2 0x1B0 CALLDATASIZE PUSH1 0x4 PUSH2 0xB66 JUMP JUMPDEST PUSH2 0x7B8 JUMP JUMPDEST PUSH2 0x154 PUSH2 0x1C3 CALLDATASIZE PUSH1 0x4 PUSH2 0xBA4 JUMP JUMPDEST PUSH2 0x8DD JUMP JUMPDEST PUSH2 0x154 PUSH2 0x1D6 CALLDATASIZE PUSH1 0x4 PUSH2 0xBD3 JUMP JUMPDEST PUSH2 0x965 JUMP JUMPDEST PUSH1 0x0 DUP1 DUP4 PUSH1 0x1 PUSH1 0x1 PUSH1 0xA0 SHL SUB DUP2 AND PUSH2 0x1F2 JUMPI PUSH1 0x0 DUP1 REVERT JUMPDEST POP POP POP PUSH1 0x1 PUSH1 0x1 PUSH1 0xA0 SHL SUB SWAP2 SWAP1 SWAP2 AND PUSH1 0x0 SWAP1 DUP2 MSTORE PUSH1 0x3 PUSH1 0x20 SWAP1 DUP2 MSTORE PUSH1 0x40 DUP1 DUP4 KECCAK256 SWAP4 DUP4 MSTORE SWAP3 SWAP1 MSTORE KECCAK256 SLOAD PUSH1 0xFF DUP1 DUP3 AND SWAP3 PUSH2 0x100 SWAP1 SWAP3 DIV AND SWAP1 JUMP JUMPDEST PUSH1 0x0 DUP3 DUP2 DUP2 PUSH1 0x3 DUP2 GT ISZERO PUSH2 0x240 JUMPI PUSH2 0x240 PUSH2 0xAC1 JUMP JUMPDEST LT ISZERO DUP1 ISZERO PUSH2 0x260 JUMPI POP PUSH1 0x3 DUP2 PUSH1 0x3 DUP2 GT ISZERO PUSH2 0x25D JUMPI PUSH2 0x25D PUSH2 0xAC1 JUMP JUMPDEST GT ISZERO JUMPDEST PUSH2 0x269 JUMPI PUSH1 0x0 DUP1 REVERT JUMPDEST DUP3 PUSH1 0x0 DUP2 PUSH1 0x3 DUP2 GT ISZERO PUSH2 0x27E JUMPI PUSH2 0x27E PUSH2 0xAC1 JUMP JUMPDEST LT ISZERO DUP1 ISZERO PUSH2 0x29E JUMPI POP PUSH1 0x3 DUP2 PUSH1 0x3 DUP2 GT ISZERO PUSH2 0x29B JUMPI PUSH2 0x29B PUSH2 0xAC1 JUMP JUMPDEST GT ISZERO JUMPDEST PUSH2 0x2A7 JUMPI PUSH1 0x0 DUP1 REVERT JUMPDEST DUP4 PUSH1 0x3 DUP2 GT ISZERO PUSH2 0x2B9 JUMPI PUSH2 0x2B9 PUSH2 0xAC1 JUMP JUMPDEST DUP6 PUSH1 0x3 DUP2 GT ISZERO PUSH2 0x2CB JUMPI PUSH2 0x2CB PUSH2 0xAC1 JUMP JUMPDEST LT PUSH2 0x2D8 JUMPI DUP5 SWAP3 POP PUSH2 0x2DC JUMP JUMPDEST DUP4 SWAP3 POP JUMPDEST POP POP SWAP3 SWAP2 POP POP JUMP JUMPDEST DUP1 PUSH1 0x0 DUP2 PUSH1 0x3 DUP2 GT ISZERO PUSH2 0x2F9 JUMPI PUSH2 0x2F9 PUSH2 0xAC1 JUMP JUMPDEST LT ISZERO DUP1 ISZERO PUSH2 0x319 JUMPI POP PUSH1 0x3 DUP2 PUSH1 0x3 DUP2 GT ISZERO PUSH2 0x316 JUMPI PUSH2 0x316 PUSH2 0xAC1 JUMP JUMPDEST GT ISZERO JUMPDEST PUSH2 0x322 JUMPI PUSH1 0x0 DUP1 REVERT JUMPDEST PUSH2 0x32B DUP3 PUSH2 0xA03 JUMP JUMPDEST ISZERO PUSH2 0x4AF JUMPI CALLER PUSH1 0x0 SWAP1 DUP2 MSTORE PUSH1 0x3 PUSH1 0x20 SWAP1 DUP2 MSTORE PUSH1 0x40 DUP1 DUP4 KECCAK256 DUP7 DUP5 MSTORE SWAP1 SWAP2 MSTORE SWAP1 KECCAK256 DUP1 SLOAD PUSH1 0xFF AND PUSH2 0x41B JUMPI PUSH1 0x40 MLOAD DUP1 PUSH1 0x40 ADD PUSH1 0x40 MSTORE DUP1 PUSH1 0x1 ISZERO ISZERO DUP2 MSTORE PUSH1 0x20 ADD DUP5 PUSH1 0x3 DUP2 GT ISZERO PUSH2 0x379 JUMPI PUSH2 0x379 PUSH2 0xAC1 JUMP JUMPDEST SWAP1 MSTORE CALLER PUSH1 0x0 SWAP1 DUP2 MSTORE PUSH1 0x3 PUSH1 0x20 DUP2 DUP2 MSTORE PUSH1 0x40 DUP1 DUP5 KECCAK256 DUP10 DUP6 MSTORE DUP3 MSTORE SWAP1 SWAP3 KECCAK256 DUP4 MLOAD DUP2 SLOAD SWAP1 ISZERO ISZERO PUSH1 0xFF NOT DUP3 AND DUP2 OR DUP4 SSTORE SWAP4 DUP6 ADD MLOAD SWAP2 SWAP4 SWAP2 SWAP3 DUP5 SWAP3 PUSH2 0xFF00 NOT AND PUSH2 0xFFFF NOT SWAP1 SWAP3 AND SWAP2 SWAP1 SWAP2 OR SWAP1 PUSH2 0x100 SWAP1 DUP5 SWAP1 DUP2 GT ISZERO PUSH2 0x3D5 JUMPI PUSH2 0x3D5 PUSH2 0xAC1 JUMP JUMPDEST MUL OR SWAP1 SSTORE POP SWAP1 POP POP PUSH32 0x7D07ADCE2E04383C59A74512C5B56F74F5DCE19648A6247D584A71F1CF9C235 DUP5 DUP5 PUSH1 0x40 MLOAD PUSH2 0x40E SWAP3 SWAP2 SWAP1 PUSH2 0xC8E JUMP JUMPDEST PUSH1 0x40 MLOAD DUP1 SWAP2 SUB SWAP1 LOG1 PUSH2 0x4AD JUMP JUMPDEST DUP1 SLOAD PUSH2 0x100 SWAP1 DIV PUSH1 0xFF AND PUSH1 0x3 DUP2 GT ISZERO PUSH2 0x436 JUMPI PUSH2 0x436 PUSH2 0xAC1 JUMP JUMPDEST DUP4 PUSH1 0x3 DUP2 GT ISZERO PUSH2 0x448 JUMPI PUSH2 0x448 PUSH2 0xAC1 JUMP JUMPDEST GT ISZERO PUSH2 0x4AD JUMPI DUP1 SLOAD DUP4 SWAP1 DUP3 SWAP1 PUSH2 0xFF00 NOT AND PUSH2 0x100 DUP4 PUSH1 0x3 DUP2 GT ISZERO PUSH2 0x46E JUMPI PUSH2 0x46E PUSH2 0xAC1 JUMP JUMPDEST MUL OR SWAP1 SSTORE POP PUSH32 0x7D07ADCE2E04383C59A74512C5B56F74F5DCE19648A6247D584A71F1CF9C235 DUP5 DUP5 PUSH1 0x40 MLOAD PUSH2 0x4A4 SWAP3 SWAP2 SWAP1 PUSH2 0xC8E JUMP JUMPDEST PUSH1 0x40 MLOAD DUP1 SWAP2 SUB SWAP1 LOG1 JUMPDEST POP JUMPDEST POP POP POP JUMP JUMPDEST PUSH1 0x0 DUP1 DUP4 PUSH1 0x1 PUSH1 0x1 PUSH1 0xA0 SHL SUB DUP2 AND PUSH2 0x4CB JUMPI PUSH1 0x0 DUP1 REVERT JUMPDEST POP POP POP PUSH1 0x1 PUSH1 0x1 PUSH1 0xA0 SHL SUB SWAP2 SWAP1 SWAP2 AND PUSH1 0x0 SWAP1 DUP2 MSTORE PUSH1 0x4 PUSH1 0x20 SWAP1 DUP2 MSTORE PUSH1 0x40 DUP1 DUP4 KECCAK256 SWAP4 DUP4 MSTORE SWAP3 SWAP1 MSTORE KECCAK256 SLOAD PUSH1 0xFF DUP1 DUP3 AND SWAP3 PUSH2 0x100 SWAP1 SWAP3 DIV AND SWAP1 JUMP JUMPDEST DUP1 PUSH1 0x0 DUP2 PUSH1 0x3 DUP2 GT ISZERO PUSH2 0x518 JUMPI PUSH2 0x518 PUSH2 0xAC1 JUMP JUMPDEST LT ISZERO DUP1 ISZERO PUSH2 0x538 JUMPI POP PUSH1 0x3 DUP2 PUSH1 0x3 DUP2 GT ISZERO PUSH2 0x535 JUMPI PUSH2 0x535 PUSH2 0xAC1 JUMP JUMPDEST GT ISZERO JUMPDEST PUSH2 0x541 JUMPI PUSH1 0x0 DUP1 REVERT JUMPDEST PUSH2 0x54A DUP3 PUSH2 0xA3C JUMP JUMPDEST ISZERO PUSH2 0x4AF JUMPI CALLER PUSH1 0x0 SWAP1 DUP2 MSTORE PUSH1 0x4 PUSH1 0x20 SWAP1 DUP2 MSTORE PUSH1 0x40 DUP1 DUP4 KECCAK256 DUP7 DUP5 MSTORE SWAP1 SWAP2 MSTORE SWAP1 KECCAK256 DUP1 SLOAD PUSH1 0xFF AND PUSH2 0x41B JUMPI PUSH1 0x40 MLOAD DUP1 PUSH1 0x40 ADD PUSH1 0x40 MSTORE DUP1 PUSH1 0x1 ISZERO ISZERO DUP2 MSTORE PUSH1 0x20 ADD DUP5 PUSH1 0x3 DUP2 GT ISZERO PUSH2 0x598 JUMPI PUSH2 0x598 PUSH2 0xAC1 JUMP JUMPDEST SWAP1 MSTORE CALLER PUSH1 0x0 SWAP1 DUP2 MSTORE PUSH1 0x4 PUSH1 0x20 SWAP1 DUP2 MSTORE PUSH1 0x40 DUP1 DUP4 KECCAK256 DUP9 DUP5 MSTORE DUP3 MSTORE SWAP1 SWAP2 KECCAK256 DUP3 MLOAD DUP2 SLOAD SWAP1 ISZERO ISZERO PUSH1 0xFF NOT DUP3 AND DUP2 OR DUP4 SSTORE SWAP3 DUP5 ADD MLOAD SWAP2 SWAP3 DUP4 SWAP2 PUSH2 0xFF00 NOT SWAP1 SWAP2 AND PUSH2 0xFFFF NOT SWAP1 SWAP2 AND OR PUSH2 0x100 DUP4 PUSH1 0x3 DUP2 GT ISZERO PUSH2 0x3D5 JUMPI PUSH2 0x3D5 PUSH2 0xAC1 JUMP JUMPDEST PUSH1 0x0 SLOAD PUSH2 0x100 SWAP1 DIV PUSH1 0xFF AND ISZERO DUP1 DUP1 ISZERO PUSH2 0x610 JUMPI POP PUSH1 0x0 SLOAD PUSH1 0x1 PUSH1 0xFF SWAP1 SWAP2 AND LT JUMPDEST DUP1 PUSH2 0x62A JUMPI POP ADDRESS EXTCODESIZE ISZERO DUP1 ISZERO PUSH2 0x62A JUMPI POP PUSH1 0x0 SLOAD PUSH1 0xFF AND PUSH1 0x1 EQ JUMPDEST PUSH2 0x691 JUMPI PUSH1 0x40 MLOAD PUSH3 0x461BCD PUSH1 0xE5 SHL DUP2 MSTORE PUSH1 0x20 PUSH1 0x4 DUP3 ADD MSTORE PUSH1 0x2E PUSH1 0x24 DUP3 ADD MSTORE PUSH32 0x496E697469616C697A61626C653A20636F6E747261637420697320616C726561 PUSH1 0x44 DUP3 ADD MSTORE PUSH14 0x191E481A5B9A5D1A585B1A5E9959 PUSH1 0x92 SHL PUSH1 0x64 DUP3 ADD MSTORE PUSH1 0x84 ADD PUSH1 0x40 MLOAD DUP1 SWAP2 SUB SWAP1 REVERT JUMPDEST PUSH1 0x0 DUP1 SLOAD PUSH1 0xFF NOT AND PUSH1 0x1 OR SWAP1 SSTORE DUP1 ISZERO PUSH2 0x6B4 JUMPI PUSH1 0x0 DUP1 SLOAD PUSH2 0xFF00 NOT AND PUSH2 0x100 OR SWAP1 SSTORE JUMPDEST PUSH1 0x3 PUSH1 0x1 SSTORE PUSH1 0x2 DUP1 SLOAD PUSH1 0x1 PUSH1 0x1 PUSH1 0xA0 SHL SUB NOT AND PUSH1 0x1 PUSH1 0x1 PUSH1 0xA0 SHL SUB DUP5 AND OR SWAP1 SSTORE DUP1 ISZERO PUSH2 0x71B JUMPI PUSH1 0x0 DUP1 SLOAD PUSH2 0xFF00 NOT AND SWAP1 SSTORE PUSH1 0x40 MLOAD PUSH1 0x1 DUP2 MSTORE PUSH32 0x7F26B83FF96E1F2B6A682F133852F6798A09C465DA95921460CEFB3847402498 SWAP1 PUSH1 0x20 ADD JUMPDEST PUSH1 0x40 MLOAD DUP1 SWAP2 SUB SWAP1 LOG1 JUMPDEST POP POP JUMP JUMPDEST CALLER PUSH1 0x0 SWAP1 DUP2 MSTORE PUSH1 0x4 PUSH1 0x20 SWAP1 DUP2 MSTORE PUSH1 0x40 DUP1 DUP4 KECCAK256 DUP5 DUP5 MSTORE SWAP1 SWAP2 MSTORE SWAP1 KECCAK256 SLOAD PUSH1 0xFF AND ISZERO PUSH2 0x747 JUMPI PUSH1 0x0 DUP1 REVERT JUMPDEST PUSH1 0x40 DUP1 MLOAD DUP1 DUP3 ADD DUP3 MSTORE PUSH1 0x1 DUP2 MSTORE PUSH1 0x0 PUSH1 0x20 DUP1 DUP4 ADD DUP3 DUP2 MSTORE CALLER DUP4 MSTORE PUSH1 0x4 DUP3 MSTORE DUP5 DUP4 KECCAK256 DUP7 DUP5 MSTORE SWAP1 SWAP2 MSTORE SWAP3 SWAP1 KECCAK256 DUP2 MLOAD DUP2 SLOAD SWAP1 ISZERO ISZERO PUSH1 0xFF NOT DUP3 AND DUP2 OR DUP4 SSTORE SWAP4 MLOAD SWAP3 SWAP4 SWAP2 SWAP3 SWAP2 DUP4 SWAP2 PUSH2 0xFF00 NOT SWAP1 SWAP2 AND PUSH2 0xFFFF NOT SWAP1 SWAP2 AND OR PUSH2 0x100 DUP4 PUSH1 0x3 DUP2 GT ISZERO PUSH2 0x7AE JUMPI PUSH2 0x7AE PUSH2 0xAC1 JUMP JUMPDEST MUL OR SWAP1 SSTORE POP POP POP POP JUMP JUMPDEST DUP1 PUSH1 0x0 DUP2 PUSH1 0x3 DUP2 GT ISZERO PUSH2 0x7CD JUMPI PUSH2 0x7CD PUSH2 0xAC1 JUMP JUMPDEST LT ISZERO DUP1 ISZERO PUSH2 0x7ED JUMPI POP PUSH1 0x3 DUP2 PUSH1 0x3 DUP2 GT ISZERO PUSH2 0x7EA JUMPI PUSH2 0x7EA PUSH2 0xAC1 JUMP JUMPDEST GT ISZERO JUMPDEST PUSH2 0x7F6 JUMPI PUSH1 0x0 DUP1 REVERT JUMPDEST CALLER PUSH1 0x0 SWAP1 DUP2 MSTORE PUSH1 0x4 PUSH1 0x20 SWAP1 DUP2 MSTORE PUSH1 0x40 DUP1 DUP4 KECCAK256 DUP7 DUP5 MSTORE SWAP1 SWAP2 MSTORE SWAP1 KECCAK256 DUP1 SLOAD PUSH2 0x100 SWAP1 DIV PUSH1 0xFF AND PUSH1 0x3 DUP2 GT ISZERO PUSH2 0x82B JUMPI PUSH2 0x82B PUSH2 0xAC1 JUMP JUMPDEST DUP4 PUSH1 0x3 DUP2 GT ISZERO PUSH2 0x83D JUMPI PUSH2 0x83D PUSH2 0xAC1 JUMP JUMPDEST GT ISZERO PUSH2 0x4AD JUMPI PUSH1 0x1 DUP4 PUSH1 0x3 DUP2 GT ISZERO PUSH2 0x857 JUMPI PUSH2 0x857 PUSH2 0xAC1 JUMP JUMPDEST EQ DUP1 PUSH2 0x874 JUMPI POP PUSH1 0x2 DUP4 PUSH1 0x3 DUP2 GT ISZERO PUSH2 0x872 JUMPI PUSH2 0x872 PUSH2 0xAC1 JUMP JUMPDEST EQ JUMPDEST ISZERO PUSH2 0x4AD JUMPI DUP1 SLOAD PUSH1 0x1 PUSH1 0xFF NOT DUP3 AND DUP2 OR DUP4 SSTORE DUP5 SWAP2 DUP4 SWAP2 PUSH2 0xFFFF NOT SWAP1 SWAP2 AND OR PUSH2 0x100 DUP4 PUSH1 0x3 DUP2 GT ISZERO PUSH2 0x8A7 JUMPI PUSH2 0x8A7 PUSH2 0xAC1 JUMP JUMPDEST MUL OR SWAP1 SSTORE POP PUSH32 0xBC6EED115CB12CED57D22CE88A4BE72A3B052CF01E5A1947A1F901F8FF26B1A DUP5 DUP5 PUSH1 0x40 MLOAD PUSH2 0x4A4 SWAP3 SWAP2 SWAP1 PUSH2 0xC8E JUMP JUMPDEST CALLER PUSH1 0x0 SWAP1 DUP2 MSTORE PUSH1 0x3 PUSH1 0x20 SWAP1 DUP2 MSTORE PUSH1 0x40 DUP1 DUP4 KECCAK256 DUP5 DUP5 MSTORE SWAP1 SWAP2 MSTORE SWAP1 KECCAK256 DUP1 SLOAD PUSH1 0xFF AND DUP1 ISZERO PUSH2 0x923 JUMPI POP PUSH1 0x3 DUP2 SLOAD PUSH2 0x100 SWAP1 DIV PUSH1 0xFF AND PUSH1 0x3 DUP2 GT ISZERO PUSH2 0x920 JUMPI PUSH2 0x920 PUSH2 0xAC1 JUMP JUMPDEST EQ ISZERO JUMPDEST ISZERO PUSH2 0x71B JUMPI DUP1 SLOAD PUSH2 0xFF00 NOT AND PUSH2 0x300 OR DUP2 SSTORE PUSH1 0x40 MLOAD DUP3 DUP2 MSTORE PUSH32 0xC83F14FB22D6787113E4B492B1B27DAAC6284E516A3C61D454359FD426D04C29 SWAP1 PUSH1 0x20 ADD PUSH2 0x712 JUMP JUMPDEST CALLER PUSH1 0x0 SWAP1 DUP2 MSTORE PUSH1 0x3 PUSH1 0x20 SWAP1 DUP2 MSTORE PUSH1 0x40 DUP1 DUP4 KECCAK256 DUP6 DUP5 MSTORE SWAP1 SWAP2 MSTORE SWAP1 KECCAK256 SLOAD PUSH1 0xFF AND ISZERO PUSH2 0x98D JUMPI PUSH1 0x0 DUP1 REVERT JUMPDEST PUSH1 0x40 DUP1 MLOAD DUP1 DUP3 ADD DUP3 MSTORE PUSH1 0x1 DUP2 MSTORE PUSH1 0x0 PUSH1 0x20 DUP1 DUP4 ADD DUP3 DUP2 MSTORE CALLER DUP4 MSTORE PUSH1 0x3 DUP1 DUP4 MSTORE DUP6 DUP5 KECCAK256 DUP9 DUP6 MSTORE SWAP1 SWAP3 MSTORE SWAP4 SWAP1 SWAP2 KECCAK256 DUP3 MLOAD DUP2 SLOAD SWAP1 ISZERO ISZERO PUSH1 0xFF NOT DUP3 AND DUP2 OR DUP4 SSTORE SWAP5 MLOAD SWAP4 SWAP5 SWAP2 SWAP4 SWAP3 DUP5 SWAP3 PUSH2 0xFF00 NOT AND PUSH2 0xFFFF NOT SWAP1 SWAP3 AND SWAP2 SWAP1 SWAP2 OR SWAP1 PUSH2 0x100 SWAP1 DUP5 SWAP1 DUP2 GT ISZERO PUSH2 0x9F8 JUMPI PUSH2 0x9F8 PUSH2 0xAC1 JUMP JUMPDEST MUL OR SWAP1 SSTORE POP POP POP POP POP JUMP JUMPDEST PUSH1 0x0 DUP1 DUP3 PUSH1 0x3 DUP2 GT ISZERO PUSH2 0xA18 JUMPI PUSH2 0xA18 PUSH2 0xAC1 JUMP JUMPDEST EQ DUP1 PUSH2 0xA36 JUMPI POP PUSH1 0x3 JUMPDEST DUP3 PUSH1 0x3 DUP2 GT ISZERO PUSH2 0xA34 JUMPI PUSH2 0xA34 PUSH2 0xAC1 JUMP JUMPDEST EQ JUMPDEST SWAP3 SWAP2 POP POP JUMP JUMPDEST PUSH1 0x0 DUP1 DUP3 PUSH1 0x3 DUP2 GT ISZERO PUSH2 0xA51 JUMPI PUSH2 0xA51 PUSH2 0xAC1 JUMP JUMPDEST EQ DUP1 PUSH2 0xA6E JUMPI POP PUSH1 0x1 DUP3 PUSH1 0x3 DUP2 GT ISZERO PUSH2 0xA6C JUMPI PUSH2 0xA6C PUSH2 0xAC1 JUMP JUMPDEST EQ JUMPDEST DUP1 PUSH2 0xA36 JUMPI POP PUSH1 0x2 PUSH2 0xA22 JUMP JUMPDEST DUP1 CALLDATALOAD PUSH1 0x1 PUSH1 0x1 PUSH1 0xA0 SHL SUB DUP2 AND DUP2 EQ PUSH2 0xA92 JUMPI PUSH1 0x0 DUP1 REVERT JUMPDEST SWAP2 SWAP1 POP JUMP JUMPDEST PUSH1 0x0 DUP1 PUSH1 0x40 DUP4 DUP6 SUB SLT ISZERO PUSH2 0xAAA JUMPI PUSH1 0x0 DUP1 REVERT JUMPDEST PUSH2 0xAB3 DUP4 PUSH2 0xA7B JUMP JUMPDEST SWAP5 PUSH1 0x20 SWAP4 SWAP1 SWAP4 ADD CALLDATALOAD SWAP4 POP POP POP JUMP JUMPDEST PUSH4 0x4E487B71 PUSH1 0xE0 SHL PUSH1 0x0 MSTORE PUSH1 0x21 PUSH1 0x4 MSTORE PUSH1 0x24 PUSH1 0x0 REVERT JUMPDEST PUSH1 0x4 DUP2 LT PUSH2 0xAF5 JUMPI PUSH4 0x4E487B71 PUSH1 0xE0 SHL PUSH1 0x0 MSTORE PUSH1 0x21 PUSH1 0x4 MSTORE PUSH1 0x24 PUSH1 0x0 REVERT JUMPDEST SWAP1 MSTORE JUMP JUMPDEST DUP3 ISZERO ISZERO DUP2 MSTORE PUSH1 0x40 DUP2 ADD PUSH2 0xB0F PUSH1 0x20 DUP4 ADD DUP5 PUSH2 0xAD7 JUMP JUMPDEST SWAP4 SWAP3 POP POP POP JUMP JUMPDEST DUP1 CALLDATALOAD PUSH1 0x4 DUP2 LT PUSH2 0xA92 JUMPI PUSH1 0x0 DUP1 REVERT JUMPDEST PUSH1 0x0 DUP1 PUSH1 0x40 DUP4 DUP6 SUB SLT ISZERO PUSH2 0xB38 JUMPI PUSH1 0x0 DUP1 REVERT JUMPDEST PUSH2 0xB41 DUP4 PUSH2 0xB16 JUMP JUMPDEST SWAP2 POP PUSH2 0xB4F PUSH1 0x20 DUP5 ADD PUSH2 0xB16 JUMP JUMPDEST SWAP1 POP SWAP3 POP SWAP3 SWAP1 POP JUMP JUMPDEST PUSH1 0x20 DUP2 ADD PUSH2 0xA36 DUP3 DUP5 PUSH2 0xAD7 JUMP JUMPDEST PUSH1 0x0 DUP1 PUSH1 0x40 DUP4 DUP6 SUB SLT ISZERO PUSH2 0xB79 JUMPI PUSH1 0x0 DUP1 REVERT JUMPDEST DUP3 CALLDATALOAD SWAP2 POP PUSH2 0xB4F PUSH1 0x20 DUP5 ADD PUSH2 0xB16 JUMP JUMPDEST PUSH1 0x0 PUSH1 0x20 DUP3 DUP5 SUB SLT ISZERO PUSH2 0xB9B JUMPI PUSH1 0x0 DUP1 REVERT JUMPDEST PUSH2 0xB0F DUP3 PUSH2 0xA7B JUMP JUMPDEST PUSH1 0x0 PUSH1 0x20 DUP3 DUP5 SUB SLT ISZERO PUSH2 0xBB6 JUMPI PUSH1 0x0 DUP1 REVERT JUMPDEST POP CALLDATALOAD SWAP2 SWAP1 POP JUMP JUMPDEST PUSH4 0x4E487B71 PUSH1 0xE0 SHL PUSH1 0x0 MSTORE PUSH1 0x41 PUSH1 0x4 MSTORE PUSH1 0x24 PUSH1 0x0 REVERT JUMPDEST PUSH1 0x0 DUP1 PUSH1 0x40 DUP4 DUP6 SUB SLT ISZERO PUSH2 0xBE6 JUMPI PUSH1 0x0 DUP1 REVERT JUMPDEST DUP3 CALLDATALOAD SWAP2 POP PUSH1 0x20 DUP4 ADD CALLDATALOAD PUSH8 0xFFFFFFFFFFFFFFFF DUP1 DUP3 GT ISZERO PUSH2 0xC05 JUMPI PUSH1 0x0 DUP1 REVERT JUMPDEST DUP2 DUP6 ADD SWAP2 POP DUP6 PUSH1 0x1F DUP4 ADD SLT PUSH2 0xC19 JUMPI PUSH1 0x0 DUP1 REVERT JUMPDEST DUP2 CALLDATALOAD DUP2 DUP2 GT ISZERO PUSH2 0xC2B JUMPI PUSH2 0xC2B PUSH2 0xBBD JUMP JUMPDEST PUSH1 0x40 MLOAD PUSH1 0x1F DUP3 ADD PUSH1 0x1F NOT SWAP1 DUP2 AND PUSH1 0x3F ADD AND DUP2 ADD SWAP1 DUP4 DUP3 GT DUP2 DUP4 LT OR ISZERO PUSH2 0xC53 JUMPI PUSH2 0xC53 PUSH2 0xBBD JUMP JUMPDEST DUP2 PUSH1 0x40 MSTORE DUP3 DUP2 MSTORE DUP9 PUSH1 0x20 DUP5 DUP8 ADD ADD GT ISZERO PUSH2 0xC6C JUMPI PUSH1 0x0 DUP1 REVERT JUMPDEST DUP3 PUSH1 0x20 DUP7 ADD PUSH1 0x20 DUP4 ADD CALLDATACOPY PUSH1 0x0 PUSH1 0x20 DUP5 DUP4 ADD ADD MSTORE DUP1 SWAP6 POP POP POP POP POP POP SWAP3 POP SWAP3 SWAP1 POP JUMP JUMPDEST DUP3 DUP2 MSTORE PUSH1 0x40 DUP2 ADD PUSH2 0xB0F PUSH1 0x20 DUP4 ADD DUP5 PUSH2 0xAD7 JUMP INVALID LOG2 PUSH5 0x6970667358 0x22 SLT KECCAK256 SWAP15 0xAC LT 0xD9 0xEC BLOCKHASH 0xC8 SWAP9 PC 0xB2 GASLIMIT SWAP16 SWAP11 0xA8 EXTCODESIZE CREATE SWAP15 0x29 DUP4 0xB7 MULMOD GT 0xBE OR SWAP1 PUSH29 0xA2F1E0CADF4E64736F6C63430008110033000000000000000000000000 "},"methodIdentifiers":{"addIssuerCredential(bytes32)":"dc11e39b","addSubjectCredential(bytes32,string)":"e04ce02c","deleteSubjectCredential(bytes32)":"dff9a1a9","getCredentialStatus(uint8,uint8)":"5faf7d94","getIssuerCredentialStatus(address,bytes32)":"aeda232a","getSubjectCredentialStatus(address,bytes32)":"55d64732","initialize(address)":"c4d66de8","previousPublishedVersion()":"6104464f","updateCredentialStatus(bytes32,uint8)":"dd517e10","updateIssuerCredential(bytes32,uint8)":"b1163173","updateSubjectCredential(bytes32,uint8)":"9b6bb600","version()":"54fd4d50"}},"storageLayout":{"storage":[{"astId":1608,"contract":"contracts/registries/AlastriaCredentialRegistry.sol:AlastriaCredentialRegistry","label":"_initialized","offset":0,"slot":"0","type":"t_uint8"},{"astId":1611,"contract":"contracts/registries/AlastriaCredentialRegistry.sol:AlastriaCredentialRegistry","label":"_initializing","offset":1,"slot":"0","type":"t_bool"},{"astId":2160,"contract":"contracts/registries/AlastriaCredentialRegistry.sol:AlastriaCredentialRegistry","label":"version","offset":0,"slot":"1","type":"t_int256"},{"astId":2162,"contract":"contracts/registries/AlastriaCredentialRegistry.sol:AlastriaCredentialRegistry","label":"previousPublishedVersion","offset":0,"slot":"2","type":"t_address"},{"astId":2193,"contract":"contracts/registries/AlastriaCredentialRegistry.sol:AlastriaCredentialRegistry","label":"subjectCredentialRegistry","offset":0,"slot":"3","type":"t_mapping(t_address,t_mapping(t_bytes32,t_struct(SubjectCredential)2186_storage))"},{"astId":2206,"contract":"contracts/registries/AlastriaCredentialRegistry.sol:AlastriaCredentialRegistry","label":"issuerCredentialRegistry","offset":0,"slot":"4","type":"t_mapping(t_address,t_mapping(t_bytes32,t_struct(IssuerCredential)2199_storage))"}],"types":{"t_address":{"encoding":"inplace","label":"address","numberOfBytes":"20"},"t_bool":{"encoding":"inplace","label":"bool","numberOfBytes":"1"},"t_bytes32":{"encoding":"inplace","label":"bytes32","numberOfBytes":"32"},"t_enum(Status)2167":{"encoding":"inplace","label":"enum AlastriaCredentialRegistry.Status","numberOfBytes":"1"},"t_int256":{"encoding":"inplace","label":"int256","numberOfBytes":"32"},"t_mapping(t_address,t_mapping(t_bytes32,t_struct(IssuerCredential)2199_storage))":{"encoding":"mapping","key":"t_address","label":"mapping(address => mapping(bytes32 => struct AlastriaCredentialRegistry.IssuerCredential))","numberOfBytes":"32","value":"t_mapping(t_bytes32,t_struct(IssuerCredential)2199_storage)"},"t_mapping(t_address,t_mapping(t_bytes32,t_struct(SubjectCredential)2186_storage))":{"encoding":"mapping","key":"t_address","label":"mapping(address => mapping(bytes32 => struct AlastriaCredentialRegistry.SubjectCredential))","numberOfBytes":"32","value":"t_mapping(t_bytes32,t_struct(SubjectCredential)2186_storage)"},"t_mapping(t_bytes32,t_struct(IssuerCredential)2199_storage)":{"encoding":"mapping","key":"t_bytes32","label":"mapping(bytes32 => struct AlastriaCredentialRegistry.IssuerCredential)","numberOfBytes":"32","value":"t_struct(IssuerCredential)2199_storage"},"t_mapping(t_bytes32,t_struct(SubjectCredential)2186_storage)":{"encoding":"mapping","key":"t_bytes32","label":"mapping(bytes32 => struct AlastriaCredentialRegistry.SubjectCredential)","numberOfBytes":"32","value":"t_struct(SubjectCredential)2186_storage"},"t_struct(IssuerCredential)2199_storage":{"encoding":"inplace","label":"struct AlastriaCredentialRegistry.IssuerCredential","members":[{"astId":2195,"contract":"contracts/registries/AlastriaCredentialRegistry.sol:AlastriaCredentialRegistry","label":"exists","offset":0,"slot":"0","type":"t_bool"},{"astId":2198,"contract":"contracts/registries/AlastriaCredentialRegistry.sol:AlastriaCredentialRegistry","label":"status","offset":1,"slot":"0","type":"t_enum(Status)2167"}],"numberOfBytes":"32"},"t_struct(SubjectCredential)2186_storage":{"encoding":"inplace","label":"struct AlastriaCredentialRegistry.SubjectCredential","members":[{"astId":2182,"contract":"contracts/registries/AlastriaCredentialRegistry.sol:AlastriaCredentialRegistry","label":"exists","offset":0,"slot":"0","type":"t_bool"},{"astId":2185,"contract":"contracts/registries/AlastriaCredentialRegistry.sol:AlastriaCredentialRegistry","label":"status","offset":1,"slot":"0","type":"t_enum(Status)2167"}],"numberOfBytes":"32"},"t_uint8":{"encoding":"inplace","label":"uint8","numberOfBytes":"1"}}}}}}