{"contracts/registries/AlastriaPresentationRegistry.sol":{"AlastriaPresentationRegistry":{"abi":[{"anonymous":false,"inputs":[{"indexed":false,"internalType":"uint8","name":"version","type":"uint8"}],"name":"Initialized","type":"event"},{"anonymous":false,"inputs":[{"indexed":false,"internalType":"bytes32","name":"hash","type":"bytes32"},{"indexed":false,"internalType":"enum AlastriaPresentationRegistry.Status","name":"status","type":"uint8"}],"name":"PresentationUpdated","type":"event"},{"inputs":[{"internalType":"bytes32","name":"subjectPresentationHash","type":"bytes32"},{"internalType":"string","name":"","type":"string"}],"name":"addSubjectPresentation","outputs":[],"stateMutability":"nonpayable","type":"function"},{"inputs":[{"internalType":"enum AlastriaPresentationRegistry.Status","name":"subjectStatus","type":"uint8"},{"internalType":"enum AlastriaPresentationRegistry.Status","name":"receiverStatus","type":"uint8"}],"name":"getPresentationStatus","outputs":[{"internalType":"enum AlastriaPresentationRegistry.Status","name":"","type":"uint8"}],"stateMutability":"pure","type":"function"},{"inputs":[{"internalType":"address","name":"receiver","type":"address"},{"internalType":"bytes32","name":"receiverPresentationHash","type":"bytes32"}],"name":"getReceiverPresentationStatus","outputs":[{"internalType":"bool","name":"exists","type":"bool"},{"internalType":"enum AlastriaPresentationRegistry.Status","name":"status","type":"uint8"}],"stateMutability":"view","type":"function"},{"inputs":[{"internalType":"address","name":"subject","type":"address"},{"internalType":"bytes32","name":"subjectPresentationHash","type":"bytes32"}],"name":"getSubjectPresentationStatus","outputs":[{"internalType":"bool","name":"exists","type":"bool"},{"internalType":"enum AlastriaPresentationRegistry.Status","name":"status","type":"uint8"}],"stateMutability":"view","type":"function"},{"inputs":[{"internalType":"address","name":"_previousPublishedVersion","type":"address"}],"name":"initialize","outputs":[],"stateMutability":"nonpayable","type":"function"},{"inputs":[],"name":"previousPublishedVersion","outputs":[{"internalType":"address","name":"","type":"address"}],"stateMutability":"view","type":"function"},{"inputs":[{"internalType":"bytes32","name":"receiverPresentationHash","type":"bytes32"},{"internalType":"enum AlastriaPresentationRegistry.Status","name":"status","type":"uint8"}],"name":"updateReceiverPresentation","outputs":[],"stateMutability":"nonpayable","type":"function"},{"inputs":[{"internalType":"bytes32","name":"subjectPresentationHash","type":"bytes32"},{"internalType":"enum AlastriaPresentationRegistry.Status","name":"status","type":"uint8"}],"name":"updateSubjectPresentation","outputs":[],"stateMutability":"nonpayable","type":"function"},{"inputs":[],"name":"version","outputs":[{"internalType":"int256","name":"","type":"int256"}],"stateMutability":"view","type":"function"}],"evm":{"bytecode":{"linkReferences":{},"object":"608060405234801561001057600080fd5b50610a07806100206000396000f3fe608060405234801561001057600080fd5b50600436106100935760003560e01c806354fd4d501161006657806354fd4d501461010a5780636104464f146101215780639373014a1461014c578063c4d66de81461015f578063e64af9381461017257600080fd5b8063034f8408146100985780633000dc39146100c15780634e3a5de5146100d65780635205080f146100e9575b600080fd5b6100ab6100a63660046107d7565b610185565b6040516100b89190610842565b60405180910390f35b6100d46100cf366004610850565b61023f565b005b6100d46100e4366004610889565b61040b565b6100fc6100f736600461095b565b6104a9565b6040516100b8929190610985565b61011360015481565b6040519081526020016100b8565b600254610134906001600160a01b031681565b6040516001600160a01b0390911681526020016100b8565b6100fc61015a36600461095b565b6104f8565b6100d461016d3660046109a2565b610547565b6100d4610180366004610850565b610675565b6000828181600381111561019b5761019b61080a565b101580156101bb575060038160038111156101b8576101b861080a565b11155b6101c457600080fd5b8260008160038111156101d9576101d961080a565b101580156101f9575060038160038111156101f6576101f661080a565b11155b61020257600080fd5b8360038111156102145761021461080a565b8560038111156102265761022661080a565b1061023357849250610237565b8392505b505092915050565b8060008160038111156102545761025461080a565b10158015610274575060038160038111156102715761027161080a565b11155b61027d57600080fd5b61028682610766565b15610406573360009081526004602090815260408083208684529091529020805460ff166103725760405180604001604052806001151581526020018460038111156102d4576102d461080a565b905233600090815260046020908152604080832088845282529091208251815490151560ff19821681178355928401519192839161ff001990911661ffff199091161761010083600381111561032c5761032c61080a565b02179055509050507f52035ff46a15e119b23cfbf756f83f68ee8740523a40b78f621fdd44f091fb3884846040516103659291906109bd565b60405180910390a1610404565b8054610100900460ff16600381111561038d5761038d61080a565b83600381111561039f5761039f61080a565b11156104045780548390829061ff0019166101008360038111156103c5576103c561080a565b02179055507f52035ff46a15e119b23cfbf756f83f68ee8740523a40b78f621fdd44f091fb3884846040516103fb9291906109bd565b60405180910390a15b505b505050565b33600090815260036020908152604080832085845290915290205460ff161561043357600080fd5b60408051808201825260018152600060208083018281523383526003808352858420888552909252939091208251815490151560ff1982168117835594519394919392849261ff00191661ffff19909216919091179061010090849081111561049e5761049e61080a565b021790555050505050565b600080836001600160a01b0381166104c057600080fd5b5050506001600160a01b03919091166000908152600360209081526040808320938352929052205460ff808216926101009092041690565b600080836001600160a01b03811661050f57600080fd5b5050506001600160a01b03919091166000908152600460209081526040808320938352929052205460ff808216926101009092041690565b600054610100900460ff16158080156105675750600054600160ff909116105b806105815750303b158015610581575060005460ff166001145b6105e85760405162461bcd60e51b815260206004820152602e60248201527f496e697469616c697a61626c653a20636f6e747261637420697320616c72656160448201526d191e481a5b9a5d1a585b1a5e995960921b606482015260840160405180910390fd5b6000805460ff19166001179055801561060b576000805461ff0019166101001790555b6004600155600280546001600160a01b0319166001600160a01b0384161790558015610671576000805461ff0019169055604051600181527f7f26b83ff96e1f2b6a682f133852f6798a09c465da95921460cefb38474024989060200160405180910390a15b5050565b80600081600381111561068a5761068a61080a565b101580156106aa575060038160038111156106a7576106a761080a565b11155b6106b357600080fd5b6106bc826107a0565b15610406573360009081526003602090815260408083208684529091529020805460ff1661037257604051806040016040528060011515815260200184600381111561070a5761070a61080a565b905233600090815260036020818152604080842089855282529092208351815490151560ff198216811783559385015191939192849261ff00191661ffff19909216919091179061010090849081111561032c5761032c61080a565b6000600182600381111561077c5761077c61080a565b148061079a575060035b8260038111156107985761079861080a565b145b92915050565b6000808260038111156107b5576107b561080a565b148061079a57506002610786565b8035600481106107d257600080fd5b919050565b600080604083850312156107ea57600080fd5b6107f3836107c3565b9150610801602084016107c3565b90509250929050565b634e487b7160e01b600052602160045260246000fd5b6004811061083e57634e487b7160e01b600052602160045260246000fd5b9052565b6020810161079a8284610820565b6000806040838503121561086357600080fd5b82359150610801602084016107c3565b634e487b7160e01b600052604160045260246000fd5b6000806040838503121561089c57600080fd5b82359150602083013567ffffffffffffffff808211156108bb57600080fd5b818501915085601f8301126108cf57600080fd5b8135818111156108e1576108e1610873565b604051601f8201601f19908116603f0116810190838211818310171561090957610909610873565b8160405282815288602084870101111561092257600080fd5b8260208601602083013760006020848301015280955050505050509250929050565b80356001600160a01b03811681146107d257600080fd5b6000806040838503121561096e57600080fd5b61097783610944565b946020939093013593505050565b82151581526040810161099b6020830184610820565b9392505050565b6000602082840312156109b457600080fd5b61099b82610944565b8281526040810161099b602083018461082056fea2646970667358221220e1bcceea40185745d0705e25bdfc028fc89192bf9d2719fb40c9648699a177ae64736f6c63430008110033","opcodes":"PUSH1 0x80 PUSH1 0x40 MSTORE CALLVALUE DUP1 ISZERO PUSH2 0x10 JUMPI PUSH1 0x0 DUP1 REVERT JUMPDEST POP PUSH2 0xA07 DUP1 PUSH2 0x20 PUSH1 0x0 CODECOPY PUSH1 0x0 RETURN INVALID PUSH1 0x80 PUSH1 0x40 MSTORE CALLVALUE DUP1 ISZERO PUSH2 0x10 JUMPI PUSH1 0x0 DUP1 REVERT JUMPDEST POP PUSH1 0x4 CALLDATASIZE LT PUSH2 0x93 JUMPI PUSH1 0x0 CALLDATALOAD PUSH1 0xE0 SHR DUP1 PUSH4 0x54FD4D50 GT PUSH2 0x66 JUMPI DUP1 PUSH4 0x54FD4D50 EQ PUSH2 0x10A JUMPI DUP1 PUSH4 0x6104464F EQ PUSH2 0x121 JUMPI DUP1 PUSH4 0x9373014A EQ PUSH2 0x14C JUMPI DUP1 PUSH4 0xC4D66DE8 EQ PUSH2 0x15F JUMPI DUP1 PUSH4 0xE64AF938 EQ PUSH2 0x172 JUMPI PUSH1 0x0 DUP1 REVERT JUMPDEST DUP1 PUSH4 0x34F8408 EQ PUSH2 0x98 JUMPI DUP1 PUSH4 0x3000DC39 EQ PUSH2 0xC1 JUMPI DUP1 PUSH4 0x4E3A5DE5 EQ PUSH2 0xD6 JUMPI DUP1 PUSH4 0x5205080F EQ PUSH2 0xE9 JUMPI JUMPDEST PUSH1 0x0 DUP1 REVERT JUMPDEST PUSH2 0xAB PUSH2 0xA6 CALLDATASIZE PUSH1 0x4 PUSH2 0x7D7 JUMP JUMPDEST PUSH2 0x185 JUMP JUMPDEST PUSH1 0x40 MLOAD PUSH2 0xB8 SWAP2 SWAP1 PUSH2 0x842 JUMP JUMPDEST PUSH1 0x40 MLOAD DUP1 SWAP2 SUB SWAP1 RETURN JUMPDEST PUSH2 0xD4 PUSH2 0xCF CALLDATASIZE PUSH1 0x4 PUSH2 0x850 JUMP JUMPDEST PUSH2 0x23F JUMP JUMPDEST STOP JUMPDEST PUSH2 0xD4 PUSH2 0xE4 CALLDATASIZE PUSH1 0x4 PUSH2 0x889 JUMP JUMPDEST PUSH2 0x40B JUMP JUMPDEST PUSH2 0xFC PUSH2 0xF7 CALLDATASIZE PUSH1 0x4 PUSH2 0x95B JUMP JUMPDEST PUSH2 0x4A9 JUMP JUMPDEST PUSH1 0x40 MLOAD PUSH2 0xB8 SWAP3 SWAP2 SWAP1 PUSH2 0x985 JUMP JUMPDEST PUSH2 0x113 PUSH1 0x1 SLOAD DUP2 JUMP JUMPDEST PUSH1 0x40 MLOAD SWAP1 DUP2 MSTORE PUSH1 0x20 ADD PUSH2 0xB8 JUMP JUMPDEST PUSH1 0x2 SLOAD PUSH2 0x134 SWAP1 PUSH1 0x1 PUSH1 0x1 PUSH1 0xA0 SHL SUB AND DUP2 JUMP JUMPDEST PUSH1 0x40 MLOAD PUSH1 0x1 PUSH1 0x1 PUSH1 0xA0 SHL SUB SWAP1 SWAP2 AND DUP2 MSTORE PUSH1 0x20 ADD PUSH2 0xB8 JUMP JUMPDEST PUSH2 0xFC PUSH2 0x15A CALLDATASIZE PUSH1 0x4 PUSH2 0x95B JUMP JUMPDEST PUSH2 0x4F8 JUMP JUMPDEST PUSH2 0xD4 PUSH2 0x16D CALLDATASIZE PUSH1 0x4 PUSH2 0x9A2 JUMP JUMPDEST PUSH2 0x547 JUMP JUMPDEST PUSH2 0xD4 PUSH2 0x180 CALLDATASIZE PUSH1 0x4 PUSH2 0x850 JUMP JUMPDEST PUSH2 0x675 JUMP JUMPDEST PUSH1 0x0 DUP3 DUP2 DUP2 PUSH1 0x3 DUP2 GT ISZERO PUSH2 0x19B JUMPI PUSH2 0x19B PUSH2 0x80A JUMP JUMPDEST LT ISZERO DUP1 ISZERO PUSH2 0x1BB JUMPI POP PUSH1 0x3 DUP2 PUSH1 0x3 DUP2 GT ISZERO PUSH2 0x1B8 JUMPI PUSH2 0x1B8 PUSH2 0x80A JUMP JUMPDEST GT ISZERO JUMPDEST PUSH2 0x1C4 JUMPI PUSH1 0x0 DUP1 REVERT JUMPDEST DUP3 PUSH1 0x0 DUP2 PUSH1 0x3 DUP2 GT ISZERO PUSH2 0x1D9 JUMPI PUSH2 0x1D9 PUSH2 0x80A JUMP JUMPDEST LT ISZERO DUP1 ISZERO PUSH2 0x1F9 JUMPI POP PUSH1 0x3 DUP2 PUSH1 0x3 DUP2 GT ISZERO PUSH2 0x1F6 JUMPI PUSH2 0x1F6 PUSH2 0x80A JUMP JUMPDEST GT ISZERO JUMPDEST PUSH2 0x202 JUMPI PUSH1 0x0 DUP1 REVERT JUMPDEST DUP4 PUSH1 0x3 DUP2 GT ISZERO PUSH2 0x214 JUMPI PUSH2 0x214 PUSH2 0x80A JUMP JUMPDEST DUP6 PUSH1 0x3 DUP2 GT ISZERO PUSH2 0x226 JUMPI PUSH2 0x226 PUSH2 0x80A JUMP JUMPDEST LT PUSH2 0x233 JUMPI DUP5 SWAP3 POP PUSH2 0x237 JUMP JUMPDEST DUP4 SWAP3 POP JUMPDEST POP POP SWAP3 SWAP2 POP POP JUMP JUMPDEST DUP1 PUSH1 0x0 DUP2 PUSH1 0x3 DUP2 GT ISZERO PUSH2 0x254 JUMPI PUSH2 0x254 PUSH2 0x80A JUMP JUMPDEST LT ISZERO DUP1 ISZERO PUSH2 0x274 JUMPI POP PUSH1 0x3 DUP2 PUSH1 0x3 DUP2 GT ISZERO PUSH2 0x271 JUMPI PUSH2 0x271 PUSH2 0x80A JUMP JUMPDEST GT ISZERO JUMPDEST PUSH2 0x27D JUMPI PUSH1 0x0 DUP1 REVERT JUMPDEST PUSH2 0x286 DUP3 PUSH2 0x766 JUMP JUMPDEST ISZERO PUSH2 0x406 JUMPI CALLER PUSH1 0x0 SWAP1 DUP2 MSTORE PUSH1 0x4 PUSH1 0x20 SWAP1 DUP2 MSTORE PUSH1 0x40 DUP1 DUP4 KECCAK256 DUP7 DUP5 MSTORE SWAP1 SWAP2 MSTORE SWAP1 KECCAK256 DUP1 SLOAD PUSH1 0xFF AND PUSH2 0x372 JUMPI PUSH1 0x40 MLOAD DUP1 PUSH1 0x40 ADD PUSH1 0x40 MSTORE DUP1 PUSH1 0x1 ISZERO ISZERO DUP2 MSTORE PUSH1 0x20 ADD DUP5 PUSH1 0x3 DUP2 GT ISZERO PUSH2 0x2D4 JUMPI PUSH2 0x2D4 PUSH2 0x80A JUMP JUMPDEST SWAP1 MSTORE CALLER PUSH1 0x0 SWAP1 DUP2 MSTORE PUSH1 0x4 PUSH1 0x20 SWAP1 DUP2 MSTORE PUSH1 0x40 DUP1 DUP4 KECCAK256 DUP9 DUP5 MSTORE DUP3 MSTORE SWAP1 SWAP2 KECCAK256 DUP3 MLOAD DUP2 SLOAD SWAP1 ISZERO ISZERO PUSH1 0xFF NOT DUP3 AND DUP2 OR DUP4 SSTORE SWAP3 DUP5 ADD MLOAD SWAP2 SWAP3 DUP4 SWAP2 PUSH2 0xFF00 NOT SWAP1 SWAP2 AND PUSH2 0xFFFF NOT SWAP1 SWAP2 AND OR PUSH2 0x100 DUP4 PUSH1 0x3 DUP2 GT ISZERO PUSH2 0x32C JUMPI PUSH2 0x32C PUSH2 0x80A JUMP JUMPDEST MUL OR SWAP1 SSTORE POP SWAP1 POP POP PUSH32 0x52035FF46A15E119B23CFBF756F83F68EE8740523A40B78F621FDD44F091FB38 DUP5 DUP5 PUSH1 0x40 MLOAD PUSH2 0x365 SWAP3 SWAP2 SWAP1 PUSH2 0x9BD JUMP JUMPDEST PUSH1 0x40 MLOAD DUP1 SWAP2 SUB SWAP1 LOG1 PUSH2 0x404 JUMP JUMPDEST DUP1 SLOAD PUSH2 0x100 SWAP1 DIV PUSH1 0xFF AND PUSH1 0x3 DUP2 GT ISZERO PUSH2 0x38D JUMPI PUSH2 0x38D PUSH2 0x80A JUMP JUMPDEST DUP4 PUSH1 0x3 DUP2 GT ISZERO PUSH2 0x39F JUMPI PUSH2 0x39F PUSH2 0x80A JUMP JUMPDEST GT ISZERO PUSH2 0x404 JUMPI DUP1 SLOAD DUP4 SWAP1 DUP3 SWAP1 PUSH2 0xFF00 NOT AND PUSH2 0x100 DUP4 PUSH1 0x3 DUP2 GT ISZERO PUSH2 0x3C5 JUMPI PUSH2 0x3C5 PUSH2 0x80A JUMP JUMPDEST MUL OR SWAP1 SSTORE POP PUSH32 0x52035FF46A15E119B23CFBF756F83F68EE8740523A40B78F621FDD44F091FB38 DUP5 DUP5 PUSH1 0x40 MLOAD PUSH2 0x3FB SWAP3 SWAP2 SWAP1 PUSH2 0x9BD JUMP JUMPDEST PUSH1 0x40 MLOAD DUP1 SWAP2 SUB SWAP1 LOG1 JUMPDEST POP JUMPDEST POP POP POP JUMP JUMPDEST CALLER PUSH1 0x0 SWAP1 DUP2 MSTORE PUSH1 0x3 PUSH1 0x20 SWAP1 DUP2 MSTORE PUSH1 0x40 DUP1 DUP4 KECCAK256 DUP6 DUP5 MSTORE SWAP1 SWAP2 MSTORE SWAP1 KECCAK256 SLOAD PUSH1 0xFF AND ISZERO PUSH2 0x433 JUMPI PUSH1 0x0 DUP1 REVERT JUMPDEST PUSH1 0x40 DUP1 MLOAD DUP1 DUP3 ADD DUP3 MSTORE PUSH1 0x1 DUP2 MSTORE PUSH1 0x0 PUSH1 0x20 DUP1 DUP4 ADD DUP3 DUP2 MSTORE CALLER DUP4 MSTORE PUSH1 0x3 DUP1 DUP4 MSTORE DUP6 DUP5 KECCAK256 DUP9 DUP6 MSTORE SWAP1 SWAP3 MSTORE SWAP4 SWAP1 SWAP2 KECCAK256 DUP3 MLOAD DUP2 SLOAD SWAP1 ISZERO ISZERO PUSH1 0xFF NOT DUP3 AND DUP2 OR DUP4 SSTORE SWAP5 MLOAD SWAP4 SWAP5 SWAP2 SWAP4 SWAP3 DUP5 SWAP3 PUSH2 0xFF00 NOT AND PUSH2 0xFFFF NOT SWAP1 SWAP3 AND SWAP2 SWAP1 SWAP2 OR SWAP1 PUSH2 0x100 SWAP1 DUP5 SWAP1 DUP2 GT ISZERO PUSH2 0x49E JUMPI PUSH2 0x49E PUSH2 0x80A JUMP JUMPDEST MUL OR SWAP1 SSTORE POP POP POP POP POP JUMP JUMPDEST PUSH1 0x0 DUP1 DUP4 PUSH1 0x1 PUSH1 0x1 PUSH1 0xA0 SHL SUB DUP2 AND PUSH2 0x4C0 JUMPI PUSH1 0x0 DUP1 REVERT JUMPDEST POP POP POP PUSH1 0x1 PUSH1 0x1 PUSH1 0xA0 SHL SUB SWAP2 SWAP1 SWAP2 AND PUSH1 0x0 SWAP1 DUP2 MSTORE PUSH1 0x3 PUSH1 0x20 SWAP1 DUP2 MSTORE PUSH1 0x40 DUP1 DUP4 KECCAK256 SWAP4 DUP4 MSTORE SWAP3 SWAP1 MSTORE KECCAK256 SLOAD PUSH1 0xFF DUP1 DUP3 AND SWAP3 PUSH2 0x100 SWAP1 SWAP3 DIV AND SWAP1 JUMP JUMPDEST PUSH1 0x0 DUP1 DUP4 PUSH1 0x1 PUSH1 0x1 PUSH1 0xA0 SHL SUB DUP2 AND PUSH2 0x50F JUMPI PUSH1 0x0 DUP1 REVERT JUMPDEST POP POP POP PUSH1 0x1 PUSH1 0x1 PUSH1 0xA0 SHL SUB SWAP2 SWAP1 SWAP2 AND PUSH1 0x0 SWAP1 DUP2 MSTORE PUSH1 0x4 PUSH1 0x20 SWAP1 DUP2 MSTORE PUSH1 0x40 DUP1 DUP4 KECCAK256 SWAP4 DUP4 MSTORE SWAP3 SWAP1 MSTORE KECCAK256 SLOAD PUSH1 0xFF DUP1 DUP3 AND SWAP3 PUSH2 0x100 SWAP1 SWAP3 DIV AND SWAP1 JUMP JUMPDEST PUSH1 0x0 SLOAD PUSH2 0x100 SWAP1 DIV PUSH1 0xFF AND ISZERO DUP1 DUP1 ISZERO PUSH2 0x567 JUMPI POP PUSH1 0x0 SLOAD PUSH1 0x1 PUSH1 0xFF SWAP1 SWAP2 AND LT JUMPDEST DUP1 PUSH2 0x581 JUMPI POP ADDRESS EXTCODESIZE ISZERO DUP1 ISZERO PUSH2 0x581 JUMPI POP PUSH1 0x0 SLOAD PUSH1 0xFF AND PUSH1 0x1 EQ JUMPDEST PUSH2 0x5E8 JUMPI PUSH1 0x40 MLOAD PUSH3 0x461BCD PUSH1 0xE5 SHL DUP2 MSTORE PUSH1 0x20 PUSH1 0x4 DUP3 ADD MSTORE PUSH1 0x2E PUSH1 0x24 DUP3 ADD MSTORE PUSH32 0x496E697469616C697A61626C653A20636F6E747261637420697320616C726561 PUSH1 0x44 DUP3 ADD MSTORE PUSH14 0x191E481A5B9A5D1A585B1A5E9959 PUSH1 0x92 SHL PUSH1 0x64 DUP3 ADD MSTORE PUSH1 0x84 ADD PUSH1 0x40 MLOAD DUP1 SWAP2 SUB SWAP1 REVERT JUMPDEST PUSH1 0x0 DUP1 SLOAD PUSH1 0xFF NOT AND PUSH1 0x1 OR SWAP1 SSTORE DUP1 ISZERO PUSH2 0x60B JUMPI PUSH1 0x0 DUP1 SLOAD PUSH2 0xFF00 NOT AND PUSH2 0x100 OR SWAP1 SSTORE JUMPDEST PUSH1 0x4 PUSH1 0x1 SSTORE PUSH1 0x2 DUP1 SLOAD PUSH1 0x1 PUSH1 0x1 PUSH1 0xA0 SHL SUB NOT AND PUSH1 0x1 PUSH1 0x1 PUSH1 0xA0 SHL SUB DUP5 AND OR SWAP1 SSTORE DUP1 ISZERO PUSH2 0x671 JUMPI PUSH1 0x0 DUP1 SLOAD PUSH2 0xFF00 NOT AND SWAP1 SSTORE PUSH1 0x40 MLOAD PUSH1 0x1 DUP2 MSTORE PUSH32 0x7F26B83FF96E1F2B6A682F133852F6798A09C465DA95921460CEFB3847402498 SWAP1 PUSH1 0x20 ADD PUSH1 0x40 MLOAD DUP1 SWAP2 SUB SWAP1 LOG1 JUMPDEST POP POP JUMP JUMPDEST DUP1 PUSH1 0x0 DUP2 PUSH1 0x3 DUP2 GT ISZERO PUSH2 0x68A JUMPI PUSH2 0x68A PUSH2 0x80A JUMP JUMPDEST LT ISZERO DUP1 ISZERO PUSH2 0x6AA JUMPI POP PUSH1 0x3 DUP2 PUSH1 0x3 DUP2 GT ISZERO PUSH2 0x6A7 JUMPI PUSH2 0x6A7 PUSH2 0x80A JUMP JUMPDEST GT ISZERO JUMPDEST PUSH2 0x6B3 JUMPI PUSH1 0x0 DUP1 REVERT JUMPDEST PUSH2 0x6BC DUP3 PUSH2 0x7A0 JUMP JUMPDEST ISZERO PUSH2 0x406 JUMPI CALLER PUSH1 0x0 SWAP1 DUP2 MSTORE PUSH1 0x3 PUSH1 0x20 SWAP1 DUP2 MSTORE PUSH1 0x40 DUP1 DUP4 KECCAK256 DUP7 DUP5 MSTORE SWAP1 SWAP2 MSTORE SWAP1 KECCAK256 DUP1 SLOAD PUSH1 0xFF AND PUSH2 0x372 JUMPI PUSH1 0x40 MLOAD DUP1 PUSH1 0x40 ADD PUSH1 0x40 MSTORE DUP1 PUSH1 0x1 ISZERO ISZERO DUP2 MSTORE PUSH1 0x20 ADD DUP5 PUSH1 0x3 DUP2 GT ISZERO PUSH2 0x70A JUMPI PUSH2 0x70A PUSH2 0x80A JUMP JUMPDEST SWAP1 MSTORE CALLER PUSH1 0x0 SWAP1 DUP2 MSTORE PUSH1 0x3 PUSH1 0x20 DUP2 DUP2 MSTORE PUSH1 0x40 DUP1 DUP5 KECCAK256 DUP10 DUP6 MSTORE DUP3 MSTORE SWAP1 SWAP3 KECCAK256 DUP4 MLOAD DUP2 SLOAD SWAP1 ISZERO ISZERO PUSH1 0xFF NOT DUP3 AND DUP2 OR DUP4 SSTORE SWAP4 DUP6 ADD MLOAD SWAP2 SWAP4 SWAP2 SWAP3 DUP5 SWAP3 PUSH2 0xFF00 NOT AND PUSH2 0xFFFF NOT SWAP1 SWAP3 AND SWAP2 SWAP1 SWAP2 OR SWAP1 PUSH2 0x100 SWAP1 DUP5 SWAP1 DUP2 GT ISZERO PUSH2 0x32C JUMPI PUSH2 0x32C PUSH2 0x80A JUMP JUMPDEST PUSH1 0x0 PUSH1 0x1 DUP3 PUSH1 0x3 DUP2 GT ISZERO PUSH2 0x77C JUMPI PUSH2 0x77C PUSH2 0x80A JUMP JUMPDEST EQ DUP1 PUSH2 0x79A JUMPI POP PUSH1 0x3 JUMPDEST DUP3 PUSH1 0x3 DUP2 GT ISZERO PUSH2 0x798 JUMPI PUSH2 0x798 PUSH2 0x80A JUMP JUMPDEST EQ JUMPDEST SWAP3 SWAP2 POP POP JUMP JUMPDEST PUSH1 0x0 DUP1 DUP3 PUSH1 0x3 DUP2 GT ISZERO PUSH2 0x7B5 JUMPI PUSH2 0x7B5 PUSH2 0x80A JUMP JUMPDEST EQ DUP1 PUSH2 0x79A JUMPI POP PUSH1 0x2 PUSH2 0x786 JUMP JUMPDEST DUP1 CALLDATALOAD PUSH1 0x4 DUP2 LT PUSH2 0x7D2 JUMPI PUSH1 0x0 DUP1 REVERT JUMPDEST SWAP2 SWAP1 POP JUMP JUMPDEST PUSH1 0x0 DUP1 PUSH1 0x40 DUP4 DUP6 SUB SLT ISZERO PUSH2 0x7EA JUMPI PUSH1 0x0 DUP1 REVERT JUMPDEST PUSH2 0x7F3 DUP4 PUSH2 0x7C3 JUMP JUMPDEST SWAP2 POP PUSH2 0x801 PUSH1 0x20 DUP5 ADD PUSH2 0x7C3 JUMP JUMPDEST SWAP1 POP SWAP3 POP SWAP3 SWAP1 POP JUMP JUMPDEST PUSH4 0x4E487B71 PUSH1 0xE0 SHL PUSH1 0x0 MSTORE PUSH1 0x21 PUSH1 0x4 MSTORE PUSH1 0x24 PUSH1 0x0 REVERT JUMPDEST PUSH1 0x4 DUP2 LT PUSH2 0x83E JUMPI PUSH4 0x4E487B71 PUSH1 0xE0 SHL PUSH1 0x0 MSTORE PUSH1 0x21 PUSH1 0x4 MSTORE PUSH1 0x24 PUSH1 0x0 REVERT JUMPDEST SWAP1 MSTORE JUMP JUMPDEST PUSH1 0x20 DUP2 ADD PUSH2 0x79A DUP3 DUP5 PUSH2 0x820 JUMP JUMPDEST PUSH1 0x0 DUP1 PUSH1 0x40 DUP4 DUP6 SUB SLT ISZERO PUSH2 0x863 JUMPI PUSH1 0x0 DUP1 REVERT JUMPDEST DUP3 CALLDATALOAD SWAP2 POP PUSH2 0x801 PUSH1 0x20 DUP5 ADD PUSH2 0x7C3 JUMP JUMPDEST PUSH4 0x4E487B71 PUSH1 0xE0 SHL PUSH1 0x0 MSTORE PUSH1 0x41 PUSH1 0x4 MSTORE PUSH1 0x24 PUSH1 0x0 REVERT JUMPDEST PUSH1 0x0 DUP1 PUSH1 0x40 DUP4 DUP6 SUB SLT ISZERO PUSH2 0x89C JUMPI PUSH1 0x0 DUP1 REVERT JUMPDEST DUP3 CALLDATALOAD SWAP2 POP PUSH1 0x20 DUP4 ADD CALLDATALOAD PUSH8 0xFFFFFFFFFFFFFFFF DUP1 DUP3 GT ISZERO PUSH2 0x8BB JUMPI PUSH1 0x0 DUP1 REVERT JUMPDEST DUP2 DUP6 ADD SWAP2 POP DUP6 PUSH1 0x1F DUP4 ADD SLT PUSH2 0x8CF JUMPI PUSH1 0x0 DUP1 REVERT JUMPDEST DUP2 CALLDATALOAD DUP2 DUP2 GT ISZERO PUSH2 0x8E1 JUMPI PUSH2 0x8E1 PUSH2 0x873 JUMP JUMPDEST PUSH1 0x40 MLOAD PUSH1 0x1F DUP3 ADD PUSH1 0x1F NOT SWAP1 DUP2 AND PUSH1 0x3F ADD AND DUP2 ADD SWAP1 DUP4 DUP3 GT DUP2 DUP4 LT OR ISZERO PUSH2 0x909 JUMPI PUSH2 0x909 PUSH2 0x873 JUMP JUMPDEST DUP2 PUSH1 0x40 MSTORE DUP3 DUP2 MSTORE DUP9 PUSH1 0x20 DUP5 DUP8 ADD ADD GT ISZERO PUSH2 0x922 JUMPI PUSH1 0x0 DUP1 REVERT JUMPDEST DUP3 PUSH1 0x20 DUP7 ADD PUSH1 0x20 DUP4 ADD CALLDATACOPY PUSH1 0x0 PUSH1 0x20 DUP5 DUP4 ADD ADD MSTORE DUP1 SWAP6 POP POP POP POP POP POP SWAP3 POP SWAP3 SWAP1 POP JUMP JUMPDEST DUP1 CALLDATALOAD PUSH1 0x1 PUSH1 0x1 PUSH1 0xA0 SHL SUB DUP2 AND DUP2 EQ PUSH2 0x7D2 JUMPI PUSH1 0x0 DUP1 REVERT JUMPDEST PUSH1 0x0 DUP1 PUSH1 0x40 DUP4 DUP6 SUB SLT ISZERO PUSH2 0x96E JUMPI PUSH1 0x0 DUP1 REVERT JUMPDEST PUSH2 0x977 DUP4 PUSH2 0x944 JUMP JUMPDEST SWAP5 PUSH1 0x20 SWAP4 SWAP1 SWAP4 ADD CALLDATALOAD SWAP4 POP POP POP JUMP JUMPDEST DUP3 ISZERO ISZERO DUP2 MSTORE PUSH1 0x40 DUP2 ADD PUSH2 0x99B PUSH1 0x20 DUP4 ADD DUP5 PUSH2 0x820 JUMP JUMPDEST SWAP4 SWAP3 POP POP POP JUMP JUMPDEST PUSH1 0x0 PUSH1 0x20 DUP3 DUP5 SUB SLT ISZERO PUSH2 0x9B4 JUMPI PUSH1 0x0 DUP1 REVERT JUMPDEST PUSH2 0x99B DUP3 PUSH2 0x944 JUMP JUMPDEST DUP3 DUP2 MSTORE PUSH1 0x40 DUP2 ADD PUSH2 0x99B PUSH1 0x20 DUP4 ADD DUP5 PUSH2 0x820 JUMP INVALID LOG2 PUSH5 0x6970667358 0x22 SLT KECCAK256 0xE1 0xBC 0xCE 0xEA BLOCKHASH XOR JUMPI GASLIMIT 0xD0 PUSH17 0x5E25BDFC028FC89192BF9D2719FB40C964 DUP7 SWAP10 LOG1 PUSH24 0xAE64736F6C63430008110033000000000000000000000000 "},"methodIdentifiers":{"addSubjectPresentation(bytes32,string)":"4e3a5de5","getPresentationStatus(uint8,uint8)":"034f8408","getReceiverPresentationStatus(address,bytes32)":"9373014a","getSubjectPresentationStatus(address,bytes32)":"5205080f","initialize(address)":"c4d66de8","previousPublishedVersion()":"6104464f","updateReceiverPresentation(bytes32,uint8)":"3000dc39","updateSubjectPresentation(bytes32,uint8)":"e64af938","version()":"54fd4d50"}},"storageLayout":{"storage":[{"astId":1608,"contract":"contracts/registries/AlastriaPresentationRegistry.sol:AlastriaPresentationRegistry","label":"_initialized","offset":0,"slot":"0","type":"t_uint8"},{"astId":1611,"contract":"contracts/registries/AlastriaPresentationRegistry.sol:AlastriaPresentationRegistry","label":"_initializing","offset":1,"slot":"0","type":"t_bool"},{"astId":2705,"contract":"contracts/registries/AlastriaPresentationRegistry.sol:AlastriaPresentationRegistry","label":"version","offset":0,"slot":"1","type":"t_int256"},{"astId":2707,"contract":"contracts/registries/AlastriaPresentationRegistry.sol:AlastriaPresentationRegistry","label":"previousPublishedVersion","offset":0,"slot":"2","type":"t_address"},{"astId":2738,"contract":"contracts/registries/AlastriaPresentationRegistry.sol:AlastriaPresentationRegistry","label":"subjectPresentationRegistry","offset":0,"slot":"3","type":"t_mapping(t_address,t_mapping(t_bytes32,t_struct(SubjectPresentation)2731_storage))"},{"astId":2751,"contract":"contracts/registries/AlastriaPresentationRegistry.sol:AlastriaPresentationRegistry","label":"receiverPresentationRegistry","offset":0,"slot":"4","type":"t_mapping(t_address,t_mapping(t_bytes32,t_struct(ReceiverPresentation)2744_storage))"}],"types":{"t_address":{"encoding":"inplace","label":"address","numberOfBytes":"20"},"t_bool":{"encoding":"inplace","label":"bool","numberOfBytes":"1"},"t_bytes32":{"encoding":"inplace","label":"bytes32","numberOfBytes":"32"},"t_enum(Status)2712":{"encoding":"inplace","label":"enum AlastriaPresentationRegistry.Status","numberOfBytes":"1"},"t_int256":{"encoding":"inplace","label":"int256","numberOfBytes":"32"},"t_mapping(t_address,t_mapping(t_bytes32,t_struct(ReceiverPresentation)2744_storage))":{"encoding":"mapping","key":"t_address","label":"mapping(address => mapping(bytes32 => struct AlastriaPresentationRegistry.ReceiverPresentation))","numberOfBytes":"32","value":"t_mapping(t_bytes32,t_struct(ReceiverPresentation)2744_storage)"},"t_mapping(t_address,t_mapping(t_bytes32,t_struct(SubjectPresentation)2731_storage))":{"encoding":"mapping","key":"t_address","label":"mapping(address => mapping(bytes32 => struct AlastriaPresentationRegistry.SubjectPresentation))","numberOfBytes":"32","value":"t_mapping(t_bytes32,t_struct(SubjectPresentation)2731_storage)"},"t_mapping(t_bytes32,t_struct(ReceiverPresentation)2744_storage)":{"encoding":"mapping","key":"t_bytes32","label":"mapping(bytes32 => struct AlastriaPresentationRegistry.ReceiverPresentation)","numberOfBytes":"32","value":"t_struct(ReceiverPresentation)2744_storage"},"t_mapping(t_bytes32,t_struct(SubjectPresentation)2731_storage)":{"encoding":"mapping","key":"t_bytes32","label":"mapping(bytes32 => struct AlastriaPresentationRegistry.SubjectPresentation)","numberOfBytes":"32","value":"t_struct(SubjectPresentation)2731_storage"},"t_struct(ReceiverPresentation)2744_storage":{"encoding":"inplace","label":"struct AlastriaPresentationRegistry.ReceiverPresentation","members":[{"astId":2740,"contract":"contracts/registries/AlastriaPresentationRegistry.sol:AlastriaPresentationRegistry","label":"exists","offset":0,"slot":"0","type":"t_bool"},{"astId":2743,"contract":"contracts/registries/AlastriaPresentationRegistry.sol:AlastriaPresentationRegistry","label":"status","offset":1,"slot":"0","type":"t_enum(Status)2712"}],"numberOfBytes":"32"},"t_struct(SubjectPresentation)2731_storage":{"encoding":"inplace","label":"struct AlastriaPresentationRegistry.SubjectPresentation","members":[{"astId":2727,"contract":"contracts/registries/AlastriaPresentationRegistry.sol:AlastriaPresentationRegistry","label":"exists","offset":0,"slot":"0","type":"t_bool"},{"astId":2730,"contract":"contracts/registries/AlastriaPresentationRegistry.sol:AlastriaPresentationRegistry","label":"status","offset":1,"slot":"0","type":"t_enum(Status)2712"}],"numberOfBytes":"32"},"t_uint8":{"encoding":"inplace","label":"uint8","numberOfBytes":"1"}}}}}}