{"contracts/nameService/AlastriaNameService.sol":{"AlastriaNameService":{"abi":[{"inputs":[{"internalType":"address","name":"_firstIdentity","type":"address"}],"stateMutability":"nonpayable","type":"constructor"},{"inputs":[{"internalType":"address","name":"_addressEntity","type":"address"},{"internalType":"string","name":"_name","type":"string"},{"internalType":"string","name":"_cif","type":"string"},{"internalType":"string","name":"_url_logo","type":"string"},{"internalType":"string","name":"_url_createAID","type":"string"},{"internalType":"string","name":"_url_AOA","type":"string"}],"name":"addEntity","outputs":[],"stateMutability":"nonpayable","type":"function"},{"inputs":[],"name":"cif","outputs":[{"internalType":"string","name":"","type":"string"}],"stateMutability":"view","type":"function"},{"inputs":[],"name":"entitiesList","outputs":[{"internalType":"address[]","name":"","type":"address[]"}],"stateMutability":"view","type":"function"},{"inputs":[{"internalType":"address","name":"_addressEntity","type":"address"}],"name":"getEntity","outputs":[{"internalType":"string","name":"_name","type":"string"},{"internalType":"string","name":"_cif","type":"string"},{"internalType":"string","name":"_url_logo","type":"string"},{"internalType":"string","name":"_url_createAID","type":"string"},{"internalType":"string","name":"_url_AOA","type":"string"},{"internalType":"bool","name":"_active","type":"bool"}],"stateMutability":"view","type":"function"},{"inputs":[],"name":"name","outputs":[{"internalType":"string","name":"","type":"string"}],"stateMutability":"view","type":"function"},{"inputs":[{"internalType":"address","name":"_addressEntity","type":"address"},{"internalType":"string","name":"_cif","type":"string"}],"name":"setCifEntity","outputs":[],"stateMutability":"nonpayable","type":"function"},{"inputs":[{"internalType":"address","name":"_addressEntity","type":"address"},{"internalType":"string","name":"_name","type":"string"}],"name":"setNameEntity","outputs":[],"stateMutability":"nonpayable","type":"function"},{"inputs":[{"internalType":"address","name":"_addressEntity","type":"address"},{"internalType":"string","name":"_url_AOA","type":"string"}],"name":"setUrlAOA","outputs":[],"stateMutability":"nonpayable","type":"function"},{"inputs":[{"internalType":"address","name":"_addressEntity","type":"address"},{"internalType":"string","name":"_url_createAID","type":"string"}],"name":"setUrlCreateAID","outputs":[],"stateMutability":"nonpayable","type":"function"},{"inputs":[{"internalType":"address","name":"_addressEntity","type":"address"},{"internalType":"string","name":"_url_logo","type":"string"}],"name":"setUrlLogo","outputs":[],"stateMutability":"nonpayable","type":"function"},{"inputs":[],"name":"url_AOA","outputs":[{"internalType":"string","name":"","type":"string"}],"stateMutability":"view","type":"function"},{"inputs":[],"name":"url_createAID","outputs":[{"internalType":"string","name":"","type":"string"}],"stateMutability":"view","type":"function"},{"inputs":[],"name":"url_logo","outputs":[{"internalType":"string","name":"","type":"string"}],"stateMutability":"view","type":"function"}],"evm":{"bytecode":{"linkReferences":{},"object":"60c060405260116080908152703334b939ba24b232b73a34ba3c96b1b4b360791b60a0526000906200003290826200063a565b5060408051808201909152601681527f66697273744964656e746974792d75726c5f6c6f676f0000000000000000000060208201526001906200007690826200063a565b5060408051808201909152601b81527f66697273744964656e746974792d75726c5f63726561746541494400000000006020820152600290620000ba90826200063a565b5060408051808201909152601581527f66697273744964656e746974792d75726c5f414f4100000000000000000000006020820152600390620000fe90826200063a565b5060408051808201909152600d81526c66697273746964656e7469747960981b60208201526004906200013290826200063a565b503480156200014057600080fd5b506040516200159e3803806200159e833981016040819052620001639162000706565b6200045581600480546200017790620005ab565b80601f0160208091040260200160405190810160405280929190818152602001828054620001a590620005ab565b8015620001f65780601f10620001ca57610100808354040283529160200191620001f6565b820191906000526020600020905b815481529060010190602001808311620001d857829003601f168201915b5050505050600080546200020a90620005ab565b80601f01602080910402602001604051908101604052809291908181526020018280546200023890620005ab565b8015620002895780601f106200025d5761010080835404028352916020019162000289565b820191906000526020600020905b8154815290600101906020018083116200026b57829003601f168201915b5050505050600180546200029d90620005ab565b80601f0160208091040260200160405190810160405280929190818152602001828054620002cb90620005ab565b80156200031c5780601f10620002f0576101008083540402835291602001916200031c565b820191906000526020600020905b815481529060010190602001808311620002fe57829003601f168201915b5050505050600280546200033090620005ab565b80601f01602080910402602001604051908101604052809291908181526020018280546200035e90620005ab565b8015620003af5780601f106200038357610100808354040283529160200191620003af565b820191906000526020600020905b8154815290600101906020018083116200039157829003601f168201915b505050505060038054620003c390620005ab565b80601f0160208091040260200160405190810160405280929190818152602001828054620003f190620005ab565b8015620004425780601f10620004165761010080835404028352916020019162000442565b820191906000526020600020905b8154815290600101906020018083116200042457829003601f168201915b505050505060016200045c60201b60201c565b5062000738565b60068054600181019091557ff652222313e28459528d920b65115c16c04f3efc82aaedc97be59f3f377c0d3f0180546001600160a01b0319166001600160a01b0389169081179091556000908152600560205260409020620004bf87826200063a565b506001600160a01b0387166000908152600560205260409020600101620004e786826200063a565b506001600160a01b03871660009081526005602052604090206002016200050f85826200063a565b506001600160a01b03871660009081526005602052604090206003016200053784826200063a565b506001600160a01b03871660009081526005602052604090206004016200055f83826200063a565b506001600160a01b0396909616600090815260056020819052604090912001805460ff1916961515969096179095555050505050565b634e487b7160e01b600052604160045260246000fd5b600181811c90821680620005c057607f821691505b602082108103620005e157634e487b7160e01b600052602260045260246000fd5b50919050565b601f8211156200063557600081815260208120601f850160051c81016020861015620006105750805b601f850160051c820191505b8181101562000631578281556001016200061c565b5050505b505050565b81516001600160401b0381111562000656576200065662000595565b6200066e81620006678454620005ab565b84620005e7565b602080601f831160018114620006a657600084156200068d5750858301515b600019600386901b1c1916600185901b17855562000631565b600085815260208120601f198616915b82811015620006d757888601518255948401946001909101908401620006b6565b5085821015620006f65787850151600019600388901b60f8161c191681555b5050505050600190811b01905550565b6000602082840312156200071957600080fd5b81516001600160a01b03811681146200073157600080fd5b9392505050565b610e5680620007486000396000f3fe608060405234801561001057600080fd5b50600436106100cf5760003560e01c8063500bebf31161008c5780637f35d729116100665780637f35d7291461018a5780638e672cf714610192578063bf039d43146101a5578063eb5c426c146101ad57600080fd5b8063500bebf3146101485780636e7a216b1461015057806375894e8c1461016557600080fd5b806306fdde03146100d45780630ff72ef2146100f25780631252a083146101075780631e5f6f011461011a5780633bdf88631461012d5780634b7a185914610135575b600080fd5b6100dc6101c0565b6040516100e991906109f0565b60405180910390f35b610105610100366004610ac9565b61024e565b005b610105610115366004610b17565b6102a9565b610105610128366004610ac9565b610314565b6100dc610369565b610105610143366004610ac9565b610376565b6100dc6103cb565b6101586103d8565b6040516100e99190610bf8565b610178610173366004610c45565b61043a565b6040516100e996959493929190610c60565b6100dc6107ba565b6101056101a0366004610ac9565b6107c7565b6100dc61081c565b6101056101bb366004610ac9565b610829565b600480546101cd90610cd7565b80601f01602080910402602001604051908101604052809291908181526020018280546101f990610cd7565b80156102465780601f1061021b57610100808354040283529160200191610246565b820191906000526020600020905b81548152906001019060200180831161022957829003601f168201915b505050505081565b6001600160a01b03821660009081526005602081905260409091200154829060ff16151560011461027e57600080fd5b6001600160a01b03831660009081526005602052604090206002016102a38382610d60565b50505050565b6001600160a01b03861660009081526005602081905260409091200154869060ff16156102d557600080fd5b336000818152600560208190526040909120015460ff1615156001146102fa57600080fd5b61030a888888888888600161087b565b5050505050505050565b6001600160a01b03821660009081526005602081905260409091200154829060ff16151560011461034457600080fd5b6001600160a01b03831660009081526005602052604090206001016102a38382610d60565b600280546101cd90610cd7565b6001600160a01b03821660009081526005602081905260409091200154829060ff1615156001146103a657600080fd5b6001600160a01b03831660009081526005602052604090206003016102a38382610d60565b600180546101cd90610cd7565b6060600680548060200260200160405190810160405280929190818152602001828054801561043057602002820191906000526020600020905b81546001600160a01b03168152600190910190602001808311610412575b5050505050905090565b6001600160a01b038116600090815260056020526040812080546060928392839283928392909161046a90610cd7565b80601f016020809104026020016040519081016040528092919081815260200182805461049690610cd7565b80156104e35780601f106104b8576101008083540402835291602001916104e3565b820191906000526020600020905b8154815290600101906020018083116104c657829003601f168201915b505050506001600160a01b03891660009081526005602052604090206001018054929850916105129150610cd7565b80601f016020809104026020016040519081016040528092919081815260200182805461053e90610cd7565b801561058b5780601f106105605761010080835404028352916020019161058b565b820191906000526020600020905b81548152906001019060200180831161056e57829003601f168201915b505050506001600160a01b03891660009081526005602052604090206002018054929750916105ba9150610cd7565b80601f01602080910402602001604051908101604052809291908181526020018280546105e690610cd7565b80156106335780601f1061060857610100808354040283529160200191610633565b820191906000526020600020905b81548152906001019060200180831161061657829003601f168201915b505050506001600160a01b03891660009081526005602052604090206003018054929650916106629150610cd7565b80601f016020809104026020016040519081016040528092919081815260200182805461068e90610cd7565b80156106db5780601f106106b0576101008083540402835291602001916106db565b820191906000526020600020905b8154815290600101906020018083116106be57829003601f168201915b505050506001600160a01b038916600090815260056020526040902060040180549295509161070a9150610cd7565b80601f016020809104026020016040519081016040528092919081815260200182805461073690610cd7565b80156107835780601f1061075857610100808354040283529160200191610783565b820191906000526020600020905b81548152906001019060200180831161076657829003601f168201915b505050506001600160a01b03989098166000908152600560208190526040909120015496989597509395929460ff90931692915050565b600080546101cd90610cd7565b6001600160a01b03821660009081526005602081905260409091200154829060ff1615156001146107f757600080fd5b6001600160a01b03831660009081526005602052604090206004016102a38382610d60565b600380546101cd90610cd7565b6001600160a01b03821660009081526005602081905260409091200154829060ff16151560011461085957600080fd5b6001600160a01b03831660009081526005602052604090206102a38382610d60565b60068054600181019091557ff652222313e28459528d920b65115c16c04f3efc82aaedc97be59f3f377c0d3f0180546001600160a01b0319166001600160a01b03891690811790915560009081526005602052604090206108dc8782610d60565b506001600160a01b03871660009081526005602052604090206001016109028682610d60565b506001600160a01b03871660009081526005602052604090206002016109288582610d60565b506001600160a01b038716600090815260056020526040902060030161094e8482610d60565b506001600160a01b03871660009081526005602052604090206004016109748382610d60565b506001600160a01b0396909616600090815260056020819052604090912001805460ff1916961515969096179095555050505050565b6000815180845260005b818110156109d0576020818501810151868301820152016109b4565b506000602082860101526020601f19601f83011685010191505092915050565b602081526000610a0360208301846109aa565b9392505050565b80356001600160a01b0381168114610a2157600080fd5b919050565b634e487b7160e01b600052604160045260246000fd5b600082601f830112610a4d57600080fd5b813567ffffffffffffffff80821115610a6857610a68610a26565b604051601f8301601f19908116603f01168101908282118183101715610a9057610a90610a26565b81604052838152866020858801011115610aa957600080fd5b836020870160208301376000602085830101528094505050505092915050565b60008060408385031215610adc57600080fd5b610ae583610a0a565b9150602083013567ffffffffffffffff811115610b0157600080fd5b610b0d85828601610a3c565b9150509250929050565b60008060008060008060c08789031215610b3057600080fd5b610b3987610a0a565b9550602087013567ffffffffffffffff80821115610b5657600080fd5b610b628a838b01610a3c565b96506040890135915080821115610b7857600080fd5b610b848a838b01610a3c565b95506060890135915080821115610b9a57600080fd5b610ba68a838b01610a3c565b94506080890135915080821115610bbc57600080fd5b610bc88a838b01610a3c565b935060a0890135915080821115610bde57600080fd5b50610beb89828a01610a3c565b9150509295509295509295565b6020808252825182820181905260009190848201906040850190845b81811015610c395783516001600160a01b031683529284019291840191600101610c14565b50909695505050505050565b600060208284031215610c5757600080fd5b610a0382610a0a565b60c081526000610c7360c08301896109aa565b8281036020840152610c8581896109aa565b90508281036040840152610c9981886109aa565b90508281036060840152610cad81876109aa565b90508281036080840152610cc181866109aa565b91505082151560a0830152979650505050505050565b600181811c90821680610ceb57607f821691505b602082108103610d0b57634e487b7160e01b600052602260045260246000fd5b50919050565b601f821115610d5b57600081815260208120601f850160051c81016020861015610d385750805b601f850160051c820191505b81811015610d5757828155600101610d44565b5050505b505050565b815167ffffffffffffffff811115610d7a57610d7a610a26565b610d8e81610d888454610cd7565b84610d11565b602080601f831160018114610dc35760008415610dab5750858301515b600019600386901b1c1916600185901b178555610d57565b600085815260208120601f198616915b82811015610df257888601518255948401946001909101908401610dd3565b5085821015610e105787850151600019600388901b60f8161c191681555b5050505050600190811b0190555056fea26469706673582212206dd572203320d08678da52432752f967443bc13b481e01dabaeef9fe5562899864736f6c63430008110033","opcodes":"PUSH1 0xC0 PUSH1 0x40 MSTORE PUSH1 0x11 PUSH1 0x80 SWAP1 DUP2 MSTORE PUSH17 0x3334B939BA24B232B73A34BA3C96B1B4B3 PUSH1 0x79 SHL PUSH1 0xA0 MSTORE PUSH1 0x0 SWAP1 PUSH3 0x32 SWAP1 DUP3 PUSH3 0x63A JUMP JUMPDEST POP PUSH1 0x40 DUP1 MLOAD DUP1 DUP3 ADD SWAP1 SWAP2 MSTORE PUSH1 0x16 DUP2 MSTORE PUSH32 0x66697273744964656E746974792D75726C5F6C6F676F00000000000000000000 PUSH1 0x20 DUP3 ADD MSTORE PUSH1 0x1 SWAP1 PUSH3 0x76 SWAP1 DUP3 PUSH3 0x63A JUMP JUMPDEST POP PUSH1 0x40 DUP1 MLOAD DUP1 DUP3 ADD SWAP1 SWAP2 MSTORE PUSH1 0x1B DUP2 MSTORE PUSH32 0x66697273744964656E746974792D75726C5F6372656174654149440000000000 PUSH1 0x20 DUP3 ADD MSTORE PUSH1 0x2 SWAP1 PUSH3 0xBA SWAP1 DUP3 PUSH3 0x63A JUMP JUMPDEST POP PUSH1 0x40 DUP1 MLOAD DUP1 DUP3 ADD SWAP1 SWAP2 MSTORE PUSH1 0x15 DUP2 MSTORE PUSH32 0x66697273744964656E746974792D75726C5F414F410000000000000000000000 PUSH1 0x20 DUP3 ADD MSTORE PUSH1 0x3 SWAP1 PUSH3 0xFE SWAP1 DUP3 PUSH3 0x63A JUMP JUMPDEST POP PUSH1 0x40 DUP1 MLOAD DUP1 DUP3 ADD SWAP1 SWAP2 MSTORE PUSH1 0xD DUP2 MSTORE PUSH13 0x66697273746964656E74697479 PUSH1 0x98 SHL PUSH1 0x20 DUP3 ADD MSTORE PUSH1 0x4 SWAP1 PUSH3 0x132 SWAP1 DUP3 PUSH3 0x63A JUMP JUMPDEST POP CALLVALUE DUP1 ISZERO PUSH3 0x140 JUMPI PUSH1 0x0 DUP1 REVERT JUMPDEST POP PUSH1 0x40 MLOAD PUSH3 0x159E CODESIZE SUB DUP1 PUSH3 0x159E DUP4 CODECOPY DUP2 ADD PUSH1 0x40 DUP2 SWAP1 MSTORE PUSH3 0x163 SWAP2 PUSH3 0x706 JUMP JUMPDEST PUSH3 0x455 DUP2 PUSH1 0x4 DUP1 SLOAD PUSH3 0x177 SWAP1 PUSH3 0x5AB JUMP JUMPDEST DUP1 PUSH1 0x1F ADD PUSH1 0x20 DUP1 SWAP2 DIV MUL PUSH1 0x20 ADD PUSH1 0x40 MLOAD SWAP1 DUP2 ADD PUSH1 0x40 MSTORE DUP1 SWAP3 SWAP2 SWAP1 DUP2 DUP2 MSTORE PUSH1 0x20 ADD DUP3 DUP1 SLOAD PUSH3 0x1A5 SWAP1 PUSH3 0x5AB JUMP JUMPDEST DUP1 ISZERO PUSH3 0x1F6 JUMPI DUP1 PUSH1 0x1F LT PUSH3 0x1CA JUMPI PUSH2 0x100 DUP1 DUP4 SLOAD DIV MUL DUP4 MSTORE SWAP2 PUSH1 0x20 ADD SWAP2 PUSH3 0x1F6 JUMP JUMPDEST DUP3 ADD SWAP2 SWAP1 PUSH1 0x0 MSTORE PUSH1 0x20 PUSH1 0x0 KECCAK256 SWAP1 JUMPDEST DUP2 SLOAD DUP2 MSTORE SWAP1 PUSH1 0x1 ADD SWAP1 PUSH1 0x20 ADD DUP1 DUP4 GT PUSH3 0x1D8 JUMPI DUP3 SWAP1 SUB PUSH1 0x1F AND DUP3 ADD SWAP2 JUMPDEST POP POP POP POP POP PUSH1 0x0 DUP1 SLOAD PUSH3 0x20A SWAP1 PUSH3 0x5AB JUMP JUMPDEST DUP1 PUSH1 0x1F ADD PUSH1 0x20 DUP1 SWAP2 DIV MUL PUSH1 0x20 ADD PUSH1 0x40 MLOAD SWAP1 DUP2 ADD PUSH1 0x40 MSTORE DUP1 SWAP3 SWAP2 SWAP1 DUP2 DUP2 MSTORE PUSH1 0x20 ADD DUP3 DUP1 SLOAD PUSH3 0x238 SWAP1 PUSH3 0x5AB JUMP JUMPDEST DUP1 ISZERO PUSH3 0x289 JUMPI DUP1 PUSH1 0x1F LT PUSH3 0x25D JUMPI PUSH2 0x100 DUP1 DUP4 SLOAD DIV MUL DUP4 MSTORE SWAP2 PUSH1 0x20 ADD SWAP2 PUSH3 0x289 JUMP JUMPDEST DUP3 ADD SWAP2 SWAP1 PUSH1 0x0 MSTORE PUSH1 0x20 PUSH1 0x0 KECCAK256 SWAP1 JUMPDEST DUP2 SLOAD DUP2 MSTORE SWAP1 PUSH1 0x1 ADD SWAP1 PUSH1 0x20 ADD DUP1 DUP4 GT PUSH3 0x26B JUMPI DUP3 SWAP1 SUB PUSH1 0x1F AND DUP3 ADD SWAP2 JUMPDEST POP POP POP POP POP PUSH1 0x1 DUP1 SLOAD PUSH3 0x29D SWAP1 PUSH3 0x5AB JUMP JUMPDEST DUP1 PUSH1 0x1F ADD PUSH1 0x20 DUP1 SWAP2 DIV MUL PUSH1 0x20 ADD PUSH1 0x40 MLOAD SWAP1 DUP2 ADD PUSH1 0x40 MSTORE DUP1 SWAP3 SWAP2 SWAP1 DUP2 DUP2 MSTORE PUSH1 0x20 ADD DUP3 DUP1 SLOAD PUSH3 0x2CB SWAP1 PUSH3 0x5AB JUMP JUMPDEST DUP1 ISZERO PUSH3 0x31C JUMPI DUP1 PUSH1 0x1F LT PUSH3 0x2F0 JUMPI PUSH2 0x100 DUP1 DUP4 SLOAD DIV MUL DUP4 MSTORE SWAP2 PUSH1 0x20 ADD SWAP2 PUSH3 0x31C JUMP JUMPDEST DUP3 ADD SWAP2 SWAP1 PUSH1 0x0 MSTORE PUSH1 0x20 PUSH1 0x0 KECCAK256 SWAP1 JUMPDEST DUP2 SLOAD DUP2 MSTORE SWAP1 PUSH1 0x1 ADD SWAP1 PUSH1 0x20 ADD DUP1 DUP4 GT PUSH3 0x2FE JUMPI DUP3 SWAP1 SUB PUSH1 0x1F AND DUP3 ADD SWAP2 JUMPDEST POP POP POP POP POP PUSH1 0x2 DUP1 SLOAD PUSH3 0x330 SWAP1 PUSH3 0x5AB JUMP JUMPDEST DUP1 PUSH1 0x1F ADD PUSH1 0x20 DUP1 SWAP2 DIV MUL PUSH1 0x20 ADD PUSH1 0x40 MLOAD SWAP1 DUP2 ADD PUSH1 0x40 MSTORE DUP1 SWAP3 SWAP2 SWAP1 DUP2 DUP2 MSTORE PUSH1 0x20 ADD DUP3 DUP1 SLOAD PUSH3 0x35E SWAP1 PUSH3 0x5AB JUMP JUMPDEST DUP1 ISZERO PUSH3 0x3AF JUMPI DUP1 PUSH1 0x1F LT PUSH3 0x383 JUMPI PUSH2 0x100 DUP1 DUP4 SLOAD DIV MUL DUP4 MSTORE SWAP2 PUSH1 0x20 ADD SWAP2 PUSH3 0x3AF JUMP JUMPDEST DUP3 ADD SWAP2 SWAP1 PUSH1 0x0 MSTORE PUSH1 0x20 PUSH1 0x0 KECCAK256 SWAP1 JUMPDEST DUP2 SLOAD DUP2 MSTORE SWAP1 PUSH1 0x1 ADD SWAP1 PUSH1 0x20 ADD DUP1 DUP4 GT PUSH3 0x391 JUMPI DUP3 SWAP1 SUB PUSH1 0x1F AND DUP3 ADD SWAP2 JUMPDEST POP POP POP POP POP PUSH1 0x3 DUP1 SLOAD PUSH3 0x3C3 SWAP1 PUSH3 0x5AB JUMP JUMPDEST DUP1 PUSH1 0x1F ADD PUSH1 0x20 DUP1 SWAP2 DIV MUL PUSH1 0x20 ADD PUSH1 0x40 MLOAD SWAP1 DUP2 ADD PUSH1 0x40 MSTORE DUP1 SWAP3 SWAP2 SWAP1 DUP2 DUP2 MSTORE PUSH1 0x20 ADD DUP3 DUP1 SLOAD PUSH3 0x3F1 SWAP1 PUSH3 0x5AB JUMP JUMPDEST DUP1 ISZERO PUSH3 0x442 JUMPI DUP1 PUSH1 0x1F LT PUSH3 0x416 JUMPI PUSH2 0x100 DUP1 DUP4 SLOAD DIV MUL DUP4 MSTORE SWAP2 PUSH1 0x20 ADD SWAP2 PUSH3 0x442 JUMP JUMPDEST DUP3 ADD SWAP2 SWAP1 PUSH1 0x0 MSTORE PUSH1 0x20 PUSH1 0x0 KECCAK256 SWAP1 JUMPDEST DUP2 SLOAD DUP2 MSTORE SWAP1 PUSH1 0x1 ADD SWAP1 PUSH1 0x20 ADD DUP1 DUP4 GT PUSH3 0x424 JUMPI DUP3 SWAP1 SUB PUSH1 0x1F AND DUP3 ADD SWAP2 JUMPDEST POP POP POP POP POP PUSH1 0x1 PUSH3 0x45C PUSH1 0x20 SHL PUSH1 0x20 SHR JUMP JUMPDEST POP PUSH3 0x738 JUMP JUMPDEST PUSH1 0x6 DUP1 SLOAD PUSH1 0x1 DUP2 ADD SWAP1 SWAP2 SSTORE PUSH32 0xF652222313E28459528D920B65115C16C04F3EFC82AAEDC97BE59F3F377C0D3F ADD DUP1 SLOAD PUSH1 0x1 PUSH1 0x1 PUSH1 0xA0 SHL SUB NOT AND PUSH1 0x1 PUSH1 0x1 PUSH1 0xA0 SHL SUB DUP10 AND SWAP1 DUP2 OR SWAP1 SWAP2 SSTORE PUSH1 0x0 SWAP1 DUP2 MSTORE PUSH1 0x5 PUSH1 0x20 MSTORE PUSH1 0x40 SWAP1 KECCAK256 PUSH3 0x4BF DUP8 DUP3 PUSH3 0x63A JUMP JUMPDEST POP PUSH1 0x1 PUSH1 0x1 PUSH1 0xA0 SHL SUB DUP8 AND PUSH1 0x0 SWAP1 DUP2 MSTORE PUSH1 0x5 PUSH1 0x20 MSTORE PUSH1 0x40 SWAP1 KECCAK256 PUSH1 0x1 ADD PUSH3 0x4E7 DUP7 DUP3 PUSH3 0x63A JUMP JUMPDEST POP PUSH1 0x1 PUSH1 0x1 PUSH1 0xA0 SHL SUB DUP8 AND PUSH1 0x0 SWAP1 DUP2 MSTORE PUSH1 0x5 PUSH1 0x20 MSTORE PUSH1 0x40 SWAP1 KECCAK256 PUSH1 0x2 ADD PUSH3 0x50F DUP6 DUP3 PUSH3 0x63A JUMP JUMPDEST POP PUSH1 0x1 PUSH1 0x1 PUSH1 0xA0 SHL SUB DUP8 AND PUSH1 0x0 SWAP1 DUP2 MSTORE PUSH1 0x5 PUSH1 0x20 MSTORE PUSH1 0x40 SWAP1 KECCAK256 PUSH1 0x3 ADD PUSH3 0x537 DUP5 DUP3 PUSH3 0x63A JUMP JUMPDEST POP PUSH1 0x1 PUSH1 0x1 PUSH1 0xA0 SHL SUB DUP8 AND PUSH1 0x0 SWAP1 DUP2 MSTORE PUSH1 0x5 PUSH1 0x20 MSTORE PUSH1 0x40 SWAP1 KECCAK256 PUSH1 0x4 ADD PUSH3 0x55F DUP4 DUP3 PUSH3 0x63A JUMP JUMPDEST POP PUSH1 0x1 PUSH1 0x1 PUSH1 0xA0 SHL SUB SWAP7 SWAP1 SWAP7 AND PUSH1 0x0 SWAP1 DUP2 MSTORE PUSH1 0x5 PUSH1 0x20 DUP2 SWAP1 MSTORE PUSH1 0x40 SWAP1 SWAP2 KECCAK256 ADD DUP1 SLOAD PUSH1 0xFF NOT AND SWAP7 ISZERO ISZERO SWAP7 SWAP1 SWAP7 OR SWAP1 SWAP6 SSTORE POP POP POP POP POP JUMP JUMPDEST PUSH4 0x4E487B71 PUSH1 0xE0 SHL PUSH1 0x0 MSTORE PUSH1 0x41 PUSH1 0x4 MSTORE PUSH1 0x24 PUSH1 0x0 REVERT JUMPDEST PUSH1 0x1 DUP2 DUP2 SHR SWAP1 DUP3 AND DUP1 PUSH3 0x5C0 JUMPI PUSH1 0x7F DUP3 AND SWAP2 POP JUMPDEST PUSH1 0x20 DUP3 LT DUP2 SUB PUSH3 0x5E1 JUMPI PUSH4 0x4E487B71 PUSH1 0xE0 SHL PUSH1 0x0 MSTORE PUSH1 0x22 PUSH1 0x4 MSTORE PUSH1 0x24 PUSH1 0x0 REVERT JUMPDEST POP SWAP2 SWAP1 POP JUMP JUMPDEST PUSH1 0x1F DUP3 GT ISZERO PUSH3 0x635 JUMPI PUSH1 0x0 DUP2 DUP2 MSTORE PUSH1 0x20 DUP2 KECCAK256 PUSH1 0x1F DUP6 ADD PUSH1 0x5 SHR DUP2 ADD PUSH1 0x20 DUP7 LT ISZERO PUSH3 0x610 JUMPI POP DUP1 JUMPDEST PUSH1 0x1F DUP6 ADD PUSH1 0x5 SHR DUP3 ADD SWAP2 POP JUMPDEST DUP2 DUP2 LT ISZERO PUSH3 0x631 JUMPI DUP3 DUP2 SSTORE PUSH1 0x1 ADD PUSH3 0x61C JUMP JUMPDEST POP POP POP JUMPDEST POP POP POP JUMP JUMPDEST DUP2 MLOAD PUSH1 0x1 PUSH1 0x1 PUSH1 0x40 SHL SUB DUP2 GT ISZERO PUSH3 0x656 JUMPI PUSH3 0x656 PUSH3 0x595 JUMP JUMPDEST PUSH3 0x66E DUP2 PUSH3 0x667 DUP5 SLOAD PUSH3 0x5AB JUMP JUMPDEST DUP5 PUSH3 0x5E7 JUMP JUMPDEST PUSH1 0x20 DUP1 PUSH1 0x1F DUP4 GT PUSH1 0x1 DUP2 EQ PUSH3 0x6A6 JUMPI PUSH1 0x0 DUP5 ISZERO PUSH3 0x68D JUMPI POP DUP6 DUP4 ADD MLOAD JUMPDEST PUSH1 0x0 NOT PUSH1 0x3 DUP7 SWAP1 SHL SHR NOT AND PUSH1 0x1 DUP6 SWAP1 SHL OR DUP6 SSTORE PUSH3 0x631 JUMP JUMPDEST PUSH1 0x0 DUP6 DUP2 MSTORE PUSH1 0x20 DUP2 KECCAK256 PUSH1 0x1F NOT DUP7 AND SWAP2 JUMPDEST DUP3 DUP2 LT ISZERO PUSH3 0x6D7 JUMPI DUP9 DUP7 ADD MLOAD DUP3 SSTORE SWAP5 DUP5 ADD SWAP5 PUSH1 0x1 SWAP1 SWAP2 ADD SWAP1 DUP5 ADD PUSH3 0x6B6 JUMP JUMPDEST POP DUP6 DUP3 LT ISZERO PUSH3 0x6F6 JUMPI DUP8 DUP6 ADD MLOAD PUSH1 0x0 NOT PUSH1 0x3 DUP9 SWAP1 SHL PUSH1 0xF8 AND SHR NOT AND DUP2 SSTORE JUMPDEST POP POP POP POP POP PUSH1 0x1 SWAP1 DUP2 SHL ADD SWAP1 SSTORE POP JUMP JUMPDEST PUSH1 0x0 PUSH1 0x20 DUP3 DUP5 SUB SLT ISZERO PUSH3 0x719 JUMPI PUSH1 0x0 DUP1 REVERT JUMPDEST DUP2 MLOAD PUSH1 0x1 PUSH1 0x1 PUSH1 0xA0 SHL SUB DUP2 AND DUP2 EQ PUSH3 0x731 JUMPI PUSH1 0x0 DUP1 REVERT JUMPDEST SWAP4 SWAP3 POP POP POP JUMP JUMPDEST PUSH2 0xE56 DUP1 PUSH3 0x748 PUSH1 0x0 CODECOPY PUSH1 0x0 RETURN INVALID PUSH1 0x80 PUSH1 0x40 MSTORE CALLVALUE DUP1 ISZERO PUSH2 0x10 JUMPI PUSH1 0x0 DUP1 REVERT JUMPDEST POP PUSH1 0x4 CALLDATASIZE LT PUSH2 0xCF JUMPI PUSH1 0x0 CALLDATALOAD PUSH1 0xE0 SHR DUP1 PUSH4 0x500BEBF3 GT PUSH2 0x8C JUMPI DUP1 PUSH4 0x7F35D729 GT PUSH2 0x66 JUMPI DUP1 PUSH4 0x7F35D729 EQ PUSH2 0x18A JUMPI DUP1 PUSH4 0x8E672CF7 EQ PUSH2 0x192 JUMPI DUP1 PUSH4 0xBF039D43 EQ PUSH2 0x1A5 JUMPI DUP1 PUSH4 0xEB5C426C EQ PUSH2 0x1AD JUMPI PUSH1 0x0 DUP1 REVERT JUMPDEST DUP1 PUSH4 0x500BEBF3 EQ PUSH2 0x148 JUMPI DUP1 PUSH4 0x6E7A216B EQ PUSH2 0x150 JUMPI DUP1 PUSH4 0x75894E8C EQ PUSH2 0x165 JUMPI PUSH1 0x0 DUP1 REVERT JUMPDEST DUP1 PUSH4 0x6FDDE03 EQ PUSH2 0xD4 JUMPI DUP1 PUSH4 0xFF72EF2 EQ PUSH2 0xF2 JUMPI DUP1 PUSH4 0x1252A083 EQ PUSH2 0x107 JUMPI DUP1 PUSH4 0x1E5F6F01 EQ PUSH2 0x11A JUMPI DUP1 PUSH4 0x3BDF8863 EQ PUSH2 0x12D JUMPI DUP1 PUSH4 0x4B7A1859 EQ PUSH2 0x135 JUMPI JUMPDEST PUSH1 0x0 DUP1 REVERT JUMPDEST PUSH2 0xDC PUSH2 0x1C0 JUMP JUMPDEST PUSH1 0x40 MLOAD PUSH2 0xE9 SWAP2 SWAP1 PUSH2 0x9F0 JUMP JUMPDEST PUSH1 0x40 MLOAD DUP1 SWAP2 SUB SWAP1 RETURN JUMPDEST PUSH2 0x105 PUSH2 0x100 CALLDATASIZE PUSH1 0x4 PUSH2 0xAC9 JUMP JUMPDEST PUSH2 0x24E JUMP JUMPDEST STOP JUMPDEST PUSH2 0x105 PUSH2 0x115 CALLDATASIZE PUSH1 0x4 PUSH2 0xB17 JUMP JUMPDEST PUSH2 0x2A9 JUMP JUMPDEST PUSH2 0x105 PUSH2 0x128 CALLDATASIZE PUSH1 0x4 PUSH2 0xAC9 JUMP JUMPDEST PUSH2 0x314 JUMP JUMPDEST PUSH2 0xDC PUSH2 0x369 JUMP JUMPDEST PUSH2 0x105 PUSH2 0x143 CALLDATASIZE PUSH1 0x4 PUSH2 0xAC9 JUMP JUMPDEST PUSH2 0x376 JUMP JUMPDEST PUSH2 0xDC PUSH2 0x3CB JUMP JUMPDEST PUSH2 0x158 PUSH2 0x3D8 JUMP JUMPDEST PUSH1 0x40 MLOAD PUSH2 0xE9 SWAP2 SWAP1 PUSH2 0xBF8 JUMP JUMPDEST PUSH2 0x178 PUSH2 0x173 CALLDATASIZE PUSH1 0x4 PUSH2 0xC45 JUMP JUMPDEST PUSH2 0x43A JUMP JUMPDEST PUSH1 0x40 MLOAD PUSH2 0xE9 SWAP7 SWAP6 SWAP5 SWAP4 SWAP3 SWAP2 SWAP1 PUSH2 0xC60 JUMP JUMPDEST PUSH2 0xDC PUSH2 0x7BA JUMP JUMPDEST PUSH2 0x105 PUSH2 0x1A0 CALLDATASIZE PUSH1 0x4 PUSH2 0xAC9 JUMP JUMPDEST PUSH2 0x7C7 JUMP JUMPDEST PUSH2 0xDC PUSH2 0x81C JUMP JUMPDEST PUSH2 0x105 PUSH2 0x1BB CALLDATASIZE PUSH1 0x4 PUSH2 0xAC9 JUMP JUMPDEST PUSH2 0x829 JUMP JUMPDEST PUSH1 0x4 DUP1 SLOAD PUSH2 0x1CD SWAP1 PUSH2 0xCD7 JUMP JUMPDEST DUP1 PUSH1 0x1F ADD PUSH1 0x20 DUP1 SWAP2 DIV MUL PUSH1 0x20 ADD PUSH1 0x40 MLOAD SWAP1 DUP2 ADD PUSH1 0x40 MSTORE DUP1 SWAP3 SWAP2 SWAP1 DUP2 DUP2 MSTORE PUSH1 0x20 ADD DUP3 DUP1 SLOAD PUSH2 0x1F9 SWAP1 PUSH2 0xCD7 JUMP JUMPDEST DUP1 ISZERO PUSH2 0x246 JUMPI DUP1 PUSH1 0x1F LT PUSH2 0x21B JUMPI PUSH2 0x100 DUP1 DUP4 SLOAD DIV MUL DUP4 MSTORE SWAP2 PUSH1 0x20 ADD SWAP2 PUSH2 0x246 JUMP JUMPDEST DUP3 ADD SWAP2 SWAP1 PUSH1 0x0 MSTORE PUSH1 0x20 PUSH1 0x0 KECCAK256 SWAP1 JUMPDEST DUP2 SLOAD DUP2 MSTORE SWAP1 PUSH1 0x1 ADD SWAP1 PUSH1 0x20 ADD DUP1 DUP4 GT PUSH2 0x229 JUMPI DUP3 SWAP1 SUB PUSH1 0x1F AND DUP3 ADD SWAP2 JUMPDEST POP POP POP POP POP DUP2 JUMP JUMPDEST PUSH1 0x1 PUSH1 0x1 PUSH1 0xA0 SHL SUB DUP3 AND PUSH1 0x0 SWAP1 DUP2 MSTORE PUSH1 0x5 PUSH1 0x20 DUP2 SWAP1 MSTORE PUSH1 0x40 SWAP1 SWAP2 KECCAK256 ADD SLOAD DUP3 SWAP1 PUSH1 0xFF AND ISZERO ISZERO PUSH1 0x1 EQ PUSH2 0x27E JUMPI PUSH1 0x0 DUP1 REVERT JUMPDEST PUSH1 0x1 PUSH1 0x1 PUSH1 0xA0 SHL SUB DUP4 AND PUSH1 0x0 SWAP1 DUP2 MSTORE PUSH1 0x5 PUSH1 0x20 MSTORE PUSH1 0x40 SWAP1 KECCAK256 PUSH1 0x2 ADD PUSH2 0x2A3 DUP4 DUP3 PUSH2 0xD60 JUMP JUMPDEST POP POP POP POP JUMP JUMPDEST PUSH1 0x1 PUSH1 0x1 PUSH1 0xA0 SHL SUB DUP7 AND PUSH1 0x0 SWAP1 DUP2 MSTORE PUSH1 0x5 PUSH1 0x20 DUP2 SWAP1 MSTORE PUSH1 0x40 SWAP1 SWAP2 KECCAK256 ADD SLOAD DUP7 SWAP1 PUSH1 0xFF AND ISZERO PUSH2 0x2D5 JUMPI PUSH1 0x0 DUP1 REVERT JUMPDEST CALLER PUSH1 0x0 DUP2 DUP2 MSTORE PUSH1 0x5 PUSH1 0x20 DUP2 SWAP1 MSTORE PUSH1 0x40 SWAP1 SWAP2 KECCAK256 ADD SLOAD PUSH1 0xFF AND ISZERO ISZERO PUSH1 0x1 EQ PUSH2 0x2FA JUMPI PUSH1 0x0 DUP1 REVERT JUMPDEST PUSH2 0x30A DUP9 DUP9 DUP9 DUP9 DUP9 DUP9 PUSH1 0x1 PUSH2 0x87B JUMP JUMPDEST POP POP POP POP POP POP POP POP JUMP JUMPDEST PUSH1 0x1 PUSH1 0x1 PUSH1 0xA0 SHL SUB DUP3 AND PUSH1 0x0 SWAP1 DUP2 MSTORE PUSH1 0x5 PUSH1 0x20 DUP2 SWAP1 MSTORE PUSH1 0x40 SWAP1 SWAP2 KECCAK256 ADD SLOAD DUP3 SWAP1 PUSH1 0xFF AND ISZERO ISZERO PUSH1 0x1 EQ PUSH2 0x344 JUMPI PUSH1 0x0 DUP1 REVERT JUMPDEST PUSH1 0x1 PUSH1 0x1 PUSH1 0xA0 SHL SUB DUP4 AND PUSH1 0x0 SWAP1 DUP2 MSTORE PUSH1 0x5 PUSH1 0x20 MSTORE PUSH1 0x40 SWAP1 KECCAK256 PUSH1 0x1 ADD PUSH2 0x2A3 DUP4 DUP3 PUSH2 0xD60 JUMP JUMPDEST PUSH1 0x2 DUP1 SLOAD PUSH2 0x1CD SWAP1 PUSH2 0xCD7 JUMP JUMPDEST PUSH1 0x1 PUSH1 0x1 PUSH1 0xA0 SHL SUB DUP3 AND PUSH1 0x0 SWAP1 DUP2 MSTORE PUSH1 0x5 PUSH1 0x20 DUP2 SWAP1 MSTORE PUSH1 0x40 SWAP1 SWAP2 KECCAK256 ADD SLOAD DUP3 SWAP1 PUSH1 0xFF AND ISZERO ISZERO PUSH1 0x1 EQ PUSH2 0x3A6 JUMPI PUSH1 0x0 DUP1 REVERT JUMPDEST PUSH1 0x1 PUSH1 0x1 PUSH1 0xA0 SHL SUB DUP4 AND PUSH1 0x0 SWAP1 DUP2 MSTORE PUSH1 0x5 PUSH1 0x20 MSTORE PUSH1 0x40 SWAP1 KECCAK256 PUSH1 0x3 ADD PUSH2 0x2A3 DUP4 DUP3 PUSH2 0xD60 JUMP JUMPDEST PUSH1 0x1 DUP1 SLOAD PUSH2 0x1CD SWAP1 PUSH2 0xCD7 JUMP JUMPDEST PUSH1 0x60 PUSH1 0x6 DUP1 SLOAD DUP1 PUSH1 0x20 MUL PUSH1 0x20 ADD PUSH1 0x40 MLOAD SWAP1 DUP2 ADD PUSH1 0x40 MSTORE DUP1 SWAP3 SWAP2 SWAP1 DUP2 DUP2 MSTORE PUSH1 0x20 ADD DUP3 DUP1 SLOAD DUP1 ISZERO PUSH2 0x430 JUMPI PUSH1 0x20 MUL DUP3 ADD SWAP2 SWAP1 PUSH1 0x0 MSTORE PUSH1 0x20 PUSH1 0x0 KECCAK256 SWAP1 JUMPDEST DUP2 SLOAD PUSH1 0x1 PUSH1 0x1 PUSH1 0xA0 SHL SUB AND DUP2 MSTORE PUSH1 0x1 SWAP1 SWAP2 ADD SWAP1 PUSH1 0x20 ADD DUP1 DUP4 GT PUSH2 0x412 JUMPI JUMPDEST POP POP POP POP POP SWAP1 POP SWAP1 JUMP JUMPDEST PUSH1 0x1 PUSH1 0x1 PUSH1 0xA0 SHL SUB DUP2 AND PUSH1 0x0 SWAP1 DUP2 MSTORE PUSH1 0x5 PUSH1 0x20 MSTORE PUSH1 0x40 DUP2 KECCAK256 DUP1 SLOAD PUSH1 0x60 SWAP3 DUP4 SWAP3 DUP4 SWAP3 DUP4 SWAP3 DUP4 SWAP3 SWAP1 SWAP2 PUSH2 0x46A SWAP1 PUSH2 0xCD7 JUMP JUMPDEST DUP1 PUSH1 0x1F ADD PUSH1 0x20 DUP1 SWAP2 DIV MUL PUSH1 0x20 ADD PUSH1 0x40 MLOAD SWAP1 DUP2 ADD PUSH1 0x40 MSTORE DUP1 SWAP3 SWAP2 SWAP1 DUP2 DUP2 MSTORE PUSH1 0x20 ADD DUP3 DUP1 SLOAD PUSH2 0x496 SWAP1 PUSH2 0xCD7 JUMP JUMPDEST DUP1 ISZERO PUSH2 0x4E3 JUMPI DUP1 PUSH1 0x1F LT PUSH2 0x4B8 JUMPI PUSH2 0x100 DUP1 DUP4 SLOAD DIV MUL DUP4 MSTORE SWAP2 PUSH1 0x20 ADD SWAP2 PUSH2 0x4E3 JUMP JUMPDEST DUP3 ADD SWAP2 SWAP1 PUSH1 0x0 MSTORE PUSH1 0x20 PUSH1 0x0 KECCAK256 SWAP1 JUMPDEST DUP2 SLOAD DUP2 MSTORE SWAP1 PUSH1 0x1 ADD SWAP1 PUSH1 0x20 ADD DUP1 DUP4 GT PUSH2 0x4C6 JUMPI DUP3 SWAP1 SUB PUSH1 0x1F AND DUP3 ADD SWAP2 JUMPDEST POP POP POP POP PUSH1 0x1 PUSH1 0x1 PUSH1 0xA0 SHL SUB DUP10 AND PUSH1 0x0 SWAP1 DUP2 MSTORE PUSH1 0x5 PUSH1 0x20 MSTORE PUSH1 0x40 SWAP1 KECCAK256 PUSH1 0x1 ADD DUP1 SLOAD SWAP3 SWAP9 POP SWAP2 PUSH2 0x512 SWAP2 POP PUSH2 0xCD7 JUMP JUMPDEST DUP1 PUSH1 0x1F ADD PUSH1 0x20 DUP1 SWAP2 DIV MUL PUSH1 0x20 ADD PUSH1 0x40 MLOAD SWAP1 DUP2 ADD PUSH1 0x40 MSTORE DUP1 SWAP3 SWAP2 SWAP1 DUP2 DUP2 MSTORE PUSH1 0x20 ADD DUP3 DUP1 SLOAD PUSH2 0x53E SWAP1 PUSH2 0xCD7 JUMP JUMPDEST DUP1 ISZERO PUSH2 0x58B JUMPI DUP1 PUSH1 0x1F LT PUSH2 0x560 JUMPI PUSH2 0x100 DUP1 DUP4 SLOAD DIV MUL DUP4 MSTORE SWAP2 PUSH1 0x20 ADD SWAP2 PUSH2 0x58B JUMP JUMPDEST DUP3 ADD SWAP2 SWAP1 PUSH1 0x0 MSTORE PUSH1 0x20 PUSH1 0x0 KECCAK256 SWAP1 JUMPDEST DUP2 SLOAD DUP2 MSTORE SWAP1 PUSH1 0x1 ADD SWAP1 PUSH1 0x20 ADD DUP1 DUP4 GT PUSH2 0x56E JUMPI DUP3 SWAP1 SUB PUSH1 0x1F AND DUP3 ADD SWAP2 JUMPDEST POP POP POP POP PUSH1 0x1 PUSH1 0x1 PUSH1 0xA0 SHL SUB DUP10 AND PUSH1 0x0 SWAP1 DUP2 MSTORE PUSH1 0x5 PUSH1 0x20 MSTORE PUSH1 0x40 SWAP1 KECCAK256 PUSH1 0x2 ADD DUP1 SLOAD SWAP3 SWAP8 POP SWAP2 PUSH2 0x5BA SWAP2 POP PUSH2 0xCD7 JUMP JUMPDEST DUP1 PUSH1 0x1F ADD PUSH1 0x20 DUP1 SWAP2 DIV MUL PUSH1 0x20 ADD PUSH1 0x40 MLOAD SWAP1 DUP2 ADD PUSH1 0x40 MSTORE DUP1 SWAP3 SWAP2 SWAP1 DUP2 DUP2 MSTORE PUSH1 0x20 ADD DUP3 DUP1 SLOAD PUSH2 0x5E6 SWAP1 PUSH2 0xCD7 JUMP JUMPDEST DUP1 ISZERO PUSH2 0x633 JUMPI DUP1 PUSH1 0x1F LT PUSH2 0x608 JUMPI PUSH2 0x100 DUP1 DUP4 SLOAD DIV MUL DUP4 MSTORE SWAP2 PUSH1 0x20 ADD SWAP2 PUSH2 0x633 JUMP JUMPDEST DUP3 ADD SWAP2 SWAP1 PUSH1 0x0 MSTORE PUSH1 0x20 PUSH1 0x0 KECCAK256 SWAP1 JUMPDEST DUP2 SLOAD DUP2 MSTORE SWAP1 PUSH1 0x1 ADD SWAP1 PUSH1 0x20 ADD DUP1 DUP4 GT PUSH2 0x616 JUMPI DUP3 SWAP1 SUB PUSH1 0x1F AND DUP3 ADD SWAP2 JUMPDEST POP POP POP POP PUSH1 0x1 PUSH1 0x1 PUSH1 0xA0 SHL SUB DUP10 AND PUSH1 0x0 SWAP1 DUP2 MSTORE PUSH1 0x5 PUSH1 0x20 MSTORE PUSH1 0x40 SWAP1 KECCAK256 PUSH1 0x3 ADD DUP1 SLOAD SWAP3 SWAP7 POP SWAP2 PUSH2 0x662 SWAP2 POP PUSH2 0xCD7 JUMP JUMPDEST DUP1 PUSH1 0x1F ADD PUSH1 0x20 DUP1 SWAP2 DIV MUL PUSH1 0x20 ADD PUSH1 0x40 MLOAD SWAP1 DUP2 ADD PUSH1 0x40 MSTORE DUP1 SWAP3 SWAP2 SWAP1 DUP2 DUP2 MSTORE PUSH1 0x20 ADD DUP3 DUP1 SLOAD PUSH2 0x68E SWAP1 PUSH2 0xCD7 JUMP JUMPDEST DUP1 ISZERO PUSH2 0x6DB JUMPI DUP1 PUSH1 0x1F LT PUSH2 0x6B0 JUMPI PUSH2 0x100 DUP1 DUP4 SLOAD DIV MUL DUP4 MSTORE SWAP2 PUSH1 0x20 ADD SWAP2 PUSH2 0x6DB JUMP JUMPDEST DUP3 ADD SWAP2 SWAP1 PUSH1 0x0 MSTORE PUSH1 0x20 PUSH1 0x0 KECCAK256 SWAP1 JUMPDEST DUP2 SLOAD DUP2 MSTORE SWAP1 PUSH1 0x1 ADD SWAP1 PUSH1 0x20 ADD DUP1 DUP4 GT PUSH2 0x6BE JUMPI DUP3 SWAP1 SUB PUSH1 0x1F AND DUP3 ADD SWAP2 JUMPDEST POP POP POP POP PUSH1 0x1 PUSH1 0x1 PUSH1 0xA0 SHL SUB DUP10 AND PUSH1 0x0 SWAP1 DUP2 MSTORE PUSH1 0x5 PUSH1 0x20 MSTORE PUSH1 0x40 SWAP1 KECCAK256 PUSH1 0x4 ADD DUP1 SLOAD SWAP3 SWAP6 POP SWAP2 PUSH2 0x70A SWAP2 POP PUSH2 0xCD7 JUMP JUMPDEST DUP1 PUSH1 0x1F ADD PUSH1 0x20 DUP1 SWAP2 DIV MUL PUSH1 0x20 ADD PUSH1 0x40 MLOAD SWAP1 DUP2 ADD PUSH1 0x40 MSTORE DUP1 SWAP3 SWAP2 SWAP1 DUP2 DUP2 MSTORE PUSH1 0x20 ADD DUP3 DUP1 SLOAD PUSH2 0x736 SWAP1 PUSH2 0xCD7 JUMP JUMPDEST DUP1 ISZERO PUSH2 0x783 JUMPI DUP1 PUSH1 0x1F LT PUSH2 0x758 JUMPI PUSH2 0x100 DUP1 DUP4 SLOAD DIV MUL DUP4 MSTORE SWAP2 PUSH1 0x20 ADD SWAP2 PUSH2 0x783 JUMP JUMPDEST DUP3 ADD SWAP2 SWAP1 PUSH1 0x0 MSTORE PUSH1 0x20 PUSH1 0x0 KECCAK256 SWAP1 JUMPDEST DUP2 SLOAD DUP2 MSTORE SWAP1 PUSH1 0x1 ADD SWAP1 PUSH1 0x20 ADD DUP1 DUP4 GT PUSH2 0x766 JUMPI DUP3 SWAP1 SUB PUSH1 0x1F AND DUP3 ADD SWAP2 JUMPDEST POP POP POP POP PUSH1 0x1 PUSH1 0x1 PUSH1 0xA0 SHL SUB SWAP9 SWAP1 SWAP9 AND PUSH1 0x0 SWAP1 DUP2 MSTORE PUSH1 0x5 PUSH1 0x20 DUP2 SWAP1 MSTORE PUSH1 0x40 SWAP1 SWAP2 KECCAK256 ADD SLOAD SWAP7 SWAP9 SWAP6 SWAP8 POP SWAP4 SWAP6 SWAP3 SWAP5 PUSH1 0xFF SWAP1 SWAP4 AND SWAP3 SWAP2 POP POP JUMP JUMPDEST PUSH1 0x0 DUP1 SLOAD PUSH2 0x1CD SWAP1 PUSH2 0xCD7 JUMP JUMPDEST PUSH1 0x1 PUSH1 0x1 PUSH1 0xA0 SHL SUB DUP3 AND PUSH1 0x0 SWAP1 DUP2 MSTORE PUSH1 0x5 PUSH1 0x20 DUP2 SWAP1 MSTORE PUSH1 0x40 SWAP1 SWAP2 KECCAK256 ADD SLOAD DUP3 SWAP1 PUSH1 0xFF AND ISZERO ISZERO PUSH1 0x1 EQ PUSH2 0x7F7 JUMPI PUSH1 0x0 DUP1 REVERT JUMPDEST PUSH1 0x1 PUSH1 0x1 PUSH1 0xA0 SHL SUB DUP4 AND PUSH1 0x0 SWAP1 DUP2 MSTORE PUSH1 0x5 PUSH1 0x20 MSTORE PUSH1 0x40 SWAP1 KECCAK256 PUSH1 0x4 ADD PUSH2 0x2A3 DUP4 DUP3 PUSH2 0xD60 JUMP JUMPDEST PUSH1 0x3 DUP1 SLOAD PUSH2 0x1CD SWAP1 PUSH2 0xCD7 JUMP JUMPDEST PUSH1 0x1 PUSH1 0x1 PUSH1 0xA0 SHL SUB DUP3 AND PUSH1 0x0 SWAP1 DUP2 MSTORE PUSH1 0x5 PUSH1 0x20 DUP2 SWAP1 MSTORE PUSH1 0x40 SWAP1 SWAP2 KECCAK256 ADD SLOAD DUP3 SWAP1 PUSH1 0xFF AND ISZERO ISZERO PUSH1 0x1 EQ PUSH2 0x859 JUMPI PUSH1 0x0 DUP1 REVERT JUMPDEST PUSH1 0x1 PUSH1 0x1 PUSH1 0xA0 SHL SUB DUP4 AND PUSH1 0x0 SWAP1 DUP2 MSTORE PUSH1 0x5 PUSH1 0x20 MSTORE PUSH1 0x40 SWAP1 KECCAK256 PUSH2 0x2A3 DUP4 DUP3 PUSH2 0xD60 JUMP JUMPDEST PUSH1 0x6 DUP1 SLOAD PUSH1 0x1 DUP2 ADD SWAP1 SWAP2 SSTORE PUSH32 0xF652222313E28459528D920B65115C16C04F3EFC82AAEDC97BE59F3F377C0D3F ADD DUP1 SLOAD PUSH1 0x1 PUSH1 0x1 PUSH1 0xA0 SHL SUB NOT AND PUSH1 0x1 PUSH1 0x1 PUSH1 0xA0 SHL SUB DUP10 AND SWAP1 DUP2 OR SWAP1 SWAP2 SSTORE PUSH1 0x0 SWAP1 DUP2 MSTORE PUSH1 0x5 PUSH1 0x20 MSTORE PUSH1 0x40 SWAP1 KECCAK256 PUSH2 0x8DC DUP8 DUP3 PUSH2 0xD60 JUMP JUMPDEST POP PUSH1 0x1 PUSH1 0x1 PUSH1 0xA0 SHL SUB DUP8 AND PUSH1 0x0 SWAP1 DUP2 MSTORE PUSH1 0x5 PUSH1 0x20 MSTORE PUSH1 0x40 SWAP1 KECCAK256 PUSH1 0x1 ADD PUSH2 0x902 DUP7 DUP3 PUSH2 0xD60 JUMP JUMPDEST POP PUSH1 0x1 PUSH1 0x1 PUSH1 0xA0 SHL SUB DUP8 AND PUSH1 0x0 SWAP1 DUP2 MSTORE PUSH1 0x5 PUSH1 0x20 MSTORE PUSH1 0x40 SWAP1 KECCAK256 PUSH1 0x2 ADD PUSH2 0x928 DUP6 DUP3 PUSH2 0xD60 JUMP JUMPDEST POP PUSH1 0x1 PUSH1 0x1 PUSH1 0xA0 SHL SUB DUP8 AND PUSH1 0x0 SWAP1 DUP2 MSTORE PUSH1 0x5 PUSH1 0x20 MSTORE PUSH1 0x40 SWAP1 KECCAK256 PUSH1 0x3 ADD PUSH2 0x94E DUP5 DUP3 PUSH2 0xD60 JUMP JUMPDEST POP PUSH1 0x1 PUSH1 0x1 PUSH1 0xA0 SHL SUB DUP8 AND PUSH1 0x0 SWAP1 DUP2 MSTORE PUSH1 0x5 PUSH1 0x20 MSTORE PUSH1 0x40 SWAP1 KECCAK256 PUSH1 0x4 ADD PUSH2 0x974 DUP4 DUP3 PUSH2 0xD60 JUMP JUMPDEST POP PUSH1 0x1 PUSH1 0x1 PUSH1 0xA0 SHL SUB SWAP7 SWAP1 SWAP7 AND PUSH1 0x0 SWAP1 DUP2 MSTORE PUSH1 0x5 PUSH1 0x20 DUP2 SWAP1 MSTORE PUSH1 0x40 SWAP1 SWAP2 KECCAK256 ADD DUP1 SLOAD PUSH1 0xFF NOT AND SWAP7 ISZERO ISZERO SWAP7 SWAP1 SWAP7 OR SWAP1 SWAP6 SSTORE POP POP POP POP POP JUMP JUMPDEST PUSH1 0x0 DUP2 MLOAD DUP1 DUP5 MSTORE PUSH1 0x0 JUMPDEST DUP2 DUP2 LT ISZERO PUSH2 0x9D0 JUMPI PUSH1 0x20 DUP2 DUP6 ADD DUP2 ADD MLOAD DUP7 DUP4 ADD DUP3 ADD MSTORE ADD PUSH2 0x9B4 JUMP JUMPDEST POP PUSH1 0x0 PUSH1 0x20 DUP3 DUP7 ADD ADD MSTORE PUSH1 0x20 PUSH1 0x1F NOT PUSH1 0x1F DUP4 ADD AND DUP6 ADD ADD SWAP2 POP POP SWAP3 SWAP2 POP POP JUMP JUMPDEST PUSH1 0x20 DUP2 MSTORE PUSH1 0x0 PUSH2 0xA03 PUSH1 0x20 DUP4 ADD DUP5 PUSH2 0x9AA JUMP JUMPDEST SWAP4 SWAP3 POP POP POP JUMP JUMPDEST DUP1 CALLDATALOAD PUSH1 0x1 PUSH1 0x1 PUSH1 0xA0 SHL SUB DUP2 AND DUP2 EQ PUSH2 0xA21 JUMPI PUSH1 0x0 DUP1 REVERT JUMPDEST SWAP2 SWAP1 POP JUMP JUMPDEST PUSH4 0x4E487B71 PUSH1 0xE0 SHL PUSH1 0x0 MSTORE PUSH1 0x41 PUSH1 0x4 MSTORE PUSH1 0x24 PUSH1 0x0 REVERT JUMPDEST PUSH1 0x0 DUP3 PUSH1 0x1F DUP4 ADD SLT PUSH2 0xA4D JUMPI PUSH1 0x0 DUP1 REVERT JUMPDEST DUP2 CALLDATALOAD PUSH8 0xFFFFFFFFFFFFFFFF DUP1 DUP3 GT ISZERO PUSH2 0xA68 JUMPI PUSH2 0xA68 PUSH2 0xA26 JUMP JUMPDEST PUSH1 0x40 MLOAD PUSH1 0x1F DUP4 ADD PUSH1 0x1F NOT SWAP1 DUP2 AND PUSH1 0x3F ADD AND DUP2 ADD SWAP1 DUP3 DUP3 GT DUP2 DUP4 LT OR ISZERO PUSH2 0xA90 JUMPI PUSH2 0xA90 PUSH2 0xA26 JUMP JUMPDEST DUP2 PUSH1 0x40 MSTORE DUP4 DUP2 MSTORE DUP7 PUSH1 0x20 DUP6 DUP9 ADD ADD GT ISZERO PUSH2 0xAA9 JUMPI PUSH1 0x0 DUP1 REVERT JUMPDEST DUP4 PUSH1 0x20 DUP8 ADD PUSH1 0x20 DUP4 ADD CALLDATACOPY PUSH1 0x0 PUSH1 0x20 DUP6 DUP4 ADD ADD MSTORE DUP1 SWAP5 POP POP POP POP POP SWAP3 SWAP2 POP POP JUMP JUMPDEST PUSH1 0x0 DUP1 PUSH1 0x40 DUP4 DUP6 SUB SLT ISZERO PUSH2 0xADC JUMPI PUSH1 0x0 DUP1 REVERT JUMPDEST PUSH2 0xAE5 DUP4 PUSH2 0xA0A JUMP JUMPDEST SWAP2 POP PUSH1 0x20 DUP4 ADD CALLDATALOAD PUSH8 0xFFFFFFFFFFFFFFFF DUP2 GT ISZERO PUSH2 0xB01 JUMPI PUSH1 0x0 DUP1 REVERT JUMPDEST PUSH2 0xB0D DUP6 DUP3 DUP7 ADD PUSH2 0xA3C JUMP JUMPDEST SWAP2 POP POP SWAP3 POP SWAP3 SWAP1 POP JUMP JUMPDEST PUSH1 0x0 DUP1 PUSH1 0x0 DUP1 PUSH1 0x0 DUP1 PUSH1 0xC0 DUP8 DUP10 SUB SLT ISZERO PUSH2 0xB30 JUMPI PUSH1 0x0 DUP1 REVERT JUMPDEST PUSH2 0xB39 DUP8 PUSH2 0xA0A JUMP JUMPDEST SWAP6 POP PUSH1 0x20 DUP8 ADD CALLDATALOAD PUSH8 0xFFFFFFFFFFFFFFFF DUP1 DUP3 GT ISZERO PUSH2 0xB56 JUMPI PUSH1 0x0 DUP1 REVERT JUMPDEST PUSH2 0xB62 DUP11 DUP4 DUP12 ADD PUSH2 0xA3C JUMP JUMPDEST SWAP7 POP PUSH1 0x40 DUP10 ADD CALLDATALOAD SWAP2 POP DUP1 DUP3 GT ISZERO PUSH2 0xB78 JUMPI PUSH1 0x0 DUP1 REVERT JUMPDEST PUSH2 0xB84 DUP11 DUP4 DUP12 ADD PUSH2 0xA3C JUMP JUMPDEST SWAP6 POP PUSH1 0x60 DUP10 ADD CALLDATALOAD SWAP2 POP DUP1 DUP3 GT ISZERO PUSH2 0xB9A JUMPI PUSH1 0x0 DUP1 REVERT JUMPDEST PUSH2 0xBA6 DUP11 DUP4 DUP12 ADD PUSH2 0xA3C JUMP JUMPDEST SWAP5 POP PUSH1 0x80 DUP10 ADD CALLDATALOAD SWAP2 POP DUP1 DUP3 GT ISZERO PUSH2 0xBBC JUMPI PUSH1 0x0 DUP1 REVERT JUMPDEST PUSH2 0xBC8 DUP11 DUP4 DUP12 ADD PUSH2 0xA3C JUMP JUMPDEST SWAP4 POP PUSH1 0xA0 DUP10 ADD CALLDATALOAD SWAP2 POP DUP1 DUP3 GT ISZERO PUSH2 0xBDE JUMPI PUSH1 0x0 DUP1 REVERT JUMPDEST POP PUSH2 0xBEB DUP10 DUP3 DUP11 ADD PUSH2 0xA3C JUMP JUMPDEST SWAP2 POP POP SWAP3 SWAP6 POP SWAP3 SWAP6 POP SWAP3 SWAP6 JUMP JUMPDEST PUSH1 0x20 DUP1 DUP3 MSTORE DUP3 MLOAD DUP3 DUP3 ADD DUP2 SWAP1 MSTORE PUSH1 0x0 SWAP2 SWAP1 DUP5 DUP3 ADD SWAP1 PUSH1 0x40 DUP6 ADD SWAP1 DUP5 JUMPDEST DUP2 DUP2 LT ISZERO PUSH2 0xC39 JUMPI DUP4 MLOAD PUSH1 0x1 PUSH1 0x1 PUSH1 0xA0 SHL SUB AND DUP4 MSTORE SWAP3 DUP5 ADD SWAP3 SWAP2 DUP5 ADD SWAP2 PUSH1 0x1 ADD PUSH2 0xC14 JUMP JUMPDEST POP SWAP1 SWAP7 SWAP6 POP POP POP POP POP POP JUMP JUMPDEST PUSH1 0x0 PUSH1 0x20 DUP3 DUP5 SUB SLT ISZERO PUSH2 0xC57 JUMPI PUSH1 0x0 DUP1 REVERT JUMPDEST PUSH2 0xA03 DUP3 PUSH2 0xA0A JUMP JUMPDEST PUSH1 0xC0 DUP2 MSTORE PUSH1 0x0 PUSH2 0xC73 PUSH1 0xC0 DUP4 ADD DUP10 PUSH2 0x9AA JUMP JUMPDEST DUP3 DUP2 SUB PUSH1 0x20 DUP5 ADD MSTORE PUSH2 0xC85 DUP2 DUP10 PUSH2 0x9AA JUMP JUMPDEST SWAP1 POP DUP3 DUP2 SUB PUSH1 0x40 DUP5 ADD MSTORE PUSH2 0xC99 DUP2 DUP9 PUSH2 0x9AA JUMP JUMPDEST SWAP1 POP DUP3 DUP2 SUB PUSH1 0x60 DUP5 ADD MSTORE PUSH2 0xCAD DUP2 DUP8 PUSH2 0x9AA JUMP JUMPDEST SWAP1 POP DUP3 DUP2 SUB PUSH1 0x80 DUP5 ADD MSTORE PUSH2 0xCC1 DUP2 DUP7 PUSH2 0x9AA JUMP JUMPDEST SWAP2 POP POP DUP3 ISZERO ISZERO PUSH1 0xA0 DUP4 ADD MSTORE SWAP8 SWAP7 POP POP POP POP POP POP POP JUMP JUMPDEST PUSH1 0x1 DUP2 DUP2 SHR SWAP1 DUP3 AND DUP1 PUSH2 0xCEB JUMPI PUSH1 0x7F DUP3 AND SWAP2 POP JUMPDEST PUSH1 0x20 DUP3 LT DUP2 SUB PUSH2 0xD0B JUMPI PUSH4 0x4E487B71 PUSH1 0xE0 SHL PUSH1 0x0 MSTORE PUSH1 0x22 PUSH1 0x4 MSTORE PUSH1 0x24 PUSH1 0x0 REVERT JUMPDEST POP SWAP2 SWAP1 POP JUMP JUMPDEST PUSH1 0x1F DUP3 GT ISZERO PUSH2 0xD5B JUMPI PUSH1 0x0 DUP2 DUP2 MSTORE PUSH1 0x20 DUP2 KECCAK256 PUSH1 0x1F DUP6 ADD PUSH1 0x5 SHR DUP2 ADD PUSH1 0x20 DUP7 LT ISZERO PUSH2 0xD38 JUMPI POP DUP1 JUMPDEST PUSH1 0x1F DUP6 ADD PUSH1 0x5 SHR DUP3 ADD SWAP2 POP JUMPDEST DUP2 DUP2 LT ISZERO PUSH2 0xD57 JUMPI DUP3 DUP2 SSTORE PUSH1 0x1 ADD PUSH2 0xD44 JUMP JUMPDEST POP POP POP JUMPDEST POP POP POP JUMP JUMPDEST DUP2 MLOAD PUSH8 0xFFFFFFFFFFFFFFFF DUP2 GT ISZERO PUSH2 0xD7A JUMPI PUSH2 0xD7A PUSH2 0xA26 JUMP JUMPDEST PUSH2 0xD8E DUP2 PUSH2 0xD88 DUP5 SLOAD PUSH2 0xCD7 JUMP JUMPDEST DUP5 PUSH2 0xD11 JUMP JUMPDEST PUSH1 0x20 DUP1 PUSH1 0x1F DUP4 GT PUSH1 0x1 DUP2 EQ PUSH2 0xDC3 JUMPI PUSH1 0x0 DUP5 ISZERO PUSH2 0xDAB JUMPI POP DUP6 DUP4 ADD MLOAD JUMPDEST PUSH1 0x0 NOT PUSH1 0x3 DUP7 SWAP1 SHL SHR NOT AND PUSH1 0x1 DUP6 SWAP1 SHL OR DUP6 SSTORE PUSH2 0xD57 JUMP JUMPDEST PUSH1 0x0 DUP6 DUP2 MSTORE PUSH1 0x20 DUP2 KECCAK256 PUSH1 0x1F NOT DUP7 AND SWAP2 JUMPDEST DUP3 DUP2 LT ISZERO PUSH2 0xDF2 JUMPI DUP9 DUP7 ADD MLOAD DUP3 SSTORE SWAP5 DUP5 ADD SWAP5 PUSH1 0x1 SWAP1 SWAP2 ADD SWAP1 DUP5 ADD PUSH2 0xDD3 JUMP JUMPDEST POP DUP6 DUP3 LT ISZERO PUSH2 0xE10 JUMPI DUP8 DUP6 ADD MLOAD PUSH1 0x0 NOT PUSH1 0x3 DUP9 SWAP1 SHL PUSH1 0xF8 AND SHR NOT AND DUP2 SSTORE JUMPDEST POP POP POP POP POP PUSH1 0x1 SWAP1 DUP2 SHL ADD SWAP1 SSTORE POP JUMP INVALID LOG2 PUSH5 0x6970667358 0x22 SLT KECCAK256 PUSH14 0xD572203320D08678DA52432752F9 PUSH8 0x443BC13B481E01DA 0xBA 0xEE 0xF9 INVALID SSTORE PUSH3 0x899864 PUSH20 0x6F6C634300081100330000000000000000000000 "},"methodIdentifiers":{"addEntity(address,string,string,string,string,string)":"1252a083","cif()":"7f35d729","entitiesList()":"6e7a216b","getEntity(address)":"75894e8c","name()":"06fdde03","setCifEntity(address,string)":"1e5f6f01","setNameEntity(address,string)":"eb5c426c","setUrlAOA(address,string)":"8e672cf7","setUrlCreateAID(address,string)":"4b7a1859","setUrlLogo(address,string)":"0ff72ef2","url_AOA()":"bf039d43","url_createAID()":"3bdf8863","url_logo()":"500bebf3"}},"storageLayout":{"storage":[{"astId":1269,"contract":"contracts/nameService/AlastriaNameService.sol:AlastriaNameService","label":"cif","offset":0,"slot":"0","type":"t_string_storage"},{"astId":1272,"contract":"contracts/nameService/AlastriaNameService.sol:AlastriaNameService","label":"url_logo","offset":0,"slot":"1","type":"t_string_storage"},{"astId":1275,"contract":"contracts/nameService/AlastriaNameService.sol:AlastriaNameService","label":"url_createAID","offset":0,"slot":"2","type":"t_string_storage"},{"astId":1278,"contract":"contracts/nameService/AlastriaNameService.sol:AlastriaNameService","label":"url_AOA","offset":0,"slot":"3","type":"t_string_storage"},{"astId":1281,"contract":"contracts/nameService/AlastriaNameService.sol:AlastriaNameService","label":"name","offset":0,"slot":"4","type":"t_string_storage"},{"astId":1286,"contract":"contracts/nameService/AlastriaNameService.sol:AlastriaNameService","label":"entities","offset":0,"slot":"5","type":"t_mapping(t_address,t_struct(IdentityEntity)1266_storage)"},{"astId":1289,"contract":"contracts/nameService/AlastriaNameService.sol:AlastriaNameService","label":"listEntities","offset":0,"slot":"6","type":"t_array(t_address)dyn_storage"}],"types":{"t_address":{"encoding":"inplace","label":"address","numberOfBytes":"20"},"t_array(t_address)dyn_storage":{"base":"t_address","encoding":"dynamic_array","label":"address[]","numberOfBytes":"32"},"t_bool":{"encoding":"inplace","label":"bool","numberOfBytes":"1"},"t_mapping(t_address,t_struct(IdentityEntity)1266_storage)":{"encoding":"mapping","key":"t_address","label":"mapping(address => struct AlastriaNameService.IdentityEntity)","numberOfBytes":"32","value":"t_struct(IdentityEntity)1266_storage"},"t_string_storage":{"encoding":"bytes","label":"string","numberOfBytes":"32"},"t_struct(IdentityEntity)1266_storage":{"encoding":"inplace","label":"struct AlastriaNameService.IdentityEntity","members":[{"astId":1255,"contract":"contracts/nameService/AlastriaNameService.sol:AlastriaNameService","label":"name","offset":0,"slot":"0","type":"t_string_storage"},{"astId":1257,"contract":"contracts/nameService/AlastriaNameService.sol:AlastriaNameService","label":"cif","offset":0,"slot":"1","type":"t_string_storage"},{"astId":1259,"contract":"contracts/nameService/AlastriaNameService.sol:AlastriaNameService","label":"url_logo","offset":0,"slot":"2","type":"t_string_storage"},{"astId":1261,"contract":"contracts/nameService/AlastriaNameService.sol:AlastriaNameService","label":"url_createAID","offset":0,"slot":"3","type":"t_string_storage"},{"astId":1263,"contract":"contracts/nameService/AlastriaNameService.sol:AlastriaNameService","label":"url_AOA","offset":0,"slot":"4","type":"t_string_storage"},{"astId":1265,"contract":"contracts/nameService/AlastriaNameService.sol:AlastriaNameService","label":"active","offset":0,"slot":"5","type":"t_bool"}],"numberOfBytes":"192"}}}}}}