{"contracts/identity/AlastriaIdentityServiceProvider.sol":{"AlastriaIdentityServiceProvider":{"abi":[{"inputs":[{"internalType":"address","name":"_identityServiceProvider","type":"address"}],"name":"addIdentityServiceProvider","outputs":[],"stateMutability":"nonpayable","type":"function"},{"inputs":[{"internalType":"address","name":"_identityServiceProvider","type":"address"}],"name":"deleteIdentityServiceProvider","outputs":[],"stateMutability":"nonpayable","type":"function"},{"inputs":[{"internalType":"address","name":"_identityServiceProvider","type":"address"}],"name":"isIdentityServiceProvider","outputs":[{"internalType":"bool","name":"","type":"bool"}],"stateMutability":"view","type":"function"}],"evm":{"bytecode":{"linkReferences":{},"object":"608060405234801561001057600080fd5b506101af806100206000396000f3fe608060405234801561001057600080fd5b50600436106100415760003560e01c80630ebbbffc146100465780633bf472151461005b578063d024d9a41461006e575b600080fd5b610059610054366004610149565b610095565b005b610059610069366004610149565b6100e2565b61008161007c366004610149565b61012b565b604051901515815260200160405180910390f35b3361009f8161012b565b6100a857600080fd5b816100b28161012b565b156100bc57600080fd5b50506001600160a01b03166000908152602081905260409020805460ff19166001179055565b806100ec8161012b565b6100f557600080fd5b336100ff8161012b565b61010857600080fd5b50506001600160a01b03166000908152602081905260409020805460ff19169055565b6001600160a01b031660009081526020819052604090205460ff1690565b60006020828403121561015b57600080fd5b81356001600160a01b038116811461017257600080fd5b939250505056fea264697066735822122084c9e20a8f6970a91089cf181acb4c78c51c547006ceb6c193767d073b4a84c964736f6c63430008110033","opcodes":"PUSH1 0x80 PUSH1 0x40 MSTORE CALLVALUE DUP1 ISZERO PUSH2 0x10 JUMPI PUSH1 0x0 DUP1 REVERT JUMPDEST POP PUSH2 0x1AF DUP1 PUSH2 0x20 PUSH1 0x0 CODECOPY PUSH1 0x0 RETURN INVALID PUSH1 0x80 PUSH1 0x40 MSTORE CALLVALUE DUP1 ISZERO PUSH2 0x10 JUMPI PUSH1 0x0 DUP1 REVERT JUMPDEST POP PUSH1 0x4 CALLDATASIZE LT PUSH2 0x41 JUMPI PUSH1 0x0 CALLDATALOAD PUSH1 0xE0 SHR DUP1 PUSH4 0xEBBBFFC EQ PUSH2 0x46 JUMPI DUP1 PUSH4 0x3BF47215 EQ PUSH2 0x5B JUMPI DUP1 PUSH4 0xD024D9A4 EQ PUSH2 0x6E JUMPI JUMPDEST PUSH1 0x0 DUP1 REVERT JUMPDEST PUSH2 0x59 PUSH2 0x54 CALLDATASIZE PUSH1 0x4 PUSH2 0x149 JUMP JUMPDEST PUSH2 0x95 JUMP JUMPDEST STOP JUMPDEST PUSH2 0x59 PUSH2 0x69 CALLDATASIZE PUSH1 0x4 PUSH2 0x149 JUMP JUMPDEST PUSH2 0xE2 JUMP JUMPDEST PUSH2 0x81 PUSH2 0x7C CALLDATASIZE PUSH1 0x4 PUSH2 0x149 JUMP JUMPDEST PUSH2 0x12B JUMP JUMPDEST PUSH1 0x40 MLOAD SWAP1 ISZERO ISZERO DUP2 MSTORE PUSH1 0x20 ADD PUSH1 0x40 MLOAD DUP1 SWAP2 SUB SWAP1 RETURN JUMPDEST CALLER PUSH2 0x9F DUP2 PUSH2 0x12B JUMP JUMPDEST PUSH2 0xA8 JUMPI PUSH1 0x0 DUP1 REVERT JUMPDEST DUP2 PUSH2 0xB2 DUP2 PUSH2 0x12B JUMP JUMPDEST ISZERO PUSH2 0xBC JUMPI PUSH1 0x0 DUP1 REVERT JUMPDEST POP POP PUSH1 0x1 PUSH1 0x1 PUSH1 0xA0 SHL SUB AND PUSH1 0x0 SWAP1 DUP2 MSTORE PUSH1 0x20 DUP2 SWAP1 MSTORE PUSH1 0x40 SWAP1 KECCAK256 DUP1 SLOAD PUSH1 0xFF NOT AND PUSH1 0x1 OR SWAP1 SSTORE JUMP JUMPDEST DUP1 PUSH2 0xEC DUP2 PUSH2 0x12B JUMP JUMPDEST PUSH2 0xF5 JUMPI PUSH1 0x0 DUP1 REVERT JUMPDEST CALLER PUSH2 0xFF DUP2 PUSH2 0x12B JUMP JUMPDEST PUSH2 0x108 JUMPI PUSH1 0x0 DUP1 REVERT JUMPDEST POP POP PUSH1 0x1 PUSH1 0x1 PUSH1 0xA0 SHL SUB AND PUSH1 0x0 SWAP1 DUP2 MSTORE PUSH1 0x20 DUP2 SWAP1 MSTORE PUSH1 0x40 SWAP1 KECCAK256 DUP1 SLOAD PUSH1 0xFF NOT AND SWAP1 SSTORE JUMP JUMPDEST PUSH1 0x1 PUSH1 0x1 PUSH1 0xA0 SHL SUB AND PUSH1 0x0 SWAP1 DUP2 MSTORE PUSH1 0x20 DUP2 SWAP1 MSTORE PUSH1 0x40 SWAP1 KECCAK256 SLOAD PUSH1 0xFF AND SWAP1 JUMP JUMPDEST PUSH1 0x0 PUSH1 0x20 DUP3 DUP5 SUB SLT ISZERO PUSH2 0x15B JUMPI PUSH1 0x0 DUP1 REVERT JUMPDEST DUP2 CALLDATALOAD PUSH1 0x1 PUSH1 0x1 PUSH1 0xA0 SHL SUB DUP2 AND DUP2 EQ PUSH2 0x172 JUMPI PUSH1 0x0 DUP1 REVERT JUMPDEST SWAP4 SWAP3 POP POP POP JUMP INVALID LOG2 PUSH5 0x6970667358 0x22 SLT KECCAK256 DUP5 0xC9 0xE2 EXP DUP16 PUSH10 0x70A91089CF181ACB4C78 0xC5 SHR SLOAD PUSH17 0x6CEB6C193767D073B4A84C964736F6C63 NUMBER STOP ADDMOD GT STOP CALLER "},"methodIdentifiers":{"addIdentityServiceProvider(address)":"0ebbbffc","deleteIdentityServiceProvider(address)":"3bf47215","isIdentityServiceProvider(address)":"d024d9a4"}},"storageLayout":{"storage":[{"astId":743,"contract":"contracts/identity/AlastriaIdentityServiceProvider.sol:AlastriaIdentityServiceProvider","label":"providers","offset":0,"slot":"0","type":"t_mapping(t_address,t_bool)"}],"types":{"t_address":{"encoding":"inplace","label":"address","numberOfBytes":"20"},"t_bool":{"encoding":"inplace","label":"bool","numberOfBytes":"1"},"t_mapping(t_address,t_bool)":{"encoding":"mapping","key":"t_address","label":"mapping(address => bool)","numberOfBytes":"32","value":"t_bool"}}}}}}