{"contracts/identity/AlastriaIdentityIssuer.sol":{"AlastriaIdentityIssuer":{"abi":[{"inputs":[{"internalType":"address","name":"_identityIssuer","type":"address"},{"internalType":"enum Eidas.EidasLevel","name":"_level","type":"uint8"}],"name":"addIdentityIssuer","outputs":[],"stateMutability":"nonpayable","type":"function"},{"inputs":[{"internalType":"address","name":"_identityIssuer","type":"address"}],"name":"deleteIdentityIssuer","outputs":[],"stateMutability":"nonpayable","type":"function"},{"inputs":[{"internalType":"address","name":"_identityIssuer","type":"address"}],"name":"getEidasLevel","outputs":[{"internalType":"enum Eidas.EidasLevel","name":"","type":"uint8"}],"stateMutability":"view","type":"function"},{"inputs":[{"internalType":"address","name":"_identityIssuer","type":"address"}],"name":"isIdentityIssuer","outputs":[{"internalType":"bool","name":"","type":"bool"}],"stateMutability":"view","type":"function"},{"inputs":[{"internalType":"address","name":"_identityIssuer","type":"address"},{"internalType":"enum Eidas.EidasLevel","name":"_level","type":"uint8"}],"name":"updateIdentityIssuerEidasLevel","outputs":[],"stateMutability":"nonpayable","type":"function"}],"evm":{"bytecode":{"linkReferences":{},"object":"608060405234801561001057600080fd5b506103d0806100206000396000f3fe608060405234801561001057600080fd5b50600436106100575760003560e01c80630e5a4fbb1461005c578063449636101461009e5780636554adf0146100b3578063889776a8146100f4578063cb69159914610107575b600080fd5b61008861006a3660046102ff565b6001600160a01b031660009081526020819052604090205460ff1690565b6040516100959190610337565b60405180910390f35b6100b16100ac36600461035f565b61011a565b005b6100e46100c13660046102ff565b6001600160a01b0316600090815260208190526040902054610100900460ff1690565b6040519015158152602001610095565b6100b161010236600461035f565b6101a1565b6100b16101153660046102ff565b61025d565b8061013581600481111561013057610130610321565b6102a1565b61013e57600080fd5b33600081815260208190526040902054610100900460ff1661015f57600080fd5b6001600160a01b038416600090815260208190526040902080548490829060ff1916600183600481111561019557610195610321565b02179055505050505050565b806101b781600481111561013057610130610321565b6101c057600080fd5b6001600160a01b0383166000908152602081905260409020548390610100900460ff16156101ed57600080fd5b33600081815260208190526040902054610100900460ff1661020e57600080fd5b6001600160a01b038516600090815260208190526040902080548590829060ff1916600183600481111561024457610244610321565b0217905550805461ff0019166101001790555050505050565b33600081815260208190526040902054610100900460ff1661027e57600080fd5b506001600160a01b03166000908152602081905260409020805461ffff19169055565b60006102ae8260026102b4565b92915050565b60008160048111156102c8576102c8610321565b8360048111156102da576102da610321565b10159392505050565b80356001600160a01b03811681146102fa57600080fd5b919050565b60006020828403121561031157600080fd5b61031a826102e3565b9392505050565b634e487b7160e01b600052602160045260246000fd5b602081016005831061035957634e487b7160e01b600052602160045260246000fd5b91905290565b6000806040838503121561037257600080fd5b61037b836102e3565b915060208301356005811061038f57600080fd5b80915050925092905056fea264697066735822122038bf5a2d608bcb1656ac74ba44627f24662128301a3a2ae6b7df638cc15e27f964736f6c63430008110033","opcodes":"PUSH1 0x80 PUSH1 0x40 MSTORE CALLVALUE DUP1 ISZERO PUSH2 0x10 JUMPI PUSH1 0x0 DUP1 REVERT JUMPDEST POP PUSH2 0x3D0 DUP1 PUSH2 0x20 PUSH1 0x0 CODECOPY PUSH1 0x0 RETURN INVALID PUSH1 0x80 PUSH1 0x40 MSTORE CALLVALUE DUP1 ISZERO PUSH2 0x10 JUMPI PUSH1 0x0 DUP1 REVERT JUMPDEST POP PUSH1 0x4 CALLDATASIZE LT PUSH2 0x57 JUMPI PUSH1 0x0 CALLDATALOAD PUSH1 0xE0 SHR DUP1 PUSH4 0xE5A4FBB EQ PUSH2 0x5C JUMPI DUP1 PUSH4 0x44963610 EQ PUSH2 0x9E JUMPI DUP1 PUSH4 0x6554ADF0 EQ PUSH2 0xB3 JUMPI DUP1 PUSH4 0x889776A8 EQ PUSH2 0xF4 JUMPI DUP1 PUSH4 0xCB691599 EQ PUSH2 0x107 JUMPI JUMPDEST PUSH1 0x0 DUP1 REVERT JUMPDEST PUSH2 0x88 PUSH2 0x6A CALLDATASIZE PUSH1 0x4 PUSH2 0x2FF JUMP JUMPDEST PUSH1 0x1 PUSH1 0x1 PUSH1 0xA0 SHL SUB AND PUSH1 0x0 SWAP1 DUP2 MSTORE PUSH1 0x20 DUP2 SWAP1 MSTORE PUSH1 0x40 SWAP1 KECCAK256 SLOAD PUSH1 0xFF AND SWAP1 JUMP JUMPDEST PUSH1 0x40 MLOAD PUSH2 0x95 SWAP2 SWAP1 PUSH2 0x337 JUMP JUMPDEST PUSH1 0x40 MLOAD DUP1 SWAP2 SUB SWAP1 RETURN JUMPDEST PUSH2 0xB1 PUSH2 0xAC CALLDATASIZE PUSH1 0x4 PUSH2 0x35F JUMP JUMPDEST PUSH2 0x11A JUMP JUMPDEST STOP JUMPDEST PUSH2 0xE4 PUSH2 0xC1 CALLDATASIZE PUSH1 0x4 PUSH2 0x2FF JUMP JUMPDEST PUSH1 0x1 PUSH1 0x1 PUSH1 0xA0 SHL SUB AND PUSH1 0x0 SWAP1 DUP2 MSTORE PUSH1 0x20 DUP2 SWAP1 MSTORE PUSH1 0x40 SWAP1 KECCAK256 SLOAD PUSH2 0x100 SWAP1 DIV PUSH1 0xFF AND SWAP1 JUMP JUMPDEST PUSH1 0x40 MLOAD SWAP1 ISZERO ISZERO DUP2 MSTORE PUSH1 0x20 ADD PUSH2 0x95 JUMP JUMPDEST PUSH2 0xB1 PUSH2 0x102 CALLDATASIZE PUSH1 0x4 PUSH2 0x35F JUMP JUMPDEST PUSH2 0x1A1 JUMP JUMPDEST PUSH2 0xB1 PUSH2 0x115 CALLDATASIZE PUSH1 0x4 PUSH2 0x2FF JUMP JUMPDEST PUSH2 0x25D JUMP JUMPDEST DUP1 PUSH2 0x135 DUP2 PUSH1 0x4 DUP2 GT ISZERO PUSH2 0x130 JUMPI PUSH2 0x130 PUSH2 0x321 JUMP JUMPDEST PUSH2 0x2A1 JUMP JUMPDEST PUSH2 0x13E JUMPI PUSH1 0x0 DUP1 REVERT JUMPDEST CALLER PUSH1 0x0 DUP2 DUP2 MSTORE PUSH1 0x20 DUP2 SWAP1 MSTORE PUSH1 0x40 SWAP1 KECCAK256 SLOAD PUSH2 0x100 SWAP1 DIV PUSH1 0xFF AND PUSH2 0x15F JUMPI PUSH1 0x0 DUP1 REVERT JUMPDEST PUSH1 0x1 PUSH1 0x1 PUSH1 0xA0 SHL SUB DUP5 AND PUSH1 0x0 SWAP1 DUP2 MSTORE PUSH1 0x20 DUP2 SWAP1 MSTORE PUSH1 0x40 SWAP1 KECCAK256 DUP1 SLOAD DUP5 SWAP1 DUP3 SWAP1 PUSH1 0xFF NOT AND PUSH1 0x1 DUP4 PUSH1 0x4 DUP2 GT ISZERO PUSH2 0x195 JUMPI PUSH2 0x195 PUSH2 0x321 JUMP JUMPDEST MUL OR SWAP1 SSTORE POP POP POP POP POP POP JUMP JUMPDEST DUP1 PUSH2 0x1B7 DUP2 PUSH1 0x4 DUP2 GT ISZERO PUSH2 0x130 JUMPI PUSH2 0x130 PUSH2 0x321 JUMP JUMPDEST PUSH2 0x1C0 JUMPI PUSH1 0x0 DUP1 REVERT JUMPDEST PUSH1 0x1 PUSH1 0x1 PUSH1 0xA0 SHL SUB DUP4 AND PUSH1 0x0 SWAP1 DUP2 MSTORE PUSH1 0x20 DUP2 SWAP1 MSTORE PUSH1 0x40 SWAP1 KECCAK256 SLOAD DUP4 SWAP1 PUSH2 0x100 SWAP1 DIV PUSH1 0xFF AND ISZERO PUSH2 0x1ED JUMPI PUSH1 0x0 DUP1 REVERT JUMPDEST CALLER PUSH1 0x0 DUP2 DUP2 MSTORE PUSH1 0x20 DUP2 SWAP1 MSTORE PUSH1 0x40 SWAP1 KECCAK256 SLOAD PUSH2 0x100 SWAP1 DIV PUSH1 0xFF AND PUSH2 0x20E JUMPI PUSH1 0x0 DUP1 REVERT JUMPDEST PUSH1 0x1 PUSH1 0x1 PUSH1 0xA0 SHL SUB DUP6 AND PUSH1 0x0 SWAP1 DUP2 MSTORE PUSH1 0x20 DUP2 SWAP1 MSTORE PUSH1 0x40 SWAP1 KECCAK256 DUP1 SLOAD DUP6 SWAP1 DUP3 SWAP1 PUSH1 0xFF NOT AND PUSH1 0x1 DUP4 PUSH1 0x4 DUP2 GT ISZERO PUSH2 0x244 JUMPI PUSH2 0x244 PUSH2 0x321 JUMP JUMPDEST MUL OR SWAP1 SSTORE POP DUP1 SLOAD PUSH2 0xFF00 NOT AND PUSH2 0x100 OR SWAP1 SSTORE POP POP POP POP POP JUMP JUMPDEST CALLER PUSH1 0x0 DUP2 DUP2 MSTORE PUSH1 0x20 DUP2 SWAP1 MSTORE PUSH1 0x40 SWAP1 KECCAK256 SLOAD PUSH2 0x100 SWAP1 DIV PUSH1 0xFF AND PUSH2 0x27E JUMPI PUSH1 0x0 DUP1 REVERT JUMPDEST POP PUSH1 0x1 PUSH1 0x1 PUSH1 0xA0 SHL SUB AND PUSH1 0x0 SWAP1 DUP2 MSTORE PUSH1 0x20 DUP2 SWAP1 MSTORE PUSH1 0x40 SWAP1 KECCAK256 DUP1 SLOAD PUSH2 0xFFFF NOT AND SWAP1 SSTORE JUMP JUMPDEST PUSH1 0x0 PUSH2 0x2AE DUP3 PUSH1 0x2 PUSH2 0x2B4 JUMP JUMPDEST SWAP3 SWAP2 POP POP JUMP JUMPDEST PUSH1 0x0 DUP2 PUSH1 0x4 DUP2 GT ISZERO PUSH2 0x2C8 JUMPI PUSH2 0x2C8 PUSH2 0x321 JUMP JUMPDEST DUP4 PUSH1 0x4 DUP2 GT ISZERO PUSH2 0x2DA JUMPI PUSH2 0x2DA PUSH2 0x321 JUMP JUMPDEST LT ISZERO SWAP4 SWAP3 POP POP POP JUMP JUMPDEST DUP1 CALLDATALOAD PUSH1 0x1 PUSH1 0x1 PUSH1 0xA0 SHL SUB DUP2 AND DUP2 EQ PUSH2 0x2FA JUMPI PUSH1 0x0 DUP1 REVERT JUMPDEST SWAP2 SWAP1 POP JUMP JUMPDEST PUSH1 0x0 PUSH1 0x20 DUP3 DUP5 SUB SLT ISZERO PUSH2 0x311 JUMPI PUSH1 0x0 DUP1 REVERT JUMPDEST PUSH2 0x31A DUP3 PUSH2 0x2E3 JUMP JUMPDEST SWAP4 SWAP3 POP POP POP JUMP JUMPDEST PUSH4 0x4E487B71 PUSH1 0xE0 SHL PUSH1 0x0 MSTORE PUSH1 0x21 PUSH1 0x4 MSTORE PUSH1 0x24 PUSH1 0x0 REVERT JUMPDEST PUSH1 0x20 DUP2 ADD PUSH1 0x5 DUP4 LT PUSH2 0x359 JUMPI PUSH4 0x4E487B71 PUSH1 0xE0 SHL PUSH1 0x0 MSTORE PUSH1 0x21 PUSH1 0x4 MSTORE PUSH1 0x24 PUSH1 0x0 REVERT JUMPDEST SWAP2 SWAP1 MSTORE SWAP1 JUMP JUMPDEST PUSH1 0x0 DUP1 PUSH1 0x40 DUP4 DUP6 SUB SLT ISZERO PUSH2 0x372 JUMPI PUSH1 0x0 DUP1 REVERT JUMPDEST PUSH2 0x37B DUP4 PUSH2 0x2E3 JUMP JUMPDEST SWAP2 POP PUSH1 0x20 DUP4 ADD CALLDATALOAD PUSH1 0x5 DUP2 LT PUSH2 0x38F JUMPI PUSH1 0x0 DUP1 REVERT JUMPDEST DUP1 SWAP2 POP POP SWAP3 POP SWAP3 SWAP1 POP JUMP INVALID LOG2 PUSH5 0x6970667358 0x22 SLT KECCAK256 CODESIZE 0xBF GAS 0x2D PUSH1 0x8B 0xCB AND JUMP 0xAC PUSH21 0xBA44627F24662128301A3A2AE6B7DF638CC15E27F9 PUSH5 0x736F6C6343 STOP ADDMOD GT STOP CALLER "},"methodIdentifiers":{"addIdentityIssuer(address,uint8)":"889776a8","deleteIdentityIssuer(address)":"cb691599","getEidasLevel(address)":"0e5a4fbb","isIdentityIssuer(address)":"6554adf0","updateIdentityIssuerEidasLevel(address,uint8)":"44963610"}},"storageLayout":{"storage":[{"astId":127,"contract":"contracts/identity/AlastriaIdentityIssuer.sol:AlastriaIdentityIssuer","label":"issuers","offset":0,"slot":"0","type":"t_mapping(t_address,t_struct(IdentityIssuer)122_storage)"}],"types":{"t_address":{"encoding":"inplace","label":"address","numberOfBytes":"20"},"t_bool":{"encoding":"inplace","label":"bool","numberOfBytes":"1"},"t_enum(EidasLevel)900":{"encoding":"inplace","label":"enum Eidas.EidasLevel","numberOfBytes":"1"},"t_mapping(t_address,t_struct(IdentityIssuer)122_storage)":{"encoding":"mapping","key":"t_address","label":"mapping(address => struct AlastriaIdentityIssuer.IdentityIssuer)","numberOfBytes":"32","value":"t_struct(IdentityIssuer)122_storage"},"t_struct(IdentityIssuer)122_storage":{"encoding":"inplace","label":"struct AlastriaIdentityIssuer.IdentityIssuer","members":[{"astId":119,"contract":"contracts/identity/AlastriaIdentityIssuer.sol:AlastriaIdentityIssuer","label":"level","offset":0,"slot":"0","type":"t_enum(EidasLevel)900"},{"astId":121,"contract":"contracts/identity/AlastriaIdentityIssuer.sol:AlastriaIdentityIssuer","label":"active","offset":1,"slot":"0","type":"t_bool"}],"numberOfBytes":"32"}}}}}}