{"contracts/registries/AlastriaPublicKeyRegistry.sol":{"AlastriaPublicKeyRegistry":{"abi":[{"anonymous":false,"inputs":[{"indexed":false,"internalType":"uint8","name":"version","type":"uint8"}],"name":"Initialized","type":"event"},{"anonymous":false,"inputs":[{"indexed":false,"internalType":"string","name":"publicKey","type":"string"}],"name":"PublicKeyDeleted","type":"event"},{"anonymous":false,"inputs":[{"indexed":false,"internalType":"bytes32","name":"publicKeyHash","type":"bytes32"}],"name":"PublicKeyDeleted","type":"event"},{"anonymous":false,"inputs":[{"indexed":false,"internalType":"string","name":"publicKey","type":"string"}],"name":"PublicKeyRevoked","type":"event"},{"anonymous":false,"inputs":[{"indexed":false,"internalType":"bytes32","name":"publicKeyHash","type":"bytes32"}],"name":"PublicKeyRevoked","type":"event"},{"inputs":[{"internalType":"string","name":"publicKey","type":"string"}],"name":"addKey","outputs":[],"stateMutability":"nonpayable","type":"function"},{"inputs":[{"internalType":"bytes32","name":"publicKeyHash","type":"bytes32"}],"name":"addPublicKey","outputs":[],"stateMutability":"nonpayable","type":"function"},{"inputs":[{"internalType":"bytes32","name":"publicKeyHash","type":"bytes32"}],"name":"deletePublicKey","outputs":[],"stateMutability":"nonpayable","type":"function"},{"inputs":[{"internalType":"string","name":"publicKey","type":"string"}],"name":"deletePublicKey","outputs":[],"stateMutability":"nonpayable","type":"function"},{"inputs":[{"internalType":"address","name":"subject","type":"address"}],"name":"getCurrentPublicKey","outputs":[{"internalType":"string","name":"","type":"string"}],"stateMutability":"view","type":"function"},{"inputs":[{"internalType":"address","name":"subject","type":"address"},{"internalType":"bytes32","name":"publicKeyHash","type":"bytes32"}],"name":"getPublicKeyStatus","outputs":[{"internalType":"bool","name":"exists","type":"bool"},{"internalType":"enum AlastriaPublicKeyRegistry.Status","name":"status","type":"uint8"},{"internalType":"uint256","name":"startDate","type":"uint256"},{"internalType":"uint256","name":"endDate","type":"uint256"}],"stateMutability":"view","type":"function"},{"inputs":[{"internalType":"address","name":"_previousPublishedVersion","type":"address"}],"name":"initialize","outputs":[],"stateMutability":"nonpayable","type":"function"},{"inputs":[],"name":"previousPublishedVersion","outputs":[{"internalType":"address","name":"","type":"address"}],"stateMutability":"view","type":"function"},{"inputs":[{"internalType":"address","name":"","type":"address"},{"internalType":"uint256","name":"","type":"uint256"}],"name":"publicKeyList","outputs":[{"internalType":"string","name":"","type":"string"}],"stateMutability":"view","type":"function"},{"inputs":[{"internalType":"bytes32","name":"publicKeyHash","type":"bytes32"}],"name":"revokePublicKey","outputs":[],"stateMutability":"nonpayable","type":"function"},{"inputs":[{"internalType":"string","name":"publicKey","type":"string"}],"name":"revokePublicKey","outputs":[],"stateMutability":"nonpayable","type":"function"},{"inputs":[],"name":"version","outputs":[{"internalType":"int256","name":"","type":"int256"}],"stateMutability":"view","type":"function"}],"evm":{"bytecode":{"linkReferences":{},"object":"608060405234801561001057600080fd5b50610d77806100206000396000f3fe608060405234801561001057600080fd5b50600436106100b45760003560e01c80636104464f116100715780636104464f146101575780639e2fe0e914610182578063a8c5916914610195578063c000ceee146101a8578063c4d66de8146101bb578063d16df8ec146101ce57600080fd5b80631226f6a5146100b95780631993b4f9146100e557806331f7f259146100fa578063362419621461011a57806350382c1a1461012d57806354fd4d5014610140575b600080fd5b6100cc6100c73660046109cb565b6101e1565b6040516100dc9493929190610a0b565b60405180910390f35b6100f86100f3366004610a4d565b6102b1565b005b61010d610108366004610a66565b610321565b6040516100dc9190610aac565b6100f8610128366004610af5565b61043e565b6100f861013b366004610af5565b6104b7565b61014960015481565b6040519081526020016100dc565b60025461016a906001600160a01b031681565b6040516001600160a01b0390911681526020016100dc565b6100f8610190366004610a4d565b6105cf565b6100f86101a3366004610a4d565b610690565b61010d6101b63660046109cb565b610711565b6100f86101c9366004610a66565b6107ca565b6100f86101dc366004610af5565b6108ec565b6000808080856001600160a01b0381166101fa57600080fd5b6001600160a01b038716600090815260036020908152604080832089845290915290205460ff1661026a5760405162461bcd60e51b81526020600482015260156024820152745075626c6963204b6579206e6f742065786973747360581b60448201526064015b60405180910390fd5b505050506001600160a01b03929092166000908152600360209081526040808320938352929052208054600182015460029092015460ff8083169561010090930416935090565b3360009081526003602090815260408083208484529091529020805460ff161561031d57805461ff0019166101001781554260028201556040518281527fc7a155c4482b9b68d8c683396c4c1c6ec3303f39766ae7d6ccc88272b7f5b651906020015b60405180910390a15b5050565b6060816001600160a01b03811661033757600080fd5b6001600160a01b03831660009081526004602052604090205415610425576001600160a01b0383166000908152600460205260409020805461037b90600190610ba6565b8154811061038b5761038b610bcd565b9060005260206000200180546103a090610be3565b80601f01602080910402602001604051908101604052809291908181526020018280546103cc90610be3565b80156104195780601f106103ee57610100808354040283529160200191610419565b820191906000526020600020905b8154815290600101906020018083116103fc57829003601f168201915b50505050509150610438565b6040518060200160405280600081525091505b50919050565b336000908152600360205260408120816104578461097f565b81526020810191909152604001600020805490915060ff161561031d57805461ff0019166101001781554260028201556040517f590ada3b231515dd26dca05728f31024554fc0eca9ef33aa1d623bc4d7d5fd5090610314908490610aac565b336000908152600360205260408120906104d08361097f565b815260208101919091526040016000205460ff16156104ee57600080fd5b426104fb6101dc33610321565b604080516080810182526001815260006020808301829052828401859052606083018290523382526003905291822090916105358561097f565b81526020808201929092526040016000208251815490151560ff19821681178355928401519192839161ff001990911661ffff1990911617610100836001811115610582576105826109f5565b02179055506040828101516001808401919091556060909301516002909201919091553360009081526004602090815291812080549384018155815220016105ca8382610c65565b505050565b33600090815260036020908152604080832084845290915290205460ff16156105f757600080fd5b60408051608081019091526001815242906020810160008152602080820184905260006040928301819052338152600382528281208682528252919091208251815490151560ff19821681178355928401519192839161ff001990911661ffff1990911617610100836001811115610671576106716109f5565b0217905550604082015160018201556060909101516002909101555050565b3360009081526003602090815260408083208484529091529020805460ff1680156106d6575060018154610100900460ff1660018111156106d3576106d36109f5565b14155b1561031d574260028201556040518281527fe23e76c154822a25bd6dd330dcf4f1998f97c4c45cd64ecac9e096f56c2511f790602001610314565b6004602052816000526040600020818154811061072d57600080fd5b9060005260206000200160009150915050805461074990610be3565b80601f016020809104026020016040519081016040528092919081815260200182805461077590610be3565b80156107c25780601f10610797576101008083540402835291602001916107c2565b820191906000526020600020905b8154815290600101906020018083116107a557829003601f168201915b505050505081565b600054610100900460ff16158080156107ea5750600054600160ff909116105b806108045750303b158015610804575060005460ff166001145b6108675760405162461bcd60e51b815260206004820152602e60248201527f496e697469616c697a61626c653a20636f6e747261637420697320616c72656160448201526d191e481a5b9a5d1a585b1a5e995960921b6064820152608401610261565b6000805460ff19166001179055801561088a576000805461ff0019166101001790555b6004600155600280546001600160a01b0319166001600160a01b038416179055801561031d576000805461ff0019169055604051600181527f7f26b83ff96e1f2b6a682f133852f6798a09c465da95921460cefb384740249890602001610314565b336000908152600360205260408120816109058461097f565b81526020810191909152604001600020805490915060ff168015610944575060018154610100900460ff166001811115610941576109416109f5565b14155b1561031d574260028201556040517f41d9cf228775966745bd16590f046aff534ab47ea15fc80127ddae02abc8bf3490610314908490610aac565b6000816040516020016109929190610d25565b604051602081830303815290604052805190602001209050919050565b80356001600160a01b03811681146109c657600080fd5b919050565b600080604083850312156109de57600080fd5b6109e7836109af565b946020939093013593505050565b634e487b7160e01b600052602160045260246000fd5b84151581526080810160028510610a3257634e487b7160e01b600052602160045260246000fd5b84602083015283604083015282606083015295945050505050565b600060208284031215610a5f57600080fd5b5035919050565b600060208284031215610a7857600080fd5b610a81826109af565b9392505050565b60005b83811015610aa3578181015183820152602001610a8b565b50506000910152565b6020815260008251806020840152610acb816040850160208701610a88565b601f01601f19169190910160400192915050565b634e487b7160e01b600052604160045260246000fd5b600060208284031215610b0757600080fd5b813567ffffffffffffffff80821115610b1f57600080fd5b818401915084601f830112610b3357600080fd5b813581811115610b4557610b45610adf565b604051601f8201601f19908116603f01168101908382118183101715610b6d57610b6d610adf565b81604052828152876020848701011115610b8657600080fd5b826020860160208301376000928101602001929092525095945050505050565b81810381811115610bc757634e487b7160e01b600052601160045260246000fd5b92915050565b634e487b7160e01b600052603260045260246000fd5b600181811c90821680610bf757607f821691505b60208210810361043857634e487b7160e01b600052602260045260246000fd5b601f8211156105ca57600081815260208120601f850160051c81016020861015610c3e5750805b601f850160051c820191505b81811015610c5d57828155600101610c4a565b505050505050565b815167ffffffffffffffff811115610c7f57610c7f610adf565b610c9381610c8d8454610be3565b84610c17565b602080601f831160018114610cc85760008415610cb05750858301515b600019600386901b1c1916600185901b178555610c5d565b600085815260208120601f198616915b82811015610cf757888601518255948401946001909101908401610cd8565b5085821015610d155787850151600019600388901b60f8161c191681555b5050505050600190811b01905550565b60008251610d37818460208701610a88565b919091019291505056fea26469706673582212202d4a371973337f0796c0434401b9433ade3afe2c6834f9de1a3663f488734f2664736f6c63430008110033","opcodes":"PUSH1 0x80 PUSH1 0x40 MSTORE CALLVALUE DUP1 ISZERO PUSH2 0x10 JUMPI PUSH1 0x0 DUP1 REVERT JUMPDEST POP PUSH2 0xD77 DUP1 PUSH2 0x20 PUSH1 0x0 CODECOPY PUSH1 0x0 RETURN INVALID PUSH1 0x80 PUSH1 0x40 MSTORE CALLVALUE DUP1 ISZERO PUSH2 0x10 JUMPI PUSH1 0x0 DUP1 REVERT JUMPDEST POP PUSH1 0x4 CALLDATASIZE LT PUSH2 0xB4 JUMPI PUSH1 0x0 CALLDATALOAD PUSH1 0xE0 SHR DUP1 PUSH4 0x6104464F GT PUSH2 0x71 JUMPI DUP1 PUSH4 0x6104464F EQ PUSH2 0x157 JUMPI DUP1 PUSH4 0x9E2FE0E9 EQ PUSH2 0x182 JUMPI DUP1 PUSH4 0xA8C59169 EQ PUSH2 0x195 JUMPI DUP1 PUSH4 0xC000CEEE EQ PUSH2 0x1A8 JUMPI DUP1 PUSH4 0xC4D66DE8 EQ PUSH2 0x1BB JUMPI DUP1 PUSH4 0xD16DF8EC EQ PUSH2 0x1CE JUMPI PUSH1 0x0 DUP1 REVERT JUMPDEST DUP1 PUSH4 0x1226F6A5 EQ PUSH2 0xB9 JUMPI DUP1 PUSH4 0x1993B4F9 EQ PUSH2 0xE5 JUMPI DUP1 PUSH4 0x31F7F259 EQ PUSH2 0xFA JUMPI DUP1 PUSH4 0x36241962 EQ PUSH2 0x11A JUMPI DUP1 PUSH4 0x50382C1A EQ PUSH2 0x12D JUMPI DUP1 PUSH4 0x54FD4D50 EQ PUSH2 0x140 JUMPI JUMPDEST PUSH1 0x0 DUP1 REVERT JUMPDEST PUSH2 0xCC PUSH2 0xC7 CALLDATASIZE PUSH1 0x4 PUSH2 0x9CB JUMP JUMPDEST PUSH2 0x1E1 JUMP JUMPDEST PUSH1 0x40 MLOAD PUSH2 0xDC SWAP5 SWAP4 SWAP3 SWAP2 SWAP1 PUSH2 0xA0B JUMP JUMPDEST PUSH1 0x40 MLOAD DUP1 SWAP2 SUB SWAP1 RETURN JUMPDEST PUSH2 0xF8 PUSH2 0xF3 CALLDATASIZE PUSH1 0x4 PUSH2 0xA4D JUMP JUMPDEST PUSH2 0x2B1 JUMP JUMPDEST STOP JUMPDEST PUSH2 0x10D PUSH2 0x108 CALLDATASIZE PUSH1 0x4 PUSH2 0xA66 JUMP JUMPDEST PUSH2 0x321 JUMP JUMPDEST PUSH1 0x40 MLOAD PUSH2 0xDC SWAP2 SWAP1 PUSH2 0xAAC JUMP JUMPDEST PUSH2 0xF8 PUSH2 0x128 CALLDATASIZE PUSH1 0x4 PUSH2 0xAF5 JUMP JUMPDEST PUSH2 0x43E JUMP JUMPDEST PUSH2 0xF8 PUSH2 0x13B CALLDATASIZE PUSH1 0x4 PUSH2 0xAF5 JUMP JUMPDEST PUSH2 0x4B7 JUMP JUMPDEST PUSH2 0x149 PUSH1 0x1 SLOAD DUP2 JUMP JUMPDEST PUSH1 0x40 MLOAD SWAP1 DUP2 MSTORE PUSH1 0x20 ADD PUSH2 0xDC JUMP JUMPDEST PUSH1 0x2 SLOAD PUSH2 0x16A SWAP1 PUSH1 0x1 PUSH1 0x1 PUSH1 0xA0 SHL SUB AND DUP2 JUMP JUMPDEST PUSH1 0x40 MLOAD PUSH1 0x1 PUSH1 0x1 PUSH1 0xA0 SHL SUB SWAP1 SWAP2 AND DUP2 MSTORE PUSH1 0x20 ADD PUSH2 0xDC JUMP JUMPDEST PUSH2 0xF8 PUSH2 0x190 CALLDATASIZE PUSH1 0x4 PUSH2 0xA4D JUMP JUMPDEST PUSH2 0x5CF JUMP JUMPDEST PUSH2 0xF8 PUSH2 0x1A3 CALLDATASIZE PUSH1 0x4 PUSH2 0xA4D JUMP JUMPDEST PUSH2 0x690 JUMP JUMPDEST PUSH2 0x10D PUSH2 0x1B6 CALLDATASIZE PUSH1 0x4 PUSH2 0x9CB JUMP JUMPDEST PUSH2 0x711 JUMP JUMPDEST PUSH2 0xF8 PUSH2 0x1C9 CALLDATASIZE PUSH1 0x4 PUSH2 0xA66 JUMP JUMPDEST PUSH2 0x7CA JUMP JUMPDEST PUSH2 0xF8 PUSH2 0x1DC CALLDATASIZE PUSH1 0x4 PUSH2 0xAF5 JUMP JUMPDEST PUSH2 0x8EC JUMP JUMPDEST PUSH1 0x0 DUP1 DUP1 DUP1 DUP6 PUSH1 0x1 PUSH1 0x1 PUSH1 0xA0 SHL SUB DUP2 AND PUSH2 0x1FA JUMPI PUSH1 0x0 DUP1 REVERT JUMPDEST PUSH1 0x1 PUSH1 0x1 PUSH1 0xA0 SHL SUB DUP8 AND PUSH1 0x0 SWAP1 DUP2 MSTORE PUSH1 0x3 PUSH1 0x20 SWAP1 DUP2 MSTORE PUSH1 0x40 DUP1 DUP4 KECCAK256 DUP10 DUP5 MSTORE SWAP1 SWAP2 MSTORE SWAP1 KECCAK256 SLOAD PUSH1 0xFF AND PUSH2 0x26A JUMPI PUSH1 0x40 MLOAD PUSH3 0x461BCD PUSH1 0xE5 SHL DUP2 MSTORE PUSH1 0x20 PUSH1 0x4 DUP3 ADD MSTORE PUSH1 0x15 PUSH1 0x24 DUP3 ADD MSTORE PUSH21 0x5075626C6963204B6579206E6F7420657869737473 PUSH1 0x58 SHL PUSH1 0x44 DUP3 ADD MSTORE PUSH1 0x64 ADD JUMPDEST PUSH1 0x40 MLOAD DUP1 SWAP2 SUB SWAP1 REVERT JUMPDEST POP POP POP POP PUSH1 0x1 PUSH1 0x1 PUSH1 0xA0 SHL SUB SWAP3 SWAP1 SWAP3 AND PUSH1 0x0 SWAP1 DUP2 MSTORE PUSH1 0x3 PUSH1 0x20 SWAP1 DUP2 MSTORE PUSH1 0x40 DUP1 DUP4 KECCAK256 SWAP4 DUP4 MSTORE SWAP3 SWAP1 MSTORE KECCAK256 DUP1 SLOAD PUSH1 0x1 DUP3 ADD SLOAD PUSH1 0x2 SWAP1 SWAP3 ADD SLOAD PUSH1 0xFF DUP1 DUP4 AND SWAP6 PUSH2 0x100 SWAP1 SWAP4 DIV AND SWAP4 POP SWAP1 JUMP JUMPDEST CALLER PUSH1 0x0 SWAP1 DUP2 MSTORE PUSH1 0x3 PUSH1 0x20 SWAP1 DUP2 MSTORE PUSH1 0x40 DUP1 DUP4 KECCAK256 DUP5 DUP5 MSTORE SWAP1 SWAP2 MSTORE SWAP1 KECCAK256 DUP1 SLOAD PUSH1 0xFF AND ISZERO PUSH2 0x31D JUMPI DUP1 SLOAD PUSH2 0xFF00 NOT AND PUSH2 0x100 OR DUP2 SSTORE TIMESTAMP PUSH1 0x2 DUP3 ADD SSTORE PUSH1 0x40 MLOAD DUP3 DUP2 MSTORE PUSH32 0xC7A155C4482B9B68D8C683396C4C1C6EC3303F39766AE7D6CCC88272B7F5B651 SWAP1 PUSH1 0x20 ADD JUMPDEST PUSH1 0x40 MLOAD DUP1 SWAP2 SUB SWAP1 LOG1 JUMPDEST POP POP JUMP JUMPDEST PUSH1 0x60 DUP2 PUSH1 0x1 PUSH1 0x1 PUSH1 0xA0 SHL SUB DUP2 AND PUSH2 0x337 JUMPI PUSH1 0x0 DUP1 REVERT JUMPDEST PUSH1 0x1 PUSH1 0x1 PUSH1 0xA0 SHL SUB DUP4 AND PUSH1 0x0 SWAP1 DUP2 MSTORE PUSH1 0x4 PUSH1 0x20 MSTORE PUSH1 0x40 SWAP1 KECCAK256 SLOAD ISZERO PUSH2 0x425 JUMPI PUSH1 0x1 PUSH1 0x1 PUSH1 0xA0 SHL SUB DUP4 AND PUSH1 0x0 SWAP1 DUP2 MSTORE PUSH1 0x4 PUSH1 0x20 MSTORE PUSH1 0x40 SWAP1 KECCAK256 DUP1 SLOAD PUSH2 0x37B SWAP1 PUSH1 0x1 SWAP1 PUSH2 0xBA6 JUMP JUMPDEST DUP2 SLOAD DUP2 LT PUSH2 0x38B JUMPI PUSH2 0x38B PUSH2 0xBCD JUMP JUMPDEST SWAP1 PUSH1 0x0 MSTORE PUSH1 0x20 PUSH1 0x0 KECCAK256 ADD DUP1 SLOAD PUSH2 0x3A0 SWAP1 PUSH2 0xBE3 JUMP JUMPDEST DUP1 PUSH1 0x1F ADD PUSH1 0x20 DUP1 SWAP2 DIV MUL PUSH1 0x20 ADD PUSH1 0x40 MLOAD SWAP1 DUP2 ADD PUSH1 0x40 MSTORE DUP1 SWAP3 SWAP2 SWAP1 DUP2 DUP2 MSTORE PUSH1 0x20 ADD DUP3 DUP1 SLOAD PUSH2 0x3CC SWAP1 PUSH2 0xBE3 JUMP JUMPDEST DUP1 ISZERO PUSH2 0x419 JUMPI DUP1 PUSH1 0x1F LT PUSH2 0x3EE JUMPI PUSH2 0x100 DUP1 DUP4 SLOAD DIV MUL DUP4 MSTORE SWAP2 PUSH1 0x20 ADD SWAP2 PUSH2 0x419 JUMP JUMPDEST DUP3 ADD SWAP2 SWAP1 PUSH1 0x0 MSTORE PUSH1 0x20 PUSH1 0x0 KECCAK256 SWAP1 JUMPDEST DUP2 SLOAD DUP2 MSTORE SWAP1 PUSH1 0x1 ADD SWAP1 PUSH1 0x20 ADD DUP1 DUP4 GT PUSH2 0x3FC JUMPI DUP3 SWAP1 SUB PUSH1 0x1F AND DUP3 ADD SWAP2 JUMPDEST POP POP POP POP POP SWAP2 POP PUSH2 0x438 JUMP JUMPDEST PUSH1 0x40 MLOAD DUP1 PUSH1 0x20 ADD PUSH1 0x40 MSTORE DUP1 PUSH1 0x0 DUP2 MSTORE POP SWAP2 POP JUMPDEST POP SWAP2 SWAP1 POP JUMP JUMPDEST CALLER PUSH1 0x0 SWAP1 DUP2 MSTORE PUSH1 0x3 PUSH1 0x20 MSTORE PUSH1 0x40 DUP2 KECCAK256 DUP2 PUSH2 0x457 DUP5 PUSH2 0x97F JUMP JUMPDEST DUP2 MSTORE PUSH1 0x20 DUP2 ADD SWAP2 SWAP1 SWAP2 MSTORE PUSH1 0x40 ADD PUSH1 0x0 KECCAK256 DUP1 SLOAD SWAP1 SWAP2 POP PUSH1 0xFF AND ISZERO PUSH2 0x31D JUMPI DUP1 SLOAD PUSH2 0xFF00 NOT AND PUSH2 0x100 OR DUP2 SSTORE TIMESTAMP PUSH1 0x2 DUP3 ADD SSTORE PUSH1 0x40 MLOAD PUSH32 0x590ADA3B231515DD26DCA05728F31024554FC0ECA9EF33AA1D623BC4D7D5FD50 SWAP1 PUSH2 0x314 SWAP1 DUP5 SWAP1 PUSH2 0xAAC JUMP JUMPDEST CALLER PUSH1 0x0 SWAP1 DUP2 MSTORE PUSH1 0x3 PUSH1 0x20 MSTORE PUSH1 0x40 DUP2 KECCAK256 SWAP1 PUSH2 0x4D0 DUP4 PUSH2 0x97F JUMP JUMPDEST DUP2 MSTORE PUSH1 0x20 DUP2 ADD SWAP2 SWAP1 SWAP2 MSTORE PUSH1 0x40 ADD PUSH1 0x0 KECCAK256 SLOAD PUSH1 0xFF AND ISZERO PUSH2 0x4EE JUMPI PUSH1 0x0 DUP1 REVERT JUMPDEST TIMESTAMP PUSH2 0x4FB PUSH2 0x1DC CALLER PUSH2 0x321 JUMP JUMPDEST PUSH1 0x40 DUP1 MLOAD PUSH1 0x80 DUP2 ADD DUP3 MSTORE PUSH1 0x1 DUP2 MSTORE PUSH1 0x0 PUSH1 0x20 DUP1 DUP4 ADD DUP3 SWAP1 MSTORE DUP3 DUP5 ADD DUP6 SWAP1 MSTORE PUSH1 0x60 DUP4 ADD DUP3 SWAP1 MSTORE CALLER DUP3 MSTORE PUSH1 0x3 SWAP1 MSTORE SWAP2 DUP3 KECCAK256 SWAP1 SWAP2 PUSH2 0x535 DUP6 PUSH2 0x97F JUMP JUMPDEST DUP2 MSTORE PUSH1 0x20 DUP1 DUP3 ADD SWAP3 SWAP1 SWAP3 MSTORE PUSH1 0x40 ADD PUSH1 0x0 KECCAK256 DUP3 MLOAD DUP2 SLOAD SWAP1 ISZERO ISZERO PUSH1 0xFF NOT DUP3 AND DUP2 OR DUP4 SSTORE SWAP3 DUP5 ADD MLOAD SWAP2 SWAP3 DUP4 SWAP2 PUSH2 0xFF00 NOT SWAP1 SWAP2 AND PUSH2 0xFFFF NOT SWAP1 SWAP2 AND OR PUSH2 0x100 DUP4 PUSH1 0x1 DUP2 GT ISZERO PUSH2 0x582 JUMPI PUSH2 0x582 PUSH2 0x9F5 JUMP JUMPDEST MUL OR SWAP1 SSTORE POP PUSH1 0x40 DUP3 DUP2 ADD MLOAD PUSH1 0x1 DUP1 DUP5 ADD SWAP2 SWAP1 SWAP2 SSTORE PUSH1 0x60 SWAP1 SWAP4 ADD MLOAD PUSH1 0x2 SWAP1 SWAP3 ADD SWAP2 SWAP1 SWAP2 SSTORE CALLER PUSH1 0x0 SWAP1 DUP2 MSTORE PUSH1 0x4 PUSH1 0x20 SWAP1 DUP2 MSTORE SWAP2 DUP2 KECCAK256 DUP1 SLOAD SWAP4 DUP5 ADD DUP2 SSTORE DUP2 MSTORE KECCAK256 ADD PUSH2 0x5CA DUP4 DUP3 PUSH2 0xC65 JUMP JUMPDEST POP POP POP JUMP JUMPDEST CALLER PUSH1 0x0 SWAP1 DUP2 MSTORE PUSH1 0x3 PUSH1 0x20 SWAP1 DUP2 MSTORE PUSH1 0x40 DUP1 DUP4 KECCAK256 DUP5 DUP5 MSTORE SWAP1 SWAP2 MSTORE SWAP1 KECCAK256 SLOAD PUSH1 0xFF AND ISZERO PUSH2 0x5F7 JUMPI PUSH1 0x0 DUP1 REVERT JUMPDEST PUSH1 0x40 DUP1 MLOAD PUSH1 0x80 DUP2 ADD SWAP1 SWAP2 MSTORE PUSH1 0x1 DUP2 MSTORE TIMESTAMP SWAP1 PUSH1 0x20 DUP2 ADD PUSH1 0x0 DUP2 MSTORE PUSH1 0x20 DUP1 DUP3 ADD DUP5 SWAP1 MSTORE PUSH1 0x0 PUSH1 0x40 SWAP3 DUP4 ADD DUP2 SWAP1 MSTORE CALLER DUP2 MSTORE PUSH1 0x3 DUP3 MSTORE DUP3 DUP2 KECCAK256 DUP7 DUP3 MSTORE DUP3 MSTORE SWAP2 SWAP1 SWAP2 KECCAK256 DUP3 MLOAD DUP2 SLOAD SWAP1 ISZERO ISZERO PUSH1 0xFF NOT DUP3 AND DUP2 OR DUP4 SSTORE SWAP3 DUP5 ADD MLOAD SWAP2 SWAP3 DUP4 SWAP2 PUSH2 0xFF00 NOT SWAP1 SWAP2 AND PUSH2 0xFFFF NOT SWAP1 SWAP2 AND OR PUSH2 0x100 DUP4 PUSH1 0x1 DUP2 GT ISZERO PUSH2 0x671 JUMPI PUSH2 0x671 PUSH2 0x9F5 JUMP JUMPDEST MUL OR SWAP1 SSTORE POP PUSH1 0x40 DUP3 ADD MLOAD PUSH1 0x1 DUP3 ADD SSTORE PUSH1 0x60 SWAP1 SWAP2 ADD MLOAD PUSH1 0x2 SWAP1 SWAP2 ADD SSTORE POP POP JUMP JUMPDEST CALLER PUSH1 0x0 SWAP1 DUP2 MSTORE PUSH1 0x3 PUSH1 0x20 SWAP1 DUP2 MSTORE PUSH1 0x40 DUP1 DUP4 KECCAK256 DUP5 DUP5 MSTORE SWAP1 SWAP2 MSTORE SWAP1 KECCAK256 DUP1 SLOAD PUSH1 0xFF AND DUP1 ISZERO PUSH2 0x6D6 JUMPI POP PUSH1 0x1 DUP2 SLOAD PUSH2 0x100 SWAP1 DIV PUSH1 0xFF AND PUSH1 0x1 DUP2 GT ISZERO PUSH2 0x6D3 JUMPI PUSH2 0x6D3 PUSH2 0x9F5 JUMP JUMPDEST EQ ISZERO JUMPDEST ISZERO PUSH2 0x31D JUMPI TIMESTAMP PUSH1 0x2 DUP3 ADD SSTORE PUSH1 0x40 MLOAD DUP3 DUP2 MSTORE PUSH32 0xE23E76C154822A25BD6DD330DCF4F1998F97C4C45CD64ECAC9E096F56C2511F7 SWAP1 PUSH1 0x20 ADD PUSH2 0x314 JUMP JUMPDEST PUSH1 0x4 PUSH1 0x20 MSTORE DUP2 PUSH1 0x0 MSTORE PUSH1 0x40 PUSH1 0x0 KECCAK256 DUP2 DUP2 SLOAD DUP2 LT PUSH2 0x72D JUMPI PUSH1 0x0 DUP1 REVERT JUMPDEST SWAP1 PUSH1 0x0 MSTORE PUSH1 0x20 PUSH1 0x0 KECCAK256 ADD PUSH1 0x0 SWAP2 POP SWAP2 POP POP DUP1 SLOAD PUSH2 0x749 SWAP1 PUSH2 0xBE3 JUMP JUMPDEST DUP1 PUSH1 0x1F ADD PUSH1 0x20 DUP1 SWAP2 DIV MUL PUSH1 0x20 ADD PUSH1 0x40 MLOAD SWAP1 DUP2 ADD PUSH1 0x40 MSTORE DUP1 SWAP3 SWAP2 SWAP1 DUP2 DUP2 MSTORE PUSH1 0x20 ADD DUP3 DUP1 SLOAD PUSH2 0x775 SWAP1 PUSH2 0xBE3 JUMP JUMPDEST DUP1 ISZERO PUSH2 0x7C2 JUMPI DUP1 PUSH1 0x1F LT PUSH2 0x797 JUMPI PUSH2 0x100 DUP1 DUP4 SLOAD DIV MUL DUP4 MSTORE SWAP2 PUSH1 0x20 ADD SWAP2 PUSH2 0x7C2 JUMP JUMPDEST DUP3 ADD SWAP2 SWAP1 PUSH1 0x0 MSTORE PUSH1 0x20 PUSH1 0x0 KECCAK256 SWAP1 JUMPDEST DUP2 SLOAD DUP2 MSTORE SWAP1 PUSH1 0x1 ADD SWAP1 PUSH1 0x20 ADD DUP1 DUP4 GT PUSH2 0x7A5 JUMPI DUP3 SWAP1 SUB PUSH1 0x1F AND DUP3 ADD SWAP2 JUMPDEST POP POP POP POP POP DUP2 JUMP JUMPDEST PUSH1 0x0 SLOAD PUSH2 0x100 SWAP1 DIV PUSH1 0xFF AND ISZERO DUP1 DUP1 ISZERO PUSH2 0x7EA JUMPI POP PUSH1 0x0 SLOAD PUSH1 0x1 PUSH1 0xFF SWAP1 SWAP2 AND LT JUMPDEST DUP1 PUSH2 0x804 JUMPI POP ADDRESS EXTCODESIZE ISZERO DUP1 ISZERO PUSH2 0x804 JUMPI POP PUSH1 0x0 SLOAD PUSH1 0xFF AND PUSH1 0x1 EQ JUMPDEST PUSH2 0x867 JUMPI PUSH1 0x40 MLOAD PUSH3 0x461BCD PUSH1 0xE5 SHL DUP2 MSTORE PUSH1 0x20 PUSH1 0x4 DUP3 ADD MSTORE PUSH1 0x2E PUSH1 0x24 DUP3 ADD MSTORE PUSH32 0x496E697469616C697A61626C653A20636F6E747261637420697320616C726561 PUSH1 0x44 DUP3 ADD MSTORE PUSH14 0x191E481A5B9A5D1A585B1A5E9959 PUSH1 0x92 SHL PUSH1 0x64 DUP3 ADD MSTORE PUSH1 0x84 ADD PUSH2 0x261 JUMP JUMPDEST PUSH1 0x0 DUP1 SLOAD PUSH1 0xFF NOT AND PUSH1 0x1 OR SWAP1 SSTORE DUP1 ISZERO PUSH2 0x88A JUMPI PUSH1 0x0 DUP1 SLOAD PUSH2 0xFF00 NOT AND PUSH2 0x100 OR SWAP1 SSTORE JUMPDEST PUSH1 0x4 PUSH1 0x1 SSTORE PUSH1 0x2 DUP1 SLOAD PUSH1 0x1 PUSH1 0x1 PUSH1 0xA0 SHL SUB NOT AND PUSH1 0x1 PUSH1 0x1 PUSH1 0xA0 SHL SUB DUP5 AND OR SWAP1 SSTORE DUP1 ISZERO PUSH2 0x31D JUMPI PUSH1 0x0 DUP1 SLOAD PUSH2 0xFF00 NOT AND SWAP1 SSTORE PUSH1 0x40 MLOAD PUSH1 0x1 DUP2 MSTORE PUSH32 0x7F26B83FF96E1F2B6A682F133852F6798A09C465DA95921460CEFB3847402498 SWAP1 PUSH1 0x20 ADD PUSH2 0x314 JUMP JUMPDEST CALLER PUSH1 0x0 SWAP1 DUP2 MSTORE PUSH1 0x3 PUSH1 0x20 MSTORE PUSH1 0x40 DUP2 KECCAK256 DUP2 PUSH2 0x905 DUP5 PUSH2 0x97F JUMP JUMPDEST DUP2 MSTORE PUSH1 0x20 DUP2 ADD SWAP2 SWAP1 SWAP2 MSTORE PUSH1 0x40 ADD PUSH1 0x0 KECCAK256 DUP1 SLOAD SWAP1 SWAP2 POP PUSH1 0xFF AND DUP1 ISZERO PUSH2 0x944 JUMPI POP PUSH1 0x1 DUP2 SLOAD PUSH2 0x100 SWAP1 DIV PUSH1 0xFF AND PUSH1 0x1 DUP2 GT ISZERO PUSH2 0x941 JUMPI PUSH2 0x941 PUSH2 0x9F5 JUMP JUMPDEST EQ ISZERO JUMPDEST ISZERO PUSH2 0x31D JUMPI TIMESTAMP PUSH1 0x2 DUP3 ADD SSTORE PUSH1 0x40 MLOAD PUSH32 0x41D9CF228775966745BD16590F046AFF534AB47EA15FC80127DDAE02ABC8BF34 SWAP1 PUSH2 0x314 SWAP1 DUP5 SWAP1 PUSH2 0xAAC JUMP JUMPDEST PUSH1 0x0 DUP2 PUSH1 0x40 MLOAD PUSH1 0x20 ADD PUSH2 0x992 SWAP2 SWAP1 PUSH2 0xD25 JUMP JUMPDEST PUSH1 0x40 MLOAD PUSH1 0x20 DUP2 DUP4 SUB SUB DUP2 MSTORE SWAP1 PUSH1 0x40 MSTORE DUP1 MLOAD SWAP1 PUSH1 0x20 ADD KECCAK256 SWAP1 POP SWAP2 SWAP1 POP JUMP JUMPDEST DUP1 CALLDATALOAD PUSH1 0x1 PUSH1 0x1 PUSH1 0xA0 SHL SUB DUP2 AND DUP2 EQ PUSH2 0x9C6 JUMPI PUSH1 0x0 DUP1 REVERT JUMPDEST SWAP2 SWAP1 POP JUMP JUMPDEST PUSH1 0x0 DUP1 PUSH1 0x40 DUP4 DUP6 SUB SLT ISZERO PUSH2 0x9DE JUMPI PUSH1 0x0 DUP1 REVERT JUMPDEST PUSH2 0x9E7 DUP4 PUSH2 0x9AF JUMP JUMPDEST SWAP5 PUSH1 0x20 SWAP4 SWAP1 SWAP4 ADD CALLDATALOAD SWAP4 POP POP POP JUMP JUMPDEST PUSH4 0x4E487B71 PUSH1 0xE0 SHL PUSH1 0x0 MSTORE PUSH1 0x21 PUSH1 0x4 MSTORE PUSH1 0x24 PUSH1 0x0 REVERT JUMPDEST DUP5 ISZERO ISZERO DUP2 MSTORE PUSH1 0x80 DUP2 ADD PUSH1 0x2 DUP6 LT PUSH2 0xA32 JUMPI PUSH4 0x4E487B71 PUSH1 0xE0 SHL PUSH1 0x0 MSTORE PUSH1 0x21 PUSH1 0x4 MSTORE PUSH1 0x24 PUSH1 0x0 REVERT JUMPDEST DUP5 PUSH1 0x20 DUP4 ADD MSTORE DUP4 PUSH1 0x40 DUP4 ADD MSTORE DUP3 PUSH1 0x60 DUP4 ADD MSTORE SWAP6 SWAP5 POP POP POP POP POP JUMP JUMPDEST PUSH1 0x0 PUSH1 0x20 DUP3 DUP5 SUB SLT ISZERO PUSH2 0xA5F JUMPI PUSH1 0x0 DUP1 REVERT JUMPDEST POP CALLDATALOAD SWAP2 SWAP1 POP JUMP JUMPDEST PUSH1 0x0 PUSH1 0x20 DUP3 DUP5 SUB SLT ISZERO PUSH2 0xA78 JUMPI PUSH1 0x0 DUP1 REVERT JUMPDEST PUSH2 0xA81 DUP3 PUSH2 0x9AF JUMP JUMPDEST SWAP4 SWAP3 POP POP POP JUMP JUMPDEST PUSH1 0x0 JUMPDEST DUP4 DUP2 LT ISZERO PUSH2 0xAA3 JUMPI DUP2 DUP2 ADD MLOAD DUP4 DUP3 ADD MSTORE PUSH1 0x20 ADD PUSH2 0xA8B JUMP JUMPDEST POP POP PUSH1 0x0 SWAP2 ADD MSTORE JUMP JUMPDEST PUSH1 0x20 DUP2 MSTORE PUSH1 0x0 DUP3 MLOAD DUP1 PUSH1 0x20 DUP5 ADD MSTORE PUSH2 0xACB DUP2 PUSH1 0x40 DUP6 ADD PUSH1 0x20 DUP8 ADD PUSH2 0xA88 JUMP JUMPDEST PUSH1 0x1F ADD PUSH1 0x1F NOT AND SWAP2 SWAP1 SWAP2 ADD PUSH1 0x40 ADD SWAP3 SWAP2 POP POP JUMP JUMPDEST PUSH4 0x4E487B71 PUSH1 0xE0 SHL PUSH1 0x0 MSTORE PUSH1 0x41 PUSH1 0x4 MSTORE PUSH1 0x24 PUSH1 0x0 REVERT JUMPDEST PUSH1 0x0 PUSH1 0x20 DUP3 DUP5 SUB SLT ISZERO PUSH2 0xB07 JUMPI PUSH1 0x0 DUP1 REVERT JUMPDEST DUP2 CALLDATALOAD PUSH8 0xFFFFFFFFFFFFFFFF DUP1 DUP3 GT ISZERO PUSH2 0xB1F JUMPI PUSH1 0x0 DUP1 REVERT JUMPDEST DUP2 DUP5 ADD SWAP2 POP DUP5 PUSH1 0x1F DUP4 ADD SLT PUSH2 0xB33 JUMPI PUSH1 0x0 DUP1 REVERT JUMPDEST DUP2 CALLDATALOAD DUP2 DUP2 GT ISZERO PUSH2 0xB45 JUMPI PUSH2 0xB45 PUSH2 0xADF JUMP JUMPDEST PUSH1 0x40 MLOAD PUSH1 0x1F DUP3 ADD PUSH1 0x1F NOT SWAP1 DUP2 AND PUSH1 0x3F ADD AND DUP2 ADD SWAP1 DUP4 DUP3 GT DUP2 DUP4 LT OR ISZERO PUSH2 0xB6D JUMPI PUSH2 0xB6D PUSH2 0xADF JUMP JUMPDEST DUP2 PUSH1 0x40 MSTORE DUP3 DUP2 MSTORE DUP8 PUSH1 0x20 DUP5 DUP8 ADD ADD GT ISZERO PUSH2 0xB86 JUMPI PUSH1 0x0 DUP1 REVERT JUMPDEST DUP3 PUSH1 0x20 DUP7 ADD PUSH1 0x20 DUP4 ADD CALLDATACOPY PUSH1 0x0 SWAP3 DUP2 ADD PUSH1 0x20 ADD SWAP3 SWAP1 SWAP3 MSTORE POP SWAP6 SWAP5 POP POP POP POP POP JUMP JUMPDEST DUP2 DUP2 SUB DUP2 DUP2 GT ISZERO PUSH2 0xBC7 JUMPI PUSH4 0x4E487B71 PUSH1 0xE0 SHL PUSH1 0x0 MSTORE PUSH1 0x11 PUSH1 0x4 MSTORE PUSH1 0x24 PUSH1 0x0 REVERT JUMPDEST SWAP3 SWAP2 POP POP JUMP JUMPDEST PUSH4 0x4E487B71 PUSH1 0xE0 SHL PUSH1 0x0 MSTORE PUSH1 0x32 PUSH1 0x4 MSTORE PUSH1 0x24 PUSH1 0x0 REVERT JUMPDEST PUSH1 0x1 DUP2 DUP2 SHR SWAP1 DUP3 AND DUP1 PUSH2 0xBF7 JUMPI PUSH1 0x7F DUP3 AND SWAP2 POP JUMPDEST PUSH1 0x20 DUP3 LT DUP2 SUB PUSH2 0x438 JUMPI PUSH4 0x4E487B71 PUSH1 0xE0 SHL PUSH1 0x0 MSTORE PUSH1 0x22 PUSH1 0x4 MSTORE PUSH1 0x24 PUSH1 0x0 REVERT JUMPDEST PUSH1 0x1F DUP3 GT ISZERO PUSH2 0x5CA JUMPI PUSH1 0x0 DUP2 DUP2 MSTORE PUSH1 0x20 DUP2 KECCAK256 PUSH1 0x1F DUP6 ADD PUSH1 0x5 SHR DUP2 ADD PUSH1 0x20 DUP7 LT ISZERO PUSH2 0xC3E JUMPI POP DUP1 JUMPDEST PUSH1 0x1F DUP6 ADD PUSH1 0x5 SHR DUP3 ADD SWAP2 POP JUMPDEST DUP2 DUP2 LT ISZERO PUSH2 0xC5D JUMPI DUP3 DUP2 SSTORE PUSH1 0x1 ADD PUSH2 0xC4A JUMP JUMPDEST POP POP POP POP POP POP JUMP JUMPDEST DUP2 MLOAD PUSH8 0xFFFFFFFFFFFFFFFF DUP2 GT ISZERO PUSH2 0xC7F JUMPI PUSH2 0xC7F PUSH2 0xADF JUMP JUMPDEST PUSH2 0xC93 DUP2 PUSH2 0xC8D DUP5 SLOAD PUSH2 0xBE3 JUMP JUMPDEST DUP5 PUSH2 0xC17 JUMP JUMPDEST PUSH1 0x20 DUP1 PUSH1 0x1F DUP4 GT PUSH1 0x1 DUP2 EQ PUSH2 0xCC8 JUMPI PUSH1 0x0 DUP5 ISZERO PUSH2 0xCB0 JUMPI POP DUP6 DUP4 ADD MLOAD JUMPDEST PUSH1 0x0 NOT PUSH1 0x3 DUP7 SWAP1 SHL SHR NOT AND PUSH1 0x1 DUP6 SWAP1 SHL OR DUP6 SSTORE PUSH2 0xC5D JUMP JUMPDEST PUSH1 0x0 DUP6 DUP2 MSTORE PUSH1 0x20 DUP2 KECCAK256 PUSH1 0x1F NOT DUP7 AND SWAP2 JUMPDEST DUP3 DUP2 LT ISZERO PUSH2 0xCF7 JUMPI DUP9 DUP7 ADD MLOAD DUP3 SSTORE SWAP5 DUP5 ADD SWAP5 PUSH1 0x1 SWAP1 SWAP2 ADD SWAP1 DUP5 ADD PUSH2 0xCD8 JUMP JUMPDEST POP DUP6 DUP3 LT ISZERO PUSH2 0xD15 JUMPI DUP8 DUP6 ADD MLOAD PUSH1 0x0 NOT PUSH1 0x3 DUP9 SWAP1 SHL PUSH1 0xF8 AND SHR NOT AND DUP2 SSTORE JUMPDEST POP POP POP POP POP PUSH1 0x1 SWAP1 DUP2 SHL ADD SWAP1 SSTORE POP JUMP JUMPDEST PUSH1 0x0 DUP3 MLOAD PUSH2 0xD37 DUP2 DUP5 PUSH1 0x20 DUP8 ADD PUSH2 0xA88 JUMP JUMPDEST SWAP2 SWAP1 SWAP2 ADD SWAP3 SWAP2 POP POP JUMP INVALID LOG2 PUSH5 0x6970667358 0x22 SLT KECCAK256 0x2D 0x4A CALLDATACOPY NOT PUSH20 0x337F0796C0434401B9433ADE3AFE2C6834F9DE1A CALLDATASIZE PUSH4 0xF488734F 0x26 PUSH5 0x736F6C6343 STOP ADDMOD GT STOP CALLER "},"methodIdentifiers":{"addKey(string)":"50382c1a","addPublicKey(bytes32)":"9e2fe0e9","deletePublicKey(bytes32)":"1993b4f9","deletePublicKey(string)":"36241962","getCurrentPublicKey(address)":"31f7f259","getPublicKeyStatus(address,bytes32)":"1226f6a5","initialize(address)":"c4d66de8","previousPublishedVersion()":"6104464f","publicKeyList(address,uint256)":"c000ceee","revokePublicKey(bytes32)":"a8c59169","revokePublicKey(string)":"d16df8ec","version()":"54fd4d50"}},"storageLayout":{"storage":[{"astId":1608,"contract":"contracts/registries/AlastriaPublicKeyRegistry.sol:AlastriaPublicKeyRegistry","label":"_initialized","offset":0,"slot":"0","type":"t_uint8"},{"astId":1611,"contract":"contracts/registries/AlastriaPublicKeyRegistry.sol:AlastriaPublicKeyRegistry","label":"_initializing","offset":1,"slot":"0","type":"t_bool"},{"astId":3111,"contract":"contracts/registries/AlastriaPublicKeyRegistry.sol:AlastriaPublicKeyRegistry","label":"version","offset":0,"slot":"1","type":"t_int256"},{"astId":3113,"contract":"contracts/registries/AlastriaPublicKeyRegistry.sol:AlastriaPublicKeyRegistry","label":"previousPublishedVersion","offset":0,"slot":"2","type":"t_address"},{"astId":3133,"contract":"contracts/registries/AlastriaPublicKeyRegistry.sol:AlastriaPublicKeyRegistry","label":"publicKeyRegistry","offset":0,"slot":"3","type":"t_mapping(t_address,t_mapping(t_bytes32,t_struct(PublicKey)3126_storage))"},{"astId":3138,"contract":"contracts/registries/AlastriaPublicKeyRegistry.sol:AlastriaPublicKeyRegistry","label":"publicKeyList","offset":0,"slot":"4","type":"t_mapping(t_address,t_array(t_string_storage)dyn_storage)"}],"types":{"t_address":{"encoding":"inplace","label":"address","numberOfBytes":"20"},"t_array(t_string_storage)dyn_storage":{"base":"t_string_storage","encoding":"dynamic_array","label":"string[]","numberOfBytes":"32"},"t_bool":{"encoding":"inplace","label":"bool","numberOfBytes":"1"},"t_bytes32":{"encoding":"inplace","label":"bytes32","numberOfBytes":"32"},"t_enum(Status)3116":{"encoding":"inplace","label":"enum AlastriaPublicKeyRegistry.Status","numberOfBytes":"1"},"t_int256":{"encoding":"inplace","label":"int256","numberOfBytes":"32"},"t_mapping(t_address,t_array(t_string_storage)dyn_storage)":{"encoding":"mapping","key":"t_address","label":"mapping(address => string[])","numberOfBytes":"32","value":"t_array(t_string_storage)dyn_storage"},"t_mapping(t_address,t_mapping(t_bytes32,t_struct(PublicKey)3126_storage))":{"encoding":"mapping","key":"t_address","label":"mapping(address => mapping(bytes32 => struct AlastriaPublicKeyRegistry.PublicKey))","numberOfBytes":"32","value":"t_mapping(t_bytes32,t_struct(PublicKey)3126_storage)"},"t_mapping(t_bytes32,t_struct(PublicKey)3126_storage)":{"encoding":"mapping","key":"t_bytes32","label":"mapping(bytes32 => struct AlastriaPublicKeyRegistry.PublicKey)","numberOfBytes":"32","value":"t_struct(PublicKey)3126_storage"},"t_string_storage":{"encoding":"bytes","label":"string","numberOfBytes":"32"},"t_struct(PublicKey)3126_storage":{"encoding":"inplace","label":"struct AlastriaPublicKeyRegistry.PublicKey","members":[{"astId":3118,"contract":"contracts/registries/AlastriaPublicKeyRegistry.sol:AlastriaPublicKeyRegistry","label":"exists","offset":0,"slot":"0","type":"t_bool"},{"astId":3121,"contract":"contracts/registries/AlastriaPublicKeyRegistry.sol:AlastriaPublicKeyRegistry","label":"status","offset":1,"slot":"0","type":"t_enum(Status)3116"},{"astId":3123,"contract":"contracts/registries/AlastriaPublicKeyRegistry.sol:AlastriaPublicKeyRegistry","label":"startDate","offset":0,"slot":"1","type":"t_uint256"},{"astId":3125,"contract":"contracts/registries/AlastriaPublicKeyRegistry.sol:AlastriaPublicKeyRegistry","label":"endDate","offset":0,"slot":"2","type":"t_uint256"}],"numberOfBytes":"96"},"t_uint256":{"encoding":"inplace","label":"uint256","numberOfBytes":"32"},"t_uint8":{"encoding":"inplace","label":"uint8","numberOfBytes":"1"}}}}}}