{
  "_format": "hh-sol-artifact-1",
  "contractName": "AlastriaPresentationRegistry",
  "sourceName": "contracts/registries/AlastriaPresentationRegistry.sol",
  "abi": [
    {
      "anonymous": false,
      "inputs": [
        {
          "indexed": false,
          "internalType": "uint8",
          "name": "version",
          "type": "uint8"
        }
      ],
      "name": "Initialized",
      "type": "event"
    },
    {
      "anonymous": false,
      "inputs": [
        {
          "indexed": false,
          "internalType": "bytes32",
          "name": "hash",
          "type": "bytes32"
        },
        {
          "indexed": false,
          "internalType": "enum AlastriaPresentationRegistry.Status",
          "name": "status",
          "type": "uint8"
        }
      ],
      "name": "PresentationUpdated",
      "type": "event"
    },
    {
      "inputs": [
        {
          "internalType": "bytes32",
          "name": "subjectPresentationHash",
          "type": "bytes32"
        },
        {
          "internalType": "string",
          "name": "",
          "type": "string"
        }
      ],
      "name": "addSubjectPresentation",
      "outputs": [],
      "stateMutability": "nonpayable",
      "type": "function"
    },
    {
      "inputs": [
        {
          "internalType": "enum AlastriaPresentationRegistry.Status",
          "name": "subjectStatus",
          "type": "uint8"
        },
        {
          "internalType": "enum AlastriaPresentationRegistry.Status",
          "name": "receiverStatus",
          "type": "uint8"
        }
      ],
      "name": "getPresentationStatus",
      "outputs": [
        {
          "internalType": "enum AlastriaPresentationRegistry.Status",
          "name": "",
          "type": "uint8"
        }
      ],
      "stateMutability": "pure",
      "type": "function"
    },
    {
      "inputs": [
        {
          "internalType": "address",
          "name": "receiver",
          "type": "address"
        },
        {
          "internalType": "bytes32",
          "name": "receiverPresentationHash",
          "type": "bytes32"
        }
      ],
      "name": "getReceiverPresentationStatus",
      "outputs": [
        {
          "internalType": "bool",
          "name": "exists",
          "type": "bool"
        },
        {
          "internalType": "enum AlastriaPresentationRegistry.Status",
          "name": "status",
          "type": "uint8"
        }
      ],
      "stateMutability": "view",
      "type": "function"
    },
    {
      "inputs": [
        {
          "internalType": "address",
          "name": "subject",
          "type": "address"
        },
        {
          "internalType": "bytes32",
          "name": "subjectPresentationHash",
          "type": "bytes32"
        }
      ],
      "name": "getSubjectPresentationStatus",
      "outputs": [
        {
          "internalType": "bool",
          "name": "exists",
          "type": "bool"
        },
        {
          "internalType": "enum AlastriaPresentationRegistry.Status",
          "name": "status",
          "type": "uint8"
        }
      ],
      "stateMutability": "view",
      "type": "function"
    },
    {
      "inputs": [
        {
          "internalType": "address",
          "name": "_previousPublishedVersion",
          "type": "address"
        }
      ],
      "name": "initialize",
      "outputs": [],
      "stateMutability": "nonpayable",
      "type": "function"
    },
    {
      "inputs": [],
      "name": "previousPublishedVersion",
      "outputs": [
        {
          "internalType": "address",
          "name": "",
          "type": "address"
        }
      ],
      "stateMutability": "view",
      "type": "function"
    },
    {
      "inputs": [
        {
          "internalType": "bytes32",
          "name": "receiverPresentationHash",
          "type": "bytes32"
        },
        {
          "internalType": "enum AlastriaPresentationRegistry.Status",
          "name": "status",
          "type": "uint8"
        }
      ],
      "name": "updateReceiverPresentation",
      "outputs": [],
      "stateMutability": "nonpayable",
      "type": "function"
    },
    {
      "inputs": [
        {
          "internalType": "bytes32",
          "name": "subjectPresentationHash",
          "type": "bytes32"
        },
        {
          "internalType": "enum AlastriaPresentationRegistry.Status",
          "name": "status",
          "type": "uint8"
        }
      ],
      "name": "updateSubjectPresentation",
      "outputs": [],
      "stateMutability": "nonpayable",
      "type": "function"
    },
    {
      "inputs": [],
      "name": "version",
      "outputs": [
        {
          "internalType": "int256",
          "name": "",
          "type": "int256"
        }
      ],
      "stateMutability": "view",
      "type": "function"
    }
  ],
  "bytecode": "0x608060405234801561001057600080fd5b50610a07806100206000396000f3fe608060405234801561001057600080fd5b50600436106100935760003560e01c806354fd4d501161006657806354fd4d501461010a5780636104464f146101215780639373014a1461014c578063c4d66de81461015f578063e64af9381461017257600080fd5b8063034f8408146100985780633000dc39146100c15780634e3a5de5146100d65780635205080f146100e9575b600080fd5b6100ab6100a63660046107d7565b610185565b6040516100b89190610842565b60405180910390f35b6100d46100cf366004610850565b61023f565b005b6100d46100e4366004610889565b61040b565b6100fc6100f736600461095b565b6104a9565b6040516100b8929190610985565b61011360015481565b6040519081526020016100b8565b600254610134906001600160a01b031681565b6040516001600160a01b0390911681526020016100b8565b6100fc61015a36600461095b565b6104f8565b6100d461016d3660046109a2565b610547565b6100d4610180366004610850565b610675565b6000828181600381111561019b5761019b61080a565b101580156101bb575060038160038111156101b8576101b861080a565b11155b6101c457600080fd5b8260008160038111156101d9576101d961080a565b101580156101f9575060038160038111156101f6576101f661080a565b11155b61020257600080fd5b8360038111156102145761021461080a565b8560038111156102265761022661080a565b1061023357849250610237565b8392505b505092915050565b8060008160038111156102545761025461080a565b10158015610274575060038160038111156102715761027161080a565b11155b61027d57600080fd5b61028682610766565b15610406573360009081526004602090815260408083208684529091529020805460ff166103725760405180604001604052806001151581526020018460038111156102d4576102d461080a565b905233600090815260046020908152604080832088845282529091208251815490151560ff19821681178355928401519192839161ff001990911661ffff199091161761010083600381111561032c5761032c61080a565b02179055509050507f52035ff46a15e119b23cfbf756f83f68ee8740523a40b78f621fdd44f091fb3884846040516103659291906109bd565b60405180910390a1610404565b8054610100900460ff16600381111561038d5761038d61080a565b83600381111561039f5761039f61080a565b11156104045780548390829061ff0019166101008360038111156103c5576103c561080a565b02179055507f52035ff46a15e119b23cfbf756f83f68ee8740523a40b78f621fdd44f091fb3884846040516103fb9291906109bd565b60405180910390a15b505b505050565b33600090815260036020908152604080832085845290915290205460ff161561043357600080fd5b60408051808201825260018152600060208083018281523383526003808352858420888552909252939091208251815490151560ff1982168117835594519394919392849261ff00191661ffff19909216919091179061010090849081111561049e5761049e61080a565b021790555050505050565b600080836001600160a01b0381166104c057600080fd5b5050506001600160a01b03919091166000908152600360209081526040808320938352929052205460ff808216926101009092041690565b600080836001600160a01b03811661050f57600080fd5b5050506001600160a01b03919091166000908152600460209081526040808320938352929052205460ff808216926101009092041690565b600054610100900460ff16158080156105675750600054600160ff909116105b806105815750303b158015610581575060005460ff166001145b6105e85760405162461bcd60e51b815260206004820152602e60248201527f496e697469616c697a61626c653a20636f6e747261637420697320616c72656160448201526d191e481a5b9a5d1a585b1a5e995960921b606482015260840160405180910390fd5b6000805460ff19166001179055801561060b576000805461ff0019166101001790555b6004600155600280546001600160a01b0319166001600160a01b0384161790558015610671576000805461ff0019169055604051600181527f7f26b83ff96e1f2b6a682f133852f6798a09c465da95921460cefb38474024989060200160405180910390a15b5050565b80600081600381111561068a5761068a61080a565b101580156106aa575060038160038111156106a7576106a761080a565b11155b6106b357600080fd5b6106bc826107a0565b15610406573360009081526003602090815260408083208684529091529020805460ff1661037257604051806040016040528060011515815260200184600381111561070a5761070a61080a565b905233600090815260036020818152604080842089855282529092208351815490151560ff198216811783559385015191939192849261ff00191661ffff19909216919091179061010090849081111561032c5761032c61080a565b6000600182600381111561077c5761077c61080a565b148061079a575060035b8260038111156107985761079861080a565b145b92915050565b6000808260038111156107b5576107b561080a565b148061079a57506002610786565b8035600481106107d257600080fd5b919050565b600080604083850312156107ea57600080fd5b6107f3836107c3565b9150610801602084016107c3565b90509250929050565b634e487b7160e01b600052602160045260246000fd5b6004811061083e57634e487b7160e01b600052602160045260246000fd5b9052565b6020810161079a8284610820565b6000806040838503121561086357600080fd5b82359150610801602084016107c3565b634e487b7160e01b600052604160045260246000fd5b6000806040838503121561089c57600080fd5b82359150602083013567ffffffffffffffff808211156108bb57600080fd5b818501915085601f8301126108cf57600080fd5b8135818111156108e1576108e1610873565b604051601f8201601f19908116603f0116810190838211818310171561090957610909610873565b8160405282815288602084870101111561092257600080fd5b8260208601602083013760006020848301015280955050505050509250929050565b80356001600160a01b03811681146107d257600080fd5b6000806040838503121561096e57600080fd5b61097783610944565b946020939093013593505050565b82151581526040810161099b6020830184610820565b9392505050565b6000602082840312156109b457600080fd5b61099b82610944565b8281526040810161099b602083018461082056fea2646970667358221220e1bcceea40185745d0705e25bdfc028fc89192bf9d2719fb40c9648699a177ae64736f6c63430008110033",
  "linkReferences": {},
  "deployedLinkReferences": {}
}