{
  "_format": "hh-sol-artifact-1",
  "contractName": "AlastriaPresentationRegistry",
  "sourceName": "contracts/registries/AlastriaPresentationRegistry.sol",
  "abi": [
    {
      "anonymous": false,
      "inputs": [
        {
          "indexed": false,
          "internalType": "uint8",
          "name": "version",
          "type": "uint8"
        }
      ],
      "name": "Initialized",
      "type": "event"
    },
    {
      "anonymous": false,
      "inputs": [
        {
          "indexed": false,
          "internalType": "bytes32",
          "name": "hash",
          "type": "bytes32"
        },
        {
          "indexed": false,
          "internalType": "enum AlastriaPresentationRegistry.Status",
          "name": "status",
          "type": "uint8"
        }
      ],
      "name": "PresentationUpdated",
      "type": "event"
    },
    {
      "inputs": [
        {
          "internalType": "bytes32",
          "name": "subjectPresentationHash",
          "type": "bytes32"
        },
        {
          "internalType": "string",
          "name": "",
          "type": "string"
        }
      ],
      "name": "addSubjectPresentation",
      "outputs": [],
      "stateMutability": "nonpayable",
      "type": "function"
    },
    {
      "inputs": [
        {
          "internalType": "enum AlastriaPresentationRegistry.Status",
          "name": "subjectStatus",
          "type": "uint8"
        },
        {
          "internalType": "enum AlastriaPresentationRegistry.Status",
          "name": "receiverStatus",
          "type": "uint8"
        }
      ],
      "name": "getPresentationStatus",
      "outputs": [
        {
          "internalType": "enum AlastriaPresentationRegistry.Status",
          "name": "",
          "type": "uint8"
        }
      ],
      "stateMutability": "pure",
      "type": "function"
    },
    {
      "inputs": [
        {
          "internalType": "address",
          "name": "receiver",
          "type": "address"
        },
        {
          "internalType": "bytes32",
          "name": "receiverPresentationHash",
          "type": "bytes32"
        }
      ],
      "name": "getReceiverPresentationStatus",
      "outputs": [
        {
          "internalType": "bool",
          "name": "exists",
          "type": "bool"
        },
        {
          "internalType": "enum AlastriaPresentationRegistry.Status",
          "name": "status",
          "type": "uint8"
        }
      ],
      "stateMutability": "view",
      "type": "function"
    },
    {
      "inputs": [
        {
          "internalType": "address",
          "name": "subject",
          "type": "address"
        },
        {
          "internalType": "bytes32",
          "name": "subjectPresentationHash",
          "type": "bytes32"
        }
      ],
      "name": "getSubjectPresentationStatus",
      "outputs": [
        {
          "internalType": "bool",
          "name": "exists",
          "type": "bool"
        },
        {
          "internalType": "enum AlastriaPresentationRegistry.Status",
          "name": "status",
          "type": "uint8"
        }
      ],
      "stateMutability": "view",
      "type": "function"
    },
    {
      "inputs": [
        {
          "internalType": "address",
          "name": "_previousPublishedVersion",
          "type": "address"
        }
      ],
      "name": "initialize",
      "outputs": [],
      "stateMutability": "nonpayable",
      "type": "function"
    },
    {
      "inputs": [],
      "name": "previousPublishedVersion",
      "outputs": [
        {
          "internalType": "address",
          "name": "",
          "type": "address"
        }
      ],
      "stateMutability": "view",
      "type": "function"
    },
    {
      "inputs": [
        {
          "internalType": "bytes32",
          "name": "receiverPresentationHash",
          "type": "bytes32"
        },
        {
          "internalType": "enum AlastriaPresentationRegistry.Status",
          "name": "status",
          "type": "uint8"
        }
      ],
      "name": "updateReceiverPresentation",
      "outputs": [],
      "stateMutability": "nonpayable",
      "type": "function"
    },
    {
      "inputs": [
        {
          "internalType": "bytes32",
          "name": "subjectPresentationHash",
          "type": "bytes32"
        },
        {
          "internalType": "enum AlastriaPresentationRegistry.Status",
          "name": "status",
          "type": "uint8"
        }
      ],
      "name": "updateSubjectPresentation",
      "outputs": [],
      "stateMutability": "nonpayable",
      "type": "function"
    },
    {
      "inputs": [],
      "name": "version",
      "outputs": [
        {
          "internalType": "int256",
          "name": "",
          "type": "int256"
        }
      ],
      "stateMutability": "view",
      "type": "function"
    }
  ],
  "bytecode": "0x608060405234801561001057600080fd5b50610aa5806100206000396000f3fe608060405234801561001057600080fd5b50600436106100b0576000357c01000000000000000000000000000000000000000000000000000000009004806354fd4d501161008357806354fd4d50146101275780636104464f1461013e5780639373014a14610169578063c4d66de81461017c578063e64af9381461018f57600080fd5b8063034f8408146100b55780633000dc39146100de5780634e3a5de5146100f35780635205080f14610106575b600080fd5b6100c86100c336600461082a565b6101a2565b6040516100d591906108c7565b60405180910390f35b6100f16100ec3660046108d5565b61025c565b005b6100f1610101366004610927565b610428565b6101196101143660046109f9565b6104c6565b6040516100d5929190610a23565b61013060015481565b6040519081526020016100d5565b60025461015190600160a060020a031681565b604051600160a060020a0390911681526020016100d5565b6101196101773660046109f9565b610515565b6100f161018a366004610a40565b610564565b6100f161019d3660046108d5565b6106c8565b600082818160038111156101b8576101b861085d565b101580156101d8575060038160038111156101d5576101d561085d565b11155b6101e157600080fd5b8260008160038111156101f6576101f661085d565b10158015610216575060038160038111156102135761021361085d565b11155b61021f57600080fd5b8360038111156102315761023161085d565b8560038111156102435761024361085d565b1061025057849250610254565b8392505b505092915050565b8060008160038111156102715761027161085d565b101580156102915750600381600381111561028e5761028e61085d565b11155b61029a57600080fd5b6102a3826107b9565b15610423573360009081526004602090815260408083208684529091529020805460ff1661038f5760405180604001604052806001151581526020018460038111156102f1576102f161085d565b905233600090815260046020908152604080832088845282529091208251815490151560ff19821681178355928401519192839161ff001990911661ffff19909116176101008360038111156103495761034961085d565b02179055509050507f52035ff46a15e119b23cfbf756f83f68ee8740523a40b78f621fdd44f091fb388484604051610382929190610a5b565b60405180910390a1610421565b8054610100900460ff1660038111156103aa576103aa61085d565b8360038111156103bc576103bc61085d565b11156104215780548390829061ff0019166101008360038111156103e2576103e261085d565b02179055507f52035ff46a15e119b23cfbf756f83f68ee8740523a40b78f621fdd44f091fb388484604051610418929190610a5b565b60405180910390a15b505b505050565b33600090815260036020908152604080832085845290915290205460ff161561045057600080fd5b60408051808201825260018152600060208083018281523383526003808352858420888552909252939091208251815490151560ff1982168117835594519394919392849261ff00191661ffff1990921691909117906101009084908111156104bb576104bb61085d565b021790555050505050565b60008083600160a060020a0381166104dd57600080fd5b505050600160a060020a03919091166000908152600360209081526040808320938352929052205460ff808216926101009092041690565b60008083600160a060020a03811661052c57600080fd5b505050600160a060020a03919091166000908152600460209081526040808320938352929052205460ff808216926101009092041690565b600054610100900460ff16158080156105845750600054600160ff909116105b8061059e5750303b15801561059e575060005460ff166001145b61062e576040517f08c379a000000000000000000000000000000000000000000000000000000000815260206004820152602e60248201527f496e697469616c697a61626c653a20636f6e747261637420697320616c72656160448201527f647920696e697469616c697a6564000000000000000000000000000000000000606482015260840160405180910390fd5b6000805460ff191660011790558015610651576000805461ff0019166101001790555b60046001556002805473ffffffffffffffffffffffffffffffffffffffff1916600160a060020a03841617905580156106c4576000805461ff0019169055604051600181527f7f26b83ff96e1f2b6a682f133852f6798a09c465da95921460cefb38474024989060200160405180910390a15b5050565b8060008160038111156106dd576106dd61085d565b101580156106fd575060038160038111156106fa576106fa61085d565b11155b61070657600080fd5b61070f826107f3565b15610423573360009081526003602090815260408083208684529091529020805460ff1661038f57604051806040016040528060011515815260200184600381111561075d5761075d61085d565b905233600090815260036020818152604080842089855282529092208351815490151560ff198216811783559385015191939192849261ff00191661ffff1990921691909117906101009084908111156103495761034961085d565b600060018260038111156107cf576107cf61085d565b14806107ed575060035b8260038111156107eb576107eb61085d565b145b92915050565b6000808260038111156108085761080861085d565b14806107ed575060026107d9565b80356004811061082557600080fd5b919050565b6000806040838503121561083d57600080fd5b61084683610816565b915061085460208401610816565b90509250929050565b7f4e487b7100000000000000000000000000000000000000000000000000000000600052602160045260246000fd5b600481106108c3577f4e487b7100000000000000000000000000000000000000000000000000000000600052602160045260246000fd5b9052565b602081016107ed828461088c565b600080604083850312156108e857600080fd5b8235915061085460208401610816565b7f4e487b7100000000000000000000000000000000000000000000000000000000600052604160045260246000fd5b6000806040838503121561093a57600080fd5b82359150602083013567ffffffffffffffff8082111561095957600080fd5b818501915085601f83011261096d57600080fd5b81358181111561097f5761097f6108f8565b604051601f8201601f19908116603f011681019083821181831017156109a7576109a76108f8565b816040528281528860208487010111156109c057600080fd5b8260208601602083013760006020848301015280955050505050509250929050565b8035600160a060020a038116811461082557600080fd5b60008060408385031215610a0c57600080fd5b610a15836109e2565b946020939093013593505050565b821515815260408101610a39602083018461088c565b9392505050565b600060208284031215610a5257600080fd5b610a39826109e2565b82815260408101610a39602083018461088c56fea2646970667358221220f1ececf9188776acc2700acf52c5893f4d9ae304444df1f197e60b9c49a1241664736f6c63430008110033",
  "linkReferences": {},
  "deployedLinkReferences": {}
}