{
  "_format": "hh-sol-artifact-1",
  "contractName": "AlastriaPublicKeyRegistry",
  "sourceName": "contracts/registries/AlastriaPublicKeyRegistry.sol",
  "abi": [
    {
      "anonymous": false,
      "inputs": [
        {
          "indexed": false,
          "internalType": "uint8",
          "name": "version",
          "type": "uint8"
        }
      ],
      "name": "Initialized",
      "type": "event"
    },
    {
      "anonymous": false,
      "inputs": [
        {
          "indexed": false,
          "internalType": "string",
          "name": "publicKey",
          "type": "string"
        }
      ],
      "name": "PublicKeyDeleted",
      "type": "event"
    },
    {
      "anonymous": false,
      "inputs": [
        {
          "indexed": false,
          "internalType": "bytes32",
          "name": "publicKeyHash",
          "type": "bytes32"
        }
      ],
      "name": "PublicKeyDeleted",
      "type": "event"
    },
    {
      "anonymous": false,
      "inputs": [
        {
          "indexed": false,
          "internalType": "string",
          "name": "publicKey",
          "type": "string"
        }
      ],
      "name": "PublicKeyRevoked",
      "type": "event"
    },
    {
      "anonymous": false,
      "inputs": [
        {
          "indexed": false,
          "internalType": "bytes32",
          "name": "publicKeyHash",
          "type": "bytes32"
        }
      ],
      "name": "PublicKeyRevoked",
      "type": "event"
    },
    {
      "inputs": [
        {
          "internalType": "string",
          "name": "publicKey",
          "type": "string"
        }
      ],
      "name": "addKey",
      "outputs": [],
      "stateMutability": "nonpayable",
      "type": "function"
    },
    {
      "inputs": [
        {
          "internalType": "bytes32",
          "name": "publicKeyHash",
          "type": "bytes32"
        }
      ],
      "name": "addPublicKey",
      "outputs": [],
      "stateMutability": "nonpayable",
      "type": "function"
    },
    {
      "inputs": [
        {
          "internalType": "bytes32",
          "name": "publicKeyHash",
          "type": "bytes32"
        }
      ],
      "name": "deletePublicKey",
      "outputs": [],
      "stateMutability": "nonpayable",
      "type": "function"
    },
    {
      "inputs": [
        {
          "internalType": "string",
          "name": "publicKey",
          "type": "string"
        }
      ],
      "name": "deletePublicKey",
      "outputs": [],
      "stateMutability": "nonpayable",
      "type": "function"
    },
    {
      "inputs": [
        {
          "internalType": "address",
          "name": "subject",
          "type": "address"
        }
      ],
      "name": "getCurrentPublicKey",
      "outputs": [
        {
          "internalType": "string",
          "name": "",
          "type": "string"
        }
      ],
      "stateMutability": "view",
      "type": "function"
    },
    {
      "inputs": [
        {
          "internalType": "address",
          "name": "subject",
          "type": "address"
        },
        {
          "internalType": "bytes32",
          "name": "publicKeyHash",
          "type": "bytes32"
        }
      ],
      "name": "getPublicKeyStatus",
      "outputs": [
        {
          "internalType": "bool",
          "name": "exists",
          "type": "bool"
        },
        {
          "internalType": "enum AlastriaPublicKeyRegistry.Status",
          "name": "status",
          "type": "uint8"
        },
        {
          "internalType": "uint256",
          "name": "startDate",
          "type": "uint256"
        },
        {
          "internalType": "uint256",
          "name": "endDate",
          "type": "uint256"
        }
      ],
      "stateMutability": "view",
      "type": "function"
    },
    {
      "inputs": [
        {
          "internalType": "address",
          "name": "_previousPublishedVersion",
          "type": "address"
        }
      ],
      "name": "initialize",
      "outputs": [],
      "stateMutability": "nonpayable",
      "type": "function"
    },
    {
      "inputs": [],
      "name": "previousPublishedVersion",
      "outputs": [
        {
          "internalType": "address",
          "name": "",
          "type": "address"
        }
      ],
      "stateMutability": "view",
      "type": "function"
    },
    {
      "inputs": [
        {
          "internalType": "address",
          "name": "",
          "type": "address"
        },
        {
          "internalType": "uint256",
          "name": "",
          "type": "uint256"
        }
      ],
      "name": "publicKeyList",
      "outputs": [
        {
          "internalType": "string",
          "name": "",
          "type": "string"
        }
      ],
      "stateMutability": "view",
      "type": "function"
    },
    {
      "inputs": [
        {
          "internalType": "bytes32",
          "name": "publicKeyHash",
          "type": "bytes32"
        }
      ],
      "name": "revokePublicKey",
      "outputs": [],
      "stateMutability": "nonpayable",
      "type": "function"
    },
    {
      "inputs": [
        {
          "internalType": "string",
          "name": "publicKey",
          "type": "string"
        }
      ],
      "name": "revokePublicKey",
      "outputs": [],
      "stateMutability": "nonpayable",
      "type": "function"
    },
    {
      "inputs": [],
      "name": "version",
      "outputs": [
        {
          "internalType": "int256",
          "name": "",
          "type": "int256"
        }
      ],
      "stateMutability": "view",
      "type": "function"
    }
  ],
  "bytecode": "0x608060405234801561001057600080fd5b50610e04806100206000396000f3fe608060405234801561001057600080fd5b50600436106100d1576000357c0100000000000000000000000000000000000000000000000000000000900480636104464f1161008e5780636104464f146101745780639e2fe0e91461019f578063a8c59169146101b2578063c000ceee146101c5578063c4d66de8146101d8578063d16df8ec146101eb57600080fd5b80631226f6a5146100d65780631993b4f91461010257806331f7f25914610117578063362419621461013757806350382c1a1461014a57806354fd4d501461015d575b600080fd5b6100e96100e4366004610a40565b6101fe565b6040516100f99493929190610a83565b60405180910390f35b610115610110366004610ac8565b6102f0565b005b61012a610125366004610ae1565b610360565b6040516100f99190610b27565b610115610145366004610b73565b61047d565b610115610158366004610b73565b6104f6565b61016660015481565b6040519081526020016100f9565b60025461018790600160a060020a031681565b604051600160a060020a0390911681526020016100f9565b6101156101ad366004610ac8565b61060e565b6101156101c0366004610ac8565b6106cf565b61012a6101d3366004610a40565b610750565b6101156101e6366004610ae1565b610809565b6101156101f9366004610b73565b610961565b600080808085600160a060020a03811661021757600080fd5b600160a060020a038716600090815260036020908152604080832089845290915290205460ff166102a9576040517f08c379a000000000000000000000000000000000000000000000000000000000815260206004820152601560248201527f5075626c6963204b6579206e6f7420657869737473000000000000000000000060448201526064015b60405180910390fd5b50505050600160a060020a03929092166000908152600360209081526040808320938352929052208054600182015460029092015460ff8083169561010090930416935090565b3360009081526003602090815260408083208484529091529020805460ff161561035c57805461ff0019166101001781554260028201556040518281527fc7a155c4482b9b68d8c683396c4c1c6ec3303f39766ae7d6ccc88272b7f5b651906020015b60405180910390a15b5050565b606081600160a060020a03811661037657600080fd5b600160a060020a0383166000908152600460205260409020541561046457600160a060020a038316600090815260046020526040902080546103ba90600190610c24565b815481106103ca576103ca610c4e565b9060005260206000200180546103df90610c67565b80601f016020809104026020016040519081016040528092919081815260200182805461040b90610c67565b80156104585780601f1061042d57610100808354040283529160200191610458565b820191906000526020600020905b81548152906001019060200180831161043b57829003601f168201915b50505050509150610477565b6040518060200160405280600081525091505b50919050565b33600090815260036020526040812081610496846109f4565b81526020810191909152604001600020805490915060ff161561035c57805461ff0019166101001781554260028201556040517f590ada3b231515dd26dca05728f31024554fc0eca9ef33aa1d623bc4d7d5fd5090610353908490610b27565b3360009081526003602052604081209061050f836109f4565b815260208101919091526040016000205460ff161561052d57600080fd5b4261053a6101f933610360565b60408051608081018252600181526000602080830182905282840185905260608301829052338252600390529182209091610574856109f4565b81526020808201929092526040016000208251815490151560ff19821681178355928401519192839161ff001990911661ffff19909116176101008360018111156105c1576105c1610a6a565b02179055506040828101516001808401919091556060909301516002909201919091553360009081526004602090815291812080549384018155815220016106098382610cec565b505050565b33600090815260036020908152604080832084845290915290205460ff161561063657600080fd5b60408051608081019091526001815242906020810160008152602080820184905260006040928301819052338152600382528281208682528252919091208251815490151560ff19821681178355928401519192839161ff001990911661ffff19909116176101008360018111156106b0576106b0610a6a565b0217905550604082015160018201556060909101516002909101555050565b3360009081526003602090815260408083208484529091529020805460ff168015610715575060018154610100900460ff16600181111561071257610712610a6a565b14155b1561035c574260028201556040518281527fe23e76c154822a25bd6dd330dcf4f1998f97c4c45cd64ecac9e096f56c2511f790602001610353565b6004602052816000526040600020818154811061076c57600080fd5b9060005260206000200160009150915050805461078890610c67565b80601f01602080910402602001604051908101604052809291908181526020018280546107b490610c67565b80156108015780601f106107d657610100808354040283529160200191610801565b820191906000526020600020905b8154815290600101906020018083116107e457829003601f168201915b505050505081565b600054610100900460ff16158080156108295750600054600160ff909116105b806108435750303b158015610843575060005460ff166001145b6108cf576040517f08c379a000000000000000000000000000000000000000000000000000000000815260206004820152602e60248201527f496e697469616c697a61626c653a20636f6e747261637420697320616c72656160448201527f647920696e697469616c697a656400000000000000000000000000000000000060648201526084016102a0565b6000805460ff1916600117905580156108f2576000805461ff0019166101001790555b60046001556002805473ffffffffffffffffffffffffffffffffffffffff1916600160a060020a038416179055801561035c576000805461ff0019169055604051600181527f7f26b83ff96e1f2b6a682f133852f6798a09c465da95921460cefb384740249890602001610353565b3360009081526003602052604081208161097a846109f4565b81526020810191909152604001600020805490915060ff1680156109b9575060018154610100900460ff1660018111156109b6576109b6610a6a565b14155b1561035c574260028201556040517f41d9cf228775966745bd16590f046aff534ab47ea15fc80127ddae02abc8bf3490610353908490610b27565b600081604051602001610a079190610db2565b604051602081830303815290604052805190602001209050919050565b8035600160a060020a0381168114610a3b57600080fd5b919050565b60008060408385031215610a5357600080fd5b610a5c83610a24565b946020939093013593505050565b60e060020a634e487b7102600052602160045260246000fd5b84151581526080810160028510610aad5760e060020a634e487b7102600052602160045260246000fd5b84602083015283604083015282606083015295945050505050565b600060208284031215610ada57600080fd5b5035919050565b600060208284031215610af357600080fd5b610afc82610a24565b9392505050565b60005b83811015610b1e578181015183820152602001610b06565b50506000910152565b6020815260008251806020840152610b46816040850160208701610b03565b601f01601f19169190910160400192915050565b60e060020a634e487b7102600052604160045260246000fd5b600060208284031215610b8557600080fd5b813567ffffffffffffffff80821115610b9d57600080fd5b818401915084601f830112610bb157600080fd5b813581811115610bc357610bc3610b5a565b604051601f8201601f19908116603f01168101908382118183101715610beb57610beb610b5a565b81604052828152876020848701011115610c0457600080fd5b826020860160208301376000928101602001929092525095945050505050565b81810381811115610c485760e060020a634e487b7102600052601160045260246000fd5b92915050565b60e060020a634e487b7102600052603260045260246000fd5b600281046001821680610c7b57607f821691505b6020821081036104775760e060020a634e487b7102600052602260045260246000fd5b601f821115610609576000818152602081206020601f86010481016020861015610cc55750805b6020601f860104820191505b81811015610ce457828155600101610cd1565b505050505050565b815167ffffffffffffffff811115610d0657610d06610b5a565b610d1a81610d148454610c67565b84610c9e565b602080601f831160018114610d535760008415610d375750858301515b60028086026008870290910a6000190419821617865550610ce4565b600085815260208120601f198616915b82811015610d8257888601518255948401946001909101908401610d63565b5085821015610da257878501516008601f88160260020a60001904191681555b5050505050600202600101905550565b60008251610dc4818460208701610b03565b919091019291505056fea2646970667358221220350c694576e088594bd02937d0a3401edc3bf846af77952130a950018e9bdd7664736f6c63430008110033",
  "linkReferences": {},
  "deployedLinkReferences": {}
}