{
  "_format": "hh-sol-artifact-1",
  "contractName": "AlastriaPublicKeyRegistry",
  "sourceName": "contracts/registries/AlastriaPublicKeyRegistry.sol",
  "abi": [
    {
      "anonymous": false,
      "inputs": [
        {
          "indexed": false,
          "internalType": "uint8",
          "name": "version",
          "type": "uint8"
        }
      ],
      "name": "Initialized",
      "type": "event"
    },
    {
      "anonymous": false,
      "inputs": [
        {
          "indexed": false,
          "internalType": "string",
          "name": "publicKey",
          "type": "string"
        }
      ],
      "name": "PublicKeyDeleted",
      "type": "event"
    },
    {
      "anonymous": false,
      "inputs": [
        {
          "indexed": false,
          "internalType": "bytes32",
          "name": "publicKeyHash",
          "type": "bytes32"
        }
      ],
      "name": "PublicKeyDeleted",
      "type": "event"
    },
    {
      "anonymous": false,
      "inputs": [
        {
          "indexed": false,
          "internalType": "string",
          "name": "publicKey",
          "type": "string"
        }
      ],
      "name": "PublicKeyRevoked",
      "type": "event"
    },
    {
      "anonymous": false,
      "inputs": [
        {
          "indexed": false,
          "internalType": "bytes32",
          "name": "publicKeyHash",
          "type": "bytes32"
        }
      ],
      "name": "PublicKeyRevoked",
      "type": "event"
    },
    {
      "inputs": [
        {
          "internalType": "string",
          "name": "publicKey",
          "type": "string"
        }
      ],
      "name": "addKey",
      "outputs": [],
      "stateMutability": "nonpayable",
      "type": "function"
    },
    {
      "inputs": [
        {
          "internalType": "bytes32",
          "name": "publicKeyHash",
          "type": "bytes32"
        }
      ],
      "name": "addPublicKey",
      "outputs": [],
      "stateMutability": "nonpayable",
      "type": "function"
    },
    {
      "inputs": [
        {
          "internalType": "bytes32",
          "name": "publicKeyHash",
          "type": "bytes32"
        }
      ],
      "name": "deletePublicKey",
      "outputs": [],
      "stateMutability": "nonpayable",
      "type": "function"
    },
    {
      "inputs": [
        {
          "internalType": "string",
          "name": "publicKey",
          "type": "string"
        }
      ],
      "name": "deletePublicKey",
      "outputs": [],
      "stateMutability": "nonpayable",
      "type": "function"
    },
    {
      "inputs": [
        {
          "internalType": "address",
          "name": "subject",
          "type": "address"
        }
      ],
      "name": "getCurrentPublicKey",
      "outputs": [
        {
          "internalType": "string",
          "name": "",
          "type": "string"
        }
      ],
      "stateMutability": "view",
      "type": "function"
    },
    {
      "inputs": [
        {
          "internalType": "address",
          "name": "subject",
          "type": "address"
        },
        {
          "internalType": "bytes32",
          "name": "publicKeyHash",
          "type": "bytes32"
        }
      ],
      "name": "getPublicKeyStatus",
      "outputs": [
        {
          "internalType": "bool",
          "name": "exists",
          "type": "bool"
        },
        {
          "internalType": "enum AlastriaPublicKeyRegistry.Status",
          "name": "status",
          "type": "uint8"
        },
        {
          "internalType": "uint256",
          "name": "startDate",
          "type": "uint256"
        },
        {
          "internalType": "uint256",
          "name": "endDate",
          "type": "uint256"
        }
      ],
      "stateMutability": "view",
      "type": "function"
    },
    {
      "inputs": [
        {
          "internalType": "address",
          "name": "_previousPublishedVersion",
          "type": "address"
        }
      ],
      "name": "initialize",
      "outputs": [],
      "stateMutability": "nonpayable",
      "type": "function"
    },
    {
      "inputs": [],
      "name": "previousPublishedVersion",
      "outputs": [
        {
          "internalType": "address",
          "name": "",
          "type": "address"
        }
      ],
      "stateMutability": "view",
      "type": "function"
    },
    {
      "inputs": [
        {
          "internalType": "address",
          "name": "",
          "type": "address"
        },
        {
          "internalType": "uint256",
          "name": "",
          "type": "uint256"
        }
      ],
      "name": "publicKeyList",
      "outputs": [
        {
          "internalType": "string",
          "name": "",
          "type": "string"
        }
      ],
      "stateMutability": "view",
      "type": "function"
    },
    {
      "inputs": [
        {
          "internalType": "bytes32",
          "name": "publicKeyHash",
          "type": "bytes32"
        }
      ],
      "name": "revokePublicKey",
      "outputs": [],
      "stateMutability": "nonpayable",
      "type": "function"
    },
    {
      "inputs": [
        {
          "internalType": "string",
          "name": "publicKey",
          "type": "string"
        }
      ],
      "name": "revokePublicKey",
      "outputs": [],
      "stateMutability": "nonpayable",
      "type": "function"
    },
    {
      "inputs": [],
      "name": "version",
      "outputs": [
        {
          "internalType": "int256",
          "name": "",
          "type": "int256"
        }
      ],
      "stateMutability": "view",
      "type": "function"
    }
  ],
  "bytecode": "0x608060405234801561001057600080fd5b50610d77806100206000396000f3fe608060405234801561001057600080fd5b50600436106100b45760003560e01c80636104464f116100715780636104464f146101575780639e2fe0e914610182578063a8c5916914610195578063c000ceee146101a8578063c4d66de8146101bb578063d16df8ec146101ce57600080fd5b80631226f6a5146100b95780631993b4f9146100e557806331f7f259146100fa578063362419621461011a57806350382c1a1461012d57806354fd4d5014610140575b600080fd5b6100cc6100c73660046109cb565b6101e1565b6040516100dc9493929190610a0b565b60405180910390f35b6100f86100f3366004610a4d565b6102b1565b005b61010d610108366004610a66565b610321565b6040516100dc9190610aac565b6100f8610128366004610af5565b61043e565b6100f861013b366004610af5565b6104b7565b61014960015481565b6040519081526020016100dc565b60025461016a906001600160a01b031681565b6040516001600160a01b0390911681526020016100dc565b6100f8610190366004610a4d565b6105cf565b6100f86101a3366004610a4d565b610690565b61010d6101b63660046109cb565b610711565b6100f86101c9366004610a66565b6107ca565b6100f86101dc366004610af5565b6108ec565b6000808080856001600160a01b0381166101fa57600080fd5b6001600160a01b038716600090815260036020908152604080832089845290915290205460ff1661026a5760405162461bcd60e51b81526020600482015260156024820152745075626c6963204b6579206e6f742065786973747360581b60448201526064015b60405180910390fd5b505050506001600160a01b03929092166000908152600360209081526040808320938352929052208054600182015460029092015460ff8083169561010090930416935090565b3360009081526003602090815260408083208484529091529020805460ff161561031d57805461ff0019166101001781554260028201556040518281527fc7a155c4482b9b68d8c683396c4c1c6ec3303f39766ae7d6ccc88272b7f5b651906020015b60405180910390a15b5050565b6060816001600160a01b03811661033757600080fd5b6001600160a01b03831660009081526004602052604090205415610425576001600160a01b0383166000908152600460205260409020805461037b90600190610ba6565b8154811061038b5761038b610bcd565b9060005260206000200180546103a090610be3565b80601f01602080910402602001604051908101604052809291908181526020018280546103cc90610be3565b80156104195780601f106103ee57610100808354040283529160200191610419565b820191906000526020600020905b8154815290600101906020018083116103fc57829003601f168201915b50505050509150610438565b6040518060200160405280600081525091505b50919050565b336000908152600360205260408120816104578461097f565b81526020810191909152604001600020805490915060ff161561031d57805461ff0019166101001781554260028201556040517f590ada3b231515dd26dca05728f31024554fc0eca9ef33aa1d623bc4d7d5fd5090610314908490610aac565b336000908152600360205260408120906104d08361097f565b815260208101919091526040016000205460ff16156104ee57600080fd5b426104fb6101dc33610321565b604080516080810182526001815260006020808301829052828401859052606083018290523382526003905291822090916105358561097f565b81526020808201929092526040016000208251815490151560ff19821681178355928401519192839161ff001990911661ffff1990911617610100836001811115610582576105826109f5565b02179055506040828101516001808401919091556060909301516002909201919091553360009081526004602090815291812080549384018155815220016105ca8382610c65565b505050565b33600090815260036020908152604080832084845290915290205460ff16156105f757600080fd5b60408051608081019091526001815242906020810160008152602080820184905260006040928301819052338152600382528281208682528252919091208251815490151560ff19821681178355928401519192839161ff001990911661ffff1990911617610100836001811115610671576106716109f5565b0217905550604082015160018201556060909101516002909101555050565b3360009081526003602090815260408083208484529091529020805460ff1680156106d6575060018154610100900460ff1660018111156106d3576106d36109f5565b14155b1561031d574260028201556040518281527fe23e76c154822a25bd6dd330dcf4f1998f97c4c45cd64ecac9e096f56c2511f790602001610314565b6004602052816000526040600020818154811061072d57600080fd5b9060005260206000200160009150915050805461074990610be3565b80601f016020809104026020016040519081016040528092919081815260200182805461077590610be3565b80156107c25780601f10610797576101008083540402835291602001916107c2565b820191906000526020600020905b8154815290600101906020018083116107a557829003601f168201915b505050505081565b600054610100900460ff16158080156107ea5750600054600160ff909116105b806108045750303b158015610804575060005460ff166001145b6108675760405162461bcd60e51b815260206004820152602e60248201527f496e697469616c697a61626c653a20636f6e747261637420697320616c72656160448201526d191e481a5b9a5d1a585b1a5e995960921b6064820152608401610261565b6000805460ff19166001179055801561088a576000805461ff0019166101001790555b6004600155600280546001600160a01b0319166001600160a01b038416179055801561031d576000805461ff0019169055604051600181527f7f26b83ff96e1f2b6a682f133852f6798a09c465da95921460cefb384740249890602001610314565b336000908152600360205260408120816109058461097f565b81526020810191909152604001600020805490915060ff168015610944575060018154610100900460ff166001811115610941576109416109f5565b14155b1561031d574260028201556040517f41d9cf228775966745bd16590f046aff534ab47ea15fc80127ddae02abc8bf3490610314908490610aac565b6000816040516020016109929190610d25565b604051602081830303815290604052805190602001209050919050565b80356001600160a01b03811681146109c657600080fd5b919050565b600080604083850312156109de57600080fd5b6109e7836109af565b946020939093013593505050565b634e487b7160e01b600052602160045260246000fd5b84151581526080810160028510610a3257634e487b7160e01b600052602160045260246000fd5b84602083015283604083015282606083015295945050505050565b600060208284031215610a5f57600080fd5b5035919050565b600060208284031215610a7857600080fd5b610a81826109af565b9392505050565b60005b83811015610aa3578181015183820152602001610a8b565b50506000910152565b6020815260008251806020840152610acb816040850160208701610a88565b601f01601f19169190910160400192915050565b634e487b7160e01b600052604160045260246000fd5b600060208284031215610b0757600080fd5b813567ffffffffffffffff80821115610b1f57600080fd5b818401915084601f830112610b3357600080fd5b813581811115610b4557610b45610adf565b604051601f8201601f19908116603f01168101908382118183101715610b6d57610b6d610adf565b81604052828152876020848701011115610b8657600080fd5b826020860160208301376000928101602001929092525095945050505050565b81810381811115610bc757634e487b7160e01b600052601160045260246000fd5b92915050565b634e487b7160e01b600052603260045260246000fd5b600181811c90821680610bf757607f821691505b60208210810361043857634e487b7160e01b600052602260045260246000fd5b601f8211156105ca57600081815260208120601f850160051c81016020861015610c3e5750805b601f850160051c820191505b81811015610c5d57828155600101610c4a565b505050505050565b815167ffffffffffffffff811115610c7f57610c7f610adf565b610c9381610c8d8454610be3565b84610c17565b602080601f831160018114610cc85760008415610cb05750858301515b600019600386901b1c1916600185901b178555610c5d565b600085815260208120601f198616915b82811015610cf757888601518255948401946001909101908401610cd8565b5085821015610d155787850151600019600388901b60f8161c191681555b5050505050600190811b01905550565b60008251610d37818460208701610a88565b919091019291505056fea26469706673582212202d4a371973337f0796c0434401b9433ade3afe2c6834f9de1a3663f488734f2664736f6c63430008110033",
  "linkReferences": {},
  "deployedLinkReferences": {}
}