{
  "_format": "hh-sol-artifact-1",
  "contractName": "AlastriaCredentialRegistry",
  "sourceName": "contracts/registries/AlastriaCredentialRegistry.sol",
  "abi": [
    {
      "anonymous": false,
      "inputs": [
        {
          "indexed": false,
          "internalType": "bytes32",
          "name": "hash",
          "type": "bytes32"
        },
        {
          "indexed": false,
          "internalType": "enum AlastriaCredentialRegistry.Status",
          "name": "status",
          "type": "uint8"
        }
      ],
      "name": "CredentialUpdated",
      "type": "event"
    },
    {
      "anonymous": false,
      "inputs": [
        {
          "indexed": false,
          "internalType": "uint8",
          "name": "version",
          "type": "uint8"
        }
      ],
      "name": "Initialized",
      "type": "event"
    },
    {
      "anonymous": false,
      "inputs": [
        {
          "indexed": false,
          "internalType": "bytes32",
          "name": "issuerCredentialHash",
          "type": "bytes32"
        },
        {
          "indexed": false,
          "internalType": "enum AlastriaCredentialRegistry.Status",
          "name": "status",
          "type": "uint8"
        }
      ],
      "name": "IssuerCredentialRevoked",
      "type": "event"
    },
    {
      "anonymous": false,
      "inputs": [
        {
          "indexed": false,
          "internalType": "bytes32",
          "name": "subjectCredentialHash",
          "type": "bytes32"
        }
      ],
      "name": "SubjectCredentialDeleted",
      "type": "event"
    },
    {
      "inputs": [
        {
          "internalType": "bytes32",
          "name": "issuerCredentialHash",
          "type": "bytes32"
        }
      ],
      "name": "addIssuerCredential",
      "outputs": [],
      "stateMutability": "nonpayable",
      "type": "function"
    },
    {
      "inputs": [
        {
          "internalType": "bytes32",
          "name": "subjectCredentialHash",
          "type": "bytes32"
        },
        {
          "internalType": "string",
          "name": "",
          "type": "string"
        }
      ],
      "name": "addSubjectCredential",
      "outputs": [],
      "stateMutability": "nonpayable",
      "type": "function"
    },
    {
      "inputs": [
        {
          "internalType": "bytes32",
          "name": "subjectCredentialHash",
          "type": "bytes32"
        }
      ],
      "name": "deleteSubjectCredential",
      "outputs": [],
      "stateMutability": "nonpayable",
      "type": "function"
    },
    {
      "inputs": [
        {
          "internalType": "enum AlastriaCredentialRegistry.Status",
          "name": "subjectStatus",
          "type": "uint8"
        },
        {
          "internalType": "enum AlastriaCredentialRegistry.Status",
          "name": "issuerStatus",
          "type": "uint8"
        }
      ],
      "name": "getCredentialStatus",
      "outputs": [
        {
          "internalType": "enum AlastriaCredentialRegistry.Status",
          "name": "",
          "type": "uint8"
        }
      ],
      "stateMutability": "pure",
      "type": "function"
    },
    {
      "inputs": [
        {
          "internalType": "address",
          "name": "issuer",
          "type": "address"
        },
        {
          "internalType": "bytes32",
          "name": "issuerCredentialHash",
          "type": "bytes32"
        }
      ],
      "name": "getIssuerCredentialStatus",
      "outputs": [
        {
          "internalType": "bool",
          "name": "exists",
          "type": "bool"
        },
        {
          "internalType": "enum AlastriaCredentialRegistry.Status",
          "name": "status",
          "type": "uint8"
        }
      ],
      "stateMutability": "view",
      "type": "function"
    },
    {
      "inputs": [
        {
          "internalType": "address",
          "name": "subject",
          "type": "address"
        },
        {
          "internalType": "bytes32",
          "name": "subjectCredentialHash",
          "type": "bytes32"
        }
      ],
      "name": "getSubjectCredentialStatus",
      "outputs": [
        {
          "internalType": "bool",
          "name": "exists",
          "type": "bool"
        },
        {
          "internalType": "enum AlastriaCredentialRegistry.Status",
          "name": "status",
          "type": "uint8"
        }
      ],
      "stateMutability": "view",
      "type": "function"
    },
    {
      "inputs": [
        {
          "internalType": "address",
          "name": "_previousPublishedVersion",
          "type": "address"
        }
      ],
      "name": "initialize",
      "outputs": [],
      "stateMutability": "nonpayable",
      "type": "function"
    },
    {
      "inputs": [],
      "name": "previousPublishedVersion",
      "outputs": [
        {
          "internalType": "address",
          "name": "",
          "type": "address"
        }
      ],
      "stateMutability": "view",
      "type": "function"
    },
    {
      "inputs": [
        {
          "internalType": "bytes32",
          "name": "issuerCredentialHash",
          "type": "bytes32"
        },
        {
          "internalType": "enum AlastriaCredentialRegistry.Status",
          "name": "status",
          "type": "uint8"
        }
      ],
      "name": "updateCredentialStatus",
      "outputs": [],
      "stateMutability": "nonpayable",
      "type": "function"
    },
    {
      "inputs": [
        {
          "internalType": "bytes32",
          "name": "issuerCredentialHash",
          "type": "bytes32"
        },
        {
          "internalType": "enum AlastriaCredentialRegistry.Status",
          "name": "status",
          "type": "uint8"
        }
      ],
      "name": "updateIssuerCredential",
      "outputs": [],
      "stateMutability": "nonpayable",
      "type": "function"
    },
    {
      "inputs": [
        {
          "internalType": "bytes32",
          "name": "subjectCredentialHash",
          "type": "bytes32"
        },
        {
          "internalType": "enum AlastriaCredentialRegistry.Status",
          "name": "status",
          "type": "uint8"
        }
      ],
      "name": "updateSubjectCredential",
      "outputs": [],
      "stateMutability": "nonpayable",
      "type": "function"
    },
    {
      "inputs": [],
      "name": "version",
      "outputs": [
        {
          "internalType": "int256",
          "name": "",
          "type": "int256"
        }
      ],
      "stateMutability": "view",
      "type": "function"
    }
  ],
  "bytecode": "0x608060405234801561001057600080fd5b50610cd8806100206000396000f3fe608060405234801561001057600080fd5b50600436106100b45760003560e01c8063b116317311610071578063b116317314610169578063c4d66de81461017c578063dc11e39b1461018f578063dd517e10146101a2578063dff9a1a9146101b5578063e04ce02c146101c857600080fd5b806354fd4d50146100b957806355d64732146100d55780635faf7d94146100f65780636104464f146101165780639b6bb60014610141578063aeda232a14610156575b600080fd5b6100c260015481565b6040519081526020015b60405180910390f35b6100e86100e3366004610a97565b6101db565b6040516100cc929190610af9565b610109610104366004610b25565b61022a565b6040516100cc9190610b58565b600254610129906001600160a01b031681565b6040516001600160a01b0390911681526020016100cc565b61015461014f366004610b66565b6102e4565b005b6100e8610164366004610a97565b6104b4565b610154610177366004610b66565b610503565b61015461018a366004610b89565b6105f0565b61015461019d366004610ba4565b61071f565b6101546101b0366004610b66565b6107b8565b6101546101c3366004610ba4565b6108dd565b6101546101d6366004610bd3565b610965565b600080836001600160a01b0381166101f257600080fd5b5050506001600160a01b03919091166000908152600360209081526040808320938352929052205460ff808216926101009092041690565b6000828181600381111561024057610240610ac1565b101580156102605750600381600381111561025d5761025d610ac1565b11155b61026957600080fd5b82600081600381111561027e5761027e610ac1565b1015801561029e5750600381600381111561029b5761029b610ac1565b11155b6102a757600080fd5b8360038111156102b9576102b9610ac1565b8560038111156102cb576102cb610ac1565b106102d8578492506102dc565b8392505b505092915050565b8060008160038111156102f9576102f9610ac1565b101580156103195750600381600381111561031657610316610ac1565b11155b61032257600080fd5b61032b82610a03565b156104af573360009081526003602090815260408083208684529091529020805460ff1661041b57604051806040016040528060011515815260200184600381111561037957610379610ac1565b905233600090815260036020818152604080842089855282529092208351815490151560ff198216811783559385015191939192849261ff00191661ffff1990921691909117906101009084908111156103d5576103d5610ac1565b02179055509050507f07d07adce2e04383c59a74512c5b56f74f5dce19648a6247d584a71f1cf9c235848460405161040e929190610c8e565b60405180910390a16104ad565b8054610100900460ff16600381111561043657610436610ac1565b83600381111561044857610448610ac1565b11156104ad5780548390829061ff00191661010083600381111561046e5761046e610ac1565b02179055507f07d07adce2e04383c59a74512c5b56f74f5dce19648a6247d584a71f1cf9c23584846040516104a4929190610c8e565b60405180910390a15b505b505050565b600080836001600160a01b0381166104cb57600080fd5b5050506001600160a01b03919091166000908152600460209081526040808320938352929052205460ff808216926101009092041690565b80600081600381111561051857610518610ac1565b101580156105385750600381600381111561053557610535610ac1565b11155b61054157600080fd5b61054a82610a3c565b156104af573360009081526004602090815260408083208684529091529020805460ff1661041b57604051806040016040528060011515815260200184600381111561059857610598610ac1565b905233600090815260046020908152604080832088845282529091208251815490151560ff19821681178355928401519192839161ff001990911661ffff19909116176101008360038111156103d5576103d5610ac1565b600054610100900460ff16158080156106105750600054600160ff909116105b8061062a5750303b15801561062a575060005460ff166001145b6106915760405162461bcd60e51b815260206004820152602e60248201527f496e697469616c697a61626c653a20636f6e747261637420697320616c72656160448201526d191e481a5b9a5d1a585b1a5e995960921b606482015260840160405180910390fd5b6000805460ff1916600117905580156106b4576000805461ff0019166101001790555b6003600155600280546001600160a01b0319166001600160a01b038416179055801561071b576000805461ff0019169055604051600181527f7f26b83ff96e1f2b6a682f133852f6798a09c465da95921460cefb3847402498906020015b60405180910390a15b5050565b33600090815260046020908152604080832084845290915290205460ff161561074757600080fd5b6040805180820182526001815260006020808301828152338352600482528483208684529091529290208151815490151560ff1982168117835593519293919291839161ff001990911661ffff19909116176101008360038111156107ae576107ae610ac1565b0217905550505050565b8060008160038111156107cd576107cd610ac1565b101580156107ed575060038160038111156107ea576107ea610ac1565b11155b6107f657600080fd5b33600090815260046020908152604080832086845290915290208054610100900460ff16600381111561082b5761082b610ac1565b83600381111561083d5761083d610ac1565b11156104ad57600183600381111561085757610857610ac1565b14806108745750600283600381111561087257610872610ac1565b145b156104ad578054600160ff198216811783558491839161ffff19909116176101008360038111156108a7576108a7610ac1565b02179055507f0bc6eed115cb12ced57d22ce88a4be72a3b052cf01e5a1947a1f901f8ff26b1a84846040516104a4929190610c8e565b3360009081526003602090815260408083208484529091529020805460ff168015610923575060038154610100900460ff16600381111561092057610920610ac1565b14155b1561071b57805461ff0019166103001781556040518281527fc83f14fb22d6787113e4b492b1b27daac6284e516a3c61d454359fd426d04c2990602001610712565b33600090815260036020908152604080832085845290915290205460ff161561098d57600080fd5b60408051808201825260018152600060208083018281523383526003808352858420888552909252939091208251815490151560ff1982168117835594519394919392849261ff00191661ffff1990921691909117906101009084908111156109f8576109f8610ac1565b021790555050505050565b600080826003811115610a1857610a18610ac1565b1480610a36575060035b826003811115610a3457610a34610ac1565b145b92915050565b600080826003811115610a5157610a51610ac1565b1480610a6e57506001826003811115610a6c57610a6c610ac1565b145b80610a3657506002610a22565b80356001600160a01b0381168114610a9257600080fd5b919050565b60008060408385031215610aaa57600080fd5b610ab383610a7b565b946020939093013593505050565b634e487b7160e01b600052602160045260246000fd5b60048110610af557634e487b7160e01b600052602160045260246000fd5b9052565b821515815260408101610b0f6020830184610ad7565b9392505050565b803560048110610a9257600080fd5b60008060408385031215610b3857600080fd5b610b4183610b16565b9150610b4f60208401610b16565b90509250929050565b60208101610a368284610ad7565b60008060408385031215610b7957600080fd5b82359150610b4f60208401610b16565b600060208284031215610b9b57600080fd5b610b0f82610a7b565b600060208284031215610bb657600080fd5b5035919050565b634e487b7160e01b600052604160045260246000fd5b60008060408385031215610be657600080fd5b82359150602083013567ffffffffffffffff80821115610c0557600080fd5b818501915085601f830112610c1957600080fd5b813581811115610c2b57610c2b610bbd565b604051601f8201601f19908116603f01168101908382118183101715610c5357610c53610bbd565b81604052828152886020848701011115610c6c57600080fd5b8260208601602083013760006020848301015280955050505050509250929050565b82815260408101610b0f6020830184610ad756fea26469706673582212209eac10d9ec40c89858b2459f9aa83bf09e2983b70911be17907ca2f1e0cadf4e64736f6c63430008110033",
  "linkReferences": {},
  "deployedLinkReferences": {}
}