{
  "_format": "hh-sol-artifact-1",
  "contractName": "AlastriaCredentialRegistry",
  "sourceName": "contracts/registries/AlastriaCredentialRegistry.sol",
  "abi": [
    {
      "anonymous": false,
      "inputs": [
        {
          "indexed": false,
          "internalType": "bytes32",
          "name": "hash",
          "type": "bytes32"
        },
        {
          "indexed": false,
          "internalType": "enum AlastriaCredentialRegistry.Status",
          "name": "status",
          "type": "uint8"
        }
      ],
      "name": "CredentialUpdated",
      "type": "event"
    },
    {
      "anonymous": false,
      "inputs": [
        {
          "indexed": false,
          "internalType": "uint8",
          "name": "version",
          "type": "uint8"
        }
      ],
      "name": "Initialized",
      "type": "event"
    },
    {
      "anonymous": false,
      "inputs": [
        {
          "indexed": false,
          "internalType": "bytes32",
          "name": "issuerCredentialHash",
          "type": "bytes32"
        },
        {
          "indexed": false,
          "internalType": "enum AlastriaCredentialRegistry.Status",
          "name": "status",
          "type": "uint8"
        }
      ],
      "name": "IssuerCredentialRevoked",
      "type": "event"
    },
    {
      "anonymous": false,
      "inputs": [
        {
          "indexed": false,
          "internalType": "bytes32",
          "name": "subjectCredentialHash",
          "type": "bytes32"
        }
      ],
      "name": "SubjectCredentialDeleted",
      "type": "event"
    },
    {
      "inputs": [
        {
          "internalType": "bytes32",
          "name": "issuerCredentialHash",
          "type": "bytes32"
        }
      ],
      "name": "addIssuerCredential",
      "outputs": [],
      "stateMutability": "nonpayable",
      "type": "function"
    },
    {
      "inputs": [
        {
          "internalType": "bytes32",
          "name": "subjectCredentialHash",
          "type": "bytes32"
        },
        {
          "internalType": "string",
          "name": "",
          "type": "string"
        }
      ],
      "name": "addSubjectCredential",
      "outputs": [],
      "stateMutability": "nonpayable",
      "type": "function"
    },
    {
      "inputs": [
        {
          "internalType": "bytes32",
          "name": "subjectCredentialHash",
          "type": "bytes32"
        }
      ],
      "name": "deleteSubjectCredential",
      "outputs": [],
      "stateMutability": "nonpayable",
      "type": "function"
    },
    {
      "inputs": [
        {
          "internalType": "enum AlastriaCredentialRegistry.Status",
          "name": "subjectStatus",
          "type": "uint8"
        },
        {
          "internalType": "enum AlastriaCredentialRegistry.Status",
          "name": "issuerStatus",
          "type": "uint8"
        }
      ],
      "name": "getCredentialStatus",
      "outputs": [
        {
          "internalType": "enum AlastriaCredentialRegistry.Status",
          "name": "",
          "type": "uint8"
        }
      ],
      "stateMutability": "pure",
      "type": "function"
    },
    {
      "inputs": [
        {
          "internalType": "address",
          "name": "issuer",
          "type": "address"
        },
        {
          "internalType": "bytes32",
          "name": "issuerCredentialHash",
          "type": "bytes32"
        }
      ],
      "name": "getIssuerCredentialStatus",
      "outputs": [
        {
          "internalType": "bool",
          "name": "exists",
          "type": "bool"
        },
        {
          "internalType": "enum AlastriaCredentialRegistry.Status",
          "name": "status",
          "type": "uint8"
        }
      ],
      "stateMutability": "view",
      "type": "function"
    },
    {
      "inputs": [
        {
          "internalType": "address",
          "name": "subject",
          "type": "address"
        },
        {
          "internalType": "bytes32",
          "name": "subjectCredentialHash",
          "type": "bytes32"
        }
      ],
      "name": "getSubjectCredentialStatus",
      "outputs": [
        {
          "internalType": "bool",
          "name": "exists",
          "type": "bool"
        },
        {
          "internalType": "enum AlastriaCredentialRegistry.Status",
          "name": "status",
          "type": "uint8"
        }
      ],
      "stateMutability": "view",
      "type": "function"
    },
    {
      "inputs": [
        {
          "internalType": "address",
          "name": "_previousPublishedVersion",
          "type": "address"
        }
      ],
      "name": "initialize",
      "outputs": [],
      "stateMutability": "nonpayable",
      "type": "function"
    },
    {
      "inputs": [],
      "name": "previousPublishedVersion",
      "outputs": [
        {
          "internalType": "address",
          "name": "",
          "type": "address"
        }
      ],
      "stateMutability": "view",
      "type": "function"
    },
    {
      "inputs": [
        {
          "internalType": "bytes32",
          "name": "issuerCredentialHash",
          "type": "bytes32"
        },
        {
          "internalType": "enum AlastriaCredentialRegistry.Status",
          "name": "status",
          "type": "uint8"
        }
      ],
      "name": "updateCredentialStatus",
      "outputs": [],
      "stateMutability": "nonpayable",
      "type": "function"
    },
    {
      "inputs": [
        {
          "internalType": "bytes32",
          "name": "issuerCredentialHash",
          "type": "bytes32"
        },
        {
          "internalType": "enum AlastriaCredentialRegistry.Status",
          "name": "status",
          "type": "uint8"
        }
      ],
      "name": "updateIssuerCredential",
      "outputs": [],
      "stateMutability": "nonpayable",
      "type": "function"
    },
    {
      "inputs": [
        {
          "internalType": "bytes32",
          "name": "subjectCredentialHash",
          "type": "bytes32"
        },
        {
          "internalType": "enum AlastriaCredentialRegistry.Status",
          "name": "status",
          "type": "uint8"
        }
      ],
      "name": "updateSubjectCredential",
      "outputs": [],
      "stateMutability": "nonpayable",
      "type": "function"
    },
    {
      "inputs": [],
      "name": "version",
      "outputs": [
        {
          "internalType": "int256",
          "name": "",
          "type": "int256"
        }
      ],
      "stateMutability": "view",
      "type": "function"
    }
  ],
  "bytecode": "0x608060405234801561001057600080fd5b50610d76806100206000396000f3fe608060405234801561001057600080fd5b50600436106100d1576000357c010000000000000000000000000000000000000000000000000000000090048063b11631731161008e578063b116317314610186578063c4d66de814610199578063dc11e39b146101ac578063dd517e10146101bf578063dff9a1a9146101d2578063e04ce02c146101e557600080fd5b806354fd4d50146100d657806355d64732146100f25780635faf7d94146101135780636104464f146101335780639b6bb6001461015e578063aeda232a14610173575b600080fd5b6100df60015481565b6040519081526020015b60405180910390f35b610105610100366004610aea565b6101f8565b6040516100e9929190610b7e565b610126610121366004610baa565b610247565b6040516100e99190610bdd565b60025461014690600160a060020a031681565b604051600160a060020a0390911681526020016100e9565b61017161016c366004610beb565b610301565b005b610105610181366004610aea565b6104d1565b610171610194366004610beb565b610520565b6101716101a7366004610c0e565b61060d565b6101716101ba366004610c29565b610772565b6101716101cd366004610beb565b61080b565b6101716101e0366004610c29565b610930565b6101716101f3366004610c71565b6109b8565b60008083600160a060020a03811661020f57600080fd5b505050600160a060020a03919091166000908152600360209081526040808320938352929052205460ff808216926101009092041690565b6000828181600381111561025d5761025d610b14565b1015801561027d5750600381600381111561027a5761027a610b14565b11155b61028657600080fd5b82600081600381111561029b5761029b610b14565b101580156102bb575060038160038111156102b8576102b8610b14565b11155b6102c457600080fd5b8360038111156102d6576102d6610b14565b8560038111156102e8576102e8610b14565b106102f5578492506102f9565b8392505b505092915050565b80600081600381111561031657610316610b14565b101580156103365750600381600381111561033357610333610b14565b11155b61033f57600080fd5b61034882610a56565b156104cc573360009081526003602090815260408083208684529091529020805460ff1661043857604051806040016040528060011515815260200184600381111561039657610396610b14565b905233600090815260036020818152604080842089855282529092208351815490151560ff198216811783559385015191939192849261ff00191661ffff1990921691909117906101009084908111156103f2576103f2610b14565b02179055509050507f07d07adce2e04383c59a74512c5b56f74f5dce19648a6247d584a71f1cf9c235848460405161042b929190610d2c565b60405180910390a16104ca565b8054610100900460ff16600381111561045357610453610b14565b83600381111561046557610465610b14565b11156104ca5780548390829061ff00191661010083600381111561048b5761048b610b14565b02179055507f07d07adce2e04383c59a74512c5b56f74f5dce19648a6247d584a71f1cf9c23584846040516104c1929190610d2c565b60405180910390a15b505b505050565b60008083600160a060020a0381166104e857600080fd5b505050600160a060020a03919091166000908152600460209081526040808320938352929052205460ff808216926101009092041690565b80600081600381111561053557610535610b14565b101580156105555750600381600381111561055257610552610b14565b11155b61055e57600080fd5b61056782610a8f565b156104cc573360009081526004602090815260408083208684529091529020805460ff166104385760405180604001604052806001151581526020018460038111156105b5576105b5610b14565b905233600090815260046020908152604080832088845282529091208251815490151560ff19821681178355928401519192839161ff001990911661ffff19909116176101008360038111156103f2576103f2610b14565b600054610100900460ff161580801561062d5750600054600160ff909116105b806106475750303b158015610647575060005460ff166001145b6106d7576040517f08c379a000000000000000000000000000000000000000000000000000000000815260206004820152602e60248201527f496e697469616c697a61626c653a20636f6e747261637420697320616c72656160448201527f647920696e697469616c697a6564000000000000000000000000000000000000606482015260840160405180910390fd5b6000805460ff1916600117905580156106fa576000805461ff0019166101001790555b60036001556002805473ffffffffffffffffffffffffffffffffffffffff1916600160a060020a038416179055801561076e576000805461ff0019169055604051600181527f7f26b83ff96e1f2b6a682f133852f6798a09c465da95921460cefb3847402498906020015b60405180910390a15b5050565b33600090815260046020908152604080832084845290915290205460ff161561079a57600080fd5b6040805180820182526001815260006020808301828152338352600482528483208684529091529290208151815490151560ff1982168117835593519293919291839161ff001990911661ffff199091161761010083600381111561080157610801610b14565b0217905550505050565b80600081600381111561082057610820610b14565b101580156108405750600381600381111561083d5761083d610b14565b11155b61084957600080fd5b33600090815260046020908152604080832086845290915290208054610100900460ff16600381111561087e5761087e610b14565b83600381111561089057610890610b14565b11156104ca5760018360038111156108aa576108aa610b14565b14806108c7575060028360038111156108c5576108c5610b14565b145b156104ca578054600160ff198216811783558491839161ffff19909116176101008360038111156108fa576108fa610b14565b02179055507f0bc6eed115cb12ced57d22ce88a4be72a3b052cf01e5a1947a1f901f8ff26b1a84846040516104c1929190610d2c565b3360009081526003602090815260408083208484529091529020805460ff168015610976575060038154610100900460ff16600381111561097357610973610b14565b14155b1561076e57805461ff0019166103001781556040518281527fc83f14fb22d6787113e4b492b1b27daac6284e516a3c61d454359fd426d04c2990602001610765565b33600090815260036020908152604080832085845290915290205460ff16156109e057600080fd5b60408051808201825260018152600060208083018281523383526003808352858420888552909252939091208251815490151560ff1982168117835594519394919392849261ff00191661ffff199092169190911790610100908490811115610a4b57610a4b610b14565b021790555050505050565b600080826003811115610a6b57610a6b610b14565b1480610a89575060035b826003811115610a8757610a87610b14565b145b92915050565b600080826003811115610aa457610aa4610b14565b1480610ac157506001826003811115610abf57610abf610b14565b145b80610a8957506002610a75565b8035600160a060020a0381168114610ae557600080fd5b919050565b60008060408385031215610afd57600080fd5b610b0683610ace565b946020939093013593505050565b7f4e487b7100000000000000000000000000000000000000000000000000000000600052602160045260246000fd5b60048110610b7a577f4e487b7100000000000000000000000000000000000000000000000000000000600052602160045260246000fd5b9052565b821515815260408101610b946020830184610b43565b9392505050565b803560048110610ae557600080fd5b60008060408385031215610bbd57600080fd5b610bc683610b9b565b9150610bd460208401610b9b565b90509250929050565b60208101610a898284610b43565b60008060408385031215610bfe57600080fd5b82359150610bd460208401610b9b565b600060208284031215610c2057600080fd5b610b9482610ace565b600060208284031215610c3b57600080fd5b5035919050565b7f4e487b7100000000000000000000000000000000000000000000000000000000600052604160045260246000fd5b60008060408385031215610c8457600080fd5b82359150602083013567ffffffffffffffff80821115610ca357600080fd5b818501915085601f830112610cb757600080fd5b813581811115610cc957610cc9610c42565b604051601f8201601f19908116603f01168101908382118183101715610cf157610cf1610c42565b81604052828152886020848701011115610d0a57600080fd5b8260208601602083013760006020848301015280955050505050509250929050565b82815260408101610b946020830184610b4356fea26469706673582212209ae331dd7b495fd6dd27bf68260d4d4e2bfe36ede172a48dd88c4c3889d9f18c64736f6c63430008110033",
  "linkReferences": {},
  "deployedLinkReferences": {}
}