{
  "_format": "hh-sol-artifact-1",
  "contractName": "AlastriaNameService",
  "sourceName": "contracts/nameService/AlastriaNameService.sol",
  "abi": [
    {
      "inputs": [
        {
          "internalType": "address",
          "name": "_firstIdentity",
          "type": "address"
        }
      ],
      "stateMutability": "nonpayable",
      "type": "constructor"
    },
    {
      "inputs": [
        {
          "internalType": "address",
          "name": "_addressEntity",
          "type": "address"
        },
        {
          "internalType": "string",
          "name": "_name",
          "type": "string"
        },
        {
          "internalType": "string",
          "name": "_cif",
          "type": "string"
        },
        {
          "internalType": "string",
          "name": "_url_logo",
          "type": "string"
        },
        {
          "internalType": "string",
          "name": "_url_createAID",
          "type": "string"
        },
        {
          "internalType": "string",
          "name": "_url_AOA",
          "type": "string"
        }
      ],
      "name": "addEntity",
      "outputs": [],
      "stateMutability": "nonpayable",
      "type": "function"
    },
    {
      "inputs": [],
      "name": "cif",
      "outputs": [
        {
          "internalType": "string",
          "name": "",
          "type": "string"
        }
      ],
      "stateMutability": "view",
      "type": "function"
    },
    {
      "inputs": [],
      "name": "entitiesList",
      "outputs": [
        {
          "internalType": "address[]",
          "name": "",
          "type": "address[]"
        }
      ],
      "stateMutability": "view",
      "type": "function"
    },
    {
      "inputs": [
        {
          "internalType": "address",
          "name": "_addressEntity",
          "type": "address"
        }
      ],
      "name": "getEntity",
      "outputs": [
        {
          "internalType": "string",
          "name": "_name",
          "type": "string"
        },
        {
          "internalType": "string",
          "name": "_cif",
          "type": "string"
        },
        {
          "internalType": "string",
          "name": "_url_logo",
          "type": "string"
        },
        {
          "internalType": "string",
          "name": "_url_createAID",
          "type": "string"
        },
        {
          "internalType": "string",
          "name": "_url_AOA",
          "type": "string"
        },
        {
          "internalType": "bool",
          "name": "_active",
          "type": "bool"
        }
      ],
      "stateMutability": "view",
      "type": "function"
    },
    {
      "inputs": [],
      "name": "name",
      "outputs": [
        {
          "internalType": "string",
          "name": "",
          "type": "string"
        }
      ],
      "stateMutability": "view",
      "type": "function"
    },
    {
      "inputs": [
        {
          "internalType": "address",
          "name": "_addressEntity",
          "type": "address"
        },
        {
          "internalType": "string",
          "name": "_cif",
          "type": "string"
        }
      ],
      "name": "setCifEntity",
      "outputs": [],
      "stateMutability": "nonpayable",
      "type": "function"
    },
    {
      "inputs": [
        {
          "internalType": "address",
          "name": "_addressEntity",
          "type": "address"
        },
        {
          "internalType": "string",
          "name": "_name",
          "type": "string"
        }
      ],
      "name": "setNameEntity",
      "outputs": [],
      "stateMutability": "nonpayable",
      "type": "function"
    },
    {
      "inputs": [
        {
          "internalType": "address",
          "name": "_addressEntity",
          "type": "address"
        },
        {
          "internalType": "string",
          "name": "_url_AOA",
          "type": "string"
        }
      ],
      "name": "setUrlAOA",
      "outputs": [],
      "stateMutability": "nonpayable",
      "type": "function"
    },
    {
      "inputs": [
        {
          "internalType": "address",
          "name": "_addressEntity",
          "type": "address"
        },
        {
          "internalType": "string",
          "name": "_url_createAID",
          "type": "string"
        }
      ],
      "name": "setUrlCreateAID",
      "outputs": [],
      "stateMutability": "nonpayable",
      "type": "function"
    },
    {
      "inputs": [
        {
          "internalType": "address",
          "name": "_addressEntity",
          "type": "address"
        },
        {
          "internalType": "string",
          "name": "_url_logo",
          "type": "string"
        }
      ],
      "name": "setUrlLogo",
      "outputs": [],
      "stateMutability": "nonpayable",
      "type": "function"
    },
    {
      "inputs": [],
      "name": "url_AOA",
      "outputs": [
        {
          "internalType": "string",
          "name": "",
          "type": "string"
        }
      ],
      "stateMutability": "view",
      "type": "function"
    },
    {
      "inputs": [],
      "name": "url_createAID",
      "outputs": [
        {
          "internalType": "string",
          "name": "",
          "type": "string"
        }
      ],
      "stateMutability": "view",
      "type": "function"
    },
    {
      "inputs": [],
      "name": "url_logo",
      "outputs": [
        {
          "internalType": "string",
          "name": "",
          "type": "string"
        }
      ],
      "stateMutability": "view",
      "type": "function"
    }
  ],
  "bytecode": "0x60c0604052601160809081527f66697273744964656e746974792d63696600000000000000000000000000000060a0526000906200003e908262000691565b5060408051808201909152601681527f66697273744964656e746974792d75726c5f6c6f676f00000000000000000000602082015260019062000082908262000691565b5060408051808201909152601b81527f66697273744964656e746974792d75726c5f63726561746541494400000000006020820152600290620000c6908262000691565b5060408051808201909152601581527f66697273744964656e746974792d75726c5f414f41000000000000000000000060208201526003906200010a908262000691565b5060408051808201909152600d81527f66697273746964656e746974790000000000000000000000000000000000000060208201526004906200014e908262000691565b503480156200015c57600080fd5b506040516200165e3803806200165e8339810160408190526200017f9162000764565b6200047a81600480546200019390620005e9565b80601f0160208091040260200160405190810160405280929190818152602001828054620001c190620005e9565b8015620002125780601f10620001e65761010080835404028352916020019162000212565b820191906000526020600020905b815481529060010190602001808311620001f457829003601f168201915b5050505050600080546200022690620005e9565b80601f01602080910402602001604051908101604052809291908181526020018280546200025490620005e9565b8015620002a55780601f106200027957610100808354040283529160200191620002a5565b820191906000526020600020905b8154815290600101906020018083116200028757829003601f168201915b505050505060018054620002b990620005e9565b80601f0160208091040260200160405190810160405280929190818152602001828054620002e790620005e9565b8015620003385780601f106200030c5761010080835404028352916020019162000338565b820191906000526020600020905b8154815290600101906020018083116200031a57829003601f168201915b5050505050600280546200034c90620005e9565b80601f01602080910402602001604051908101604052809291908181526020018280546200037a90620005e9565b8015620003cb5780601f106200039f57610100808354040283529160200191620003cb565b820191906000526020600020905b815481529060010190602001808311620003ad57829003601f168201915b505050505060038054620003df90620005e9565b80601f01602080910402602001604051908101604052809291908181526020018280546200040d90620005e9565b80156200045e5780601f1062000432576101008083540402835291602001916200045e565b820191906000526020600020905b8154815290600101906020018083116200044057829003601f168201915b5050505050600162000481640100000000026401000000009004565b5062000796565b60068054600181019091557ff652222313e28459528d920b65115c16c04f3efc82aaedc97be59f3f377c0d3f018054600160a060020a031916600160a060020a0389169081179091556000908152600560205260409020620004e4878262000691565b50600160a060020a03871660009081526005602052604090206001016200050c868262000691565b50600160a060020a038716600090815260056020526040902060020162000534858262000691565b50600160a060020a03871660009081526005602052604090206003016200055c848262000691565b50600160a060020a038716600090815260056020526040902060040162000584838262000691565b50600160a060020a0396909616600090815260056020819052604090912001805460ff1916961515969096179095555050505050565b7f4e487b7100000000000000000000000000000000000000000000000000000000600052604160045260246000fd5b600281046001821680620005fe57607f821691505b60208210810362000638577f4e487b7100000000000000000000000000000000000000000000000000000000600052602260045260246000fd5b50919050565b601f8211156200068c576000818152602081206020601f86010481016020861015620006675750805b6020601f860104820191505b81811015620006885782815560010162000673565b5050505b505050565b815167ffffffffffffffff811115620006ae57620006ae620005ba565b620006c681620006bf8454620005e9565b846200063e565b602080601f831160018114620007025760008415620006e55750858301515b60028086026008870290910a600019041982161786555062000688565b600085815260208120601f198616915b82811015620007335788860151825594840194600190910190840162000712565b50858210156200075457878501516008601f88160260020a60001904191681555b5050505050600202600101905550565b6000602082840312156200077757600080fd5b8151600160a060020a03811681146200078f57600080fd5b9392505050565b610eb880620007a66000396000f3fe608060405234801561001057600080fd5b50600436106100ec576000357c010000000000000000000000000000000000000000000000000000000090048063500bebf3116100a95780637f35d729116100835780637f35d729146101a75780638e672cf7146101af578063bf039d43146101c2578063eb5c426c146101ca57600080fd5b8063500bebf3146101655780636e7a216b1461016d57806375894e8c1461018257600080fd5b806306fdde03146100f15780630ff72ef21461010f5780631252a083146101245780631e5f6f01146101375780633bdf88631461014a5780634b7a185914610152575b600080fd5b6100f96101dd565b6040516101069190610a1a565b60405180910390f35b61012261011d366004610b0c565b61026b565b005b610122610132366004610b5a565b6102c6565b610122610145366004610b0c565b610331565b6100f9610386565b610122610160366004610b0c565b610393565b6100f96103e8565b6101756103f5565b6040516101069190610c3b565b610195610190366004610c88565b610457565b60405161010696959493929190610ca3565b6100f96107d7565b6101226101bd366004610b0c565b6107e4565b6100f9610839565b6101226101d8366004610b0c565b610846565b600480546101ea90610d1a565b80601f016020809104026020016040519081016040528092919081815260200182805461021690610d1a565b80156102635780601f1061023857610100808354040283529160200191610263565b820191906000526020600020905b81548152906001019060200180831161024657829003601f168201915b505050505081565b600160a060020a03821660009081526005602081905260409091200154829060ff16151560011461029b57600080fd5b600160a060020a03831660009081526005602052604090206002016102c08382610dbc565b50505050565b600160a060020a03861660009081526005602081905260409091200154869060ff16156102f257600080fd5b336000818152600560208190526040909120015460ff16151560011461031757600080fd5b6103278888888888886001610898565b5050505050505050565b600160a060020a03821660009081526005602081905260409091200154829060ff16151560011461036157600080fd5b600160a060020a03831660009081526005602052604090206001016102c08382610dbc565b600280546101ea90610d1a565b600160a060020a03821660009081526005602081905260409091200154829060ff1615156001146103c357600080fd5b600160a060020a03831660009081526005602052604090206003016102c08382610dbc565b600180546101ea90610d1a565b6060600680548060200260200160405190810160405280929190818152602001828054801561044d57602002820191906000526020600020905b8154600160a060020a0316815260019091019060200180831161042f575b5050505050905090565b600160a060020a038116600090815260056020526040812080546060928392839283928392909161048790610d1a565b80601f01602080910402602001604051908101604052809291908181526020018280546104b390610d1a565b80156105005780601f106104d557610100808354040283529160200191610500565b820191906000526020600020905b8154815290600101906020018083116104e357829003601f168201915b50505050600160a060020a038916600090815260056020526040902060010180549298509161052f9150610d1a565b80601f016020809104026020016040519081016040528092919081815260200182805461055b90610d1a565b80156105a85780601f1061057d576101008083540402835291602001916105a8565b820191906000526020600020905b81548152906001019060200180831161058b57829003601f168201915b50505050600160a060020a03891660009081526005602052604090206002018054929750916105d79150610d1a565b80601f016020809104026020016040519081016040528092919081815260200182805461060390610d1a565b80156106505780601f1061062557610100808354040283529160200191610650565b820191906000526020600020905b81548152906001019060200180831161063357829003601f168201915b50505050600160a060020a038916600090815260056020526040902060030180549296509161067f9150610d1a565b80601f01602080910402602001604051908101604052809291908181526020018280546106ab90610d1a565b80156106f85780601f106106cd576101008083540402835291602001916106f8565b820191906000526020600020905b8154815290600101906020018083116106db57829003601f168201915b50505050600160a060020a03891660009081526005602052604090206004018054929550916107279150610d1a565b80601f016020809104026020016040519081016040528092919081815260200182805461075390610d1a565b80156107a05780601f10610775576101008083540402835291602001916107a0565b820191906000526020600020905b81548152906001019060200180831161078357829003601f168201915b50505050600160a060020a03989098166000908152600560208190526040909120015496989597509395929460ff90931692915050565b600080546101ea90610d1a565b600160a060020a03821660009081526005602081905260409091200154829060ff16151560011461081457600080fd5b600160a060020a03831660009081526005602052604090206004016102c08382610dbc565b600380546101ea90610d1a565b600160a060020a03821660009081526005602081905260409091200154829060ff16151560011461087657600080fd5b600160a060020a03831660009081526005602052604090206102c08382610dbc565b60068054600181019091557ff652222313e28459528d920b65115c16c04f3efc82aaedc97be59f3f377c0d3f01805473ffffffffffffffffffffffffffffffffffffffff1916600160a060020a03891690811790915560009081526005602052604090206109068782610dbc565b50600160a060020a038716600090815260056020526040902060010161092c8682610dbc565b50600160a060020a03871660009081526005602052604090206002016109528582610dbc565b50600160a060020a03871660009081526005602052604090206003016109788482610dbc565b50600160a060020a038716600090815260056020526040902060040161099e8382610dbc565b50600160a060020a0396909616600090815260056020819052604090912001805460ff1916961515969096179095555050505050565b6000815180845260005b818110156109fa576020818501810151868301820152016109de565b506000602082860101526020601f19601f83011685010191505092915050565b602081526000610a2d60208301846109d4565b9392505050565b8035600160a060020a0381168114610a4b57600080fd5b919050565b7f4e487b7100000000000000000000000000000000000000000000000000000000600052604160045260246000fd5b600082601f830112610a9057600080fd5b813567ffffffffffffffff80821115610aab57610aab610a50565b604051601f8301601f19908116603f01168101908282118183101715610ad357610ad3610a50565b81604052838152866020858801011115610aec57600080fd5b836020870160208301376000602085830101528094505050505092915050565b60008060408385031215610b1f57600080fd5b610b2883610a34565b9150602083013567ffffffffffffffff811115610b4457600080fd5b610b5085828601610a7f565b9150509250929050565b60008060008060008060c08789031215610b7357600080fd5b610b7c87610a34565b9550602087013567ffffffffffffffff80821115610b9957600080fd5b610ba58a838b01610a7f565b96506040890135915080821115610bbb57600080fd5b610bc78a838b01610a7f565b95506060890135915080821115610bdd57600080fd5b610be98a838b01610a7f565b94506080890135915080821115610bff57600080fd5b610c0b8a838b01610a7f565b935060a0890135915080821115610c2157600080fd5b50610c2e89828a01610a7f565b9150509295509295509295565b6020808252825182820181905260009190848201906040850190845b81811015610c7c578351600160a060020a031683529284019291840191600101610c57565b50909695505050505050565b600060208284031215610c9a57600080fd5b610a2d82610a34565b60c081526000610cb660c08301896109d4565b8281036020840152610cc881896109d4565b90508281036040840152610cdc81886109d4565b90508281036060840152610cf081876109d4565b90508281036080840152610d0481866109d4565b91505082151560a0830152979650505050505050565b600281046001821680610d2e57607f821691505b602082108103610d67577f4e487b7100000000000000000000000000000000000000000000000000000000600052602260045260246000fd5b50919050565b601f821115610db7576000818152602081206020601f86010481016020861015610d945750805b6020601f860104820191505b81811015610db357828155600101610da0565b5050505b505050565b815167ffffffffffffffff811115610dd657610dd6610a50565b610dea81610de48454610d1a565b84610d6d565b602080601f831160018114610e235760008415610e075750858301515b60028086026008870290910a6000190419821617865550610db3565b600085815260208120601f198616915b82811015610e5257888601518255948401946001909101908401610e33565b5085821015610e7257878501516008601f88160260020a60001904191681555b505050505060020260010190555056fea26469706673582212200036df3deb0eebd5e3090ff74646b3d7272923e592dc2230cfc4d04a61b008cd64736f6c63430008110033",
  "linkReferences": {},
  "deployedLinkReferences": {}
}