{
  "_format": "hh-sol-artifact-1",
  "contractName": "AlastriaNameService",
  "sourceName": "contracts/nameService/AlastriaNameService.sol",
  "abi": [
    {
      "inputs": [
        {
          "internalType": "address",
          "name": "_firstIdentity",
          "type": "address"
        }
      ],
      "stateMutability": "nonpayable",
      "type": "constructor"
    },
    {
      "inputs": [
        {
          "internalType": "address",
          "name": "_addressEntity",
          "type": "address"
        },
        {
          "internalType": "string",
          "name": "_name",
          "type": "string"
        },
        {
          "internalType": "string",
          "name": "_cif",
          "type": "string"
        },
        {
          "internalType": "string",
          "name": "_url_logo",
          "type": "string"
        },
        {
          "internalType": "string",
          "name": "_url_createAID",
          "type": "string"
        },
        {
          "internalType": "string",
          "name": "_url_AOA",
          "type": "string"
        }
      ],
      "name": "addEntity",
      "outputs": [],
      "stateMutability": "nonpayable",
      "type": "function"
    },
    {
      "inputs": [],
      "name": "cif",
      "outputs": [
        {
          "internalType": "string",
          "name": "",
          "type": "string"
        }
      ],
      "stateMutability": "view",
      "type": "function"
    },
    {
      "inputs": [],
      "name": "entitiesList",
      "outputs": [
        {
          "internalType": "address[]",
          "name": "",
          "type": "address[]"
        }
      ],
      "stateMutability": "view",
      "type": "function"
    },
    {
      "inputs": [
        {
          "internalType": "address",
          "name": "_addressEntity",
          "type": "address"
        }
      ],
      "name": "getEntity",
      "outputs": [
        {
          "internalType": "string",
          "name": "_name",
          "type": "string"
        },
        {
          "internalType": "string",
          "name": "_cif",
          "type": "string"
        },
        {
          "internalType": "string",
          "name": "_url_logo",
          "type": "string"
        },
        {
          "internalType": "string",
          "name": "_url_createAID",
          "type": "string"
        },
        {
          "internalType": "string",
          "name": "_url_AOA",
          "type": "string"
        },
        {
          "internalType": "bool",
          "name": "_active",
          "type": "bool"
        }
      ],
      "stateMutability": "view",
      "type": "function"
    },
    {
      "inputs": [],
      "name": "name",
      "outputs": [
        {
          "internalType": "string",
          "name": "",
          "type": "string"
        }
      ],
      "stateMutability": "view",
      "type": "function"
    },
    {
      "inputs": [
        {
          "internalType": "address",
          "name": "_addressEntity",
          "type": "address"
        },
        {
          "internalType": "string",
          "name": "_cif",
          "type": "string"
        }
      ],
      "name": "setCifEntity",
      "outputs": [],
      "stateMutability": "nonpayable",
      "type": "function"
    },
    {
      "inputs": [
        {
          "internalType": "address",
          "name": "_addressEntity",
          "type": "address"
        },
        {
          "internalType": "string",
          "name": "_name",
          "type": "string"
        }
      ],
      "name": "setNameEntity",
      "outputs": [],
      "stateMutability": "nonpayable",
      "type": "function"
    },
    {
      "inputs": [
        {
          "internalType": "address",
          "name": "_addressEntity",
          "type": "address"
        },
        {
          "internalType": "string",
          "name": "_url_AOA",
          "type": "string"
        }
      ],
      "name": "setUrlAOA",
      "outputs": [],
      "stateMutability": "nonpayable",
      "type": "function"
    },
    {
      "inputs": [
        {
          "internalType": "address",
          "name": "_addressEntity",
          "type": "address"
        },
        {
          "internalType": "string",
          "name": "_url_createAID",
          "type": "string"
        }
      ],
      "name": "setUrlCreateAID",
      "outputs": [],
      "stateMutability": "nonpayable",
      "type": "function"
    },
    {
      "inputs": [
        {
          "internalType": "address",
          "name": "_addressEntity",
          "type": "address"
        },
        {
          "internalType": "string",
          "name": "_url_logo",
          "type": "string"
        }
      ],
      "name": "setUrlLogo",
      "outputs": [],
      "stateMutability": "nonpayable",
      "type": "function"
    },
    {
      "inputs": [],
      "name": "url_AOA",
      "outputs": [
        {
          "internalType": "string",
          "name": "",
          "type": "string"
        }
      ],
      "stateMutability": "view",
      "type": "function"
    },
    {
      "inputs": [],
      "name": "url_createAID",
      "outputs": [
        {
          "internalType": "string",
          "name": "",
          "type": "string"
        }
      ],
      "stateMutability": "view",
      "type": "function"
    },
    {
      "inputs": [],
      "name": "url_logo",
      "outputs": [
        {
          "internalType": "string",
          "name": "",
          "type": "string"
        }
      ],
      "stateMutability": "view",
      "type": "function"
    }
  ],
  "bytecode": "0x60c060405260116080908152703334b939ba24b232b73a34ba3c96b1b4b360791b60a0526000906200003290826200063a565b5060408051808201909152601681527f66697273744964656e746974792d75726c5f6c6f676f0000000000000000000060208201526001906200007690826200063a565b5060408051808201909152601b81527f66697273744964656e746974792d75726c5f63726561746541494400000000006020820152600290620000ba90826200063a565b5060408051808201909152601581527f66697273744964656e746974792d75726c5f414f4100000000000000000000006020820152600390620000fe90826200063a565b5060408051808201909152600d81526c66697273746964656e7469747960981b60208201526004906200013290826200063a565b503480156200014057600080fd5b506040516200159e3803806200159e833981016040819052620001639162000706565b6200045581600480546200017790620005ab565b80601f0160208091040260200160405190810160405280929190818152602001828054620001a590620005ab565b8015620001f65780601f10620001ca57610100808354040283529160200191620001f6565b820191906000526020600020905b815481529060010190602001808311620001d857829003601f168201915b5050505050600080546200020a90620005ab565b80601f01602080910402602001604051908101604052809291908181526020018280546200023890620005ab565b8015620002895780601f106200025d5761010080835404028352916020019162000289565b820191906000526020600020905b8154815290600101906020018083116200026b57829003601f168201915b5050505050600180546200029d90620005ab565b80601f0160208091040260200160405190810160405280929190818152602001828054620002cb90620005ab565b80156200031c5780601f10620002f0576101008083540402835291602001916200031c565b820191906000526020600020905b815481529060010190602001808311620002fe57829003601f168201915b5050505050600280546200033090620005ab565b80601f01602080910402602001604051908101604052809291908181526020018280546200035e90620005ab565b8015620003af5780601f106200038357610100808354040283529160200191620003af565b820191906000526020600020905b8154815290600101906020018083116200039157829003601f168201915b505050505060038054620003c390620005ab565b80601f0160208091040260200160405190810160405280929190818152602001828054620003f190620005ab565b8015620004425780601f10620004165761010080835404028352916020019162000442565b820191906000526020600020905b8154815290600101906020018083116200042457829003601f168201915b505050505060016200045c60201b60201c565b5062000738565b60068054600181019091557ff652222313e28459528d920b65115c16c04f3efc82aaedc97be59f3f377c0d3f0180546001600160a01b0319166001600160a01b0389169081179091556000908152600560205260409020620004bf87826200063a565b506001600160a01b0387166000908152600560205260409020600101620004e786826200063a565b506001600160a01b03871660009081526005602052604090206002016200050f85826200063a565b506001600160a01b03871660009081526005602052604090206003016200053784826200063a565b506001600160a01b03871660009081526005602052604090206004016200055f83826200063a565b506001600160a01b0396909616600090815260056020819052604090912001805460ff1916961515969096179095555050505050565b634e487b7160e01b600052604160045260246000fd5b600181811c90821680620005c057607f821691505b602082108103620005e157634e487b7160e01b600052602260045260246000fd5b50919050565b601f8211156200063557600081815260208120601f850160051c81016020861015620006105750805b601f850160051c820191505b8181101562000631578281556001016200061c565b5050505b505050565b81516001600160401b0381111562000656576200065662000595565b6200066e81620006678454620005ab565b84620005e7565b602080601f831160018114620006a657600084156200068d5750858301515b600019600386901b1c1916600185901b17855562000631565b600085815260208120601f198616915b82811015620006d757888601518255948401946001909101908401620006b6565b5085821015620006f65787850151600019600388901b60f8161c191681555b5050505050600190811b01905550565b6000602082840312156200071957600080fd5b81516001600160a01b03811681146200073157600080fd5b9392505050565b610e5680620007486000396000f3fe608060405234801561001057600080fd5b50600436106100cf5760003560e01c8063500bebf31161008c5780637f35d729116100665780637f35d7291461018a5780638e672cf714610192578063bf039d43146101a5578063eb5c426c146101ad57600080fd5b8063500bebf3146101485780636e7a216b1461015057806375894e8c1461016557600080fd5b806306fdde03146100d45780630ff72ef2146100f25780631252a083146101075780631e5f6f011461011a5780633bdf88631461012d5780634b7a185914610135575b600080fd5b6100dc6101c0565b6040516100e991906109f0565b60405180910390f35b610105610100366004610ac9565b61024e565b005b610105610115366004610b17565b6102a9565b610105610128366004610ac9565b610314565b6100dc610369565b610105610143366004610ac9565b610376565b6100dc6103cb565b6101586103d8565b6040516100e99190610bf8565b610178610173366004610c45565b61043a565b6040516100e996959493929190610c60565b6100dc6107ba565b6101056101a0366004610ac9565b6107c7565b6100dc61081c565b6101056101bb366004610ac9565b610829565b600480546101cd90610cd7565b80601f01602080910402602001604051908101604052809291908181526020018280546101f990610cd7565b80156102465780601f1061021b57610100808354040283529160200191610246565b820191906000526020600020905b81548152906001019060200180831161022957829003601f168201915b505050505081565b6001600160a01b03821660009081526005602081905260409091200154829060ff16151560011461027e57600080fd5b6001600160a01b03831660009081526005602052604090206002016102a38382610d60565b50505050565b6001600160a01b03861660009081526005602081905260409091200154869060ff16156102d557600080fd5b336000818152600560208190526040909120015460ff1615156001146102fa57600080fd5b61030a888888888888600161087b565b5050505050505050565b6001600160a01b03821660009081526005602081905260409091200154829060ff16151560011461034457600080fd5b6001600160a01b03831660009081526005602052604090206001016102a38382610d60565b600280546101cd90610cd7565b6001600160a01b03821660009081526005602081905260409091200154829060ff1615156001146103a657600080fd5b6001600160a01b03831660009081526005602052604090206003016102a38382610d60565b600180546101cd90610cd7565b6060600680548060200260200160405190810160405280929190818152602001828054801561043057602002820191906000526020600020905b81546001600160a01b03168152600190910190602001808311610412575b5050505050905090565b6001600160a01b038116600090815260056020526040812080546060928392839283928392909161046a90610cd7565b80601f016020809104026020016040519081016040528092919081815260200182805461049690610cd7565b80156104e35780601f106104b8576101008083540402835291602001916104e3565b820191906000526020600020905b8154815290600101906020018083116104c657829003601f168201915b505050506001600160a01b03891660009081526005602052604090206001018054929850916105129150610cd7565b80601f016020809104026020016040519081016040528092919081815260200182805461053e90610cd7565b801561058b5780601f106105605761010080835404028352916020019161058b565b820191906000526020600020905b81548152906001019060200180831161056e57829003601f168201915b505050506001600160a01b03891660009081526005602052604090206002018054929750916105ba9150610cd7565b80601f01602080910402602001604051908101604052809291908181526020018280546105e690610cd7565b80156106335780601f1061060857610100808354040283529160200191610633565b820191906000526020600020905b81548152906001019060200180831161061657829003601f168201915b505050506001600160a01b03891660009081526005602052604090206003018054929650916106629150610cd7565b80601f016020809104026020016040519081016040528092919081815260200182805461068e90610cd7565b80156106db5780601f106106b0576101008083540402835291602001916106db565b820191906000526020600020905b8154815290600101906020018083116106be57829003601f168201915b505050506001600160a01b038916600090815260056020526040902060040180549295509161070a9150610cd7565b80601f016020809104026020016040519081016040528092919081815260200182805461073690610cd7565b80156107835780601f1061075857610100808354040283529160200191610783565b820191906000526020600020905b81548152906001019060200180831161076657829003601f168201915b505050506001600160a01b03989098166000908152600560208190526040909120015496989597509395929460ff90931692915050565b600080546101cd90610cd7565b6001600160a01b03821660009081526005602081905260409091200154829060ff1615156001146107f757600080fd5b6001600160a01b03831660009081526005602052604090206004016102a38382610d60565b600380546101cd90610cd7565b6001600160a01b03821660009081526005602081905260409091200154829060ff16151560011461085957600080fd5b6001600160a01b03831660009081526005602052604090206102a38382610d60565b60068054600181019091557ff652222313e28459528d920b65115c16c04f3efc82aaedc97be59f3f377c0d3f0180546001600160a01b0319166001600160a01b03891690811790915560009081526005602052604090206108dc8782610d60565b506001600160a01b03871660009081526005602052604090206001016109028682610d60565b506001600160a01b03871660009081526005602052604090206002016109288582610d60565b506001600160a01b038716600090815260056020526040902060030161094e8482610d60565b506001600160a01b03871660009081526005602052604090206004016109748382610d60565b506001600160a01b0396909616600090815260056020819052604090912001805460ff1916961515969096179095555050505050565b6000815180845260005b818110156109d0576020818501810151868301820152016109b4565b506000602082860101526020601f19601f83011685010191505092915050565b602081526000610a0360208301846109aa565b9392505050565b80356001600160a01b0381168114610a2157600080fd5b919050565b634e487b7160e01b600052604160045260246000fd5b600082601f830112610a4d57600080fd5b813567ffffffffffffffff80821115610a6857610a68610a26565b604051601f8301601f19908116603f01168101908282118183101715610a9057610a90610a26565b81604052838152866020858801011115610aa957600080fd5b836020870160208301376000602085830101528094505050505092915050565b60008060408385031215610adc57600080fd5b610ae583610a0a565b9150602083013567ffffffffffffffff811115610b0157600080fd5b610b0d85828601610a3c565b9150509250929050565b60008060008060008060c08789031215610b3057600080fd5b610b3987610a0a565b9550602087013567ffffffffffffffff80821115610b5657600080fd5b610b628a838b01610a3c565b96506040890135915080821115610b7857600080fd5b610b848a838b01610a3c565b95506060890135915080821115610b9a57600080fd5b610ba68a838b01610a3c565b94506080890135915080821115610bbc57600080fd5b610bc88a838b01610a3c565b935060a0890135915080821115610bde57600080fd5b50610beb89828a01610a3c565b9150509295509295509295565b6020808252825182820181905260009190848201906040850190845b81811015610c395783516001600160a01b031683529284019291840191600101610c14565b50909695505050505050565b600060208284031215610c5757600080fd5b610a0382610a0a565b60c081526000610c7360c08301896109aa565b8281036020840152610c8581896109aa565b90508281036040840152610c9981886109aa565b90508281036060840152610cad81876109aa565b90508281036080840152610cc181866109aa565b91505082151560a0830152979650505050505050565b600181811c90821680610ceb57607f821691505b602082108103610d0b57634e487b7160e01b600052602260045260246000fd5b50919050565b601f821115610d5b57600081815260208120601f850160051c81016020861015610d385750805b601f850160051c820191505b81811015610d5757828155600101610d44565b5050505b505050565b815167ffffffffffffffff811115610d7a57610d7a610a26565b610d8e81610d888454610cd7565b84610d11565b602080601f831160018114610dc35760008415610dab5750858301515b600019600386901b1c1916600185901b178555610d57565b600085815260208120601f198616915b82811015610df257888601518255948401946001909101908401610dd3565b5085821015610e105787850151600019600388901b60f8161c191681555b5050505050600190811b0190555056fea26469706673582212206dd572203320d08678da52432752f967443bc13b481e01dabaeef9fe5562899864736f6c63430008110033",
  "linkReferences": {},
  "deployedLinkReferences": {}
}