{
  "_format": "hh-sol-artifact-1",
  "contractName": "AlastriaIdentityServiceProvider",
  "sourceName": "contracts/identity/AlastriaIdentityServiceProvider.sol",
  "abi": [
    {
      "inputs": [
        {
          "internalType": "address",
          "name": "_identityServiceProvider",
          "type": "address"
        }
      ],
      "name": "addIdentityServiceProvider",
      "outputs": [],
      "stateMutability": "nonpayable",
      "type": "function"
    },
    {
      "inputs": [
        {
          "internalType": "address",
          "name": "_identityServiceProvider",
          "type": "address"
        }
      ],
      "name": "deleteIdentityServiceProvider",
      "outputs": [],
      "stateMutability": "nonpayable",
      "type": "function"
    },
    {
      "inputs": [
        {
          "internalType": "address",
          "name": "_identityServiceProvider",
          "type": "address"
        }
      ],
      "name": "isIdentityServiceProvider",
      "outputs": [
        {
          "internalType": "bool",
          "name": "",
          "type": "bool"
        }
      ],
      "stateMutability": "view",
      "type": "function"
    }
  ],
  "bytecode": "0x608060405234801561001057600080fd5b506101af806100206000396000f3fe608060405234801561001057600080fd5b50600436106100415760003560e01c80630ebbbffc146100465780633bf472151461005b578063d024d9a41461006e575b600080fd5b610059610054366004610149565b610095565b005b610059610069366004610149565b6100e2565b61008161007c366004610149565b61012b565b604051901515815260200160405180910390f35b3361009f8161012b565b6100a857600080fd5b816100b28161012b565b156100bc57600080fd5b50506001600160a01b03166000908152602081905260409020805460ff19166001179055565b806100ec8161012b565b6100f557600080fd5b336100ff8161012b565b61010857600080fd5b50506001600160a01b03166000908152602081905260409020805460ff19169055565b6001600160a01b031660009081526020819052604090205460ff1690565b60006020828403121561015b57600080fd5b81356001600160a01b038116811461017257600080fd5b939250505056fea264697066735822122084c9e20a8f6970a91089cf181acb4c78c51c547006ceb6c193767d073b4a84c964736f6c63430008110033",
  "linkReferences": {},
  "deployedLinkReferences": {}
}