{
  "_format": "hh-sol-artifact-1",
  "contractName": "AlastriaIdentityServiceProvider",
  "sourceName": "contracts/identity/AlastriaIdentityServiceProvider.sol",
  "abi": [
    {
      "inputs": [
        {
          "internalType": "address",
          "name": "_identityServiceProvider",
          "type": "address"
        }
      ],
      "name": "addIdentityServiceProvider",
      "outputs": [],
      "stateMutability": "nonpayable",
      "type": "function"
    },
    {
      "inputs": [
        {
          "internalType": "address",
          "name": "_identityServiceProvider",
          "type": "address"
        }
      ],
      "name": "deleteIdentityServiceProvider",
      "outputs": [],
      "stateMutability": "nonpayable",
      "type": "function"
    },
    {
      "inputs": [
        {
          "internalType": "address",
          "name": "_identityServiceProvider",
          "type": "address"
        }
      ],
      "name": "isIdentityServiceProvider",
      "outputs": [
        {
          "internalType": "bool",
          "name": "",
          "type": "bool"
        }
      ],
      "stateMutability": "view",
      "type": "function"
    }
  ],
  "bytecode": "0x608060405234801561001057600080fd5b506101ff806100206000396000f3fe608060405234801561001057600080fd5b506004361061005d577c010000000000000000000000000000000000000000000000000000000060003504630ebbbffc81146100625780633bf4721514610077578063d024d9a41461008a575b600080fd5b61007561007036600461018c565b6100b1565b005b61007561008536600461018c565b61010b565b61009d61009836600461018c565b610161565b604051901515815260200160405180910390f35b336100bb81610161565b6100c457600080fd5b816100ce81610161565b156100d857600080fd5b505073ffffffffffffffffffffffffffffffffffffffff166000908152602081905260409020805460ff19166001179055565b8061011581610161565b61011e57600080fd5b3361012881610161565b61013157600080fd5b505073ffffffffffffffffffffffffffffffffffffffff166000908152602081905260409020805460ff19169055565b73ffffffffffffffffffffffffffffffffffffffff1660009081526020819052604090205460ff1690565b60006020828403121561019e57600080fd5b813573ffffffffffffffffffffffffffffffffffffffff811681146101c257600080fd5b939250505056fea26469706673582212205b8eefe99d30cf3c1cb4be52f4214c722c0f41cba5424d7004885affcb0728e864736f6c63430008110033",
  "linkReferences": {},
  "deployedLinkReferences": {}
}