{
  "_format": "hh-sol-artifact-1",
  "contractName": "AlastriaIdentityIssuer",
  "sourceName": "contracts/identity/AlastriaIdentityIssuer.sol",
  "abi": [
    {
      "inputs": [
        {
          "internalType": "address",
          "name": "_identityIssuer",
          "type": "address"
        },
        {
          "internalType": "enum Eidas.EidasLevel",
          "name": "_level",
          "type": "uint8"
        }
      ],
      "name": "addIdentityIssuer",
      "outputs": [],
      "stateMutability": "nonpayable",
      "type": "function"
    },
    {
      "inputs": [
        {
          "internalType": "address",
          "name": "_identityIssuer",
          "type": "address"
        }
      ],
      "name": "deleteIdentityIssuer",
      "outputs": [],
      "stateMutability": "nonpayable",
      "type": "function"
    },
    {
      "inputs": [
        {
          "internalType": "address",
          "name": "_identityIssuer",
          "type": "address"
        }
      ],
      "name": "getEidasLevel",
      "outputs": [
        {
          "internalType": "enum Eidas.EidasLevel",
          "name": "",
          "type": "uint8"
        }
      ],
      "stateMutability": "view",
      "type": "function"
    },
    {
      "inputs": [
        {
          "internalType": "address",
          "name": "_identityIssuer",
          "type": "address"
        }
      ],
      "name": "isIdentityIssuer",
      "outputs": [
        {
          "internalType": "bool",
          "name": "",
          "type": "bool"
        }
      ],
      "stateMutability": "view",
      "type": "function"
    },
    {
      "inputs": [
        {
          "internalType": "address",
          "name": "_identityIssuer",
          "type": "address"
        },
        {
          "internalType": "enum Eidas.EidasLevel",
          "name": "_level",
          "type": "uint8"
        }
      ],
      "name": "updateIdentityIssuerEidasLevel",
      "outputs": [],
      "stateMutability": "nonpayable",
      "type": "function"
    }
  ],
  "bytecode": "0x608060405234801561001057600080fd5b5061041e806100206000396000f3fe608060405234801561001057600080fd5b5060043610610073577c010000000000000000000000000000000000000000000000000000000060003504630e5a4fbb811461007857806344963610146100ba5780636554adf0146100cf578063889776a814610110578063cb69159914610123575b600080fd5b6100a461008636600461031b565b600160a060020a031660009081526020819052604090205460ff1690565b6040516100b1919061036c565b60405180910390f35b6100cd6100c83660046103ad565b610136565b005b6101006100dd36600461031b565b600160a060020a0316600090815260208190526040902054610100900460ff1690565b60405190151581526020016100b1565b6100cd61011e3660046103ad565b6101bd565b6100cd61013136600461031b565b610279565b8061015181600481111561014c5761014c61033d565b6102bd565b61015a57600080fd5b33600081815260208190526040902054610100900460ff1661017b57600080fd5b600160a060020a038416600090815260208190526040902080548490829060ff191660018360048111156101b1576101b161033d565b02179055505050505050565b806101d381600481111561014c5761014c61033d565b6101dc57600080fd5b600160a060020a0383166000908152602081905260409020548390610100900460ff161561020957600080fd5b33600081815260208190526040902054610100900460ff1661022a57600080fd5b600160a060020a038516600090815260208190526040902080548590829060ff191660018360048111156102605761026061033d565b0217905550805461ff0019166101001790555050505050565b33600081815260208190526040902054610100900460ff1661029a57600080fd5b50600160a060020a03166000908152602081905260409020805461ffff19169055565b60006102ca8260026102d0565b92915050565b60008160048111156102e4576102e461033d565b8360048111156102f6576102f661033d565b10159392505050565b8035600160a060020a038116811461031657600080fd5b919050565b60006020828403121561032d57600080fd5b610336826102ff565b9392505050565b7f4e487b7100000000000000000000000000000000000000000000000000000000600052602160045260246000fd5b60208101600583106103a7577f4e487b7100000000000000000000000000000000000000000000000000000000600052602160045260246000fd5b91905290565b600080604083850312156103c057600080fd5b6103c9836102ff565b91506020830135600581106103dd57600080fd5b80915050925092905056fea264697066735822122016d9f18464739d57bf971a07089d76cdee7cffaac6d08dfc65112af0f04d763864736f6c63430008110033",
  "linkReferences": {},
  "deployedLinkReferences": {}
}