{
  "_format": "hh-sol-artifact-1",
  "contractName": "AlastriaIdentityIssuer",
  "sourceName": "contracts/identity/AlastriaIdentityIssuer.sol",
  "abi": [
    {
      "inputs": [
        {
          "internalType": "address",
          "name": "_identityIssuer",
          "type": "address"
        },
        {
          "internalType": "enum Eidas.EidasLevel",
          "name": "_level",
          "type": "uint8"
        }
      ],
      "name": "addIdentityIssuer",
      "outputs": [],
      "stateMutability": "nonpayable",
      "type": "function"
    },
    {
      "inputs": [
        {
          "internalType": "address",
          "name": "_identityIssuer",
          "type": "address"
        }
      ],
      "name": "deleteIdentityIssuer",
      "outputs": [],
      "stateMutability": "nonpayable",
      "type": "function"
    },
    {
      "inputs": [
        {
          "internalType": "address",
          "name": "_identityIssuer",
          "type": "address"
        }
      ],
      "name": "getEidasLevel",
      "outputs": [
        {
          "internalType": "enum Eidas.EidasLevel",
          "name": "",
          "type": "uint8"
        }
      ],
      "stateMutability": "view",
      "type": "function"
    },
    {
      "inputs": [
        {
          "internalType": "address",
          "name": "_identityIssuer",
          "type": "address"
        }
      ],
      "name": "isIdentityIssuer",
      "outputs": [
        {
          "internalType": "bool",
          "name": "",
          "type": "bool"
        }
      ],
      "stateMutability": "view",
      "type": "function"
    },
    {
      "inputs": [
        {
          "internalType": "address",
          "name": "_identityIssuer",
          "type": "address"
        },
        {
          "internalType": "enum Eidas.EidasLevel",
          "name": "_level",
          "type": "uint8"
        }
      ],
      "name": "updateIdentityIssuerEidasLevel",
      "outputs": [],
      "stateMutability": "nonpayable",
      "type": "function"
    }
  ],
  "bytecode": "0x608060405234801561001057600080fd5b506103d0806100206000396000f3fe608060405234801561001057600080fd5b50600436106100575760003560e01c80630e5a4fbb1461005c578063449636101461009e5780636554adf0146100b3578063889776a8146100f4578063cb69159914610107575b600080fd5b61008861006a3660046102ff565b6001600160a01b031660009081526020819052604090205460ff1690565b6040516100959190610337565b60405180910390f35b6100b16100ac36600461035f565b61011a565b005b6100e46100c13660046102ff565b6001600160a01b0316600090815260208190526040902054610100900460ff1690565b6040519015158152602001610095565b6100b161010236600461035f565b6101a1565b6100b16101153660046102ff565b61025d565b8061013581600481111561013057610130610321565b6102a1565b61013e57600080fd5b33600081815260208190526040902054610100900460ff1661015f57600080fd5b6001600160a01b038416600090815260208190526040902080548490829060ff1916600183600481111561019557610195610321565b02179055505050505050565b806101b781600481111561013057610130610321565b6101c057600080fd5b6001600160a01b0383166000908152602081905260409020548390610100900460ff16156101ed57600080fd5b33600081815260208190526040902054610100900460ff1661020e57600080fd5b6001600160a01b038516600090815260208190526040902080548590829060ff1916600183600481111561024457610244610321565b0217905550805461ff0019166101001790555050505050565b33600081815260208190526040902054610100900460ff1661027e57600080fd5b506001600160a01b03166000908152602081905260409020805461ffff19169055565b60006102ae8260026102b4565b92915050565b60008160048111156102c8576102c8610321565b8360048111156102da576102da610321565b10159392505050565b80356001600160a01b03811681146102fa57600080fd5b919050565b60006020828403121561031157600080fd5b61031a826102e3565b9392505050565b634e487b7160e01b600052602160045260246000fd5b602081016005831061035957634e487b7160e01b600052602160045260246000fd5b91905290565b6000806040838503121561037257600080fd5b61037b836102e3565b915060208301356005811061038f57600080fd5b80915050925092905056fea264697066735822122038bf5a2d608bcb1656ac74ba44627f24662128301a3a2ae6b7df638cc15e27f964736f6c63430008110033",
  "linkReferences": {},
  "deployedLinkReferences": {}
}