{
  "_format": "hh-sol-artifact-1",
  "contractName": "AlastriaIdentityManager",
  "sourceName": "contracts/identity/AlastriaIdentityManager.sol",
  "abi": [
    {
      "anonymous": false,
      "inputs": [
        {
          "indexed": true,
          "internalType": "address",
          "name": "identity",
          "type": "address"
        },
        {
          "indexed": true,
          "internalType": "address",
          "name": "creator",
          "type": "address"
        },
        {
          "indexed": false,
          "internalType": "address",
          "name": "owner",
          "type": "address"
        }
      ],
      "name": "IdentityCreated",
      "type": "event"
    },
    {
      "anonymous": false,
      "inputs": [
        {
          "indexed": true,
          "internalType": "address",
          "name": "oldAccount",
          "type": "address"
        },
        {
          "indexed": false,
          "internalType": "address",
          "name": "newAccount",
          "type": "address"
        },
        {
          "indexed": true,
          "internalType": "address",
          "name": "serviceProvider",
          "type": "address"
        }
      ],
      "name": "IdentityRecovered",
      "type": "event"
    },
    {
      "anonymous": false,
      "inputs": [
        {
          "indexed": false,
          "internalType": "uint8",
          "name": "version",
          "type": "uint8"
        }
      ],
      "name": "Initialized",
      "type": "event"
    },
    {
      "anonymous": false,
      "inputs": [
        {
          "indexed": true,
          "internalType": "string",
          "name": "method",
          "type": "string"
        }
      ],
      "name": "OperationWasNotSupported",
      "type": "event"
    },
    {
      "anonymous": false,
      "inputs": [
        {
          "indexed": true,
          "internalType": "address",
          "name": "previousOwner",
          "type": "address"
        },
        {
          "indexed": true,
          "internalType": "address",
          "name": "newOwner",
          "type": "address"
        }
      ],
      "name": "OwnershipTransferred",
      "type": "event"
    },
    {
      "anonymous": false,
      "inputs": [
        {
          "indexed": true,
          "internalType": "address",
          "name": "signAddress",
          "type": "address"
        }
      ],
      "name": "PreparedAlastriaID",
      "type": "event"
    },
    {
      "inputs": [
        {
          "internalType": "address",
          "name": "_identityIssuer",
          "type": "address"
        },
        {
          "internalType": "enum Eidas.EidasLevel",
          "name": "_level",
          "type": "uint8"
        }
      ],
      "name": "addIdentityIssuer",
      "outputs": [],
      "stateMutability": "nonpayable",
      "type": "function"
    },
    {
      "inputs": [
        {
          "internalType": "address",
          "name": "_identityServiceProvider",
          "type": "address"
        }
      ],
      "name": "addIdentityServiceProvider",
      "outputs": [],
      "stateMutability": "nonpayable",
      "type": "function"
    },
    {
      "inputs": [],
      "name": "alastriaCredentialRegistry",
      "outputs": [
        {
          "internalType": "contract AlastriaCredentialRegistry",
          "name": "",
          "type": "address"
        }
      ],
      "stateMutability": "view",
      "type": "function"
    },
    {
      "inputs": [],
      "name": "alastriaPresentationRegistry",
      "outputs": [
        {
          "internalType": "contract AlastriaPresentationRegistry",
          "name": "",
          "type": "address"
        }
      ],
      "stateMutability": "view",
      "type": "function"
    },
    {
      "inputs": [],
      "name": "alastriaPublicKeyRegistry",
      "outputs": [
        {
          "internalType": "contract AlastriaPublicKeyRegistry",
          "name": "",
          "type": "address"
        }
      ],
      "stateMutability": "view",
      "type": "function"
    },
    {
      "inputs": [
        {
          "internalType": "bytes32",
          "name": "publicKeyHash",
          "type": "bytes32"
        }
      ],
      "name": "createAlastriaIdentity",
      "outputs": [],
      "stateMutability": "nonpayable",
      "type": "function"
    },
    {
      "inputs": [
        {
          "internalType": "bytes",
          "name": "addPublicKeyCallData",
          "type": "bytes"
        }
      ],
      "name": "createAlastriaIdentity",
      "outputs": [],
      "stateMutability": "nonpayable",
      "type": "function"
    },
    {
      "inputs": [
        {
          "internalType": "address",
          "name": "_destination",
          "type": "address"
        },
        {
          "internalType": "uint256",
          "name": "_value",
          "type": "uint256"
        },
        {
          "internalType": "bytes",
          "name": "_data",
          "type": "bytes"
        }
      ],
      "name": "delegateCall",
      "outputs": [
        {
          "internalType": "bytes",
          "name": "",
          "type": "bytes"
        }
      ],
      "stateMutability": "nonpayable",
      "type": "function"
    },
    {
      "inputs": [
        {
          "internalType": "address",
          "name": "_identityIssuer",
          "type": "address"
        }
      ],
      "name": "deleteIdentityIssuer",
      "outputs": [],
      "stateMutability": "nonpayable",
      "type": "function"
    },
    {
      "inputs": [
        {
          "internalType": "address",
          "name": "_identityServiceProvider",
          "type": "address"
        }
      ],
      "name": "deleteIdentityServiceProvider",
      "outputs": [],
      "stateMutability": "nonpayable",
      "type": "function"
    },
    {
      "inputs": [],
      "name": "firstIdentityWallet",
      "outputs": [
        {
          "internalType": "address",
          "name": "",
          "type": "address"
        }
      ],
      "stateMutability": "view",
      "type": "function"
    },
    {
      "inputs": [
        {
          "internalType": "address",
          "name": "_identityIssuer",
          "type": "address"
        }
      ],
      "name": "getEidasLevel",
      "outputs": [
        {
          "internalType": "enum Eidas.EidasLevel",
          "name": "",
          "type": "uint8"
        }
      ],
      "stateMutability": "view",
      "type": "function"
    },
    {
      "inputs": [
        {
          "internalType": "address",
          "name": "",
          "type": "address"
        }
      ],
      "name": "identityKeys",
      "outputs": [
        {
          "internalType": "address",
          "name": "",
          "type": "address"
        }
      ],
      "stateMutability": "view",
      "type": "function"
    },
    {
      "inputs": [
        {
          "internalType": "address",
          "name": "_credentialRegistry",
          "type": "address"
        },
        {
          "internalType": "address",
          "name": "_publicKeyRegistry",
          "type": "address"
        },
        {
          "internalType": "address",
          "name": "_presentationRegistry",
          "type": "address"
        },
        {
          "internalType": "address",
          "name": "_firstIdentityWallet",
          "type": "address"
        }
      ],
      "name": "initialize",
      "outputs": [],
      "stateMutability": "nonpayable",
      "type": "function"
    },
    {
      "inputs": [
        {
          "internalType": "address",
          "name": "_identityIssuer",
          "type": "address"
        }
      ],
      "name": "isIdentityIssuer",
      "outputs": [
        {
          "internalType": "bool",
          "name": "",
          "type": "bool"
        }
      ],
      "stateMutability": "view",
      "type": "function"
    },
    {
      "inputs": [
        {
          "internalType": "address",
          "name": "_identityServiceProvider",
          "type": "address"
        }
      ],
      "name": "isIdentityServiceProvider",
      "outputs": [
        {
          "internalType": "bool",
          "name": "",
          "type": "bool"
        }
      ],
      "stateMutability": "view",
      "type": "function"
    },
    {
      "inputs": [],
      "name": "owner",
      "outputs": [
        {
          "internalType": "address",
          "name": "",
          "type": "address"
        }
      ],
      "stateMutability": "view",
      "type": "function"
    },
    {
      "inputs": [
        {
          "internalType": "address",
          "name": "",
          "type": "address"
        }
      ],
      "name": "pendingIDs",
      "outputs": [
        {
          "internalType": "uint256",
          "name": "",
          "type": "uint256"
        }
      ],
      "stateMutability": "view",
      "type": "function"
    },
    {
      "inputs": [
        {
          "internalType": "address",
          "name": "_signAddress",
          "type": "address"
        }
      ],
      "name": "prepareAlastriaID",
      "outputs": [],
      "stateMutability": "nonpayable",
      "type": "function"
    },
    {
      "inputs": [
        {
          "internalType": "address",
          "name": "accountLost",
          "type": "address"
        },
        {
          "internalType": "address",
          "name": "newAccount",
          "type": "address"
        }
      ],
      "name": "recoverAccount",
      "outputs": [],
      "stateMutability": "nonpayable",
      "type": "function"
    },
    {
      "inputs": [],
      "name": "renounceOwnership",
      "outputs": [],
      "stateMutability": "nonpayable",
      "type": "function"
    },
    {
      "inputs": [
        {
          "internalType": "address",
          "name": "newOwner",
          "type": "address"
        }
      ],
      "name": "transferOwnership",
      "outputs": [],
      "stateMutability": "nonpayable",
      "type": "function"
    },
    {
      "inputs": [
        {
          "internalType": "address",
          "name": "_identityIssuer",
          "type": "address"
        },
        {
          "internalType": "enum Eidas.EidasLevel",
          "name": "_level",
          "type": "uint8"
        }
      ],
      "name": "updateIdentityIssuerEidasLevel",
      "outputs": [],
      "stateMutability": "nonpayable",
      "type": "function"
    },
    {
      "inputs": [],
      "name": "version",
      "outputs": [
        {
          "internalType": "uint256",
          "name": "",
          "type": "uint256"
        }
      ],
      "stateMutability": "view",
      "type": "function"
    }
  ],
  "bytecode": "0x608060405234801561001057600080fd5b5061001a3361001f565b610071565b600280546001600160a01b038381166001600160a01b0319831681179093556040519116919082907f8be0079c531659141344cd1fd0a4f28419497f9722a3daafe3b4186f6b6457e090600090a35050565b611742806100806000396000f3fe608060405234801561001057600080fd5b50600436106101585760003560e01c80636d69d99a116100c3578063cb6915991161007c578063cb6915991461034d578063d024d9a414610360578063dcc30e3514610373578063f014cd4114610386578063f2fde38b14610399578063f8c8765e146103ac57600080fd5b80636d69d99a146102e85780636de41372146102fb578063715018a61461030e578063889776a8146103165780638da5cb5b14610329578063c71cbcf31461033a57600080fd5b80634496361011610115578063449636101461024557806345748b42146102585780634fe2d5951461026b57806354fd4d501461027e578063597b2e9b146102875780636554adf0146102a757600080fd5b80630c91465e1461015d5780630e5a4fbb146101a35780630ebbbffc146101dc5780632773d0fa146101f15780633bf472151461021f57806343eedc7014610232575b600080fd5b61018661016b366004610e11565b6008602052600090815260409020546001600160a01b031681565b6040516001600160a01b0390911681526020015b60405180910390f35b6101cf6101b1366004610e11565b6001600160a01b031660009081526001602052604090205460ff1690565b60405161019a9190610e49565b6101ef6101ea366004610e11565b6103bf565b005b6102116101ff366004610e11565b60096020526000908152604090205481565b60405190815260200161019a565b6101ef61022d366004610e11565b61040c565b600554610186906001600160a01b031681565b6101ef610253366004610e71565b610455565b6101ef610266366004610e11565b6104e2565b6101ef610279366004610eac565b610557565b61021160035481565b61029a610295366004610f8a565b6106c0565b60405161019a9190611031565b6102d86102b5366004610e11565b6001600160a01b0316600090815260016020526040902054610100900460ff1690565b604051901515815260200161019a565b6101ef6102f6366004611044565b61077a565b600754610186906001600160a01b031681565b6101ef6108a4565b6101ef610324366004610e71565b6108b8565b6002546001600160a01b0316610186565b6101ef610348366004611081565b61097a565b6101ef61035b366004610e11565b610a13565b6102d861036e366004610e11565b610a57565b600454610186906001600160a01b031681565b600654610186906001600160a01b031681565b6101ef6103a7366004610e11565b610a75565b6101ef6103ba3660046110b4565b610af3565b336103c981610a57565b6103d257600080fd5b816103dc81610a57565b156103e657600080fd5b50506001600160a01b03166000908152602081905260409020805460ff19166001179055565b8061041681610a57565b61041f57600080fd5b3361042981610a57565b61043257600080fd5b50506001600160a01b03166000908152602081905260409020805460ff19169055565b8061047081600481111561046b5761046b610e33565b610ceb565b61047957600080fd5b33600081815260016020526040902054610100900460ff1661049a57600080fd5b6001600160a01b0384166000908152600160208190526040909120805490918591839160ff19909116908360048111156104d6576104d6610e33565b02179055505050505050565b33600081815260016020526040902054610100900460ff1661050357600080fd5b61050f61271042611108565b6001600160a01b03831660008181526009602052604080822093909355915190917fb95ece7391a260096614d2b042c6cca83dcc5d131f72bc57a157ee2502e7ce5391a25050565b338061056257600080fd5b336000818152600960205260409020541580159061059757506001600160a01b03811660009081526009602052604090205442105b6105a057600080fd5b60006040516105ae90610de8565b604051809103906000f0801580156105ca573d6000803e3d6000fd5b5033600090815260086020908152604080832080546001600160a01b0319166001600160a01b038616179055600990915280822082905551602481018790529192509060440160408051601f198184030181529181526020820180516001600160e01b0316639e2fe0e960e01b179052600654905163d7f31eb960e01b81529192506001600160a01b038085169263d7f31eb9926106719216906000908690600401611129565b6000604051808303816000875af1158015610690573d6000803e3d6000fd5b505050506040513d6000823e601f3d908101601f191682016040526106b89190810190611159565b505050505050565b336000908152600860205260409020546060906001600160a01b03166106e557600080fd5b3360009081526008602052604080822054905163d7f31eb960e01b81526001600160a01b039091169190829063d7f31eb99061072990899089908990600401611129565b6000604051808303816000875af1158015610748573d6000803e3d6000fd5b505050506040513d6000823e601f3d908101601f191682016040526107709190810190611159565b9695505050505050565b338061078557600080fd5b33600081815260096020526040902054158015906107ba57506001600160a01b03811660009081526009602052604090205442105b6107c357600080fd5b60006040516107d190610de8565b604051809103906000f0801580156107ed573d6000803e3d6000fd5b5033600090815260086020908152604080832080546001600160a01b0319166001600160a01b038681169182179092556009909352818420849055600654915163d7f31eb960e01b8152949550919363d7f31eb993610856939290921691908990600401611129565b6000604051808303816000875af1158015610875573d6000803e3d6000fd5b505050506040513d6000823e601f3d908101601f1916820160405261089d9190810190611159565b5050505050565b6108ac610cfe565b6108b66000610d67565b565b806108ce81600481111561046b5761046b610e33565b6108d757600080fd5b6001600160a01b0383166000908152600160205260409020548390610100900460ff161561090457600080fd5b33600081815260016020526040902054610100900460ff1661092557600080fd5b6001600160a01b0385166000908152600160208190526040909120805490918691839160ff199091169083600481111561096157610961610e33565b0217905550805461ff0019166101001790555050505050565b60075433906001600160a01b0316811461099357600080fd5b6001600160a01b03838116600081815260086020908152604080832080548887168086528386208054929098166001600160a01b031992831617909755938590528054909316909255905192835233927ff5cf2e915faa705d003410f0f65cd59606d22f8e7fb7361a015d6a00b7723d99910160405180910390a3505050565b33600081815260016020526040902054610100900460ff16610a3457600080fd5b506001600160a01b03166000908152600160205260409020805461ffff19169055565b6001600160a01b031660009081526020819052604090205460ff1690565b610a7d610cfe565b6001600160a01b038116610ae75760405162461bcd60e51b815260206004820152602660248201527f4f776e61626c653a206e6577206f776e657220697320746865207a65726f206160448201526564647265737360d01b60648201526084015b60405180910390fd5b610af081610d67565b50565b600254600160a81b900460ff1615808015610b1b57506002546001600160a01b90910460ff16105b80610b3c5750303b158015610b3c5750600254600160a01b900460ff166001145b610b9f5760405162461bcd60e51b815260206004820152602e60248201527f496e697469616c697a61626c653a20636f6e747261637420697320616c72656160448201526d191e481a5b9a5d1a585b1a5e995960921b6064820152608401610ade565b6002805460ff60a01b1916600160a01b1790558015610bcc576002805460ff60a81b1916600160a81b1790555b600480546001600160a01b038088166001600160a01b031992831617909255600580548684169083161790556006805492871692909116919091179055604051600090610c1890610de8565b604051809103906000f080158015610c34573d6000803e3d6000fd5b506001600160a01b03848116600090815260086020908152604080832080549486166001600160a01b03199586168117909155600780549095168117909455928252818152828220805460ff19166001908117909155905220805461ffff1916610104179055905050801561089d576002805460ff60a81b19169055604051600181527f7f26b83ff96e1f2b6a682f133852f6798a09c465da95921460cefb38474024989060200160405180910390a15050505050565b6000610cf8826002610db9565b92915050565b33610d116002546001600160a01b031690565b6001600160a01b0316146108b65760405162461bcd60e51b815260206004820181905260248201527f4f776e61626c653a2063616c6c6572206973206e6f7420746865206f776e65726044820152606401610ade565b600280546001600160a01b038381166001600160a01b0319831681179093556040519116919082907f8be0079c531659141344cd1fd0a4f28419497f9722a3daafe3b4186f6b6457e090600090a35050565b6000816004811115610dcd57610dcd610e33565b836004811115610ddf57610ddf610e33565b10159392505050565b610545806111c883390190565b80356001600160a01b0381168114610e0c57600080fd5b919050565b600060208284031215610e2357600080fd5b610e2c82610df5565b9392505050565b634e487b7160e01b600052602160045260246000fd5b6020810160058310610e6b57634e487b7160e01b600052602160045260246000fd5b91905290565b60008060408385031215610e8457600080fd5b610e8d83610df5565b9150602083013560058110610ea157600080fd5b809150509250929050565b600060208284031215610ebe57600080fd5b5035919050565b634e487b7160e01b600052604160045260246000fd5b604051601f8201601f1916810167ffffffffffffffff81118282101715610f0457610f04610ec5565b604052919050565b600067ffffffffffffffff821115610f2657610f26610ec5565b50601f01601f191660200190565b600082601f830112610f4557600080fd5b8135610f58610f5382610f0c565b610edb565b818152846020838601011115610f6d57600080fd5b816020850160208301376000918101602001919091529392505050565b600080600060608486031215610f9f57600080fd5b610fa884610df5565b925060208401359150604084013567ffffffffffffffff811115610fcb57600080fd5b610fd786828701610f34565b9150509250925092565b60005b83811015610ffc578181015183820152602001610fe4565b50506000910152565b6000815180845261101d816020860160208601610fe1565b601f01601f19169290920160200192915050565b602081526000610e2c6020830184611005565b60006020828403121561105657600080fd5b813567ffffffffffffffff81111561106d57600080fd5b61107984828501610f34565b949350505050565b6000806040838503121561109457600080fd5b61109d83610df5565b91506110ab60208401610df5565b90509250929050565b600080600080608085870312156110ca57600080fd5b6110d385610df5565b93506110e160208601610df5565b92506110ef60408601610df5565b91506110fd60608601610df5565b905092959194509250565b80820180821115610cf857634e487b7160e01b600052601160045260246000fd5b60018060a01b03841681528260208201526060604082015260006111506060830184611005565b95945050505050565b60006020828403121561116b57600080fd5b815167ffffffffffffffff81111561118257600080fd5b8201601f8101841361119357600080fd5b80516111a1610f5382610f0c565b8181528560208385010111156111b657600080fd5b611150826020830160208601610fe156fe608060405234801561001057600080fd5b5061001a3361001f565b61006f565b600080546001600160a01b038381166001600160a01b0319831681178455604051919092169283917f8be0079c531659141344cd1fd0a4f28419497f9722a3daafe3b4186f6b6457e09190a35050565b6104c78061007e6000396000f3fe608060405234801561001057600080fd5b506004361061004c5760003560e01c8063715018a6146100515780638da5cb5b1461005b578063d7f31eb91461007b578063f2fde38b1461009b575b600080fd5b6100596100ae565b005b6000546040516001600160a01b0390911681526020015b60405180910390f35b61008e6100893660046102f0565b6100c2565b604051610072919061040b565b6100596100a9366004610425565b610187565b6100b6610205565b6100c0600061026e565b565b60606100cc610205565b600080856001600160a01b031685856040516100e89190610440565b60006040518083038185875af1925050503d8060008114610125576040519150601f19603f3d011682016040523d82523d6000602084013e61012a565b606091505b50915091508161013957600080fd5b856001600160a01b03167f8cd7411f6d2d65dd25e1b8e9e19f9b5b720c01622c9e25049b72837b1bbc17438686846040516101769392919061045c565b60405180910390a295945050505050565b61018f610205565b6001600160a01b0381166101f95760405162461bcd60e51b815260206004820152602660248201527f4f776e61626c653a206e6577206f776e657220697320746865207a65726f206160448201526564647265737360d01b60648201526084015b60405180910390fd5b6102028161026e565b50565b336102186000546001600160a01b031690565b6001600160a01b0316146100c05760405162461bcd60e51b815260206004820181905260248201527f4f776e61626c653a2063616c6c6572206973206e6f7420746865206f776e657260448201526064016101f0565b600080546001600160a01b038381166001600160a01b0319831681178455604051919092169283917f8be0079c531659141344cd1fd0a4f28419497f9722a3daafe3b4186f6b6457e09190a35050565b80356001600160a01b03811681146102d557600080fd5b919050565b634e487b7160e01b600052604160045260246000fd5b60008060006060848603121561030557600080fd5b61030e846102be565b925060208401359150604084013567ffffffffffffffff8082111561033257600080fd5b818601915086601f83011261034657600080fd5b813581811115610358576103586102da565b604051601f8201601f19908116603f01168101908382118183101715610380576103806102da565b8160405282815289602084870101111561039957600080fd5b8260208601602083013760006020848301015280955050505050509250925092565b60005b838110156103d65781810151838201526020016103be565b50506000910152565b600081518084526103f78160208601602086016103bb565b601f01601f19169290920160200192915050565b60208152600061041e60208301846103df565b9392505050565b60006020828403121561043757600080fd5b61041e826102be565b600082516104528184602087016103bb565b9190910192915050565b83815260606020820152600061047560608301856103df565b828103604084015261048781856103df565b969550505050505056fea264697066735822122040ca4bc670986299186d482c2aa98ddb2cfd4e313a96fac89af1fe74cc7f67f164736f6c63430008110033a26469706673582212208b1d6b73fa41c02691285fa12d733be3205ed46dea2d7af10f61823c09d2d55564736f6c63430008110033",
  "linkReferences": {},
  "deployedLinkReferences": {}
}