{
  "_format": "hh-sol-artifact-1",
  "contractName": "AlastriaIdentityManager",
  "sourceName": "contracts/identity/AlastriaIdentityManager.sol",
  "abi": [
    {
      "anonymous": false,
      "inputs": [
        {
          "indexed": true,
          "internalType": "address",
          "name": "identity",
          "type": "address"
        },
        {
          "indexed": true,
          "internalType": "address",
          "name": "creator",
          "type": "address"
        },
        {
          "indexed": false,
          "internalType": "address",
          "name": "owner",
          "type": "address"
        }
      ],
      "name": "IdentityCreated",
      "type": "event"
    },
    {
      "anonymous": false,
      "inputs": [
        {
          "indexed": true,
          "internalType": "address",
          "name": "oldAccount",
          "type": "address"
        },
        {
          "indexed": false,
          "internalType": "address",
          "name": "newAccount",
          "type": "address"
        },
        {
          "indexed": true,
          "internalType": "address",
          "name": "serviceProvider",
          "type": "address"
        }
      ],
      "name": "IdentityRecovered",
      "type": "event"
    },
    {
      "anonymous": false,
      "inputs": [
        {
          "indexed": false,
          "internalType": "uint8",
          "name": "version",
          "type": "uint8"
        }
      ],
      "name": "Initialized",
      "type": "event"
    },
    {
      "anonymous": false,
      "inputs": [
        {
          "indexed": true,
          "internalType": "string",
          "name": "method",
          "type": "string"
        }
      ],
      "name": "OperationWasNotSupported",
      "type": "event"
    },
    {
      "anonymous": false,
      "inputs": [
        {
          "indexed": true,
          "internalType": "address",
          "name": "previousOwner",
          "type": "address"
        },
        {
          "indexed": true,
          "internalType": "address",
          "name": "newOwner",
          "type": "address"
        }
      ],
      "name": "OwnershipTransferred",
      "type": "event"
    },
    {
      "anonymous": false,
      "inputs": [
        {
          "indexed": true,
          "internalType": "address",
          "name": "signAddress",
          "type": "address"
        }
      ],
      "name": "PreparedAlastriaID",
      "type": "event"
    },
    {
      "inputs": [
        {
          "internalType": "address",
          "name": "_identityIssuer",
          "type": "address"
        },
        {
          "internalType": "enum Eidas.EidasLevel",
          "name": "_level",
          "type": "uint8"
        }
      ],
      "name": "addIdentityIssuer",
      "outputs": [],
      "stateMutability": "nonpayable",
      "type": "function"
    },
    {
      "inputs": [
        {
          "internalType": "address",
          "name": "_identityServiceProvider",
          "type": "address"
        }
      ],
      "name": "addIdentityServiceProvider",
      "outputs": [],
      "stateMutability": "nonpayable",
      "type": "function"
    },
    {
      "inputs": [],
      "name": "alastriaCredentialRegistry",
      "outputs": [
        {
          "internalType": "contract AlastriaCredentialRegistry",
          "name": "",
          "type": "address"
        }
      ],
      "stateMutability": "view",
      "type": "function"
    },
    {
      "inputs": [],
      "name": "alastriaPresentationRegistry",
      "outputs": [
        {
          "internalType": "contract AlastriaPresentationRegistry",
          "name": "",
          "type": "address"
        }
      ],
      "stateMutability": "view",
      "type": "function"
    },
    {
      "inputs": [],
      "name": "alastriaPublicKeyRegistry",
      "outputs": [
        {
          "internalType": "contract AlastriaPublicKeyRegistry",
          "name": "",
          "type": "address"
        }
      ],
      "stateMutability": "view",
      "type": "function"
    },
    {
      "inputs": [
        {
          "internalType": "bytes32",
          "name": "publicKeyHash",
          "type": "bytes32"
        }
      ],
      "name": "createAlastriaIdentity",
      "outputs": [],
      "stateMutability": "nonpayable",
      "type": "function"
    },
    {
      "inputs": [
        {
          "internalType": "bytes",
          "name": "addPublicKeyCallData",
          "type": "bytes"
        }
      ],
      "name": "createAlastriaIdentity",
      "outputs": [],
      "stateMutability": "nonpayable",
      "type": "function"
    },
    {
      "inputs": [
        {
          "internalType": "address",
          "name": "_destination",
          "type": "address"
        },
        {
          "internalType": "uint256",
          "name": "_value",
          "type": "uint256"
        },
        {
          "internalType": "bytes",
          "name": "_data",
          "type": "bytes"
        }
      ],
      "name": "delegateCall",
      "outputs": [
        {
          "internalType": "bytes",
          "name": "",
          "type": "bytes"
        }
      ],
      "stateMutability": "nonpayable",
      "type": "function"
    },
    {
      "inputs": [
        {
          "internalType": "address",
          "name": "_identityIssuer",
          "type": "address"
        }
      ],
      "name": "deleteIdentityIssuer",
      "outputs": [],
      "stateMutability": "nonpayable",
      "type": "function"
    },
    {
      "inputs": [
        {
          "internalType": "address",
          "name": "_identityServiceProvider",
          "type": "address"
        }
      ],
      "name": "deleteIdentityServiceProvider",
      "outputs": [],
      "stateMutability": "nonpayable",
      "type": "function"
    },
    {
      "inputs": [],
      "name": "firstIdentityWallet",
      "outputs": [
        {
          "internalType": "address",
          "name": "",
          "type": "address"
        }
      ],
      "stateMutability": "view",
      "type": "function"
    },
    {
      "inputs": [
        {
          "internalType": "address",
          "name": "_identityIssuer",
          "type": "address"
        }
      ],
      "name": "getEidasLevel",
      "outputs": [
        {
          "internalType": "enum Eidas.EidasLevel",
          "name": "",
          "type": "uint8"
        }
      ],
      "stateMutability": "view",
      "type": "function"
    },
    {
      "inputs": [
        {
          "internalType": "address",
          "name": "",
          "type": "address"
        }
      ],
      "name": "identityKeys",
      "outputs": [
        {
          "internalType": "address",
          "name": "",
          "type": "address"
        }
      ],
      "stateMutability": "view",
      "type": "function"
    },
    {
      "inputs": [
        {
          "internalType": "address",
          "name": "_credentialRegistry",
          "type": "address"
        },
        {
          "internalType": "address",
          "name": "_publicKeyRegistry",
          "type": "address"
        },
        {
          "internalType": "address",
          "name": "_presentationRegistry",
          "type": "address"
        },
        {
          "internalType": "address",
          "name": "_firstIdentityWallet",
          "type": "address"
        }
      ],
      "name": "initialize",
      "outputs": [],
      "stateMutability": "nonpayable",
      "type": "function"
    },
    {
      "inputs": [
        {
          "internalType": "address",
          "name": "_identityIssuer",
          "type": "address"
        }
      ],
      "name": "isIdentityIssuer",
      "outputs": [
        {
          "internalType": "bool",
          "name": "",
          "type": "bool"
        }
      ],
      "stateMutability": "view",
      "type": "function"
    },
    {
      "inputs": [
        {
          "internalType": "address",
          "name": "_identityServiceProvider",
          "type": "address"
        }
      ],
      "name": "isIdentityServiceProvider",
      "outputs": [
        {
          "internalType": "bool",
          "name": "",
          "type": "bool"
        }
      ],
      "stateMutability": "view",
      "type": "function"
    },
    {
      "inputs": [],
      "name": "owner",
      "outputs": [
        {
          "internalType": "address",
          "name": "",
          "type": "address"
        }
      ],
      "stateMutability": "view",
      "type": "function"
    },
    {
      "inputs": [
        {
          "internalType": "address",
          "name": "",
          "type": "address"
        }
      ],
      "name": "pendingIDs",
      "outputs": [
        {
          "internalType": "uint256",
          "name": "",
          "type": "uint256"
        }
      ],
      "stateMutability": "view",
      "type": "function"
    },
    {
      "inputs": [
        {
          "internalType": "address",
          "name": "_signAddress",
          "type": "address"
        }
      ],
      "name": "prepareAlastriaID",
      "outputs": [],
      "stateMutability": "nonpayable",
      "type": "function"
    },
    {
      "inputs": [
        {
          "internalType": "address",
          "name": "accountLost",
          "type": "address"
        },
        {
          "internalType": "address",
          "name": "newAccount",
          "type": "address"
        }
      ],
      "name": "recoverAccount",
      "outputs": [],
      "stateMutability": "nonpayable",
      "type": "function"
    },
    {
      "inputs": [],
      "name": "renounceOwnership",
      "outputs": [],
      "stateMutability": "nonpayable",
      "type": "function"
    },
    {
      "inputs": [
        {
          "internalType": "address",
          "name": "newOwner",
          "type": "address"
        }
      ],
      "name": "transferOwnership",
      "outputs": [],
      "stateMutability": "nonpayable",
      "type": "function"
    },
    {
      "inputs": [
        {
          "internalType": "address",
          "name": "_identityIssuer",
          "type": "address"
        },
        {
          "internalType": "enum Eidas.EidasLevel",
          "name": "_level",
          "type": "uint8"
        }
      ],
      "name": "updateIdentityIssuerEidasLevel",
      "outputs": [],
      "stateMutability": "nonpayable",
      "type": "function"
    },
    {
      "inputs": [],
      "name": "version",
      "outputs": [
        {
          "internalType": "uint256",
          "name": "",
          "type": "uint256"
        }
      ],
      "stateMutability": "view",
      "type": "function"
    }
  ],
  "bytecode": "0x608060405234801561001057600080fd5b5061002333640100000000610028810204565b61007a565b60028054600160a060020a03838116600160a060020a0319831681179093556040519116919082907f8be0079c531659141344cd1fd0a4f28419497f9722a3daafe3b4186f6b6457e090600090a35050565b6119c9806100896000396000f3fe608060405234801561001057600080fd5b5060043610610175576000357c0100000000000000000000000000000000000000000000000000000000900480636d69d99a116100e0578063cb69159911610099578063cb6915991461036a578063d024d9a41461037d578063dcc30e3514610390578063f014cd41146103a3578063f2fde38b146103b6578063f8c8765e146103c957600080fd5b80636d69d99a146103055780636de4137214610318578063715018a61461032b578063889776a8146103335780638da5cb5b14610346578063c71cbcf31461035757600080fd5b80634496361011610132578063449636101461026257806345748b42146102755780634fe2d5951461028857806354fd4d501461029b578063597b2e9b146102a45780636554adf0146102c457600080fd5b80630c91465e1461017a5780630e5a4fbb146101c05780630ebbbffc146101f95780632773d0fa1461020e5780633bf472151461023c57806343eedc701461024f575b600080fd5b6101a3610188366004610ff5565b600860205260009081526040902054600160a060020a031681565b604051600160a060020a0390911681526020015b60405180910390f35b6101ec6101ce366004610ff5565b600160a060020a031660009081526001602052604090205460ff1690565b6040516101b79190611030565b61020c610207366004610ff5565b6103dc565b005b61022e61021c366004610ff5565b60096020526000908152604090205481565b6040519081526020016101b7565b61020c61024a366004610ff5565b610429565b6005546101a390600160a060020a031681565b61020c61027036600461105b565b610472565b61020c610283366004610ff5565b6104ff565b61020c610296366004611096565b610574565b61022e60035481565b6102b76102b2366004611177565b610731565b6040516101b7919061121e565b6102f56102d2366004610ff5565b600160a060020a0316600090815260016020526040902054610100900460ff1690565b60405190151581526020016101b7565b61020c610313366004611231565b610804565b6007546101a390600160a060020a031681565b61020c610954565b61020c61034136600461105b565b610968565b600254600160a060020a03166101a3565b61020c61036536600461126e565b610a2a565b61020c610378366004610ff5565b610ad0565b6102f561038b366004610ff5565b610b14565b6004546101a390600160a060020a031681565b6006546101a390600160a060020a031681565b61020c6103c4366004610ff5565b610b32565b61020c6103d73660046112a1565b610be1565b336103e681610b14565b6103ef57600080fd5b816103f981610b14565b1561040357600080fd5b5050600160a060020a03166000908152602081905260409020805460ff19166001179055565b8061043381610b14565b61043c57600080fd5b3361044681610b14565b61044f57600080fd5b5050600160a060020a03166000908152602081905260409020805460ff19169055565b8061048d81600481111561048857610488611017565b610ea8565b61049657600080fd5b33600081815260016020526040902054610100900460ff166104b757600080fd5b600160a060020a0384166000908152600160208190526040909120805490918591839160ff19909116908360048111156104f3576104f3611017565b02179055505050505050565b33600081815260016020526040902054610100900460ff1661052057600080fd5b61052c612710426112f5565b600160a060020a03831660008181526009602052604080822093909355915190917fb95ece7391a260096614d2b042c6cca83dcc5d131f72bc57a157ee2502e7ce5391a25050565b338061057f57600080fd5b33600081815260096020526040902054158015906105b45750600160a060020a03811660009081526009602052604090205442105b6105bd57600080fd5b60006040516105cb90610fcc565b604051809103906000f0801580156105e7573d6000803e3d6000fd5b50336000908152600860209081526040808320805473ffffffffffffffffffffffffffffffffffffffff1916600160a060020a038616179055600990915280822082905551602481018790529192509060440160408051601f198184030181529181526020820180517bffffffffffffffffffffffffffffffffffffffffffffffffffffffff167f9e2fe0e90000000000000000000000000000000000000000000000000000000017905260065490517fd7f31eb9000000000000000000000000000000000000000000000000000000008152919250600160a060020a038085169263d7f31eb9926106e29216906000908690600401611319565b6000604051808303816000875af1158015610701573d6000803e3d6000fd5b505050506040513d6000823e601f3d908101601f19168201604052610729919081019061134a565b505050505050565b33600090815260086020526040902054606090600160a060020a031661075657600080fd5b336000908152600860205260408082205490517fd7f31eb9000000000000000000000000000000000000000000000000000000008152600160a060020a039091169190829063d7f31eb9906107b390899089908990600401611319565b6000604051808303816000875af11580156107d2573d6000803e3d6000fd5b505050506040513d6000823e601f3d908101601f191682016040526107fa919081019061134a565b9695505050505050565b338061080f57600080fd5b33600081815260096020526040902054158015906108445750600160a060020a03811660009081526009602052604090205442105b61084d57600080fd5b600060405161085b90610fcc565b604051809103906000f080158015610877573d6000803e3d6000fd5b50336000908152600860209081526040808320805473ffffffffffffffffffffffffffffffffffffffff1916600160a060020a03868116918217909255600990935281842084905560065491517fd7f31eb9000000000000000000000000000000000000000000000000000000008152949550919363d7f31eb993610906939290921691908990600401611319565b6000604051808303816000875af1158015610925573d6000803e3d6000fd5b505050506040513d6000823e601f3d908101601f1916820160405261094d919081019061134a565b5050505050565b61095c610ebb565b6109666000610f3e565b565b8061097e81600481111561048857610488611017565b61098757600080fd5b600160a060020a0383166000908152600160205260409020548390610100900460ff16156109b457600080fd5b33600081815260016020526040902054610100900460ff166109d557600080fd5b600160a060020a0385166000908152600160208190526040909120805490918691839160ff1990911690836004811115610a1157610a11611017565b0217905550805461ff0019166101001790555050505050565b6007543390600160a060020a03168114610a4357600080fd5b600160a060020a038381166000818152600860209081526040808320805488871680865283862080549290981673ffffffffffffffffffffffffffffffffffffffff1992831617909755938590528054909316909255905192835233927ff5cf2e915faa705d003410f0f65cd59606d22f8e7fb7361a015d6a00b7723d99910160405180910390a3505050565b33600081815260016020526040902054610100900460ff16610af157600080fd5b50600160a060020a03166000908152600160205260409020805461ffff19169055565b600160a060020a031660009081526020819052604090205460ff1690565b610b3a610ebb565b600160a060020a038116610bd5576040517f08c379a000000000000000000000000000000000000000000000000000000000815260206004820152602660248201527f4f776e61626c653a206e6577206f776e657220697320746865207a65726f206160448201527f646472657373000000000000000000000000000000000000000000000000000060648201526084015b60405180910390fd5b610bde81610f3e565b50565b6002547501000000000000000000000000000000000000000000900460ff1615808015610c2c575060025460017401000000000000000000000000000000000000000090910460ff16105b80610c5e5750303b158015610c5e575060025474010000000000000000000000000000000000000000900460ff166001145b610cea576040517f08c379a000000000000000000000000000000000000000000000000000000000815260206004820152602e60248201527f496e697469616c697a61626c653a20636f6e747261637420697320616c72656160448201527f647920696e697469616c697a65640000000000000000000000000000000000006064820152608401610bcc565b6002805474ff00000000000000000000000000000000000000001916740100000000000000000000000000000000000000001790558015610d5d576002805475ff000000000000000000000000000000000000000000191675010000000000000000000000000000000000000000001790555b60048054600160a060020a0380881673ffffffffffffffffffffffffffffffffffffffff1992831617909255600580548684169083161790556006805492871692909116919091179055604051600090610db690610fcc565b604051809103906000f080158015610dd2573d6000803e3d6000fd5b50600160a060020a038481166000908152600860209081526040808320805494861673ffffffffffffffffffffffffffffffffffffffff199586168117909155600780549095168117909455928252818152828220805460ff19166001908117909155905220805461ffff1916610104179055905050801561094d576002805475ff00000000000000000000000000000000000000000019169055604051600181527f7f26b83ff96e1f2b6a682f133852f6798a09c465da95921460cefb38474024989060200160405180910390a15050505050565b6000610eb5826002610f9d565b92915050565b33610ece600254600160a060020a031690565b600160a060020a031614610966576040517f08c379a000000000000000000000000000000000000000000000000000000000815260206004820181905260248201527f4f776e61626c653a2063616c6c6572206973206e6f7420746865206f776e65726044820152606401610bcc565b60028054600160a060020a0383811673ffffffffffffffffffffffffffffffffffffffff19831681179093556040519116919082907f8be0079c531659141344cd1fd0a4f28419497f9722a3daafe3b4186f6b6457e090600090a35050565b6000816004811115610fb157610fb1611017565b836004811115610fc357610fc3611017565b10159392505050565b6105db806113b983390190565b8035600160a060020a0381168114610ff057600080fd5b919050565b60006020828403121561100757600080fd5b61101082610fd9565b9392505050565b60e060020a634e487b7102600052602160045260246000fd5b60208101600583106110555760e060020a634e487b7102600052602160045260246000fd5b91905290565b6000806040838503121561106e57600080fd5b61107783610fd9565b915060208301356005811061108b57600080fd5b809150509250929050565b6000602082840312156110a857600080fd5b5035919050565b60e060020a634e487b7102600052604160045260246000fd5b604051601f8201601f1916810167ffffffffffffffff811182821017156110f1576110f16110af565b604052919050565b600067ffffffffffffffff821115611113576111136110af565b50601f01601f191660200190565b600082601f83011261113257600080fd5b8135611145611140826110f9565b6110c8565b81815284602083860101111561115a57600080fd5b816020850160208301376000918101602001919091529392505050565b60008060006060848603121561118c57600080fd5b61119584610fd9565b925060208401359150604084013567ffffffffffffffff8111156111b857600080fd5b6111c486828701611121565b9150509250925092565b60005b838110156111e95781810151838201526020016111d1565b50506000910152565b6000815180845261120a8160208601602086016111ce565b601f01601f19169290920160200192915050565b60208152600061101060208301846111f2565b60006020828403121561124357600080fd5b813567ffffffffffffffff81111561125a57600080fd5b61126684828501611121565b949350505050565b6000806040838503121561128157600080fd5b61128a83610fd9565b915061129860208401610fd9565b90509250929050565b600080600080608085870312156112b757600080fd5b6112c085610fd9565b93506112ce60208601610fd9565b92506112dc60408601610fd9565b91506112ea60608601610fd9565b905092959194509250565b80820180821115610eb55760e060020a634e487b7102600052601160045260246000fd5b600160a060020a038416815282602082015260606040820152600061134160608301846111f2565b95945050505050565b60006020828403121561135c57600080fd5b815167ffffffffffffffff81111561137357600080fd5b8201601f8101841361138457600080fd5b8051611392611140826110f9565b8181528560208385010111156113a757600080fd5b6113418260208301602086016111ce56fe608060405234801561001057600080fd5b5061002333640100000000610028810204565b610078565b60008054600160a060020a03838116600160a060020a0319831681178455604051919092169283917f8be0079c531659141344cd1fd0a4f28419497f9722a3daafe3b4186f6b6457e09190a35050565b610554806100876000396000f3fe608060405234801561001057600080fd5b5060043610610068577c01000000000000000000000000000000000000000000000000000000006000350463715018a6811461006d5780638da5cb5b14610077578063d7f31eb914610097578063f2fde38b146100b7575b600080fd5b6100756100ca565b005b600054604051600160a060020a0390911681526020015b60405180910390f35b6100aa6100a536600461037d565b6100de565b60405161008e9190610498565b6100756100c53660046104b2565b6101a3565b6100d2610252565b6100dc60006102d5565b565b60606100e8610252565b60008085600160a060020a0316858560405161010491906104cd565b60006040518083038185875af1925050503d8060008114610141576040519150601f19603f3d011682016040523d82523d6000602084013e610146565b606091505b50915091508161015557600080fd5b85600160a060020a03167f8cd7411f6d2d65dd25e1b8e9e19f9b5b720c01622c9e25049b72837b1bbc1743868684604051610192939291906104e9565b60405180910390a295945050505050565b6101ab610252565b600160a060020a038116610246576040517f08c379a000000000000000000000000000000000000000000000000000000000815260206004820152602660248201527f4f776e61626c653a206e6577206f776e657220697320746865207a65726f206160448201527f646472657373000000000000000000000000000000000000000000000000000060648201526084015b60405180910390fd5b61024f816102d5565b50565b33610265600054600160a060020a031690565b600160a060020a0316146100dc576040517f08c379a000000000000000000000000000000000000000000000000000000000815260206004820181905260248201527f4f776e61626c653a2063616c6c6572206973206e6f7420746865206f776e6572604482015260640161023d565b60008054600160a060020a0383811673ffffffffffffffffffffffffffffffffffffffff19831681178455604051919092169283917f8be0079c531659141344cd1fd0a4f28419497f9722a3daafe3b4186f6b6457e09190a35050565b8035600160a060020a038116811461034957600080fd5b919050565b7f4e487b7100000000000000000000000000000000000000000000000000000000600052604160045260246000fd5b60008060006060848603121561039257600080fd5b61039b84610332565b925060208401359150604084013567ffffffffffffffff808211156103bf57600080fd5b818601915086601f8301126103d357600080fd5b8135818111156103e5576103e561034e565b604051601f8201601f19908116603f0116810190838211818310171561040d5761040d61034e565b8160405282815289602084870101111561042657600080fd5b8260208601602083013760006020848301015280955050505050509250925092565b60005b8381101561046357818101518382015260200161044b565b50506000910152565b60008151808452610484816020860160208601610448565b601f01601f19169290920160200192915050565b6020815260006104ab602083018461046c565b9392505050565b6000602082840312156104c457600080fd5b6104ab82610332565b600082516104df818460208701610448565b9190910192915050565b838152606060208201526000610502606083018561046c565b8281036040840152610514818561046c565b969550505050505056fea264697066735822122051545cd860a846f2ee7eff8a38def630f73236950e0b49543e9bc17c5cea84e564736f6c63430008110033a26469706673582212208ada56c3d8dff502cb23e5323fc979aa77a5669d17791c5293d6807226a880c564736f6c63430008110033",
  "linkReferences": {},
  "deployedLinkReferences": {}
}